{
  "_format": "hh-sol-artifact-1",
  "contractName": "SplenexAdvancedSwapContract",
  "sourceName": "contracts/SplenexAdvancedSwapContract.sol",
  "abi": [
    {
      "inputs": [
        {
          "internalType": "address",
          "name": "_revenueWallet",
          "type": "address"
        }
      ],
      "stateMutability": "nonpayable",
      "type": "constructor"
    },
    {
      "inputs": [],
      "name": "InsufficientBalance",
      "type": "error"
    },
    {
      "inputs": [],
      "name": "InvalidAmount",
      "type": "error"
    },
    {
      "inputs": [],
      "name": "InvalidRouter",
      "type": "error"
    },
    {
      "inputs": [],
      "name": "InvalidTokenAddress",
      "type": "error"
    },
    {
      "inputs": [],
      "name": "SwapFailed",
      "type": "error"
    },
    {
      "inputs": [],
      "name": "TransferFailed",
      "type": "error"
    },
    {
      "inputs": [],
      "name": "UnsupportedDEX",
      "type": "error"
    },
    {
      "anonymous": false,
      "inputs": [
        {
          "indexed": false,
          "internalType": "uint256",
          "name": "chainId",
          "type": "uint256"
        },
        {
          "indexed": false,
          "internalType": "string",
          "name": "dexName",
          "type": "string"
        },
        {
          "indexed": false,
          "internalType": "address",
          "name": "router",
          "type": "address"
        }
      ],
      "name": "DEXRouterUpdated",
      "type": "event"
    },
    {
      "anonymous": false,
      "inputs": [
        {
          "indexed": true,
          "internalType": "address",
          "name": "previousOwner",
          "type": "address"
        },
        {
          "indexed": true,
          "internalType": "address",
          "name": "newOwner",
          "type": "address"
        }
      ],
      "name": "OwnershipTransferred",
      "type": "event"
    },
    {
      "anonymous": false,
      "inputs": [
        {
          "indexed": true,
          "internalType": "address",
          "name": "user",
          "type": "address"
        },
        {
          "indexed": true,
          "internalType": "address",
          "name": "tokenIn",
          "type": "address"
        },
        {
          "indexed": true,
          "internalType": "address",
          "name": "tokenOut",
          "type": "address"
        },
        {
          "indexed": false,
          "internalType": "uint256",
          "name": "amountIn",
          "type": "uint256"
        },
        {
          "indexed": false,
          "internalType": "uint256",
          "name": "gasFeeTax",
          "type": "uint256"
        },
        {
          "indexed": false,
          "internalType": "uint256",
          "name": "amountOut",
          "type": "uint256"
        },
        {
          "indexed": false,
          "internalType": "string",
          "name": "dexUsed",
          "type": "string"
        }
      ],
      "name": "SwapExecuted",
      "type": "event"
    },
    {
      "inputs": [],
      "name": "GAS_FEE_TAX_RATE_BPS",
      "outputs": [
        {
          "internalType": "uint256",
          "name": "",
          "type": "uint256"
        }
      ],
      "stateMutability": "view",
      "type": "function"
    },
    {
      "inputs": [],
      "name": "LIFI_CONTRACT",
      "outputs": [
        {
          "internalType": "address",
          "name": "",
          "type": "address"
        }
      ],
      "stateMutability": "view",
      "type": "function"
    },
    {
      "inputs": [
        {
          "internalType": "uint256",
          "name": "gasUsed",
          "type": "uint256"
        }
      ],
      "name": "calculateGasFeeTax",
      "outputs": [
        {
          "internalType": "uint256",
          "name": "gasFeeTax",
          "type": "uint256"
        }
      ],
      "stateMutability": "view",
      "type": "function"
    },
    {
      "inputs": [
        {
          "internalType": "uint256",
          "name": "",
          "type": "uint256"
        },
        {
          "internalType": "string",
          "name": "",
          "type": "string"
        }
      ],
      "name": "dexRouters",
      "outputs": [
        {
          "internalType": "address",
          "name": "",
          "type": "address"
        }
      ],
      "stateMutability": "view",
      "type": "function"
    },
    {
      "inputs": [
        {
          "internalType": "address",
          "name": "token",
          "type": "address"
        },
        {
          "internalType": "uint256",
          "name": "amount",
          "type": "uint256"
        }
      ],
      "name": "emergencyWithdraw",
      "outputs": [],
      "stateMutability": "nonpayable",
      "type": "function"
    },
    {
      "inputs": [
        {
          "internalType": "string",
          "name": "dexName",
          "type": "string"
        }
      ],
      "name": "getDEXRouter",
      "outputs": [
        {
          "internalType": "address",
          "name": "",
          "type": "address"
        }
      ],
      "stateMutability": "view",
      "type": "function"
    },
    {
      "inputs": [],
      "name": "getSupportedDEXes",
      "outputs": [
        {
          "internalType": "string[]",
          "name": "",
          "type": "string[]"
        }
      ],
      "stateMutability": "view",
      "type": "function"
    },
    {
      "inputs": [
        {
          "internalType": "string",
          "name": "dexName",
          "type": "string"
        }
      ],
      "name": "isDEXSupported",
      "outputs": [
        {
          "internalType": "bool",
          "name": "",
          "type": "bool"
        }
      ],
      "stateMutability": "view",
      "type": "function"
    },
    {
      "inputs": [
        {
          "internalType": "address[]",
          "name": "path",
          "type": "address[]"
        },
        {
          "internalType": "uint256",
          "name": "amountIn",
          "type": "uint256"
        },
        {
          "internalType": "uint256",
          "name": "minAmountOut",
          "type": "uint256"
        },
        {
          "internalType": "string",
          "name": "dexName",
          "type": "string"
        },
        {
          "internalType": "bytes",
          "name": "swapData",
          "type": "bytes"
        }
      ],
      "name": "multiHopSwap",
      "outputs": [],
      "stateMutability": "payable",
      "type": "function"
    },
    {
      "inputs": [],
      "name": "owner",
      "outputs": [
        {
          "internalType": "address",
          "name": "",
          "type": "address"
        }
      ],
      "stateMutability": "view",
      "type": "function"
    },
    {
      "inputs": [],
      "name": "renounceOwnership",
      "outputs": [],
      "stateMutability": "nonpayable",
      "type": "function"
    },
    {
      "inputs": [],
      "name": "revenueWallet",
      "outputs": [
        {
          "internalType": "address",
          "name": "",
          "type": "address"
        }
      ],
      "stateMutability": "view",
      "type": "function"
    },
    {
      "inputs": [
        {
          "internalType": "uint256",
          "name": "",
          "type": "uint256"
        }
      ],
      "name": "supportedDEXes",
      "outputs": [
        {
          "internalType": "string",
          "name": "",
          "type": "string"
        }
      ],
      "stateMutability": "view",
      "type": "function"
    },
    {
      "inputs": [
        {
          "internalType": "address",
          "name": "tokenOut",
          "type": "address"
        },
        {
          "internalType": "uint256",
          "name": "minAmountOut",
          "type": "uint256"
        },
        {
          "internalType": "string",
          "name": "dexName",
          "type": "string"
        },
        {
          "internalType": "bytes",
          "name": "swapData",
          "type": "bytes"
        }
      ],
      "name": "swapETHWithDEX",
      "outputs": [],
      "stateMutability": "payable",
      "type": "function"
    },
    {
      "inputs": [
        {
          "internalType": "address",
          "name": "tokenIn",
          "type": "address"
        },
        {
          "internalType": "uint256",
          "name": "amountIn",
          "type": "uint256"
        },
        {
          "internalType": "uint256",
          "name": "minAmountOut",
          "type": "uint256"
        },
        {
          "internalType": "string",
          "name": "dexName",
          "type": "string"
        },
        {
          "internalType": "bytes",
          "name": "swapData",
          "type": "bytes"
        }
      ],
      "name": "swapToETHWithDEX",
      "outputs": [],
      "stateMutability": "payable",
      "type": "function"
    },
    {
      "inputs": [
        {
          "internalType": "address",
          "name": "tokenIn",
          "type": "address"
        },
        {
          "internalType": "uint256",
          "name": "amountIn",
          "type": "uint256"
        },
        {
          "internalType": "bytes",
          "name": "liFiCalldata",
          "type": "bytes"
        },
        {
          "internalType": "address",
          "name": "toToken",
          "type": "address"
        },
        {
          "internalType": "uint256",
          "name": "minAmountOut",
          "type": "uint256"
        },
        {
          "internalType": "uint256",
          "name": "lifiExpectedAmount",
          "type": "uint256"
        }
      ],
      "name": "swapTokenViaLiFi",
      "outputs": [],
      "stateMutability": "payable",
      "type": "function"
    },
    {
      "inputs": [
        {
          "internalType": "bytes",
          "name": "liFiCalldata",
          "type": "bytes"
        },
        {
          "internalType": "address",
          "name": "toToken",
          "type": "address"
        },
        {
          "internalType": "uint256",
          "name": "minAmountOut",
          "type": "uint256"
        },
        {
          "internalType": "uint256",
          "name": "lifiExpectedAmount",
          "type": "uint256"
        }
      ],
      "name": "swapViaLiFi",
      "outputs": [],
      "stateMutability": "payable",
      "type": "function"
    },
    {
      "inputs": [
        {
          "internalType": "address",
          "name": "tokenIn",
          "type": "address"
        },
        {
          "internalType": "address",
          "name": "tokenOut",
          "type": "address"
        },
        {
          "internalType": "uint256",
          "name": "amountIn",
          "type": "uint256"
        },
        {
          "internalType": "uint256",
          "name": "minAmountOut",
          "type": "uint256"
        },
        {
          "internalType": "string",
          "name": "dexName",
          "type": "string"
        },
        {
          "internalType": "bytes",
          "name": "swapData",
          "type": "bytes"
        }
      ],
      "name": "swapWithDEX",
      "outputs": [],
      "stateMutability": "payable",
      "type": "function"
    },
    {
      "inputs": [
        {
          "internalType": "address",
          "name": "newOwner",
          "type": "address"
        }
      ],
      "name": "transferOwnership",
      "outputs": [],
      "stateMutability": "nonpayable",
      "type": "function"
    },
    {
      "inputs": [
        {
          "internalType": "uint256",
          "name": "chainId",
          "type": "uint256"
        },
        {
          "internalType": "string",
          "name": "dexName",
          "type": "string"
        },
        {
          "internalType": "address",
          "name": "routerAddress",
          "type": "address"
        }
      ],
      "name": "updateDEXRouter",
      "outputs": [],
      "stateMutability": "nonpayable",
      "type": "function"
    },
    {
      "stateMutability": "payable",
      "type": "receive"
    }
  ],
  "bytecode": "0x60a0346200045757601f620020ad38819003828101601f1990811685019493926001600160401b0392838711868810176200045c57808692604098895283396020958691810103126200045757516001600160a01b038082169590949091868103620004575760019560009787895587543360018060a01b031982161789558a51923391167f8be0079c531659141344cd1fd0a4f28419497f9722a3daafe3b4186f6b6457e08b80a31562000448575060805286519361014085018581108282111762000434578852620000d262000472565b600d81526c3830b731b0b5b2a9bbb0b82b1960991b848201528552620000f762000472565b60098152683ab734b9bbb0b82b1960b91b84820152838601526200011a62000472565b600981526807375736869737761760bc1b84820152888601526200013d62000472565b60098152680717569636b737761760bc1b8482015260608601526200016162000472565b60098152687472616465726a6f6560b81b8482015260808601526200018562000472565b94600a95868152690737069726974737761760b41b8582015260a0820152620001ad62000472565b86815269073706f6f6b79737761760b41b8582015260c0820152620001d162000472565b60078152660617065737761760cc1b8582015260e0820152620001f362000472565b600681526506269737761760d41b858201526101008201526200021562000472565b60048152630dac8caf60e31b858201526101208201526003908154878355808810620003bb575b5094928189528489209389965b88881062000293578b51611bc49081620004e9823960805181818161038b015281816106cf015281816109e101528181610c6301528181610de50152818161105201526113370152f35b8051908151868111620003a7578b9189918e620002b18b5462000492565b8881116200036c575b508390888311600114620002fd5790859683620002f1575b5050600019828a1b1c191690841b1789555b0196019701969462000249565b015190503880620002d2565b908783168c8352858320925b8181106200034857509086978488959493106200032f575b505050811b018955620002e4565b0151600019838c1b60f8161c1916905538808062000321565b9497939686929691938786015181550195019301928f95929693918d959262000309565b62000396908c835285832060058b808701821c8301938988106200039d575b01901c0190620004cf565b38620002ba565b935082936200038b565b634e487b7160e01b8d52604160045260248dfd5b828a528888878c2092830192015b828110620003d95750506200023c565b8b620003e6825462000492565b80620003f8575b5050018990620003c9565b8881116001146200040f575081555b8b38620003ed565b8282526200042a898b8420920160051c8201858301620004cf565b8183555562000407565b634e487b7160e01b88526041600452602488fd5b630f58058360e11b8152600490fd5b600080fd5b634e487b7160e01b600052604160045260246000fd5b60408051919082016001600160401b038111838210176200045c57604052565b90600182811c92168015620004c4575b6020831014620004ae57565b634e487b7160e01b600052602260045260246000fd5b91607f1691620004a2565b818110620004db575050565b60008155600101620004cf56fe60406080815260049081361015610020575b5050361561001e57600080fd5b005b600091823560e01c806303dfbc0014611140578063075c399314610fa8578063108e3c9914610f79578063386e07bf14610e775780633c7dccde14610c925780634447842514610c4e5780634caf81f514610be857806353326fa314610b40578063596bfce814610b23578063715018a614610ac657806378e3399d14610a6257806383e201b4146108cf57806389b476ec146107e95780638da5cb5b146107c057806395ccea67146107465780639be2ee4b146105b7578063c0f0310514610560578063d0ff8cd914610241578063d88545ba146101d75763f2fde38b146101095750610011565b346101d35760203660031901126101d357610122611414565b9061012b611595565b6001600160a01b03918216928315610181575050600154826bffffffffffffffffffffffff60a01b821617600155167f8be0079c531659141344cd1fd0a4f28419497f9722a3daafe3b4186f6b6457e08380a380f35b906020608492519162461bcd60e51b8352820152602660248201527f4f776e61626c653a206e6577206f776e657220697320746865207a65726f206160448201526564647265737360d01b6064820152fd5b8280fd5b50346101d35760203660031901126101d35780356001600160401b03811161023d579261020a83926020953691016113cc565b929091468152600286522091808451928337810191825290819003830190205490516001600160a01b0390911615158152f35b8380fd5b5060c03660031901126101d357610256611414565b9160243590604435926001600160401b039384811161055c5761027c90369083016113cc565b916064359660018060a01b038089168099036105585760a4359161029e61169a565b169687158015610550575b610540578615610530578160011c946102c28684611b61565b92833410610520576102d68930338d611738565b875195636eb1769f60e11b87523086880152731231deb6f5749ef6ce6943a275a1d3e7486f4eae938460248901528d888d81604460209c8d935afa91821561051557916104e4575b5061048257895163095ea7b360e01b898201526024810186905260448082018d9052815290608082019081118282101761046f57916103658f9694928e8897958e5261178c565b828b519384928337810185815203925af161037e611623565b50156104605788808080877f00000000000000000000000000000000000000000000000000000000000000005af16103b4611623565b501561045157906103c98995949392346115ed565b8061041e575b5050825194855284015282015260806060820152600080516020611b6f8339815191523391806104146080820160409060048152636c69666960e01b60208201520190565b0390a46001815580f35b948080809394959697335af1610432611623565b5015610443579081889493926103cf565b83516312171d8360e31b8152fd5b5083516312171d8360e31b8152fd5b50835163081ceff360e41b8152fd5b634e487b7160e01b8f526041885260248ffd5b895162461bcd60e51b8152808801899052603660248201527f5361666545524332303a20617070726f76652066726f6d206e6f6e2d7a65726f60448201527520746f206e6f6e2d7a65726f20616c6c6f77616e636560501b6064820152608490fd5b90508881813d831161050e575b6104fb8183611472565b8101031261050a57513861031e565b8e80fd5b503d6104f1565b8c51903d90823e3d90fd5b8751631e9acf1760e31b81528590fd5b855163162908e360e11b81528390fd5b8551630f58058360e11b81528390fd5b5088156102a9565b8980fd5b8680fd5b5082346105b45760203660031901126105b45761057e3a8335611610565b91611388928381029381850414901517156105a157602083612710865191048152f35b634e487b7160e01b825260119052602490fd5b80fd5b50919060a0366003190112610742576105ce611414565b92602435906001600160401b0360643581811161073e576105f290369084016113cc565b9160843590811161055c5761060a90369085016113cc565b95909761061561169a565b6001600160a01b03811696871561072e57861561071e575a9961063a8830338c611738565b8585896044359061064a96611930565b975a610655916115ed565b3a61065f91611610565b6113889081810291818304149015171561070b57612710900493846106c8575b878080808c335af161068f611623565b50156106ba5750869792600080516020611b6f83398151915294926104149251948594339886611674565b90516312171d8360e31b8152fd5b87808080887f00000000000000000000000000000000000000000000000000000000000000005af16106f8611623565b5061067f5790516312171d8360e31b8152fd5b634e487b7160e01b885260118552602488fd5b825163162908e360e11b81528690fd5b8251630f58058360e11b81528690fd5b8580fd5b5080fd5b5090346101d357806003193601126101d35782610761611414565b6024359061076d611595565b6001600160a01b03908116806107a957508280928192600154165af1610791611623565b501561079c57505080f35b516312171d8360e31b8152fd5b92509092506107bd935060015416906116f0565b80f35b50503461074257816003193601126107425760015490516001600160a01b039091168152602090f35b509190346107425760603660031901126107425782356024356001600160401b03811161023d5761081d90369086016113cc565b9290946044359060018060a01b03821680920361073e5761083c611595565b81156108c157506108b78596847f89d28388318bab8fa8f1b13024d02b273ad19672c583ce86798dda98044f3eb0975260026020528388206020855180928985833789820190815203019020836bffffffffffffffffffffffff60a01b82541617905583519586958652606060208701526060860191611653565b918301520390a180f35b825163466d7fef60e01b8152fd5b5060c03660031901126101d3576108e4611414565b906108ed6113fe565b604435916001600160401b03608435818111610a5e5761091090369084016113cc565b9160a435908111610a5a5761092890369085016113cc565b96909461093361169a565b6001600160a01b038281169890929089158015610a50575b610a40578815610a30575a976109638a30338e611738565b86868b6064359061097396611930565b955a61097e916115ed565b3a61098891611610565b61138890818102918183041490151715610a1d57612710900494856109da575b5091600080516020611b6f833981519152959493916104149316986109ce86338c6116f0565b51948594339886611674565b8a808080897f00000000000000000000000000000000000000000000000000000000000000005af1610a0a611623565b506109a85789516312171d8360e31b8152fd5b634e487b7160e01b8b526011865260248bfd5b8a5163162908e360e11b81528790fd5b8a51630f58058360e11b81528790fd5b508383161561094b565b8880fd5b8780fd5b50346101d35760203660031901126101d35780356001600160401b03811161023d5792610a9583926020953691016113cc565b929091468152600286522091808451928337810191825290819003830190205490516001600160a01b039091168152f35b83346105b457806003193601126105b457610adf611595565b600180546001600160a01b0319811690915581906001600160a01b03167f8be0079c531659141344cd1fd0a4f28419497f9722a3daafe3b4186f6b6457e08280a380f35b505034610742578160031936011261074257602090516113888152f35b50346101d357816003193601126101d3576024356001600160401b03811161023d573660238201121561023d578082013591610b7b8361157a565b92610b8885519485611472565b8084526020840192366024838301011161055c57918660208381999460248a9701883787010152358152600286522091610bc984519283925192839161142a565b810191825290819003830190205490516001600160a01b039091168152f35b50346101d35760203660031901126101d357356003548110156101d357610c37906003610c4a94527fc2575a0e9e593c00f959f8c92f12db2869c3395a3b0502d05e2516446f71f85b016114a9565b905191829160208352602083019061144d565b0390f35b505034610742578160031936011261074257517f00000000000000000000000000000000000000000000000000000000000000006001600160a01b03168152602090f35b508290608036600319011261074257610ca9611414565b906001600160401b03604435818111610e7357610cc990369084016113cc565b93909160643590811161073e57610ce390369085016113cc565b9490610ced61169a565b6001600160a01b03928316958615610e63573415610e53575a93468952600260205289892060208b518092878a8337878201908152030190205416918215610e43579181899384938c5192839283378101848152039134905af1610d4f611623565b9015610e335760208180518101031261055c5760200151916024358310610e3357610d7e610d85915a906115ed565b3a90611610565b966113889788810298818a041490151715610e20576127108798979697049485610dd9575b50829161041491610dcc600080516020611b6f8339815191529695338b6116f0565b5193849333973486611674565b909192939495808080897f00000000000000000000000000000000000000000000000000000000000000005af1610e0e611623565b50156106ba5790879594939291610daa565b634e487b7160e01b875260118552602487fd5b875163081ceff360e41b81528590fd5b8951634a92f12b60e01b81528790fd5b885163162908e360e11b81528690fd5b8851630f58058360e11b81528690fd5b8480fd5b50829034610742578160031936011261074257600354906001600160401b038211610f665750825191602092610eb2848460051b0182611472565b8281526003825283810192827fc2575a0e9e593c00f959f8c92f12db2869c3395a3b0502d05e2516446f71f85b855b838310610f4257505050508451938085019181865251809252858501958260051b8601019392955b828710610f165785850386f35b909192938280610f32600193603f198a8203018652885161144d565b9601920196019592919092610f09565b6001888192610f54859b98999b6114a9565b81520192019201919096949396610ee1565b634e487b7160e01b835260419052602482fd5b50503461074257816003193601126107425760209051731231deb6f5749ef6ce6943a275a1d3e7486f4eae8152f35b509060803660031901126101d35781356001600160401b03811161023d57610fd390369084016113cc565b919092610fde6113fe565b9360643594610feb61169a565b6001600160a01b0316948515611130578060011c9461100a8683611b61565b92833410611120579181899384938851928392833781018481520391731231deb6f5749ef6ce6943a275a1d3e7486f4eae5af1611045611623565b50156111115785808080877f00000000000000000000000000000000000000000000000000000000000000005af161107b611623565b5015611102579061108f86949392346115ed565b806110df575b50508083915192828452602084015282015260806060820152600080516020611b6f8339815191523391806104146080820160409060048152636c69666960e01b60208201520190565b9380808093949596335af16110f2611623565b50156106ba579081859392611095565b5090516312171d8360e31b8152fd5b50905163081ceff360e41b8152fd5b8551631e9acf1760e31b81528590fd5b8351630f58058360e11b81528390fd5b50919060a0366003190112610742578235906001600160401b0380831161023d573660238401121561023d578285013591818311610e7357602492838501948436918360051b01011161073e57833592606435818111610a5e576111a79036908a016113cc565b929091608435908111610a5a576111c19036908b016113cc565b9990916111cc61169a565b600281106113bd5786156113bd575a9281156113ab578a9b8a888a9b9c9d61120b6112019c60018060a01b03809e8196611b4d565b1630903390611738565b46815260026020522060208a5180928b8b83378b820190815203019020541691821561139b57918d92918380938f8e858f61124861124e94611b4d565b166119f3565b828c519384928337810182815203925af1611267611623565b901561138757602081805181010312611397576020015192604435841061138757610d7e611296915a906115ed565b611388908181029181830414901517156113755761271090049889611330575b60001982019282841161131f575050918661130e6112fd6104149694600080516020611b6f8339815191529a9998966113088f6112fd8833896113026112fd898988611b27565b611b4d565b166116f0565b9e611b27565b9551968796169a1698339886611674565b634e487b7160e01b8d52601190528bfd5b8b8080808d7f00000000000000000000000000000000000000000000000000000000000000005af1611360611623565b506112b65786516312171d8360e31b81528390fd5b634e487b7160e01b8c5260118352898cfd5b865163081ceff360e41b81528390fd5b8b80fd5b8851634a92f12b60e01b81528590fd5b634e487b7160e01b8b5260328352888bfd5b50845163162908e360e11b8152fd5b9181601f840112156113f9578235916001600160401b0383116113f957602083818601950101116113f957565b600080fd5b602435906001600160a01b03821682036113f957565b600435906001600160a01b03821682036113f957565b60005b83811061143d5750506000910152565b818101518382015260200161142d565b906020916114668151809281855285808601910161142a565b601f01601f1916010190565b90601f801991011681019081106001600160401b0382111761149357604052565b634e487b7160e01b600052604160045260246000fd5b90604051906000835490600182811c90808416968715611570575b602094858410891461155c578798848997989952908160001461153a57506001146114fb575b5050506114f992500383611472565b565b600090815285812095935091905b8183106115225750506114f993508201013880806114ea565b85548884018501529485019487945091830191611509565b925050506114f994925060ff191682840152151560051b8201013880806114ea565b634e487b7160e01b85526022600452602485fd5b91607f16916114c4565b6001600160401b03811161149357601f01601f191660200190565b6001546001600160a01b031633036115a957565b606460405162461bcd60e51b815260206004820152602060248201527f4f776e61626c653a2063616c6c6572206973206e6f7420746865206f776e65726044820152fd5b919082039182116115fa57565b634e487b7160e01b600052601160045260246000fd5b818102929181159184041417156115fa57565b3d1561164e573d906116348261157a565b916116426040519384611472565b82523d6000602084013e565b606090565b908060209392818452848401376000828201840152601f01601f1916010190565b909260809261169796948352602083015260408201528160608201520191611653565b90565b6002600054146116ab576002600055565b60405162461bcd60e51b815260206004820152601f60248201527f5265656e7472616e637947756172643a207265656e7472616e742063616c6c006044820152606490fd5b60405163a9059cbb60e01b60208201526001600160a01b03909216602483015260448201929092526114f99161173382606481015b03601f198101845283611472565b61178c565b6040516323b872dd60e01b60208201526001600160a01b03928316602482015292909116604483015260648083019390935291815260a08101918183106001600160401b03841117611493576114f9926040525b60018060a01b03169060405160408101908082106001600160401b03831117611493576117fd916040526020938482527f5361666545524332303a206c6f772d6c6576656c2063616c6c206661696c6564858301526000808587829751910182855af16117f7611623565b91611893565b80519182159184831561186f575b5050509050156118185750565b6084906040519062461bcd60e51b82526004820152602a60248201527f5361666545524332303a204552433230206f7065726174696f6e20646964206e6044820152691bdd081cdd58d8d9595960b21b6064820152fd5b919381809450010312610742578201519081151582036105b457508038808461180b565b919290156118f557508151156118a7575090565b3b156118b05790565b60405162461bcd60e51b815260206004820152601d60248201527f416464726573733a2063616c6c20746f206e6f6e2d636f6e74726163740000006044820152606490fd5b8251909150156119085750805190602001fd5b60405162461bcd60e51b81526020600482015290819061192c90602483019061144d565b0390fd5b9293949095919560009446865260026020526040968787209080895193843782019081528190036020019020546001600160a01b039081169485156119e257926119848796949385889795948895166119f3565b8288519384928337810182815203925af19061199e611623565b91156119d1576020828051810103126105b45750602001519182106119c1575090565b5163081ceff360e41b8152600490fd5b825163081ceff360e41b8152600490fd5b8751634a92f12b60e01b8152600490fd5b91909181158015611aa2575b15611a3e5760405163095ea7b360e01b60208201526001600160a01b03909316602484015260448301919091526114f991906117338260648101611725565b60405162461bcd60e51b815260206004820152603660248201527f5361666545524332303a20617070726f76652066726f6d206e6f6e2d7a65726f60448201527520746f206e6f6e2d7a65726f20616c6c6f77616e636560501b6064820152608490fd5b50604051636eb1769f60e11b81523060048201526001600160a01b0384811660248301526020908290604490829086165afa908115611b1b57600091611aea575b50156119ff565b906020823d8211611b13575b81611b0360209383611472565b810103126105b457505138611ae3565b3d9150611af6565b6040513d6000823e3d90fd5b9190811015611b375760051b0190565b634e487b7160e01b600052603260045260246000fd5b356001600160a01b03811681036113f95790565b919082018092116115fa5756fe724ef2525566d177428085a63ac07146a393ad3a7737e1a9c2349496a33764cfa2646970667358221220b09e4ce105b5a0f85e35ff3337246cd133f06700830004aa502bf16a806bc3b464736f6c63430008130033",
  "linkReferences": {},
  "deployedLinkReferences": {}
}