{
  "_format": "hh-sol-artifact-1",
  "contractName": "SplenexRevenueCollector",
  "sourceName": "contracts/SplenexRevenueCollector.sol",
  "abi": [
    {
      "inputs": [
        {
          "internalType": "address",
          "name": "_revenueWallet",
          "type": "address"
        }
      ],
      "stateMutability": "nonpayable",
      "type": "constructor"
    },
    {
      "anonymous": false,
      "inputs": [
        {
          "indexed": true,
          "internalType": "address",
          "name": "user",
          "type": "address"
        },
        {
          "indexed": false,
          "internalType": "uint256",
          "name": "taxAmount",
          "type": "uint256"
        },
        {
          "indexed": false,
          "internalType": "uint256",
          "name": "swapAmount",
          "type": "uint256"
        }
      ],
      "name": "RevenueCollected",
      "type": "event"
    },
    {
      "inputs": [],
      "name": "owner",
      "outputs": [
        {
          "internalType": "address",
          "name": "",
          "type": "address"
        }
      ],
      "stateMutability": "view",
      "type": "function"
    },
    {
      "inputs": [],
      "name": "revenueWallet",
      "outputs": [
        {
          "internalType": "address",
          "name": "",
          "type": "address"
        }
      ],
      "stateMutability": "view",
      "type": "function"
    },
    {
      "inputs": [],
      "name": "withdrawStuckFunds",
      "outputs": [],
      "stateMutability": "nonpayable",
      "type": "function"
    },
    {
      "stateMutability": "payable",
      "type": "receive"
    }
  ],
  "bytecode": "0x60c0346100cf57601f6104c238819003918201601f19168301916001600160401b038311848410176100d4578084926020946040528339810103126100cf57516001600160a01b0381168082036100cf571561008a576080523360a0526040516103d790816100eb823960805181818160d00152610311015260a0518181816101a001526102ca0152f35b60405162461bcd60e51b815260206004820152601660248201527f496e76616c696420726576656e75652077616c6c6574000000000000000000006044820152606490fd5b600080fd5b634e487b7160e01b600052604160045260246000fdfe6080604081815260049182361015610162575b50361561001e57600080fd5b60143404918234039034821161014d57836100c8575b83340361006f575b50907f7bf13ec77f235dc6a5aa70491a5d0437332806ee638a2d055781071de467ae2c91815193845260208401523392a2005b600080808085335af1610080610340565b5061003c57606490602084519162461bcd60e51b8352820152601d60248201527f4661696c656420746f20666f7277617264207377617020616d6f756e740000006044820152fd5b6000808080877f00000000000000000000000000000000000000000000000000000000000000005af16100f9610340565b5061003457608490602084519162461bcd60e51b83528201526024808201527f4661696c656420746f2073656e642074617820746f20726576656e75652077616044820152631b1b195d60e21b6064820152fd5b601190634e487b7160e01b6000525260246000fd5b600090813560e01c90816344478425146102fd575080638da5cb5b146102b55763c5b60a4803610012579190346102b157826003193601126102b1577f00000000000000000000000000000000000000000000000000000000000000006001600160a01b038116330361026e5747908115610234578480809381935af16101e7610340565b50156101f1578280f35b906020606492519162461bcd60e51b8352820152601860248201527f4661696c656420746f2077697468647261772066756e647300000000000000006044820152fd5b825162461bcd60e51b815260208186015260146024820152734e6f2066756e647320746f20776974686472617760601b6044820152606490fd5b815162461bcd60e51b8152602081850152601760248201527f4f6e6c79206f776e65722063616e2077697468647261770000000000000000006044820152606490fd5b8280fd5b5090346102f957816003193601126102f957517f00000000000000000000000000000000000000000000000000000000000000006001600160a01b03168152602090f35b5080fd5b9050346102f957816003193601126102f9577f00000000000000000000000000000000000000000000000000000000000000006001600160a01b03168152602090f35b3d1561039c5767ffffffffffffffff903d8281116103865760405192601f8201601f19908116603f01168401908111848210176103865760405282523d6000602084013e565b634e487b7160e01b600052604160045260246000fd5b60609056fea26469706673582212205b02ca697692d3c14098b9890b6b3801d6421b6ff8774caea640bcce7069ed0264736f6c63430008130033",
  "linkReferences": {},
  "deployedLinkReferences": {}
}