{
  "_format": "hh-sol-artifact-1",
  "contractName": "SplenexMulticall",
  "sourceName": "contracts/SplenexMulticall.sol",
  "abi": [
    {
      "inputs": [
        {
          "components": [
            {
              "internalType": "address",
              "name": "target",
              "type": "address"
            },
            {
              "internalType": "bytes",
              "name": "data",
              "type": "bytes"
            }
          ],
          "internalType": "struct SplenexMulticall.Call[]",
          "name": "calls",
          "type": "tuple[]"
        }
      ],
      "name": "multicall",
      "outputs": [
        {
          "internalType": "bytes[]",
          "name": "results",
          "type": "bytes[]"
        }
      ],
      "stateMutability": "nonpayable",
      "type": "function"
    },
    {
      "inputs": [
        {
          "components": [
            {
              "internalType": "address",
              "name": "target",
              "type": "address"
            },
            {
              "internalType": "bytes",
              "name": "data",
              "type": "bytes"
            }
          ],
          "internalType": "struct SplenexMulticall.Call[]",
          "name": "calls",
          "type": "tuple[]"
        },
        {
          "internalType": "uint256[]",
          "name": "values",
          "type": "uint256[]"
        }
      ],
      "name": "multicallWithValue",
      "outputs": [
        {
          "internalType": "bytes[]",
          "name": "results",
          "type": "bytes[]"
        }
      ],
      "stateMutability": "payable",
      "type": "function"
    }
  ],
  "bytecode": "0x60808060405234610016576105ab908161001c8239f35b600080fdfe6040608081526004908136101561001557600080fd5b600091823560e01c92836304bf08be146100405750505063caa5c23f1461003b57600080fd5b610267565b8260031936011261019b5767ffffffffffffffff82358181116101975761006a903690850161019e565b93909160243590811161019357610084903690830161019e565b9390610091858714610521565b61009a866103d5565b95825b8181106100b5578851806100b18a826101d4565b0390f35b888480856101058a6100e887898f826100e1916100db6100d683868a610455565b61047c565b98610565565b3593610455565b956100f860209788810190610490565b93909151809481936104c3565b03925af1906101126104d1565b911561013e57509061013991610128828b61050d565b52610133818a61050d565b5061041a565b61009d565b868b838051938461018d57825162461bcd60e51b8152602081860181815260169181019190915275135d5b1d1a58d85b1b0e8818d85b1b0819985a5b195960521b604082015281906060010390fd5b84925001fd5b8380fd5b8280fd5b80fd5b9181601f840112156101cf5782359167ffffffffffffffff83116101cf576020808501948460051b0101116101cf57565b600080fd5b6020808201818352835180915260408301918060408360051b860101950193600080915b848310610209575050505050505090565b90919293949596603f19828203018752848851805190818452855b8281106102535750508083018201859052601f01601f19169091018101978101960194939260010191906101f8565b818101840151858201850152889301610224565b346101cf576020806003193601126101cf57600490813567ffffffffffffffff81116101cf5761029a903690840161019e565b90916102a5826103d5565b936000805b8481106102bf57604051806100b189826101d4565b6102cd6100d6828789610455565b82806102e66102dd858a8c610455565b88810190610490565b82604095926102f98751809481936104c3565b03925af1906103066104d1565b911561032c5750906103279161031c828a61050d565b52610133818961050d565b6102aa565b925080915051938461018d57825162461bcd60e51b8152602081860181815260169181019190915275135d5b1d1a58d85b1b0e8818d85b1b0819985a5b195960521b604082015281906060010390fd5b634e487b7160e01b600052604160045260246000fd5b6040519190601f01601f1916820167ffffffffffffffff8111838210176103b857604052565b61037c565b67ffffffffffffffff81116103b85760051b60200190565b906103e76103e2836103bd565b610392565b82815280926103f8601f19916103bd565b019060005b82811061040957505050565b8060606020809385010152016103fd565b60001981146104295760010190565b634e487b7160e01b600052601160045260246000fd5b634e487b7160e01b600052603260045260246000fd5b91908110156104775760051b81013590603e19813603018212156101cf570190565b61043f565b356001600160a01b03811681036101cf5790565b903590601e19813603018212156101cf570180359067ffffffffffffffff82116101cf576020019181360383136101cf57565b908092918237016000815290565b3d15610508573d9067ffffffffffffffff82116103b8576104fb601f8301601f1916602001610392565b9182523d6000602084013e565b606090565b80518210156104775760209160051b010190565b1561052857565b60405162461bcd60e51b8152602060048201526015602482015274082e4e4c2f240d8cadccee8d040dad2e6dac2e8c6d605b1b6044820152606490fd5b91908110156104775760051b019056fea2646970667358221220bb0b874a50d0235b156758f7c7a354897fe225aac3fdd2e208352c148af6aaba64736f6c63430008130033",
  "linkReferences": {},
  "deployedLinkReferences": {}
}