{"contracts/SplenexLiFiWrapper.sol":{"SplenexLiFiWrapper":{"abi":[{"inputs":[{"internalType":"address","name":"_revenueWallet","type":"address"},{"internalType":"uint256","name":"_initialFeeBps","type":"uint256"}],"stateMutability":"nonpayable","type":"constructor"},{"inputs":[],"name":"InsufficientOutput","type":"error"},{"inputs":[],"name":"InvalidAmount","type":"error"},{"inputs":[],"name":"InvalidFee","type":"error"},{"inputs":[],"name":"InvalidLiFiCalldata","type":"error"},{"inputs":[],"name":"SwapFailed","type":"error"},{"inputs":[],"name":"TransferFailed","type":"error"},{"anonymous":false,"inputs":[{"indexed":false,"internalType":"uint256","name":"oldFee","type":"uint256"},{"indexed":false,"internalType":"uint256","name":"newFee","type":"uint256"}],"name":"FeeUpdated","type":"event"},{"anonymous":false,"inputs":[{"indexed":true,"internalType":"address","name":"previousOwner","type":"address"},{"indexed":true,"internalType":"address","name":"newOwner","type":"address"}],"name":"OwnershipTransferred","type":"event"},{"anonymous":false,"inputs":[{"indexed":true,"internalType":"address","name":"user","type":"address"},{"indexed":true,"internalType":"address","name":"tokenIn","type":"address"},{"indexed":true,"internalType":"address","name":"tokenOut","type":"address"},{"indexed":false,"internalType":"uint256","name":"amountIn","type":"uint256"},{"indexed":false,"internalType":"uint256","name":"amountOut","type":"uint256"},{"indexed":false,"internalType":"uint256","name":"totalFee","type":"uint256"}],"name":"SwapExecuted","type":"event"},{"inputs":[],"name":"MAX_FEE_BPS","outputs":[{"internalType":"uint256","name":"","type":"uint256"}],"stateMutability":"view","type":"function"},{"inputs":[{"internalType":"uint256","name":"amountIn","type":"uint256"},{"internalType":"uint256","name":"expectedOutput","type":"uint256"}],"name":"calculateTotalFee","outputs":[{"internalType":"uint256","name":"totalFee","type":"uint256"}],"stateMutability":"view","type":"function"},{"inputs":[{"internalType":"address","name":"token","type":"address"},{"internalType":"uint256","name":"amount","type":"uint256"}],"name":"emergencyWithdraw","outputs":[],"stateMutability":"nonpayable","type":"function"},{"inputs":[],"name":"feeBps","outputs":[{"internalType":"uint256","name":"","type":"uint256"}],"stateMutability":"view","type":"function"},{"inputs":[],"name":"owner","outputs":[{"internalType":"address","name":"","type":"address"}],"stateMutability":"view","type":"function"},{"inputs":[],"name":"renounceOwnership","outputs":[],"stateMutability":"nonpayable","type":"function"},{"inputs":[],"name":"revenueWallet","outputs":[{"internalType":"address","name":"","type":"address"}],"stateMutability":"view","type":"function"},{"inputs":[{"internalType":"uint256","name":"newFeeBps","type":"uint256"}],"name":"setFeeBps","outputs":[],"stateMutability":"nonpayable","type":"function"},{"inputs":[{"internalType":"address","name":"tokenOut","type":"address"},{"internalType":"address","name":"","type":"address"},{"internalType":"bytes","name":"","type":"bytes"},{"internalType":"uint256","name":"","type":"uint256"}],"name":"swapNativeViaLiFi","outputs":[{"internalType":"uint256","name":"amountOut","type":"uint256"}],"stateMutability":"payable","type":"function"},{"inputs":[{"internalType":"address","name":"tokenIn","type":"address"},{"internalType":"uint256","name":"amountIn","type":"uint256"},{"internalType":"address","name":"tokenOut","type":"address"},{"internalType":"address","name":"lifiContract","type":"address"},{"internalType":"bytes","name":"lifiCalldata","type":"bytes"},{"internalType":"uint256","name":"minAmountOut","type":"uint256"}],"name":"swapTokenViaLiFi","outputs":[{"internalType":"uint256","name":"amountOut","type":"uint256"}],"stateMutability":"nonpayable","type":"function"},{"inputs":[{"internalType":"address","name":"newOwner","type":"address"}],"name":"transferOwnership","outputs":[],"stateMutability":"nonpayable","type":"function"},{"stateMutability":"payable","type":"receive"}],"evm":{"bytecode":{"linkReferences":{},"object":"60a0346100f657601f610bc638819003918201601f19168301916001600160401b038311848410176100fb5780849260409485528339810103126100f65780516001600160a01b03808216928383036100f657602001519260016000556001543360018060a01b0319821617600155604051923391167f8be0079c531659141344cd1fd0a4f28419497f9722a3daafe3b4186f6b6457e0600080a3156100e757506101f482116100d557608052600255604051610ab490816101128239608051818181610463015281816104ca015261065d0152f35b6040516358d620b360e01b8152600490fd5b6312171d8360e31b8152600490fd5b600080fd5b634e487b7160e01b600052604160045260246000fdfe60406080815260049081361015610020575b5050361561001e57600080fd5b005b600090813560e01c80630b0e2df71461051757806324a9d853146104f957806344478425146104b65780636a85b2b41461035f578063715018a6146102ff57806372c27b62146102905780638da5cb5b1461026857806395ccea67146101ed578063d55be8c6146101d1578063f2fde38b146101015763fcff53a7146100a65750610011565b346100fd57806003193601126100fd57600254916127106100d6816100cc868835610763565b0494602435610763565b0483018093116100ea576020838351908152f35b634e487b7160e01b815260118452602490fd5b5080fd5b5082346101cd5760203660031901126101cd5761011c6106c2565b9061012561070b565b6001600160a01b0391821692831561017b575050600154826bffffffffffffffffffffffff60a01b821617600155167f8be0079c531659141344cd1fd0a4f28419497f9722a3daafe3b4186f6b6457e08380a380f35b906020608492519162461bcd60e51b8352820152602660248201527f4f776e61626c653a206e6577206f776e657220697320746865207a65726f206160448201526564647265737360d01b6064820152fd5b8280fd5b50346100fd57816003193601126100fd57602090516101f48152f35b508290346101cd57806003193601126101cd57826102096106c2565b6024359061021561070b565b6001600160a01b039081168061025157508280928192600154165af161023961095f565b501561024457505080f35b516312171d8360e31b8152fd5b9250909250610265935060015416906107ef565b80f35b50346100fd57816003193601126100fd5760015490516001600160a01b039091168152602090f35b5082346101cd5760203660031901126101cd578035906102ae61070b565b6101f482116102f15750907f528d9479e9f9889a87a3c30c7f7ba537e5e59c4c85a37733b16e57c62df6130291600254908060025582519182526020820152a180f35b82516358d620b360e01b8152fd5b823461035c578060031936011261035c5761031861070b565b600180546001600160a01b0319811690915581906001600160a01b03167f8be0079c531659141344cd1fd0a4f28419497f9722a3daafe3b4186f6b6457e08280a380f35b80fd5b50829060803660031901126101cd576103766106c2565b6001600160a01b03602435818116036104b25760443567ffffffffffffffff81116104ae576103a890369086016106dd565b50506103b2610799565b341561049f576127106103c760025434610763565b04906103d3823461078c565b948261045c575b85610439575b509185602096927fad671c9d50262b75ba17bdf7e330ae0d7da971800b2526584a85f83d23296b1560019587519416938061042f33948b34846040919493926060820195825260208201520152565b0390a45551908152f35b8680808089335af161044961095f565b506103e05784516312171d8360e31b8152fd5b86808080867f00000000000000000000000000000000000000000000000000000000000000005af161048c61095f565b506103da5784516312171d8360e31b8152fd5b50505163162908e360e11b8152fd5b8580fd5b8480fd5b50346100fd57816003193601126100fd57517f00000000000000000000000000000000000000000000000000000000000000006001600160a01b03168152602090f35b50346100fd57816003193601126100fd576020906002549051908152f35b50346100fd5760c03660031901126100fd576105316106c2565b60243592906044356001600160a01b0381811692918390036106be57606435918183168093036104b25767ffffffffffffffff926084358481116106ba5761057c9036908b016106dd565b5050610586610799565b87156106aa571561069a5785516323b872dd60e01b60208201523360248201523060448201526064808201899052815291169160a082019081118282101761068757602097506001949392916105de91875282610857565b6127106105ed60025488610763565b04957fad671c9d50262b75ba17bdf7e330ae0d7da971800b2526584a85f83d23296b1561042f61061d898461078c565b9880610657575b89610647575b8851938452602084018a9052604084015233929081906060820190565b6106528a33876107ef565b61062a565b610682817f0000000000000000000000000000000000000000000000000000000000000000876107ef565b610624565b634e487b7160e01b855260418852602485fd5b85516312171d8360e31b81528890fd5b865163162908e360e11b81528990fd5b8680fd5b8380fd5b600435906001600160a01b03821682036106d857565b600080fd5b9181601f840112156106d85782359167ffffffffffffffff83116106d857602083818601950101116106d857565b6001546001600160a01b0316330361071f57565b606460405162461bcd60e51b815260206004820152602060248201527f4f776e61626c653a2063616c6c6572206973206e6f7420746865206f776e65726044820152fd5b8181029291811591840414171561077657565b634e487b7160e01b600052601160045260246000fd5b9190820391821161077657565b6002600054146107aa576002600055565b60405162461bcd60e51b815260206004820152601f60248201527f5265656e7472616e637947756172643a207265656e7472616e742063616c6c006044820152606490fd5b60405163a9059cbb60e01b60208201526001600160a01b039092166024830152604480830193909352918152608081019167ffffffffffffffff8311828410176108415761083f92604052610857565b565b634e487b7160e01b600052604160045260246000fd5b60018060a01b031690604051604081019080821067ffffffffffffffff831117610841576108c9916040526020938482527f5361666545524332303a206c6f772d6c6576656c2063616c6c206661696c6564858301526000808587829751910182855af16108c361095f565b916109aa565b80519182159184831561093b575b5050509050156108e45750565b6084906040519062461bcd60e51b82526004820152602a60248201527f5361666545524332303a204552433230206f7065726174696f6e20646964206e6044820152691bdd081cdd58d8d9595960b21b6064820152fd5b9193818094500103126100fd5782015190811515820361035c5750803880846108d7565b3d156109a55767ffffffffffffffff903d8281116108415760405192601f8201601f19908116603f01168401908111848210176108415760405282523d6000602084013e565b606090565b91929015610a0c57508151156109be575090565b3b156109c75790565b60405162461bcd60e51b815260206004820152601d60248201527f416464726573733a2063616c6c20746f206e6f6e2d636f6e74726163740000006044820152606490fd5b825190915015610a1f5750805190602001fd5b6040519062461bcd60e51b82528160208060048301528251908160248401526000935b828510610a65575050604492506000838284010152601f80199101168101030190fd5b8481018201518686016044015293810193859350610a4256fea2646970667358221220bdcc1cd751d00783a84794cf85b4837e2398cba20c73a4ea4472e6ce3acd9d1864736f6c63430008130033","opcodes":"PUSH1 0xA0 CALLVALUE PUSH2 0xF6 JUMPI PUSH1 0x1F PUSH2 0xBC6 CODESIZE DUP2 SWAP1 SUB SWAP2 DUP3 ADD PUSH1 0x1F NOT AND DUP4 ADD SWAP2 PUSH1 0x1 PUSH1 0x1 PUSH1 0x40 SHL SUB DUP4 GT DUP5 DUP5 LT OR PUSH2 0xFB JUMPI DUP1 DUP5 SWAP3 PUSH1 0x40 SWAP5 DUP6 MSTORE DUP4 CODECOPY DUP2 ADD SUB SLT PUSH2 0xF6 JUMPI DUP1 MLOAD PUSH1 0x1 PUSH1 0x1 PUSH1 0xA0 SHL SUB DUP1 DUP3 AND SWAP3 DUP4 DUP4 SUB PUSH2 0xF6 JUMPI PUSH1 0x20 ADD MLOAD SWAP3 PUSH1 0x1 PUSH1 0x0 SSTORE PUSH1 0x1 SLOAD CALLER PUSH1 0x1 DUP1 PUSH1 0xA0 SHL SUB NOT DUP3 AND OR PUSH1 0x1 SSTORE PUSH1 0x40 MLOAD SWAP3 CALLER SWAP2 AND PUSH32 0x8BE0079C531659141344CD1FD0A4F28419497F9722A3DAAFE3B4186F6B6457E0 PUSH1 0x0 DUP1 LOG3 ISZERO PUSH2 0xE7 JUMPI POP PUSH2 0x1F4 DUP3 GT PUSH2 0xD5 JUMPI PUSH1 0x80 MSTORE PUSH1 0x2 SSTORE PUSH1 0x40 MLOAD PUSH2 0xAB4 SWAP1 DUP2 PUSH2 0x112 DUP3 CODECOPY PUSH1 0x80 MLOAD DUP2 DUP2 DUP2 PUSH2 0x463 ADD MSTORE DUP2 DUP2 PUSH2 0x4CA ADD MSTORE PUSH2 0x65D ADD MSTORE RETURN JUMPDEST PUSH1 0x40 MLOAD PUSH4 0x58D620B3 PUSH1 0xE0 SHL DUP2 MSTORE PUSH1 0x4 SWAP1 REVERT JUMPDEST PUSH4 0x12171D83 PUSH1 0xE3 SHL DUP2 MSTORE PUSH1 0x4 SWAP1 REVERT JUMPDEST PUSH1 0x0 DUP1 REVERT JUMPDEST PUSH4 0x4E487B71 PUSH1 0xE0 SHL PUSH1 0x0 MSTORE PUSH1 0x41 PUSH1 0x4 MSTORE PUSH1 0x24 PUSH1 0x0 REVERT INVALID PUSH1 0x40 PUSH1 0x80 DUP2 MSTORE PUSH1 0x4 SWAP1 DUP2 CALLDATASIZE LT ISZERO PUSH2 0x20 JUMPI JUMPDEST POP POP CALLDATASIZE ISZERO PUSH2 0x1E JUMPI PUSH1 0x0 DUP1 REVERT JUMPDEST STOP JUMPDEST PUSH1 0x0 SWAP1 DUP2 CALLDATALOAD PUSH1 0xE0 SHR DUP1 PUSH4 0xB0E2DF7 EQ PUSH2 0x517 JUMPI DUP1 PUSH4 0x24A9D853 EQ PUSH2 0x4F9 JUMPI DUP1 PUSH4 0x44478425 EQ PUSH2 0x4B6 JUMPI DUP1 PUSH4 0x6A85B2B4 EQ PUSH2 0x35F JUMPI DUP1 PUSH4 0x715018A6 EQ PUSH2 0x2FF JUMPI DUP1 PUSH4 0x72C27B62 EQ PUSH2 0x290 JUMPI DUP1 PUSH4 0x8DA5CB5B EQ PUSH2 0x268 JUMPI DUP1 PUSH4 0x95CCEA67 EQ PUSH2 0x1ED JUMPI DUP1 PUSH4 0xD55BE8C6 EQ PUSH2 0x1D1 JUMPI DUP1 PUSH4 0xF2FDE38B EQ PUSH2 0x101 JUMPI PUSH4 0xFCFF53A7 EQ PUSH2 0xA6 JUMPI POP PUSH2 0x11 JUMP JUMPDEST CALLVALUE PUSH2 0xFD JUMPI DUP1 PUSH1 0x3 NOT CALLDATASIZE ADD SLT PUSH2 0xFD JUMPI PUSH1 0x2 SLOAD SWAP2 PUSH2 0x2710 PUSH2 0xD6 DUP2 PUSH2 0xCC DUP7 DUP9 CALLDATALOAD PUSH2 0x763 JUMP JUMPDEST DIV SWAP5 PUSH1 0x24 CALLDATALOAD PUSH2 0x763 JUMP JUMPDEST DIV DUP4 ADD DUP1 SWAP4 GT PUSH2 0xEA JUMPI PUSH1 0x20 DUP4 DUP4 MLOAD SWAP1 DUP2 MSTORE RETURN JUMPDEST PUSH4 0x4E487B71 PUSH1 0xE0 SHL DUP2 MSTORE PUSH1 0x11 DUP5 MSTORE PUSH1 0x24 SWAP1 REVERT JUMPDEST POP DUP1 REVERT JUMPDEST POP DUP3 CALLVALUE PUSH2 0x1CD JUMPI PUSH1 0x20 CALLDATASIZE PUSH1 0x3 NOT ADD SLT PUSH2 0x1CD JUMPI PUSH2 0x11C PUSH2 0x6C2 JUMP JUMPDEST SWAP1 PUSH2 0x125 PUSH2 0x70B JUMP JUMPDEST PUSH1 0x1 PUSH1 0x1 PUSH1 0xA0 SHL SUB SWAP2 DUP3 AND SWAP3 DUP4 ISZERO PUSH2 0x17B JUMPI POP POP PUSH1 0x1 SLOAD DUP3 PUSH12 0xFFFFFFFFFFFFFFFFFFFFFFFF PUSH1 0xA0 SHL DUP3 AND OR PUSH1 0x1 SSTORE AND PUSH32 0x8BE0079C531659141344CD1FD0A4F28419497F9722A3DAAFE3B4186F6B6457E0 DUP4 DUP1 LOG3 DUP1 RETURN JUMPDEST SWAP1 PUSH1 0x20 PUSH1 0x84 SWAP3 MLOAD SWAP2 PUSH3 0x461BCD PUSH1 0xE5 SHL DUP4 MSTORE DUP3 ADD MSTORE PUSH1 0x26 PUSH1 0x24 DUP3 ADD MSTORE PUSH32 0x4F776E61626C653A206E6577206F776E657220697320746865207A65726F2061 PUSH1 0x44 DUP3 ADD MSTORE PUSH6 0x646472657373 PUSH1 0xD0 SHL PUSH1 0x64 DUP3 ADD MSTORE REVERT JUMPDEST DUP3 DUP1 REVERT JUMPDEST POP CALLVALUE PUSH2 0xFD JUMPI DUP2 PUSH1 0x3 NOT CALLDATASIZE ADD SLT PUSH2 0xFD JUMPI PUSH1 0x20 SWAP1 MLOAD PUSH2 0x1F4 DUP2 MSTORE RETURN JUMPDEST POP DUP3 SWAP1 CALLVALUE PUSH2 0x1CD JUMPI DUP1 PUSH1 0x3 NOT CALLDATASIZE ADD SLT PUSH2 0x1CD JUMPI DUP3 PUSH2 0x209 PUSH2 0x6C2 JUMP JUMPDEST PUSH1 0x24 CALLDATALOAD SWAP1 PUSH2 0x215 PUSH2 0x70B JUMP JUMPDEST PUSH1 0x1 PUSH1 0x1 PUSH1 0xA0 SHL SUB SWAP1 DUP2 AND DUP1 PUSH2 0x251 JUMPI POP DUP3 DUP1 SWAP3 DUP2 SWAP3 PUSH1 0x1 SLOAD AND GAS CALL PUSH2 0x239 PUSH2 0x95F JUMP JUMPDEST POP ISZERO PUSH2 0x244 JUMPI POP POP DUP1 RETURN JUMPDEST MLOAD PUSH4 0x12171D83 PUSH1 0xE3 SHL DUP2 MSTORE REVERT JUMPDEST SWAP3 POP SWAP1 SWAP3 POP PUSH2 0x265 SWAP4 POP PUSH1 0x1 SLOAD AND SWAP1 PUSH2 0x7EF JUMP JUMPDEST DUP1 RETURN JUMPDEST POP CALLVALUE PUSH2 0xFD JUMPI DUP2 PUSH1 0x3 NOT CALLDATASIZE ADD SLT PUSH2 0xFD JUMPI PUSH1 0x1 SLOAD SWAP1 MLOAD PUSH1 0x1 PUSH1 0x1 PUSH1 0xA0 SHL SUB SWAP1 SWAP2 AND DUP2 MSTORE PUSH1 0x20 SWAP1 RETURN JUMPDEST POP DUP3 CALLVALUE PUSH2 0x1CD JUMPI PUSH1 0x20 CALLDATASIZE PUSH1 0x3 NOT ADD SLT PUSH2 0x1CD JUMPI DUP1 CALLDATALOAD SWAP1 PUSH2 0x2AE PUSH2 0x70B JUMP JUMPDEST PUSH2 0x1F4 DUP3 GT PUSH2 0x2F1 JUMPI POP SWAP1 PUSH32 0x528D9479E9F9889A87A3C30C7F7BA537E5E59C4C85A37733B16E57C62DF61302 SWAP2 PUSH1 0x2 SLOAD SWAP1 DUP1 PUSH1 0x2 SSTORE DUP3 MLOAD SWAP2 DUP3 MSTORE PUSH1 0x20 DUP3 ADD MSTORE LOG1 DUP1 RETURN JUMPDEST DUP3 MLOAD PUSH4 0x58D620B3 PUSH1 0xE0 SHL DUP2 MSTORE REVERT JUMPDEST DUP3 CALLVALUE PUSH2 0x35C JUMPI DUP1 PUSH1 0x3 NOT CALLDATASIZE ADD SLT PUSH2 0x35C JUMPI PUSH2 0x318 PUSH2 0x70B JUMP JUMPDEST PUSH1 0x1 DUP1 SLOAD PUSH1 0x1 PUSH1 0x1 PUSH1 0xA0 SHL SUB NOT DUP2 AND SWAP1 SWAP2 SSTORE DUP2 SWAP1 PUSH1 0x1 PUSH1 0x1 PUSH1 0xA0 SHL SUB AND PUSH32 0x8BE0079C531659141344CD1FD0A4F28419497F9722A3DAAFE3B4186F6B6457E0 DUP3 DUP1 LOG3 DUP1 RETURN JUMPDEST DUP1 REVERT JUMPDEST POP DUP3 SWAP1 PUSH1 0x80 CALLDATASIZE PUSH1 0x3 NOT ADD SLT PUSH2 0x1CD JUMPI PUSH2 0x376 PUSH2 0x6C2 JUMP JUMPDEST PUSH1 0x1 PUSH1 0x1 PUSH1 0xA0 SHL SUB PUSH1 0x24 CALLDATALOAD DUP2 DUP2 AND SUB PUSH2 0x4B2 JUMPI PUSH1 0x44 CALLDATALOAD PUSH8 0xFFFFFFFFFFFFFFFF DUP2 GT PUSH2 0x4AE JUMPI PUSH2 0x3A8 SWAP1 CALLDATASIZE SWAP1 DUP7 ADD PUSH2 0x6DD JUMP JUMPDEST POP POP PUSH2 0x3B2 PUSH2 0x799 JUMP JUMPDEST CALLVALUE ISZERO PUSH2 0x49F JUMPI PUSH2 0x2710 PUSH2 0x3C7 PUSH1 0x2 SLOAD CALLVALUE PUSH2 0x763 JUMP JUMPDEST DIV SWAP1 PUSH2 0x3D3 DUP3 CALLVALUE PUSH2 0x78C JUMP JUMPDEST SWAP5 DUP3 PUSH2 0x45C JUMPI JUMPDEST DUP6 PUSH2 0x439 JUMPI JUMPDEST POP SWAP2 DUP6 PUSH1 0x20 SWAP7 SWAP3 PUSH32 0xAD671C9D50262B75BA17BDF7E330AE0D7DA971800B2526584A85F83D23296B15 PUSH1 0x1 SWAP6 DUP8 MLOAD SWAP5 AND SWAP4 DUP1 PUSH2 0x42F CALLER SWAP5 DUP12 CALLVALUE DUP5 PUSH1 0x40 SWAP2 SWAP5 SWAP4 SWAP3 PUSH1 0x60 DUP3 ADD SWAP6 DUP3 MSTORE PUSH1 0x20 DUP3 ADD MSTORE ADD MSTORE JUMP JUMPDEST SUB SWAP1 LOG4 SSTORE MLOAD SWAP1 DUP2 MSTORE RETURN JUMPDEST DUP7 DUP1 DUP1 DUP1 DUP10 CALLER GAS CALL PUSH2 0x449 PUSH2 0x95F JUMP JUMPDEST POP PUSH2 0x3E0 JUMPI DUP5 MLOAD PUSH4 0x12171D83 PUSH1 0xE3 SHL DUP2 MSTORE REVERT JUMPDEST DUP7 DUP1 DUP1 DUP1 DUP7 PUSH32 0x0 GAS CALL PUSH2 0x48C PUSH2 0x95F JUMP JUMPDEST POP PUSH2 0x3DA JUMPI DUP5 MLOAD PUSH4 0x12171D83 PUSH1 0xE3 SHL DUP2 MSTORE REVERT JUMPDEST POP POP MLOAD PUSH4 0x162908E3 PUSH1 0xE1 SHL DUP2 MSTORE REVERT JUMPDEST DUP6 DUP1 REVERT JUMPDEST DUP5 DUP1 REVERT JUMPDEST POP CALLVALUE PUSH2 0xFD JUMPI DUP2 PUSH1 0x3 NOT CALLDATASIZE ADD SLT PUSH2 0xFD JUMPI MLOAD PUSH32 0x0 PUSH1 0x1 PUSH1 0x1 PUSH1 0xA0 SHL SUB AND DUP2 MSTORE PUSH1 0x20 SWAP1 RETURN JUMPDEST POP CALLVALUE PUSH2 0xFD JUMPI DUP2 PUSH1 0x3 NOT CALLDATASIZE ADD SLT PUSH2 0xFD JUMPI PUSH1 0x20 SWAP1 PUSH1 0x2 SLOAD SWAP1 MLOAD SWAP1 DUP2 MSTORE RETURN JUMPDEST POP CALLVALUE PUSH2 0xFD JUMPI PUSH1 0xC0 CALLDATASIZE PUSH1 0x3 NOT ADD SLT PUSH2 0xFD JUMPI PUSH2 0x531 PUSH2 0x6C2 JUMP JUMPDEST PUSH1 0x24 CALLDATALOAD SWAP3 SWAP1 PUSH1 0x44 CALLDATALOAD PUSH1 0x1 PUSH1 0x1 PUSH1 0xA0 SHL SUB DUP2 DUP2 AND SWAP3 SWAP2 DUP4 SWAP1 SUB PUSH2 0x6BE JUMPI PUSH1 0x64 CALLDATALOAD SWAP2 DUP2 DUP4 AND DUP1 SWAP4 SUB PUSH2 0x4B2 JUMPI PUSH8 0xFFFFFFFFFFFFFFFF SWAP3 PUSH1 0x84 CALLDATALOAD DUP5 DUP2 GT PUSH2 0x6BA JUMPI PUSH2 0x57C SWAP1 CALLDATASIZE SWAP1 DUP12 ADD PUSH2 0x6DD JUMP JUMPDEST POP POP PUSH2 0x586 PUSH2 0x799 JUMP JUMPDEST DUP8 ISZERO PUSH2 0x6AA JUMPI ISZERO PUSH2 0x69A JUMPI DUP6 MLOAD PUSH4 0x23B872DD PUSH1 0xE0 SHL PUSH1 0x20 DUP3 ADD MSTORE CALLER PUSH1 0x24 DUP3 ADD MSTORE ADDRESS PUSH1 0x44 DUP3 ADD MSTORE PUSH1 0x64 DUP1 DUP3 ADD DUP10 SWAP1 MSTORE DUP2 MSTORE SWAP2 AND SWAP2 PUSH1 0xA0 DUP3 ADD SWAP1 DUP2 GT DUP3 DUP3 LT OR PUSH2 0x687 JUMPI PUSH1 0x20 SWAP8 POP PUSH1 0x1 SWAP5 SWAP4 SWAP3 SWAP2 PUSH2 0x5DE SWAP2 DUP8 MSTORE DUP3 PUSH2 0x857 JUMP JUMPDEST PUSH2 0x2710 PUSH2 0x5ED PUSH1 0x2 SLOAD DUP9 PUSH2 0x763 JUMP JUMPDEST DIV SWAP6 PUSH32 0xAD671C9D50262B75BA17BDF7E330AE0D7DA971800B2526584A85F83D23296B15 PUSH2 0x42F PUSH2 0x61D DUP10 DUP5 PUSH2 0x78C JUMP JUMPDEST SWAP9 DUP1 PUSH2 0x657 JUMPI JUMPDEST DUP10 PUSH2 0x647 JUMPI JUMPDEST DUP9 MLOAD SWAP4 DUP5 MSTORE PUSH1 0x20 DUP5 ADD DUP11 SWAP1 MSTORE PUSH1 0x40 DUP5 ADD MSTORE CALLER SWAP3 SWAP1 DUP2 SWAP1 PUSH1 0x60 DUP3 ADD SWAP1 JUMP JUMPDEST PUSH2 0x652 DUP11 CALLER DUP8 PUSH2 0x7EF JUMP JUMPDEST PUSH2 0x62A JUMP JUMPDEST PUSH2 0x682 DUP2 PUSH32 0x0 DUP8 PUSH2 0x7EF JUMP JUMPDEST PUSH2 0x624 JUMP JUMPDEST PUSH4 0x4E487B71 PUSH1 0xE0 SHL DUP6 MSTORE PUSH1 0x41 DUP9 MSTORE PUSH1 0x24 DUP6 REVERT JUMPDEST DUP6 MLOAD PUSH4 0x12171D83 PUSH1 0xE3 SHL DUP2 MSTORE DUP9 SWAP1 REVERT JUMPDEST DUP7 MLOAD PUSH4 0x162908E3 PUSH1 0xE1 SHL DUP2 MSTORE DUP10 SWAP1 REVERT JUMPDEST DUP7 DUP1 REVERT JUMPDEST DUP4 DUP1 REVERT JUMPDEST PUSH1 0x4 CALLDATALOAD SWAP1 PUSH1 0x1 PUSH1 0x1 PUSH1 0xA0 SHL SUB DUP3 AND DUP3 SUB PUSH2 0x6D8 JUMPI JUMP JUMPDEST PUSH1 0x0 DUP1 REVERT JUMPDEST SWAP2 DUP2 PUSH1 0x1F DUP5 ADD SLT ISZERO PUSH2 0x6D8 JUMPI DUP3 CALLDATALOAD SWAP2 PUSH8 0xFFFFFFFFFFFFFFFF DUP4 GT PUSH2 0x6D8 JUMPI PUSH1 0x20 DUP4 DUP2 DUP7 ADD SWAP6 ADD ADD GT PUSH2 0x6D8 JUMPI JUMP JUMPDEST PUSH1 0x1 SLOAD PUSH1 0x1 PUSH1 0x1 PUSH1 0xA0 SHL SUB AND CALLER SUB PUSH2 0x71F JUMPI JUMP JUMPDEST PUSH1 0x64 PUSH1 0x40 MLOAD PUSH3 0x461BCD PUSH1 0xE5 SHL DUP2 MSTORE PUSH1 0x20 PUSH1 0x4 DUP3 ADD MSTORE PUSH1 0x20 PUSH1 0x24 DUP3 ADD MSTORE PUSH32 0x4F776E61626C653A2063616C6C6572206973206E6F7420746865206F776E6572 PUSH1 0x44 DUP3 ADD MSTORE REVERT JUMPDEST DUP2 DUP2 MUL SWAP3 SWAP2 DUP2 ISZERO SWAP2 DUP5 DIV EQ OR ISZERO PUSH2 0x776 JUMPI JUMP JUMPDEST PUSH4 0x4E487B71 PUSH1 0xE0 SHL PUSH1 0x0 MSTORE PUSH1 0x11 PUSH1 0x4 MSTORE PUSH1 0x24 PUSH1 0x0 REVERT JUMPDEST SWAP2 SWAP1 DUP3 SUB SWAP2 DUP3 GT PUSH2 0x776 JUMPI JUMP JUMPDEST PUSH1 0x2 PUSH1 0x0 SLOAD EQ PUSH2 0x7AA JUMPI PUSH1 0x2 PUSH1 0x0 SSTORE JUMP JUMPDEST PUSH1 0x40 MLOAD PUSH3 0x461BCD PUSH1 0xE5 SHL DUP2 MSTORE PUSH1 0x20 PUSH1 0x4 DUP3 ADD MSTORE PUSH1 0x1F PUSH1 0x24 DUP3 ADD MSTORE PUSH32 0x5265656E7472616E637947756172643A207265656E7472616E742063616C6C00 PUSH1 0x44 DUP3 ADD MSTORE PUSH1 0x64 SWAP1 REVERT JUMPDEST PUSH1 0x40 MLOAD PUSH4 0xA9059CBB PUSH1 0xE0 SHL PUSH1 0x20 DUP3 ADD MSTORE PUSH1 0x1 PUSH1 0x1 PUSH1 0xA0 SHL SUB SWAP1 SWAP3 AND PUSH1 0x24 DUP4 ADD MSTORE PUSH1 0x44 DUP1 DUP4 ADD SWAP4 SWAP1 SWAP4 MSTORE SWAP2 DUP2 MSTORE PUSH1 0x80 DUP2 ADD SWAP2 PUSH8 0xFFFFFFFFFFFFFFFF DUP4 GT DUP3 DUP5 LT OR PUSH2 0x841 JUMPI PUSH2 0x83F SWAP3 PUSH1 0x40 MSTORE PUSH2 0x857 JUMP JUMPDEST JUMP JUMPDEST PUSH4 0x4E487B71 PUSH1 0xE0 SHL PUSH1 0x0 MSTORE PUSH1 0x41 PUSH1 0x4 MSTORE PUSH1 0x24 PUSH1 0x0 REVERT JUMPDEST PUSH1 0x1 DUP1 PUSH1 0xA0 SHL SUB AND SWAP1 PUSH1 0x40 MLOAD PUSH1 0x40 DUP2 ADD SWAP1 DUP1 DUP3 LT PUSH8 0xFFFFFFFFFFFFFFFF DUP4 GT OR PUSH2 0x841 JUMPI PUSH2 0x8C9 SWAP2 PUSH1 0x40 MSTORE PUSH1 0x20 SWAP4 DUP5 DUP3 MSTORE PUSH32 0x5361666545524332303A206C6F772D6C6576656C2063616C6C206661696C6564 DUP6 DUP4 ADD MSTORE PUSH1 0x0 DUP1 DUP6 DUP8 DUP3 SWAP8 MLOAD SWAP2 ADD DUP3 DUP6 GAS CALL PUSH2 0x8C3 PUSH2 0x95F JUMP JUMPDEST SWAP2 PUSH2 0x9AA JUMP JUMPDEST DUP1 MLOAD SWAP2 DUP3 ISZERO SWAP2 DUP5 DUP4 ISZERO PUSH2 0x93B JUMPI JUMPDEST POP POP POP SWAP1 POP ISZERO PUSH2 0x8E4 JUMPI POP JUMP JUMPDEST PUSH1 0x84 SWAP1 PUSH1 0x40 MLOAD SWAP1 PUSH3 0x461BCD PUSH1 0xE5 SHL DUP3 MSTORE PUSH1 0x4 DUP3 ADD MSTORE PUSH1 0x2A PUSH1 0x24 DUP3 ADD MSTORE PUSH32 0x5361666545524332303A204552433230206F7065726174696F6E20646964206E PUSH1 0x44 DUP3 ADD MSTORE PUSH10 0x1BDD081CDD58D8D95959 PUSH1 0xB2 SHL PUSH1 0x64 DUP3 ADD MSTORE REVERT JUMPDEST SWAP2 SWAP4 DUP2 DUP1 SWAP5 POP ADD SUB SLT PUSH2 0xFD JUMPI DUP3 ADD MLOAD SWAP1 DUP2 ISZERO ISZERO DUP3 SUB PUSH2 0x35C JUMPI POP DUP1 CODESIZE DUP1 DUP5 PUSH2 0x8D7 JUMP JUMPDEST RETURNDATASIZE ISZERO PUSH2 0x9A5 JUMPI PUSH8 0xFFFFFFFFFFFFFFFF SWAP1 RETURNDATASIZE DUP3 DUP2 GT PUSH2 0x841 JUMPI PUSH1 0x40 MLOAD SWAP3 PUSH1 0x1F DUP3 ADD PUSH1 0x1F NOT SWAP1 DUP2 AND PUSH1 0x3F ADD AND DUP5 ADD SWAP1 DUP2 GT DUP5 DUP3 LT OR PUSH2 0x841 JUMPI PUSH1 0x40 MSTORE DUP3 MSTORE RETURNDATASIZE PUSH1 0x0 PUSH1 0x20 DUP5 ADD RETURNDATACOPY JUMP JUMPDEST PUSH1 0x60 SWAP1 JUMP JUMPDEST SWAP2 SWAP3 SWAP1 ISZERO PUSH2 0xA0C JUMPI POP DUP2 MLOAD ISZERO PUSH2 0x9BE JUMPI POP SWAP1 JUMP JUMPDEST EXTCODESIZE ISZERO PUSH2 0x9C7 JUMPI SWAP1 JUMP JUMPDEST PUSH1 0x40 MLOAD PUSH3 0x461BCD PUSH1 0xE5 SHL DUP2 MSTORE PUSH1 0x20 PUSH1 0x4 DUP3 ADD MSTORE PUSH1 0x1D PUSH1 0x24 DUP3 ADD MSTORE PUSH32 0x416464726573733A2063616C6C20746F206E6F6E2D636F6E7472616374000000 PUSH1 0x44 DUP3 ADD MSTORE PUSH1 0x64 SWAP1 REVERT JUMPDEST DUP3 MLOAD SWAP1 SWAP2 POP ISZERO PUSH2 0xA1F JUMPI POP DUP1 MLOAD SWAP1 PUSH1 0x20 ADD REVERT JUMPDEST PUSH1 0x40 MLOAD SWAP1 PUSH3 0x461BCD PUSH1 0xE5 SHL DUP3 MSTORE DUP2 PUSH1 0x20 DUP1 PUSH1 0x4 DUP4 ADD MSTORE DUP3 MLOAD SWAP1 DUP2 PUSH1 0x24 DUP5 ADD MSTORE PUSH1 0x0 SWAP4 JUMPDEST DUP3 DUP6 LT PUSH2 0xA65 JUMPI POP POP PUSH1 0x44 SWAP3 POP PUSH1 0x0 DUP4 DUP3 DUP5 ADD ADD MSTORE PUSH1 0x1F DUP1 NOT SWAP2 ADD AND DUP2 ADD SUB ADD SWAP1 REVERT JUMPDEST DUP5 DUP2 ADD DUP3 ADD MLOAD DUP7 DUP7 ADD PUSH1 0x44 ADD MSTORE SWAP4 DUP2 ADD SWAP4 DUP6 SWAP4 POP PUSH2 0xA42 JUMP INVALID LOG2 PUSH5 0x6970667358 0x22 SLT KECCAK256 0xBD 0xCC SHR 0xD7 MLOAD 0xD0 SMOD DUP4 0xA8 SELFBALANCE SWAP5 0xCF DUP6 0xB4 DUP4 PUSH31 0x2398CBA20C73A4EA4472E6CE3ACD9D1864736F6C6343000813003300000000 "},"methodIdentifiers":{"MAX_FEE_BPS()":"d55be8c6","calculateTotalFee(uint256,uint256)":"fcff53a7","emergencyWithdraw(address,uint256)":"95ccea67","feeBps()":"24a9d853","owner()":"8da5cb5b","renounceOwnership()":"715018a6","revenueWallet()":"44478425","setFeeBps(uint256)":"72c27b62","swapNativeViaLiFi(address,address,bytes,uint256)":"6a85b2b4","swapTokenViaLiFi(address,uint256,address,address,bytes,uint256)":"0b0e2df7","transferOwnership(address)":"f2fde38b"}}}}}