{"contracts/SplenexMulticall.sol":{"SplenexMulticall":{"abi":[{"inputs":[{"components":[{"internalType":"address","name":"target","type":"address"},{"internalType":"bytes","name":"data","type":"bytes"}],"internalType":"struct SplenexMulticall.Call[]","name":"calls","type":"tuple[]"}],"name":"multicall","outputs":[{"internalType":"bytes[]","name":"results","type":"bytes[]"}],"stateMutability":"nonpayable","type":"function"},{"inputs":[{"components":[{"internalType":"address","name":"target","type":"address"},{"internalType":"bytes","name":"data","type":"bytes"}],"internalType":"struct SplenexMulticall.Call[]","name":"calls","type":"tuple[]"},{"internalType":"uint256[]","name":"values","type":"uint256[]"}],"name":"multicallWithValue","outputs":[{"internalType":"bytes[]","name":"results","type":"bytes[]"}],"stateMutability":"payable","type":"function"}],"evm":{"bytecode":{"linkReferences":{},"object":"60808060405234610016576105ab908161001c8239f35b600080fdfe6040608081526004908136101561001557600080fd5b600091823560e01c92836304bf08be146100405750505063caa5c23f1461003b57600080fd5b610267565b8260031936011261019b5767ffffffffffffffff82358181116101975761006a903690850161019e565b93909160243590811161019357610084903690830161019e565b9390610091858714610521565b61009a866103d5565b95825b8181106100b5578851806100b18a826101d4565b0390f35b888480856101058a6100e887898f826100e1916100db6100d683868a610455565b61047c565b98610565565b3593610455565b956100f860209788810190610490565b93909151809481936104c3565b03925af1906101126104d1565b911561013e57509061013991610128828b61050d565b52610133818a61050d565b5061041a565b61009d565b868b838051938461018d57825162461bcd60e51b8152602081860181815260169181019190915275135d5b1d1a58d85b1b0e8818d85b1b0819985a5b195960521b604082015281906060010390fd5b84925001fd5b8380fd5b8280fd5b80fd5b9181601f840112156101cf5782359167ffffffffffffffff83116101cf576020808501948460051b0101116101cf57565b600080fd5b6020808201818352835180915260408301918060408360051b860101950193600080915b848310610209575050505050505090565b90919293949596603f19828203018752848851805190818452855b8281106102535750508083018201859052601f01601f19169091018101978101960194939260010191906101f8565b818101840151858201850152889301610224565b346101cf576020806003193601126101cf57600490813567ffffffffffffffff81116101cf5761029a903690840161019e565b90916102a5826103d5565b936000805b8481106102bf57604051806100b189826101d4565b6102cd6100d6828789610455565b82806102e66102dd858a8c610455565b88810190610490565b82604095926102f98751809481936104c3565b03925af1906103066104d1565b911561032c5750906103279161031c828a61050d565b52610133818961050d565b6102aa565b925080915051938461018d57825162461bcd60e51b8152602081860181815260169181019190915275135d5b1d1a58d85b1b0e8818d85b1b0819985a5b195960521b604082015281906060010390fd5b634e487b7160e01b600052604160045260246000fd5b6040519190601f01601f1916820167ffffffffffffffff8111838210176103b857604052565b61037c565b67ffffffffffffffff81116103b85760051b60200190565b906103e76103e2836103bd565b610392565b82815280926103f8601f19916103bd565b019060005b82811061040957505050565b8060606020809385010152016103fd565b60001981146104295760010190565b634e487b7160e01b600052601160045260246000fd5b634e487b7160e01b600052603260045260246000fd5b91908110156104775760051b81013590603e19813603018212156101cf570190565b61043f565b356001600160a01b03811681036101cf5790565b903590601e19813603018212156101cf570180359067ffffffffffffffff82116101cf576020019181360383136101cf57565b908092918237016000815290565b3d15610508573d9067ffffffffffffffff82116103b8576104fb601f8301601f1916602001610392565b9182523d6000602084013e565b606090565b80518210156104775760209160051b010190565b1561052857565b60405162461bcd60e51b8152602060048201526015602482015274082e4e4c2f240d8cadccee8d040dad2e6dac2e8c6d605b1b6044820152606490fd5b91908110156104775760051b019056fea2646970667358221220bb0b874a50d0235b156758f7c7a354897fe225aac3fdd2e208352c148af6aaba64736f6c63430008130033","opcodes":"PUSH1 0x80 DUP1 PUSH1 0x40 MSTORE CALLVALUE PUSH2 0x16 JUMPI PUSH2 0x5AB SWAP1 DUP2 PUSH2 0x1C DUP3 CODECOPY RETURN JUMPDEST PUSH1 0x0 DUP1 REVERT INVALID PUSH1 0x40 PUSH1 0x80 DUP2 MSTORE PUSH1 0x4 SWAP1 DUP2 CALLDATASIZE LT ISZERO PUSH2 0x15 JUMPI PUSH1 0x0 DUP1 REVERT JUMPDEST PUSH1 0x0 SWAP2 DUP3 CALLDATALOAD PUSH1 0xE0 SHR SWAP3 DUP4 PUSH4 0x4BF08BE EQ PUSH2 0x40 JUMPI POP POP POP PUSH4 0xCAA5C23F EQ PUSH2 0x3B JUMPI PUSH1 0x0 DUP1 REVERT JUMPDEST PUSH2 0x267 JUMP JUMPDEST DUP3 PUSH1 0x3 NOT CALLDATASIZE ADD SLT PUSH2 0x19B JUMPI PUSH8 0xFFFFFFFFFFFFFFFF DUP3 CALLDATALOAD DUP2 DUP2 GT PUSH2 0x197 JUMPI PUSH2 0x6A SWAP1 CALLDATASIZE SWAP1 DUP6 ADD PUSH2 0x19E JUMP JUMPDEST SWAP4 SWAP1 SWAP2 PUSH1 0x24 CALLDATALOAD SWAP1 DUP2 GT PUSH2 0x193 JUMPI PUSH2 0x84 SWAP1 CALLDATASIZE SWAP1 DUP4 ADD PUSH2 0x19E JUMP JUMPDEST SWAP4 SWAP1 PUSH2 0x91 DUP6 DUP8 EQ PUSH2 0x521 JUMP JUMPDEST PUSH2 0x9A DUP7 PUSH2 0x3D5 JUMP JUMPDEST SWAP6 DUP3 JUMPDEST DUP2 DUP2 LT PUSH2 0xB5 JUMPI DUP9 MLOAD DUP1 PUSH2 0xB1 DUP11 DUP3 PUSH2 0x1D4 JUMP JUMPDEST SUB SWAP1 RETURN JUMPDEST DUP9 DUP5 DUP1 DUP6 PUSH2 0x105 DUP11 PUSH2 0xE8 DUP8 DUP10 DUP16 DUP3 PUSH2 0xE1 SWAP2 PUSH2 0xDB PUSH2 0xD6 DUP4 DUP7 DUP11 PUSH2 0x455 JUMP JUMPDEST PUSH2 0x47C JUMP JUMPDEST SWAP9 PUSH2 0x565 JUMP JUMPDEST CALLDATALOAD SWAP4 PUSH2 0x455 JUMP JUMPDEST SWAP6 PUSH2 0xF8 PUSH1 0x20 SWAP8 DUP9 DUP2 ADD SWAP1 PUSH2 0x490 JUMP JUMPDEST SWAP4 SWAP1 SWAP2 MLOAD DUP1 SWAP5 DUP2 SWAP4 PUSH2 0x4C3 JUMP JUMPDEST SUB SWAP3 GAS CALL SWAP1 PUSH2 0x112 PUSH2 0x4D1 JUMP JUMPDEST SWAP2 ISZERO PUSH2 0x13E JUMPI POP SWAP1 PUSH2 0x139 SWAP2 PUSH2 0x128 DUP3 DUP12 PUSH2 0x50D JUMP JUMPDEST MSTORE PUSH2 0x133 DUP2 DUP11 PUSH2 0x50D JUMP JUMPDEST POP PUSH2 0x41A JUMP JUMPDEST PUSH2 0x9D JUMP JUMPDEST DUP7 DUP12 DUP4 DUP1 MLOAD SWAP4 DUP5 PUSH2 0x18D JUMPI DUP3 MLOAD PUSH3 0x461BCD PUSH1 0xE5 SHL DUP2 MSTORE PUSH1 0x20 DUP2 DUP7 ADD DUP2 DUP2 MSTORE PUSH1 0x16 SWAP2 DUP2 ADD SWAP2 SWAP1 SWAP2 MSTORE PUSH22 0x135D5B1D1A58D85B1B0E8818D85B1B0819985A5B1959 PUSH1 0x52 SHL PUSH1 0x40 DUP3 ADD MSTORE DUP2 SWAP1 PUSH1 0x60 ADD SUB SWAP1 REVERT JUMPDEST DUP5 SWAP3 POP ADD REVERT JUMPDEST DUP4 DUP1 REVERT JUMPDEST DUP3 DUP1 REVERT JUMPDEST DUP1 REVERT JUMPDEST SWAP2 DUP2 PUSH1 0x1F DUP5 ADD SLT ISZERO PUSH2 0x1CF JUMPI DUP3 CALLDATALOAD SWAP2 PUSH8 0xFFFFFFFFFFFFFFFF DUP4 GT PUSH2 0x1CF JUMPI PUSH1 0x20 DUP1 DUP6 ADD SWAP5 DUP5 PUSH1 0x5 SHL ADD ADD GT PUSH2 0x1CF JUMPI JUMP JUMPDEST PUSH1 0x0 DUP1 REVERT JUMPDEST PUSH1 0x20 DUP1 DUP3 ADD DUP2 DUP4 MSTORE DUP4 MLOAD DUP1 SWAP2 MSTORE PUSH1 0x40 DUP4 ADD SWAP2 DUP1 PUSH1 0x40 DUP4 PUSH1 0x5 SHL DUP7 ADD ADD SWAP6 ADD SWAP4 PUSH1 0x0 DUP1 SWAP2 JUMPDEST DUP5 DUP4 LT PUSH2 0x209 JUMPI POP POP POP POP POP POP POP SWAP1 JUMP JUMPDEST SWAP1 SWAP2 SWAP3 SWAP4 SWAP5 SWAP6 SWAP7 PUSH1 0x3F NOT DUP3 DUP3 SUB ADD DUP8 MSTORE DUP5 DUP9 MLOAD DUP1 MLOAD SWAP1 DUP2 DUP5 MSTORE DUP6 JUMPDEST DUP3 DUP2 LT PUSH2 0x253 JUMPI POP POP DUP1 DUP4 ADD DUP3 ADD DUP6 SWAP1 MSTORE PUSH1 0x1F ADD PUSH1 0x1F NOT AND SWAP1 SWAP2 ADD DUP2 ADD SWAP8 DUP2 ADD SWAP7 ADD SWAP5 SWAP4 SWAP3 PUSH1 0x1 ADD SWAP2 SWAP1 PUSH2 0x1F8 JUMP JUMPDEST DUP2 DUP2 ADD DUP5 ADD MLOAD DUP6 DUP3 ADD DUP6 ADD MSTORE DUP9 SWAP4 ADD PUSH2 0x224 JUMP JUMPDEST CALLVALUE PUSH2 0x1CF JUMPI PUSH1 0x20 DUP1 PUSH1 0x3 NOT CALLDATASIZE ADD SLT PUSH2 0x1CF JUMPI PUSH1 0x4 SWAP1 DUP2 CALLDATALOAD PUSH8 0xFFFFFFFFFFFFFFFF DUP2 GT PUSH2 0x1CF JUMPI PUSH2 0x29A SWAP1 CALLDATASIZE SWAP1 DUP5 ADD PUSH2 0x19E JUMP JUMPDEST SWAP1 SWAP2 PUSH2 0x2A5 DUP3 PUSH2 0x3D5 JUMP JUMPDEST SWAP4 PUSH1 0x0 DUP1 JUMPDEST DUP5 DUP2 LT PUSH2 0x2BF JUMPI PUSH1 0x40 MLOAD DUP1 PUSH2 0xB1 DUP10 DUP3 PUSH2 0x1D4 JUMP JUMPDEST PUSH2 0x2CD PUSH2 0xD6 DUP3 DUP8 DUP10 PUSH2 0x455 JUMP JUMPDEST DUP3 DUP1 PUSH2 0x2E6 PUSH2 0x2DD DUP6 DUP11 DUP13 PUSH2 0x455 JUMP JUMPDEST DUP9 DUP2 ADD SWAP1 PUSH2 0x490 JUMP JUMPDEST DUP3 PUSH1 0x40 SWAP6 SWAP3 PUSH2 0x2F9 DUP8 MLOAD DUP1 SWAP5 DUP2 SWAP4 PUSH2 0x4C3 JUMP JUMPDEST SUB SWAP3 GAS CALL SWAP1 PUSH2 0x306 PUSH2 0x4D1 JUMP JUMPDEST SWAP2 ISZERO PUSH2 0x32C JUMPI POP SWAP1 PUSH2 0x327 SWAP2 PUSH2 0x31C DUP3 DUP11 PUSH2 0x50D JUMP JUMPDEST MSTORE PUSH2 0x133 DUP2 DUP10 PUSH2 0x50D JUMP JUMPDEST PUSH2 0x2AA JUMP JUMPDEST SWAP3 POP DUP1 SWAP2 POP MLOAD SWAP4 DUP5 PUSH2 0x18D JUMPI DUP3 MLOAD PUSH3 0x461BCD PUSH1 0xE5 SHL DUP2 MSTORE PUSH1 0x20 DUP2 DUP7 ADD DUP2 DUP2 MSTORE PUSH1 0x16 SWAP2 DUP2 ADD SWAP2 SWAP1 SWAP2 MSTORE PUSH22 0x135D5B1D1A58D85B1B0E8818D85B1B0819985A5B1959 PUSH1 0x52 SHL PUSH1 0x40 DUP3 ADD MSTORE DUP2 SWAP1 PUSH1 0x60 ADD SUB SWAP1 REVERT JUMPDEST PUSH4 0x4E487B71 PUSH1 0xE0 SHL PUSH1 0x0 MSTORE PUSH1 0x41 PUSH1 0x4 MSTORE PUSH1 0x24 PUSH1 0x0 REVERT JUMPDEST PUSH1 0x40 MLOAD SWAP2 SWAP1 PUSH1 0x1F ADD PUSH1 0x1F NOT AND DUP3 ADD PUSH8 0xFFFFFFFFFFFFFFFF DUP2 GT DUP4 DUP3 LT OR PUSH2 0x3B8 JUMPI PUSH1 0x40 MSTORE JUMP JUMPDEST PUSH2 0x37C JUMP JUMPDEST PUSH8 0xFFFFFFFFFFFFFFFF DUP2 GT PUSH2 0x3B8 JUMPI PUSH1 0x5 SHL PUSH1 0x20 ADD SWAP1 JUMP JUMPDEST SWAP1 PUSH2 0x3E7 PUSH2 0x3E2 DUP4 PUSH2 0x3BD JUMP JUMPDEST PUSH2 0x392 JUMP JUMPDEST DUP3 DUP2 MSTORE DUP1 SWAP3 PUSH2 0x3F8 PUSH1 0x1F NOT SWAP2 PUSH2 0x3BD JUMP JUMPDEST ADD SWAP1 PUSH1 0x0 JUMPDEST DUP3 DUP2 LT PUSH2 0x409 JUMPI POP POP POP JUMP JUMPDEST DUP1 PUSH1 0x60 PUSH1 0x20 DUP1 SWAP4 DUP6 ADD ADD MSTORE ADD PUSH2 0x3FD JUMP JUMPDEST PUSH1 0x0 NOT DUP2 EQ PUSH2 0x429 JUMPI PUSH1 0x1 ADD SWAP1 JUMP JUMPDEST PUSH4 0x4E487B71 PUSH1 0xE0 SHL PUSH1 0x0 MSTORE PUSH1 0x11 PUSH1 0x4 MSTORE PUSH1 0x24 PUSH1 0x0 REVERT JUMPDEST PUSH4 0x4E487B71 PUSH1 0xE0 SHL PUSH1 0x0 MSTORE PUSH1 0x32 PUSH1 0x4 MSTORE PUSH1 0x24 PUSH1 0x0 REVERT JUMPDEST SWAP2 SWAP1 DUP2 LT ISZERO PUSH2 0x477 JUMPI PUSH1 0x5 SHL DUP2 ADD CALLDATALOAD SWAP1 PUSH1 0x3E NOT DUP2 CALLDATASIZE SUB ADD DUP3 SLT ISZERO PUSH2 0x1CF JUMPI ADD SWAP1 JUMP JUMPDEST PUSH2 0x43F JUMP JUMPDEST CALLDATALOAD PUSH1 0x1 PUSH1 0x1 PUSH1 0xA0 SHL SUB DUP2 AND DUP2 SUB PUSH2 0x1CF JUMPI SWAP1 JUMP JUMPDEST SWAP1 CALLDATALOAD SWAP1 PUSH1 0x1E NOT DUP2 CALLDATASIZE SUB ADD DUP3 SLT ISZERO PUSH2 0x1CF JUMPI ADD DUP1 CALLDATALOAD SWAP1 PUSH8 0xFFFFFFFFFFFFFFFF DUP3 GT PUSH2 0x1CF JUMPI PUSH1 0x20 ADD SWAP2 DUP2 CALLDATASIZE SUB DUP4 SGT PUSH2 0x1CF JUMPI JUMP JUMPDEST SWAP1 DUP1 SWAP3 SWAP2 DUP3 CALLDATACOPY ADD PUSH1 0x0 DUP2 MSTORE SWAP1 JUMP JUMPDEST RETURNDATASIZE ISZERO PUSH2 0x508 JUMPI RETURNDATASIZE SWAP1 PUSH8 0xFFFFFFFFFFFFFFFF DUP3 GT PUSH2 0x3B8 JUMPI PUSH2 0x4FB PUSH1 0x1F DUP4 ADD PUSH1 0x1F NOT AND PUSH1 0x20 ADD PUSH2 0x392 JUMP JUMPDEST SWAP2 DUP3 MSTORE RETURNDATASIZE PUSH1 0x0 PUSH1 0x20 DUP5 ADD RETURNDATACOPY JUMP JUMPDEST PUSH1 0x60 SWAP1 JUMP JUMPDEST DUP1 MLOAD DUP3 LT ISZERO PUSH2 0x477 JUMPI PUSH1 0x20 SWAP2 PUSH1 0x5 SHL ADD ADD SWAP1 JUMP JUMPDEST ISZERO PUSH2 0x528 JUMPI JUMP JUMPDEST PUSH1 0x40 MLOAD PUSH3 0x461BCD PUSH1 0xE5 SHL DUP2 MSTORE PUSH1 0x20 PUSH1 0x4 DUP3 ADD MSTORE PUSH1 0x15 PUSH1 0x24 DUP3 ADD MSTORE PUSH21 0x82E4E4C2F240D8CADCCEE8D040DAD2E6DAC2E8C6D PUSH1 0x5B SHL PUSH1 0x44 DUP3 ADD MSTORE PUSH1 0x64 SWAP1 REVERT JUMPDEST SWAP2 SWAP1 DUP2 LT ISZERO PUSH2 0x477 JUMPI PUSH1 0x5 SHL ADD SWAP1 JUMP INVALID LOG2 PUSH5 0x6970667358 0x22 SLT KECCAK256 0xBB SIGNEXTEND DUP8 0x4A POP 0xD0 0x23 JUMPDEST ISZERO PUSH8 0x58F7C7A354897FE2 0x25 0xAA 0xC3 REVERT 0xD2 0xE2 ADDMOD CALLDATALOAD 0x2C EQ DUP11 0xF6 0xAA 0xBA PUSH5 0x736F6C6343 STOP ADDMOD SGT STOP CALLER "},"methodIdentifiers":{"multicall((address,bytes)[])":"caa5c23f","multicallWithValue((address,bytes)[],uint256[])":"04bf08be"}}}}}