{"contracts/SplenexDEXAggregator.sol":{"SplenexDEXAggregator":{"abi":[{"inputs":[{"internalType":"address","name":"_revenueWallet","type":"address"}],"stateMutability":"nonpayable","type":"constructor"},{"inputs":[],"name":"InsufficientBalance","type":"error"},{"inputs":[],"name":"InsufficientOutput","type":"error"},{"inputs":[],"name":"InvalidAmount","type":"error"},{"inputs":[],"name":"InvalidRouteType","type":"error"},{"inputs":[],"name":"InvalidRouter","type":"error"},{"inputs":[],"name":"InvalidTokenAddress","type":"error"},{"inputs":[],"name":"SwapFailed","type":"error"},{"inputs":[],"name":"TransferFailed","type":"error"},{"inputs":[],"name":"UnsupportedDEX","type":"error"},{"anonymous":false,"inputs":[{"indexed":false,"internalType":"uint256","name":"chainId","type":"uint256"},{"indexed":false,"internalType":"string","name":"dexName","type":"string"},{"indexed":false,"internalType":"address","name":"router","type":"address"}],"name":"DEXRouterUpdated","type":"event"},{"anonymous":false,"inputs":[{"indexed":true,"internalType":"address","name":"previousOwner","type":"address"},{"indexed":true,"internalType":"address","name":"newOwner","type":"address"}],"name":"OwnershipTransferred","type":"event"},{"anonymous":false,"inputs":[{"indexed":false,"internalType":"enum SplenexDEXAggregator.RouteType","name":"routeType","type":"uint8"},{"indexed":false,"internalType":"string","name":"dexName","type":"string"},{"indexed":false,"internalType":"uint256","name":"expectedOutput","type":"uint256"}],"name":"RouteSelected","type":"event"},{"anonymous":false,"inputs":[{"indexed":true,"internalType":"address","name":"user","type":"address"},{"indexed":true,"internalType":"address","name":"tokenIn","type":"address"},{"indexed":true,"internalType":"address","name":"tokenOut","type":"address"},{"indexed":false,"internalType":"uint256","name":"amountIn","type":"uint256"},{"indexed":false,"internalType":"uint256","name":"feeAmount","type":"uint256"},{"indexed":false,"internalType":"uint256","name":"amountOut","type":"uint256"},{"indexed":false,"internalType":"enum SplenexDEXAggregator.RouteType","name":"routeType","type":"uint8"},{"indexed":false,"internalType":"string","name":"dexName","type":"string"}],"name":"SwapExecuted","type":"event"},{"inputs":[],"name":"BASIS_POINTS","outputs":[{"internalType":"uint256","name":"","type":"uint256"}],"stateMutability":"view","type":"function"},{"inputs":[],"name":"FEE_RATE_BPS","outputs":[{"internalType":"uint256","name":"","type":"uint256"}],"stateMutability":"view","type":"function"},{"inputs":[{"internalType":"address","name":"tokenOut","type":"address"},{"internalType":"uint256","name":"amountIn","type":"uint256"},{"internalType":"uint256","name":"minAmountOut","type":"uint256"},{"internalType":"enum SplenexDEXAggregator.RouteType","name":"routeType","type":"uint8"},{"internalType":"bytes","name":"swapData","type":"bytes"}],"name":"_executeSwapETHWithRouteInternal","outputs":[{"internalType":"uint256","name":"amountOut","type":"uint256"}],"stateMutability":"nonpayable","type":"function"},{"inputs":[{"internalType":"address","name":"tokenIn","type":"address"},{"internalType":"uint256","name":"amountIn","type":"uint256"},{"internalType":"uint256","name":"minAmountOut","type":"uint256"},{"internalType":"enum SplenexDEXAggregator.RouteType","name":"routeType","type":"uint8"},{"internalType":"bytes","name":"swapData","type":"bytes"}],"name":"_executeSwapToETHWithRouteInternal","outputs":[{"internalType":"uint256","name":"amountOut","type":"uint256"}],"stateMutability":"nonpayable","type":"function"},{"inputs":[{"internalType":"address","name":"tokenIn","type":"address"},{"internalType":"address","name":"tokenOut","type":"address"},{"internalType":"uint256","name":"amountIn","type":"uint256"},{"internalType":"uint256","name":"minAmountOut","type":"uint256"},{"internalType":"enum SplenexDEXAggregator.RouteType","name":"routeType","type":"uint8"},{"internalType":"bytes","name":"swapData","type":"bytes"}],"name":"_executeSwapWithRouteInternal","outputs":[{"internalType":"uint256","name":"amountOut","type":"uint256"}],"stateMutability":"nonpayable","type":"function"},{"inputs":[{"internalType":"uint256","name":"swapAmount","type":"uint256"}],"name":"calculateFee","outputs":[{"internalType":"uint256","name":"feeAmount","type":"uint256"}],"stateMutability":"pure","type":"function"},{"inputs":[{"internalType":"uint256","name":"","type":"uint256"},{"internalType":"string","name":"","type":"string"}],"name":"dexRouters","outputs":[{"internalType":"address","name":"","type":"address"}],"stateMutability":"view","type":"function"},{"inputs":[{"internalType":"address","name":"token","type":"address"},{"internalType":"uint256","name":"amount","type":"uint256"}],"name":"emergencyWithdraw","outputs":[],"stateMutability":"nonpayable","type":"function"},{"inputs":[{"internalType":"string","name":"dexName","type":"string"}],"name":"getDEXRouter","outputs":[{"internalType":"address","name":"","type":"address"}],"stateMutability":"view","type":"function"},{"inputs":[],"name":"getFeeRate","outputs":[{"internalType":"uint256","name":"","type":"uint256"}],"stateMutability":"pure","type":"function"},{"inputs":[],"name":"getSupportedDEXes","outputs":[{"internalType":"string[]","name":"","type":"string[]"}],"stateMutability":"view","type":"function"},{"inputs":[{"internalType":"string","name":"dexName","type":"string"}],"name":"isDEXSupported","outputs":[{"internalType":"bool","name":"","type":"bool"}],"stateMutability":"view","type":"function"},{"inputs":[],"name":"owner","outputs":[{"internalType":"address","name":"","type":"address"}],"stateMutability":"view","type":"function"},{"inputs":[],"name":"renounceOwnership","outputs":[],"stateMutability":"nonpayable","type":"function"},{"inputs":[],"name":"revenueWallet","outputs":[{"internalType":"address","name":"","type":"address"}],"stateMutability":"view","type":"function"},{"inputs":[{"internalType":"uint256","name":"","type":"uint256"}],"name":"supportedDEXes","outputs":[{"internalType":"string","name":"","type":"string"}],"stateMutability":"view","type":"function"},{"inputs":[{"internalType":"address","name":"tokenOut","type":"address"},{"internalType":"uint256","name":"minAmountOut","type":"uint256"},{"internalType":"enum SplenexDEXAggregator.RouteType[]","name":"routeTypes","type":"uint8[]"},{"internalType":"bytes[]","name":"swapData","type":"bytes[]"}],"name":"swapETHWithRouteSelection","outputs":[],"stateMutability":"payable","type":"function"},{"inputs":[{"internalType":"address","name":"tokenIn","type":"address"},{"internalType":"uint256","name":"amountIn","type":"uint256"},{"internalType":"uint256","name":"minAmountOut","type":"uint256"},{"internalType":"enum SplenexDEXAggregator.RouteType[]","name":"routeTypes","type":"uint8[]"},{"internalType":"bytes[]","name":"swapData","type":"bytes[]"}],"name":"swapToETHWithRouteSelection","outputs":[],"stateMutability":"payable","type":"function"},{"inputs":[{"internalType":"address","name":"tokenIn","type":"address"},{"internalType":"address","name":"tokenOut","type":"address"},{"internalType":"uint256","name":"amountIn","type":"uint256"},{"internalType":"uint256","name":"minAmountOut","type":"uint256"},{"internalType":"enum SplenexDEXAggregator.RouteType[]","name":"routeTypes","type":"uint8[]"},{"internalType":"bytes[]","name":"swapData","type":"bytes[]"}],"name":"swapWithRouteSelection","outputs":[],"stateMutability":"payable","type":"function"},{"inputs":[{"internalType":"address","name":"tokenIn","type":"address"},{"internalType":"address","name":"tokenOut","type":"address"},{"internalType":"uint256","name":"amountIn","type":"uint256"},{"internalType":"uint256","name":"minAmountOut","type":"uint256"},{"internalType":"enum SplenexDEXAggregator.RouteType","name":"routeType","type":"uint8"},{"internalType":"bytes","name":"swapData","type":"bytes"}],"name":"swapWithSpecificRoute","outputs":[],"stateMutability":"payable","type":"function"},{"inputs":[{"internalType":"address","name":"newOwner","type":"address"}],"name":"transferOwnership","outputs":[],"stateMutability":"nonpayable","type":"function"},{"inputs":[{"internalType":"uint256","name":"chainId","type":"uint256"},{"internalType":"string","name":"dexName","type":"string"},{"internalType":"address","name":"routerAddress","type":"address"}],"name":"updateDEXRouter","outputs":[],"stateMutability":"nonpayable","type":"function"},{"stateMutability":"payable","type":"receive"}],"evm":{"bytecode":{"linkReferences":{},"object":"60a0346200055157601f6200264638819003918201601f191683019291906001600160401b03841183851017620005565781602092849260409687528339810103126200055157516001600160a01b0380821691908282036200055157600092600184556001543360018060a01b03198216176001558551923391167f8be0079c531659141344cd1fd0a4f28419497f9722a3daafe3b4186f6b6457e08680a31562000542575060805281516101c081016001600160401b038111828210176200052e578352620000cf6200056c565b60048152636c69666960e01b60208201528152620000ec6200056c565b9060059182815264062d2dcc6d60db1b60208201526020820152620001106200056c565b6002815261060f60f31b6020820152848201526200012d6200056c565b600d81526c3830b731b0b5b2a9bbb0b82b1960991b60208201526060820152620001566200056c565b60098152683ab734b9bbb0b82b1960b91b602082015260808201526200017b6200056c565b6009815268756e6973776170563360b81b602082015260a0820152620001a06200056c565b600981526807375736869737761760bc1b602082015260c0820152620001c56200056c565b60098152680717569636b737761760bc1b602082015260e0820152620001ea6200056c565b60098152687472616465726a6f6560b81b6020820152610100820152620002106200056c565b600a8152690737069726974737761760b41b6020820152610120820152620002376200056c565b600a815269073706f6f6b79737761760b41b60208201526101408201526200025e6200056c565b60078152660617065737761760cc1b6020820152610160820152620002826200056c565b600681526506269737761760d41b6020820152610180820152620002a56200056c565b60048152630dac8caf60e31b60208201526101a0820152600354600e60035580600e106200047a575b506003835282907fc2575a0e9e593c00f959f8c92f12db2869c3395a3b0502d05e2516446f71f85b905b600e83106200033c5785516120639081620005e3823960805181818161043c0152818161048e01528181610a8e01528181610cd401528181610f57015261117e0152f35b80518051906001600160401b03821162000466576200035c84546200058c565b601f811162000428575b50602090601f8311600114620003b65792826001949360209386958b92620003aa575b5050600019600383901b1c191690841b1785555b01920192019190620002f8565b01519050388062000389565b908488526020882091885b601f19851681106200040f575083602093600196938796938794601f19811610620003f5575b505050811b0185556200039d565b015160001960f88460031b161c19169055388080620003e7565b91926020600181928685015181550194019201620003c1565b620004549085895260208920601f8501891c810191602086106200045b575b601f01891c0190620005c9565b3862000366565b909150819062000447565b634e487b7160e01b87526041600452602487fd5b600384527fc2575a0e9e593c00f959f8c92f12db2869c3395a3b0502d05e2516446f71f85b017fc2575a0e9e593c00f959f8c92f12db2869c3395a3b0502d05e2516446f71f8695b818110620004d15750620002ce565b8085620004e1600193546200058c565b80620004f1575b505001620004c2565b601f8111841462000508575081555b8538620004e8565b82825262000524601f602084209201881c8201858301620005c9565b8183555562000500565b634e487b7160e01b83526041600452602483fd5b630f58058360e11b8152600490fd5b600080fd5b634e487b7160e01b600052604160045260246000fd5b60408051919082016001600160401b038111838210176200055657604052565b90600182811c92168015620005be575b6020831014620005a857565b634e487b7160e01b600052602260045260246000fd5b91607f16916200059c565b818110620005d5575050565b60008155600101620005c956fe6080604052600436101561001b575b361561001957600080fd5b005b60003560e01c806302b40eae146110bf57806306414a39146110a05780630a89fa82146107fc578063386e07bf14610f975780633b5a082114610d035780634447842514610cbe5780634caf81f514610c5557806353326fa314610ba55780636fc4567914610b86578063715018a614610b2957806378e3399d14610ac15780638043d8301461081857806384e5eed0146107fc57806389b476ec1461070f5780638da5cb5b146106e657806395ccea671461068457806399a5d7471461064e578063d88545ba146105e4578063e1f1c4a7146105c7578063f2fde38b146104fe578063fe7088f91461013d5763ff81b3080361000e573461013857602061013061012536611419565b945092919091611abb565b604051908152f35b600080fd5b60c0366003190112610138576101516111b4565b6001600160a01b03906024358281168103610138576001600160401b0392608435848111610138576101879036906004016112a6565b909460a435908111610138576101a19036906004016112a6565b9490936101ac611602565b838216158080156104f4575b6104e257604435156104d0578684036104d0576101db60443530338887166116a0565b6032604435029760443589046032036104ba576101fe6127108a046044356114c4565b916127108a0461042b575b50600094801561041557600e823510156101385781359760405161022c816112d6565b600081529960005b8381106102ee5750505050505082156102dc5760643583106102ca577fa5419696c7cf4550bec4ba9809ee70d961231dc910170aa47919d28f630c69679660008051602061200e8339815191526102c0956102928633838716611658565b806040519416941692806102b18a8a89612710339804604435866115a5565b0390a4604051938493846115d9565b0390a16001600055005b60405163bb2875c360e01b8152600490fd5b60405163081ceff360e41b8152600490fd5b6102f9818587611501565b35600e811015610138578a899161034b610314858789611520565b92909380604051966306414a3960e01b88521660048701528c1660248601528a604486015260643560648601526084850190611561565b60c060a48401528280610366602094859460c4840191611584565b03816000305af19182916000936103e5575b505061038d575061038890611511565b610234565b89811161039f575b5061038890611511565b9298509a509850956103b28a8385611501565b35600e81101561013857986103c88b8486611501565b35600e811015610138576103de61038891611d86565b9b90610395565b9080929350813d831161040e575b6103fd818361130c565b810103126101385751908f80610378565b503d6103f3565b634e487b7160e01b600052603260045260246000fd5b156104845760008080806127108d047f00000000000000000000000000000000000000000000000000000000000000005af16104656114d1565b5015610472575b89610209565b6040516312171d8360e31b8152600490fd5b6104b56127108a047f0000000000000000000000000000000000000000000000000000000000000000888716611658565b61046c565b634e487b7160e01b600052601160045260246000fd5b60405163162908e360e11b8152600490fd5b604051630f58058360e11b8152600490fd5b50848216156101b8565b34610138576020366003190112610138576105176111b4565b61051f61146c565b6001600160a01b0390811690811561057357600154826bffffffffffffffffffffffff60a01b821617600155167f8be0079c531659141344cd1fd0a4f28419497f9722a3daafe3b4186f6b6457e0600080a3005b60405162461bcd60e51b815260206004820152602660248201527f4f776e61626c653a206e6577206f776e657220697320746865207a65726f206160448201526564647265737360d01b6064820152608490fd5b346101385760003660031901126101385760206040516127108152f35b34610138576020366003190112610138576004356001600160401b0381116101385761061660209136906004016111ca565b9046600052600283526040600020918060405192833781019182529081900382019020546040516001600160a01b0390911615158152f35b34610138576020366003190112610138576004356032810290808204603214901517156104ba5760209061271060405191048152f35b346101385760403660031901126101385761069d6111b4565b602435906106a961146c565b6001600160a01b03908116806106d7575060008080938193600154165af16106cf6114d1565b501561047257005b61001992916001541690611658565b34610138576000366003190112610138576001546040516001600160a01b039091168152602090f35b34610138576060366003190112610138576004356024356001600160401b038111610138576107429036906004016111ca565b90916044356001600160a01b038116908190036101385761076161146c565b80156107ea576107df7f89d28388318bab8fa8f1b13024d02b273ad19672c583ce86798dda98044f3eb0948360005260026020526040600020602060405180928885833788820190815203019020836bffffffffffffffffffffffff60a01b8254161790556040519485948552606060208601526060850191611584565b9060408301520390a1005b60405163466d7fef60e01b8152600490fd5b3461013857600036600319011261013857602060405160328152f35b60a03660031901126101385761082c6111b4565b6001600160401b036064358181116101385761084c9036906004016112a6565b9091608435908111610138576108669036906004016112a6565b939091610871611602565b6001600160a01b038216156104e257602435156104d0578481036104d0576108a660243530336001600160a01b0386166116a0565b6032602435029460243586046032036104ba576108c961271087046024356114c4565b946127108704610a84575b6000928015610415578135600e81101561013857956040516108f5816112d6565b600081529760005b83811061098a5750505050505080156102dc5760443581106102ca57600080808084335af161092a6114d1565b50156104725760006102c0927fa5419696c7cf4550bec4ba9809ee70d961231dc910170aa47919d28f630c69679660008051602061200e8339815191526040519260018060a01b031692806102b18a8a89612710339804602435866115a5565b610995818587611501565b35600e811015610138576109d590896109af848a88611520565b906040519485928392636fc4567960e01b845260209687968b604435916004880161188d565b03816000305af1918291600093610a54575b50506109fc57506109f790611511565b6108fd565b878111610a0e575b506109f790611511565b9296509850965093610a21888385611501565b35600e8110156101385796610a37898486611501565b35600e81101561013857610a4d6109f791611d86565b9990610a04565b9080929350813d8311610a7d575b610a6c818361130c565b810103126101385751908d806109e7565b503d610a62565b610abc61271088047f00000000000000000000000000000000000000000000000000000000000000006001600160a01b038716611658565b6108d4565b34610138576020366003190112610138576004356001600160401b03811161013857610af360209136906004016111ca565b9046600052600283526040600020918060405192833781019182529081900382019020546040516001600160a01b039091168152f35b3461013857600036600319011261013857610b4261146c565b600180546001600160a01b031981169091556000906001600160a01b03167f8be0079c531659141344cd1fd0a4f28419497f9722a3daafe3b4186f6b6457e08280a3005b34610138576020610130610b9936611419565b949390939291926118c5565b34610138576040366003190112610138576024356001600160401b0381116101385736602382011215610138578060040135610be0816113fe565b90610bee604051928361130c565b8082526020820190366024828601011161013857602081600092602483970185378401015260043560005260028352604060002091610c356040519283925192839161125e565b81019182529081900382019020546040516001600160a01b039091168152f35b346101385760203660031901126101385760043560035481101561013857610ca6610cba9160036000527fc2575a0e9e593c00f959f8c92f12db2869c3395a3b0502d05e2516446f71f85b0161132d565b604051918291602083526020830190611281565b0390f35b34610138576000366003190112610138576040517f00000000000000000000000000000000000000000000000000000000000000006001600160a01b03168152602090f35b608036600319011261013857610d176111b4565b6001600160401b0360443581811161013857610d379036906004016112a6565b909160643590811161013857610d519036906004016112a6565b9091610d5b611602565b6001600160a01b038516156104e25734156104d0578181036104d05760323402913483046032036104ba57610d946127108404346114c4565b946127108404610f4b575b6000928015610415578135600e8110156101385795604051610dc0816112d6565b600081529760005b838110610e515750505050505080156102dc5760243581106102ca577fa5419696c7cf4550bec4ba9809ee70d961231dc910170aa47919d28f630c6967946102c092600090610e2184336001600160a01b038616611658565b60008051602061200e8339815191526040519360018060a01b031693806102b18a8a8961271033980434866115a5565b610e5c818587611501565b35600e81101561013857610e9c908c610e76848a88611520565b906040519485928392631ff0366160e31b845260209687968b602435916004880161188d565b03816000305af1918291600093610f1b575b5050610ec35750610ebe90611511565b610dc8565b878111610ed5575b50610ebe90611511565b9296509850965093610ee8888385611501565b35600e8110156101385796610efe898486611501565b35600e81101561013857610f14610ebe91611d86565b9990610ecb565b9080929350813d8311610f44575b610f33818361130c565b810103126101385751908d80610eae565b503d610f29565b600080808061271088047f00000000000000000000000000000000000000000000000000000000000000005af1610f806114d1565b50610d9f576040516312171d8360e31b8152600490fd5b34610138576000366003190112610138576003546001600160401b03811161108a5760405190602090610fcf828260051b018461130c565b808352818301908160036000527fc2575a0e9e593c00f959f8c92f12db2869c3395a3b0502d05e2516446f71f85b6000915b8383106110685750505050604051918083019381845251809452604083019360408160051b85010192916000955b82871061103c5785850386f35b909192938280611058600193603f198a82030186528851611281565b960192019601959291909261102f565b6001868192611079859a999a61132d565b815201920192019190959495611001565b634e487b7160e01b600052604160045260246000fd5b346101385760206101306110b3366111f7565b959094509290926118c5565b6110c8366111f7565b6110d6969193959296611602565b6001600160a01b0382811696871580156111aa575b6104e25786156104d0576111018730338b6116a0565b60328702928784046032036104ba5760008051602061200e833981519152968a6111489361271061116e970497611138898d6114c4565b908d8a80611178575b50506118c5565b93169661115684338a611658565b61115f81611d86565b906040519485943398866115a5565b0390a46001600055005b6111a3917f000000000000000000000000000000000000000000000000000000000000000090611658565b8d8a611141565b50818516156110eb565b600435906001600160a01b038216820361013857565b9181601f84011215610138578235916001600160401b038311610138576020838186019501011161013857565b9060c0600319830112610138576001600160a01b039160043583811681036101385792602435908116810361013857916044359160643591608435600e811015610138579160a435906001600160401b0382116101385761125a916004016111ca565b9091565b60005b8381106112715750506000910152565b8181015183820152602001611261565b9060209161129a8151809281855285808601910161125e565b601f01601f1916010190565b9181601f84011215610138578235916001600160401b038311610138576020808501948460051b01011161013857565b602081019081106001600160401b0382111761108a57604052565b604081019081106001600160401b0382111761108a57604052565b90601f801991011681019081106001600160401b0382111761108a57604052565b90604051906000835490600182811c908084169687156113f4575b60209485841089146113e057879884899798995290816000146113be575060011461137f575b50505061137d9250038361130c565b565b600090815285812095935091905b8183106113a657505061137d935082010138808061136e565b8554888401850152948501948794509183019161138d565b9250505061137d94925060ff191682840152151560051b82010138808061136e565b634e487b7160e01b85526022600452602485fd5b91607f1691611348565b6001600160401b03811161108a57601f01601f191660200190565b60a0600319820112610138576004356001600160a01b038116810361013857916024359160443591606435600e8110156101385791608435906001600160401b0382116101385761125a916004016111ca565b6001546001600160a01b0316330361148057565b606460405162461bcd60e51b815260206004820152602060248201527f4f776e61626c653a2063616c6c6572206973206e6f7420746865206f776e65726044820152fd5b919082039182116104ba57565b3d156114fc573d906114e2826113fe565b916114f0604051938461130c565b82523d6000602084013e565b606090565b91908110156104155760051b0190565b60001981146104ba5760010190565b91908110156104155760051b81013590601e19813603018212156101385701908135916001600160401b038311610138576020018236038113610138579190565b90600e82101561156e5752565b634e487b7160e01b600052602160045260246000fd5b908060209392818452848401376000828201840152601f01601f1916010190565b919360a0936115d696956115c9938552602085015260408401526060830190611561565b8160808201520190611281565b90565b9392916115fd906115ec86604094611561565b606060208701526060860190611281565b930152565b600260005414611613576002600055565b60405162461bcd60e51b815260206004820152601f60248201527f5265656e7472616e637947756172643a207265656e7472616e742063616c6c006044820152606490fd5b60405163a9059cbb60e01b60208201526001600160a01b039092166024830152604482019290925261137d9161169b82606481015b03601f19810184528361130c565b6116f4565b6040516323b872dd60e01b60208201526001600160a01b03928316602482015292909116604483015260648083019390935291815260a08101918183106001600160401b0384111761108a5761137d926040525b60018060a01b03169061175360405161170c816112f1565b6020938482527f5361666545524332303a206c6f772d6c6576656c2063616c6c206661696c6564858301526000808587829751910182855af161174d6114d1565b916117f0565b8051918215918483156117c5575b50505090501561176e5750565b6084906040519062461bcd60e51b82526004820152602a60248201527f5361666545524332303a204552433230206f7065726174696f6e20646964206e6044820152691bdd081cdd58d8d9595960b21b6064820152fd5b9193818094500103126117ec578201519081151582036117e9575080388084611761565b80fd5b5080fd5b919290156118525750815115611804575090565b3b1561180d5790565b60405162461bcd60e51b815260206004820152601d60248201527f416464726573733a2063616c6c20746f206e6f6e2d636f6e74726163740000006044820152606490fd5b8251909150156118655750805190602001fd5b60405162461bcd60e51b815260206004820152908190611889906024830190611281565b0390fd5b919360a0936115d697956118b893600180881b03168552602085015260408401526060830190611561565b8160808201520191611584565b9091949392600e81101561156e578061193457506118ee919030906001600160a01b0316611c52565b816040519283928337810160009283928284809452039082305af1906119126114d1565b91156102dc576020828051810103126117e95750602001519081106102dc5790565b91939091600181036119ff57506000924684526002602052604094602586862087519064062d2dcc6d60db1b8252600582015260018060a01b039182912054169485156119ee5792611990879694938588979594889516611c52565b8288519384928337810182815203925af1906119aa6114d1565b91156119dd576020828051810103126117e95750602001519182106119cd575090565b5163081ceff360e41b8152600490fd5b825163081ceff360e41b8152600490fd5b8751634a92f12b60e01b8152600490fd5b60028103611a5457506000924684526002602052604094602286862087519061060f60f31b8252600282015260018060a01b039182912054169485156119ee5792611990879694938588979594889516611c52565b611a6090949394611d86565b9360009346855260026020526040958686206020611a868951938481519384920161125e565b82019081528190036020019020546001600160a01b039081169485156119ee5792611990879694938588979594889516611c52565b92909391600e81101561156e5780611b10575091816000938493604051928392833781018481520391305af1611aef6114d1565b90156102dc5760208180518101031261013857602001519081106102dc5790565b60018103611b825750600091468352600260205260409384842085519064062d2dcc6d60db1b82526005820152602560018060a01b0391205416928315611b71579184939184938288519384928337810185815203925af1906119aa6114d1565b8551634a92f12b60e01b8152600490fd5b60028103611be05750600091468352600260205260409384842085519061060f60f31b82526002820152602260018060a01b0391205416928315611b71579184939184938288519384928337810185815203925af1906119aa6114d1565b611bec90939293611d86565b926000924684526002602052604094858520906020611c138851928381519384920161125e565b8101918252908190036020019020546001600160a01b0316928315611b71579184939184938288519384928337810185815203925af1906119aa6114d1565b91909181158015611d01575b15611c9d5760405163095ea7b360e01b60208201526001600160a01b039093166024840152604483019190915261137d919061169b826064810161168d565b60405162461bcd60e51b815260206004820152603660248201527f5361666545524332303a20617070726f76652066726f6d206e6f6e2d7a65726f60448201527520746f206e6f6e2d7a65726f20616c6c6f77616e636560501b6064820152608490fd5b50604051636eb1769f60e11b81523060048201526001600160a01b0384811660248301526020908290604490829086165afa908115611d7a57600091611d49575b5015611c5e565b906020823d8211611d72575b81611d626020938361130c565b810103126117e957505138611d42565b3d9150611d55565b6040513d6000823e3d90fd5b600e81101561156e578015611fec5760018114611fca5760028114611fab5760038114611f815760048114611f5b5760058114611f355760068114611f0f5760078114611ee95760088114611ec35760098114611e9c57600a8114611e7557600b8114611e5157600c8114611e2e57600d14611e0e57604051632716708360e21b8152600490fd5b604051611e1a816112f1565b60048152630dac8caf60e31b602082015290565b50604051611e3b816112f1565b600681526506269737761760d41b602082015290565b50604051611e5e816112f1565b60078152660617065737761760cc1b602082015290565b50604051611e82816112f1565b600a815269073706f6f6b79737761760b41b602082015290565b50604051611ea9816112f1565b600a8152690737069726974737761760b41b602082015290565b50604051611ed0816112f1565b60098152687472616465726a6f6560b81b602082015290565b50604051611ef6816112f1565b60098152680717569636b737761760bc1b602082015290565b50604051611f1c816112f1565b600981526807375736869737761760bc1b602082015290565b50604051611f42816112f1565b6009815268756e6973776170563360b81b602082015290565b50604051611f68816112f1565b60098152683ab734b9bbb0b82b1960b91b602082015290565b50604051611f8e816112f1565b600d81526c3830b731b0b5b2a9bbb0b82b1960991b602082015290565b50604051611fb8816112f1565b6002815261060f60f31b602082015290565b50604051611fd7816112f1565b6005815264062d2dcc6d60db1b602082015290565b50604051611ff9816112f1565b60048152636c69666960e01b60208201529056fec0e58eaa8d01f80896ea473f014b7300b4816ed1cc0335591467ba75bb552837a2646970667358221220a1ebffa5bd035b6319139639819e7804e9d423ac8d4fa83f0d963fa731d6cf5364736f6c63430008130033","opcodes":"PUSH1 0xA0 CALLVALUE PUSH3 0x551 JUMPI PUSH1 0x1F PUSH3 0x2646 CODESIZE DUP2 SWAP1 SUB SWAP2 DUP3 ADD PUSH1 0x1F NOT AND DUP4 ADD SWAP3 SWAP2 SWAP1 PUSH1 0x1 PUSH1 0x1 PUSH1 0x40 SHL SUB DUP5 GT DUP4 DUP6 LT OR PUSH3 0x556 JUMPI DUP2 PUSH1 0x20 SWAP3 DUP5 SWAP3 PUSH1 0x40 SWAP7 DUP8 MSTORE DUP4 CODECOPY DUP2 ADD SUB SLT PUSH3 0x551 JUMPI MLOAD PUSH1 0x1 PUSH1 0x1 PUSH1 0xA0 SHL SUB DUP1 DUP3 AND SWAP2 SWAP1 DUP3 DUP3 SUB PUSH3 0x551 JUMPI PUSH1 0x0 SWAP3 PUSH1 0x1 DUP5 SSTORE PUSH1 0x1 SLOAD CALLER PUSH1 0x1 DUP1 PUSH1 0xA0 SHL SUB NOT DUP3 AND OR PUSH1 0x1 SSTORE DUP6 MLOAD SWAP3 CALLER SWAP2 AND PUSH32 0x8BE0079C531659141344CD1FD0A4F28419497F9722A3DAAFE3B4186F6B6457E0 DUP7 DUP1 LOG3 ISZERO PUSH3 0x542 JUMPI POP PUSH1 0x80 MSTORE DUP2 MLOAD PUSH2 0x1C0 DUP2 ADD PUSH1 0x1 PUSH1 0x1 PUSH1 0x40 SHL SUB DUP2 GT DUP3 DUP3 LT OR PUSH3 0x52E JUMPI DUP4 MSTORE PUSH3 0xCF PUSH3 0x56C JUMP JUMPDEST PUSH1 0x4 DUP2 MSTORE PUSH4 0x6C696669 PUSH1 0xE0 SHL PUSH1 0x20 DUP3 ADD MSTORE DUP2 MSTORE PUSH3 0xEC PUSH3 0x56C JUMP JUMPDEST SWAP1 PUSH1 0x5 SWAP2 DUP3 DUP2 MSTORE PUSH5 0x62D2DCC6D PUSH1 0xDB SHL PUSH1 0x20 DUP3 ADD MSTORE PUSH1 0x20 DUP3 ADD MSTORE PUSH3 0x110 PUSH3 0x56C JUMP JUMPDEST PUSH1 0x2 DUP2 MSTORE PUSH2 0x60F PUSH1 0xF3 SHL PUSH1 0x20 DUP3 ADD MSTORE DUP5 DUP3 ADD MSTORE PUSH3 0x12D PUSH3 0x56C JUMP JUMPDEST PUSH1 0xD DUP2 MSTORE PUSH13 0x3830B731B0B5B2A9BBB0B82B19 PUSH1 0x99 SHL PUSH1 0x20 DUP3 ADD MSTORE PUSH1 0x60 DUP3 ADD MSTORE PUSH3 0x156 PUSH3 0x56C JUMP JUMPDEST PUSH1 0x9 DUP2 MSTORE PUSH9 0x3AB734B9BBB0B82B19 PUSH1 0xB9 SHL PUSH1 0x20 DUP3 ADD MSTORE PUSH1 0x80 DUP3 ADD MSTORE PUSH3 0x17B PUSH3 0x56C JUMP JUMPDEST PUSH1 0x9 DUP2 MSTORE PUSH9 0x756E69737761705633 PUSH1 0xB8 SHL PUSH1 0x20 DUP3 ADD MSTORE PUSH1 0xA0 DUP3 ADD MSTORE PUSH3 0x1A0 PUSH3 0x56C JUMP JUMPDEST PUSH1 0x9 DUP2 MSTORE PUSH9 0x73757368697377617 PUSH1 0xBC SHL PUSH1 0x20 DUP3 ADD MSTORE PUSH1 0xC0 DUP3 ADD MSTORE PUSH3 0x1C5 PUSH3 0x56C JUMP JUMPDEST PUSH1 0x9 DUP2 MSTORE PUSH9 0x717569636B7377617 PUSH1 0xBC SHL PUSH1 0x20 DUP3 ADD MSTORE PUSH1 0xE0 DUP3 ADD MSTORE PUSH3 0x1EA PUSH3 0x56C JUMP JUMPDEST PUSH1 0x9 DUP2 MSTORE PUSH9 0x7472616465726A6F65 PUSH1 0xB8 SHL PUSH1 0x20 DUP3 ADD MSTORE PUSH2 0x100 DUP3 ADD MSTORE PUSH3 0x210 PUSH3 0x56C JUMP JUMPDEST PUSH1 0xA DUP2 MSTORE PUSH10 0x7370697269747377617 PUSH1 0xB4 SHL PUSH1 0x20 DUP3 ADD MSTORE PUSH2 0x120 DUP3 ADD MSTORE PUSH3 0x237 PUSH3 0x56C JUMP JUMPDEST PUSH1 0xA DUP2 MSTORE PUSH10 0x73706F6F6B797377617 PUSH1 0xB4 SHL PUSH1 0x20 DUP3 ADD MSTORE PUSH2 0x140 DUP3 ADD MSTORE PUSH3 0x25E PUSH3 0x56C JUMP JUMPDEST PUSH1 0x7 DUP2 MSTORE PUSH7 0x6170657377617 PUSH1 0xCC SHL PUSH1 0x20 DUP3 ADD MSTORE PUSH2 0x160 DUP3 ADD MSTORE PUSH3 0x282 PUSH3 0x56C JUMP JUMPDEST PUSH1 0x6 DUP2 MSTORE PUSH6 0x62697377617 PUSH1 0xD4 SHL PUSH1 0x20 DUP3 ADD MSTORE PUSH2 0x180 DUP3 ADD MSTORE PUSH3 0x2A5 PUSH3 0x56C JUMP JUMPDEST PUSH1 0x4 DUP2 MSTORE PUSH4 0xDAC8CAF PUSH1 0xE3 SHL PUSH1 0x20 DUP3 ADD MSTORE PUSH2 0x1A0 DUP3 ADD MSTORE PUSH1 0x3 SLOAD PUSH1 0xE PUSH1 0x3 SSTORE DUP1 PUSH1 0xE LT PUSH3 0x47A JUMPI JUMPDEST POP PUSH1 0x3 DUP4 MSTORE DUP3 SWAP1 PUSH32 0xC2575A0E9E593C00F959F8C92F12DB2869C3395A3B0502D05E2516446F71F85B SWAP1 JUMPDEST PUSH1 0xE DUP4 LT PUSH3 0x33C JUMPI DUP6 MLOAD PUSH2 0x2063 SWAP1 DUP2 PUSH3 0x5E3 DUP3 CODECOPY PUSH1 0x80 MLOAD DUP2 DUP2 DUP2 PUSH2 0x43C ADD MSTORE DUP2 DUP2 PUSH2 0x48E ADD MSTORE DUP2 DUP2 PUSH2 0xA8E ADD MSTORE DUP2 DUP2 PUSH2 0xCD4 ADD MSTORE DUP2 DUP2 PUSH2 0xF57 ADD MSTORE PUSH2 0x117E ADD MSTORE RETURN JUMPDEST DUP1 MLOAD DUP1 MLOAD SWAP1 PUSH1 0x1 PUSH1 0x1 PUSH1 0x40 SHL SUB DUP3 GT PUSH3 0x466 JUMPI PUSH3 0x35C DUP5 SLOAD PUSH3 0x58C JUMP JUMPDEST PUSH1 0x1F DUP2 GT PUSH3 0x428 JUMPI JUMPDEST POP PUSH1 0x20 SWAP1 PUSH1 0x1F DUP4 GT PUSH1 0x1 EQ PUSH3 0x3B6 JUMPI SWAP3 DUP3 PUSH1 0x1 SWAP5 SWAP4 PUSH1 0x20 SWAP4 DUP7 SWAP6 DUP12 SWAP3 PUSH3 0x3AA JUMPI JUMPDEST POP POP PUSH1 0x0 NOT PUSH1 0x3 DUP4 SWAP1 SHL SHR NOT AND SWAP1 DUP5 SHL OR DUP6 SSTORE JUMPDEST ADD SWAP3 ADD SWAP3 ADD SWAP2 SWAP1 PUSH3 0x2F8 JUMP JUMPDEST ADD MLOAD SWAP1 POP CODESIZE DUP1 PUSH3 0x389 JUMP JUMPDEST SWAP1 DUP5 DUP9 MSTORE PUSH1 0x20 DUP9 KECCAK256 SWAP2 DUP9 JUMPDEST PUSH1 0x1F NOT DUP6 AND DUP2 LT PUSH3 0x40F JUMPI POP DUP4 PUSH1 0x20 SWAP4 PUSH1 0x1 SWAP7 SWAP4 DUP8 SWAP7 SWAP4 DUP8 SWAP5 PUSH1 0x1F NOT DUP2 AND LT PUSH3 0x3F5 JUMPI JUMPDEST POP POP POP DUP2 SHL ADD DUP6 SSTORE PUSH3 0x39D JUMP JUMPDEST ADD MLOAD PUSH1 0x0 NOT PUSH1 0xF8 DUP5 PUSH1 0x3 SHL AND SHR NOT AND SWAP1 SSTORE CODESIZE DUP1 DUP1 PUSH3 0x3E7 JUMP JUMPDEST SWAP2 SWAP3 PUSH1 0x20 PUSH1 0x1 DUP2 SWAP3 DUP7 DUP6 ADD MLOAD DUP2 SSTORE ADD SWAP5 ADD SWAP3 ADD PUSH3 0x3C1 JUMP JUMPDEST PUSH3 0x454 SWAP1 DUP6 DUP10 MSTORE PUSH1 0x20 DUP10 KECCAK256 PUSH1 0x1F DUP6 ADD DUP10 SHR DUP2 ADD SWAP2 PUSH1 0x20 DUP7 LT PUSH3 0x45B JUMPI JUMPDEST PUSH1 0x1F ADD DUP10 SHR ADD SWAP1 PUSH3 0x5C9 JUMP JUMPDEST CODESIZE PUSH3 0x366 JUMP JUMPDEST SWAP1 SWAP2 POP DUP2 SWAP1 PUSH3 0x447 JUMP JUMPDEST PUSH4 0x4E487B71 PUSH1 0xE0 SHL DUP8 MSTORE PUSH1 0x41 PUSH1 0x4 MSTORE PUSH1 0x24 DUP8 REVERT JUMPDEST PUSH1 0x3 DUP5 MSTORE PUSH32 0xC2575A0E9E593C00F959F8C92F12DB2869C3395A3B0502D05E2516446F71F85B ADD PUSH32 0xC2575A0E9E593C00F959F8C92F12DB2869C3395A3B0502D05E2516446F71F869 JUMPDEST DUP2 DUP2 LT PUSH3 0x4D1 JUMPI POP PUSH3 0x2CE JUMP JUMPDEST DUP1 DUP6 PUSH3 0x4E1 PUSH1 0x1 SWAP4 SLOAD PUSH3 0x58C JUMP JUMPDEST DUP1 PUSH3 0x4F1 JUMPI JUMPDEST POP POP ADD PUSH3 0x4C2 JUMP JUMPDEST PUSH1 0x1F DUP2 GT DUP5 EQ PUSH3 0x508 JUMPI POP DUP2 SSTORE JUMPDEST DUP6 CODESIZE PUSH3 0x4E8 JUMP JUMPDEST DUP3 DUP3 MSTORE PUSH3 0x524 PUSH1 0x1F PUSH1 0x20 DUP5 KECCAK256 SWAP3 ADD DUP9 SHR DUP3 ADD DUP6 DUP4 ADD PUSH3 0x5C9 JUMP JUMPDEST DUP2 DUP4 SSTORE SSTORE PUSH3 0x500 JUMP JUMPDEST PUSH4 0x4E487B71 PUSH1 0xE0 SHL DUP4 MSTORE PUSH1 0x41 PUSH1 0x4 MSTORE PUSH1 0x24 DUP4 REVERT JUMPDEST PUSH4 0xF580583 PUSH1 0xE1 SHL DUP2 MSTORE PUSH1 0x4 SWAP1 REVERT JUMPDEST PUSH1 0x0 DUP1 REVERT JUMPDEST PUSH4 0x4E487B71 PUSH1 0xE0 SHL PUSH1 0x0 MSTORE PUSH1 0x41 PUSH1 0x4 MSTORE PUSH1 0x24 PUSH1 0x0 REVERT JUMPDEST PUSH1 0x40 DUP1 MLOAD SWAP2 SWAP1 DUP3 ADD PUSH1 0x1 PUSH1 0x1 PUSH1 0x40 SHL SUB DUP2 GT DUP4 DUP3 LT OR PUSH3 0x556 JUMPI PUSH1 0x40 MSTORE JUMP JUMPDEST SWAP1 PUSH1 0x1 DUP3 DUP2 SHR SWAP3 AND DUP1 ISZERO PUSH3 0x5BE JUMPI JUMPDEST PUSH1 0x20 DUP4 LT EQ PUSH3 0x5A8 JUMPI JUMP JUMPDEST PUSH4 0x4E487B71 PUSH1 0xE0 SHL PUSH1 0x0 MSTORE PUSH1 0x22 PUSH1 0x4 MSTORE PUSH1 0x24 PUSH1 0x0 REVERT JUMPDEST SWAP2 PUSH1 0x7F AND SWAP2 PUSH3 0x59C JUMP JUMPDEST DUP2 DUP2 LT PUSH3 0x5D5 JUMPI POP POP JUMP JUMPDEST PUSH1 0x0 DUP2 SSTORE PUSH1 0x1 ADD PUSH3 0x5C9 JUMP INVALID PUSH1 0x80 PUSH1 0x40 MSTORE PUSH1 0x4 CALLDATASIZE LT ISZERO PUSH2 0x1B JUMPI JUMPDEST CALLDATASIZE ISZERO PUSH2 0x19 JUMPI PUSH1 0x0 DUP1 REVERT JUMPDEST STOP JUMPDEST PUSH1 0x0 CALLDATALOAD PUSH1 0xE0 SHR DUP1 PUSH4 0x2B40EAE EQ PUSH2 0x10BF JUMPI DUP1 PUSH4 0x6414A39 EQ PUSH2 0x10A0 JUMPI DUP1 PUSH4 0xA89FA82 EQ PUSH2 0x7FC JUMPI DUP1 PUSH4 0x386E07BF EQ PUSH2 0xF97 JUMPI DUP1 PUSH4 0x3B5A0821 EQ PUSH2 0xD03 JUMPI DUP1 PUSH4 0x44478425 EQ PUSH2 0xCBE JUMPI DUP1 PUSH4 0x4CAF81F5 EQ PUSH2 0xC55 JUMPI DUP1 PUSH4 0x53326FA3 EQ PUSH2 0xBA5 JUMPI DUP1 PUSH4 0x6FC45679 EQ PUSH2 0xB86 JUMPI DUP1 PUSH4 0x715018A6 EQ PUSH2 0xB29 JUMPI DUP1 PUSH4 0x78E3399D EQ PUSH2 0xAC1 JUMPI DUP1 PUSH4 0x8043D830 EQ PUSH2 0x818 JUMPI DUP1 PUSH4 0x84E5EED0 EQ PUSH2 0x7FC JUMPI DUP1 PUSH4 0x89B476EC EQ PUSH2 0x70F JUMPI DUP1 PUSH4 0x8DA5CB5B EQ PUSH2 0x6E6 JUMPI DUP1 PUSH4 0x95CCEA67 EQ PUSH2 0x684 JUMPI DUP1 PUSH4 0x99A5D747 EQ PUSH2 0x64E JUMPI DUP1 PUSH4 0xD88545BA EQ PUSH2 0x5E4 JUMPI DUP1 PUSH4 0xE1F1C4A7 EQ PUSH2 0x5C7 JUMPI DUP1 PUSH4 0xF2FDE38B EQ PUSH2 0x4FE JUMPI DUP1 PUSH4 0xFE7088F9 EQ PUSH2 0x13D JUMPI PUSH4 0xFF81B308 SUB PUSH2 0xE JUMPI CALLVALUE PUSH2 0x138 JUMPI PUSH1 0x20 PUSH2 0x130 PUSH2 0x125 CALLDATASIZE PUSH2 0x1419 JUMP JUMPDEST SWAP5 POP SWAP3 SWAP2 SWAP1 SWAP2 PUSH2 0x1ABB JUMP JUMPDEST PUSH1 0x40 MLOAD SWAP1 DUP2 MSTORE RETURN JUMPDEST PUSH1 0x0 DUP1 REVERT JUMPDEST PUSH1 0xC0 CALLDATASIZE PUSH1 0x3 NOT ADD SLT PUSH2 0x138 JUMPI PUSH2 0x151 PUSH2 0x11B4 JUMP JUMPDEST PUSH1 0x1 PUSH1 0x1 PUSH1 0xA0 SHL SUB SWAP1 PUSH1 0x24 CALLDATALOAD DUP3 DUP2 AND DUP2 SUB PUSH2 0x138 JUMPI PUSH1 0x1 PUSH1 0x1 PUSH1 0x40 SHL SUB SWAP3 PUSH1 0x84 CALLDATALOAD DUP5 DUP2 GT PUSH2 0x138 JUMPI PUSH2 0x187 SWAP1 CALLDATASIZE SWAP1 PUSH1 0x4 ADD PUSH2 0x12A6 JUMP JUMPDEST SWAP1 SWAP5 PUSH1 0xA4 CALLDATALOAD SWAP1 DUP2 GT PUSH2 0x138 JUMPI PUSH2 0x1A1 SWAP1 CALLDATASIZE SWAP1 PUSH1 0x4 ADD PUSH2 0x12A6 JUMP JUMPDEST SWAP5 SWAP1 SWAP4 PUSH2 0x1AC PUSH2 0x1602 JUMP JUMPDEST DUP4 DUP3 AND ISZERO DUP1 DUP1 ISZERO PUSH2 0x4F4 JUMPI JUMPDEST PUSH2 0x4E2 JUMPI PUSH1 0x44 CALLDATALOAD ISZERO PUSH2 0x4D0 JUMPI DUP7 DUP5 SUB PUSH2 0x4D0 JUMPI PUSH2 0x1DB PUSH1 0x44 CALLDATALOAD ADDRESS CALLER DUP9 DUP8 AND PUSH2 0x16A0 JUMP JUMPDEST PUSH1 0x32 PUSH1 0x44 CALLDATALOAD MUL SWAP8 PUSH1 0x44 CALLDATALOAD DUP10 DIV PUSH1 0x32 SUB PUSH2 0x4BA JUMPI PUSH2 0x1FE PUSH2 0x2710 DUP11 DIV PUSH1 0x44 CALLDATALOAD PUSH2 0x14C4 JUMP JUMPDEST SWAP2 PUSH2 0x2710 DUP11 DIV PUSH2 0x42B JUMPI JUMPDEST POP PUSH1 0x0 SWAP5 DUP1 ISZERO PUSH2 0x415 JUMPI PUSH1 0xE DUP3 CALLDATALOAD LT ISZERO PUSH2 0x138 JUMPI DUP2 CALLDATALOAD SWAP8 PUSH1 0x40 MLOAD PUSH2 0x22C DUP2 PUSH2 0x12D6 JUMP JUMPDEST PUSH1 0x0 DUP2 MSTORE SWAP10 PUSH1 0x0 JUMPDEST DUP4 DUP2 LT PUSH2 0x2EE JUMPI POP POP POP POP POP POP DUP3 ISZERO PUSH2 0x2DC JUMPI PUSH1 0x64 CALLDATALOAD DUP4 LT PUSH2 0x2CA JUMPI PUSH32 0xA5419696C7CF4550BEC4BA9809EE70D961231DC910170AA47919D28F630C6967 SWAP7 PUSH1 0x0 DUP1 MLOAD PUSH1 0x20 PUSH2 0x200E DUP4 CODECOPY DUP2 MLOAD SWAP2 MSTORE PUSH2 0x2C0 SWAP6 PUSH2 0x292 DUP7 CALLER DUP4 DUP8 AND PUSH2 0x1658 JUMP JUMPDEST DUP1 PUSH1 0x40 MLOAD SWAP5 AND SWAP5 AND SWAP3 DUP1 PUSH2 0x2B1 DUP11 DUP11 DUP10 PUSH2 0x2710 CALLER SWAP9 DIV PUSH1 0x44 CALLDATALOAD DUP7 PUSH2 0x15A5 JUMP JUMPDEST SUB SWAP1 LOG4 PUSH1 0x40 MLOAD SWAP4 DUP5 SWAP4 DUP5 PUSH2 0x15D9 JUMP JUMPDEST SUB SWAP1 LOG1 PUSH1 0x1 PUSH1 0x0 SSTORE STOP JUMPDEST PUSH1 0x40 MLOAD PUSH4 0xBB2875C3 PUSH1 0xE0 SHL DUP2 MSTORE PUSH1 0x4 SWAP1 REVERT JUMPDEST PUSH1 0x40 MLOAD PUSH4 0x81CEFF3 PUSH1 0xE4 SHL DUP2 MSTORE PUSH1 0x4 SWAP1 REVERT JUMPDEST PUSH2 0x2F9 DUP2 DUP6 DUP8 PUSH2 0x1501 JUMP JUMPDEST CALLDATALOAD PUSH1 0xE DUP2 LT ISZERO PUSH2 0x138 JUMPI DUP11 DUP10 SWAP2 PUSH2 0x34B PUSH2 0x314 DUP6 DUP8 DUP10 PUSH2 0x1520 JUMP JUMPDEST SWAP3 SWAP1 SWAP4 DUP1 PUSH1 0x40 MLOAD SWAP7 PUSH4 0x6414A39 PUSH1 0xE0 SHL DUP9 MSTORE AND PUSH1 0x4 DUP8 ADD MSTORE DUP13 AND PUSH1 0x24 DUP7 ADD MSTORE DUP11 PUSH1 0x44 DUP7 ADD MSTORE PUSH1 0x64 CALLDATALOAD PUSH1 0x64 DUP7 ADD MSTORE PUSH1 0x84 DUP6 ADD SWAP1 PUSH2 0x1561 JUMP JUMPDEST PUSH1 0xC0 PUSH1 0xA4 DUP5 ADD MSTORE DUP3 DUP1 PUSH2 0x366 PUSH1 0x20 SWAP5 DUP6 SWAP5 PUSH1 0xC4 DUP5 ADD SWAP2 PUSH2 0x1584 JUMP JUMPDEST SUB DUP2 PUSH1 0x0 ADDRESS GAS CALL SWAP2 DUP3 SWAP2 PUSH1 0x0 SWAP4 PUSH2 0x3E5 JUMPI JUMPDEST POP POP PUSH2 0x38D JUMPI POP PUSH2 0x388 SWAP1 PUSH2 0x1511 JUMP JUMPDEST PUSH2 0x234 JUMP JUMPDEST DUP10 DUP2 GT PUSH2 0x39F JUMPI JUMPDEST POP PUSH2 0x388 SWAP1 PUSH2 0x1511 JUMP JUMPDEST SWAP3 SWAP9 POP SWAP11 POP SWAP9 POP SWAP6 PUSH2 0x3B2 DUP11 DUP4 DUP6 PUSH2 0x1501 JUMP JUMPDEST CALLDATALOAD PUSH1 0xE DUP2 LT ISZERO PUSH2 0x138 JUMPI SWAP9 PUSH2 0x3C8 DUP12 DUP5 DUP7 PUSH2 0x1501 JUMP JUMPDEST CALLDATALOAD PUSH1 0xE DUP2 LT ISZERO PUSH2 0x138 JUMPI PUSH2 0x3DE PUSH2 0x388 SWAP2 PUSH2 0x1D86 JUMP JUMPDEST SWAP12 SWAP1 PUSH2 0x395 JUMP JUMPDEST SWAP1 DUP1 SWAP3 SWAP4 POP DUP2 RETURNDATASIZE DUP4 GT PUSH2 0x40E JUMPI JUMPDEST PUSH2 0x3FD DUP2 DUP4 PUSH2 0x130C JUMP JUMPDEST DUP2 ADD SUB SLT PUSH2 0x138 JUMPI MLOAD SWAP1 DUP16 DUP1 PUSH2 0x378 JUMP JUMPDEST POP RETURNDATASIZE PUSH2 0x3F3 JUMP JUMPDEST PUSH4 0x4E487B71 PUSH1 0xE0 SHL PUSH1 0x0 MSTORE PUSH1 0x32 PUSH1 0x4 MSTORE PUSH1 0x24 PUSH1 0x0 REVERT JUMPDEST ISZERO PUSH2 0x484 JUMPI PUSH1 0x0 DUP1 DUP1 DUP1 PUSH2 0x2710 DUP14 DIV PUSH32 0x0 GAS CALL PUSH2 0x465 PUSH2 0x14D1 JUMP JUMPDEST POP ISZERO PUSH2 0x472 JUMPI JUMPDEST DUP10 PUSH2 0x209 JUMP JUMPDEST PUSH1 0x40 MLOAD PUSH4 0x12171D83 PUSH1 0xE3 SHL DUP2 MSTORE PUSH1 0x4 SWAP1 REVERT JUMPDEST PUSH2 0x4B5 PUSH2 0x2710 DUP11 DIV PUSH32 0x0 DUP9 DUP8 AND PUSH2 0x1658 JUMP JUMPDEST PUSH2 0x46C JUMP JUMPDEST PUSH4 0x4E487B71 PUSH1 0xE0 SHL PUSH1 0x0 MSTORE PUSH1 0x11 PUSH1 0x4 MSTORE PUSH1 0x24 PUSH1 0x0 REVERT JUMPDEST PUSH1 0x40 MLOAD PUSH4 0x162908E3 PUSH1 0xE1 SHL DUP2 MSTORE PUSH1 0x4 SWAP1 REVERT JUMPDEST PUSH1 0x40 MLOAD PUSH4 0xF580583 PUSH1 0xE1 SHL DUP2 MSTORE PUSH1 0x4 SWAP1 REVERT JUMPDEST POP DUP5 DUP3 AND ISZERO PUSH2 0x1B8 JUMP JUMPDEST CALLVALUE PUSH2 0x138 JUMPI PUSH1 0x20 CALLDATASIZE PUSH1 0x3 NOT ADD SLT PUSH2 0x138 JUMPI PUSH2 0x517 PUSH2 0x11B4 JUMP JUMPDEST PUSH2 0x51F PUSH2 0x146C JUMP JUMPDEST PUSH1 0x1 PUSH1 0x1 PUSH1 0xA0 SHL SUB SWAP1 DUP2 AND SWAP1 DUP2 ISZERO PUSH2 0x573 JUMPI PUSH1 0x1 SLOAD DUP3 PUSH12 0xFFFFFFFFFFFFFFFFFFFFFFFF PUSH1 0xA0 SHL DUP3 AND OR PUSH1 0x1 SSTORE AND PUSH32 0x8BE0079C531659141344CD1FD0A4F28419497F9722A3DAAFE3B4186F6B6457E0 PUSH1 0x0 DUP1 LOG3 STOP JUMPDEST PUSH1 0x40 MLOAD PUSH3 0x461BCD PUSH1 0xE5 SHL DUP2 MSTORE PUSH1 0x20 PUSH1 0x4 DUP3 ADD MSTORE PUSH1 0x26 PUSH1 0x24 DUP3 ADD MSTORE PUSH32 0x4F776E61626C653A206E6577206F776E657220697320746865207A65726F2061 PUSH1 0x44 DUP3 ADD MSTORE PUSH6 0x646472657373 PUSH1 0xD0 SHL PUSH1 0x64 DUP3 ADD MSTORE PUSH1 0x84 SWAP1 REVERT JUMPDEST CALLVALUE PUSH2 0x138 JUMPI PUSH1 0x0 CALLDATASIZE PUSH1 0x3 NOT ADD SLT PUSH2 0x138 JUMPI PUSH1 0x20 PUSH1 0x40 MLOAD PUSH2 0x2710 DUP2 MSTORE RETURN JUMPDEST CALLVALUE PUSH2 0x138 JUMPI PUSH1 0x20 CALLDATASIZE PUSH1 0x3 NOT ADD SLT PUSH2 0x138 JUMPI PUSH1 0x4 CALLDATALOAD PUSH1 0x1 PUSH1 0x1 PUSH1 0x40 SHL SUB DUP2 GT PUSH2 0x138 JUMPI PUSH2 0x616 PUSH1 0x20 SWAP2 CALLDATASIZE SWAP1 PUSH1 0x4 ADD PUSH2 0x11CA JUMP JUMPDEST SWAP1 CHAINID PUSH1 0x0 MSTORE PUSH1 0x2 DUP4 MSTORE PUSH1 0x40 PUSH1 0x0 KECCAK256 SWAP2 DUP1 PUSH1 0x40 MLOAD SWAP3 DUP4 CALLDATACOPY DUP2 ADD SWAP2 DUP3 MSTORE SWAP1 DUP2 SWAP1 SUB DUP3 ADD SWAP1 KECCAK256 SLOAD PUSH1 0x40 MLOAD PUSH1 0x1 PUSH1 0x1 PUSH1 0xA0 SHL SUB SWAP1 SWAP2 AND ISZERO ISZERO DUP2 MSTORE RETURN JUMPDEST CALLVALUE PUSH2 0x138 JUMPI PUSH1 0x20 CALLDATASIZE PUSH1 0x3 NOT ADD SLT PUSH2 0x138 JUMPI PUSH1 0x4 CALLDATALOAD PUSH1 0x32 DUP2 MUL SWAP1 DUP1 DUP3 DIV PUSH1 0x32 EQ SWAP1 ISZERO OR ISZERO PUSH2 0x4BA JUMPI PUSH1 0x20 SWAP1 PUSH2 0x2710 PUSH1 0x40 MLOAD SWAP2 DIV DUP2 MSTORE RETURN JUMPDEST CALLVALUE PUSH2 0x138 JUMPI PUSH1 0x40 CALLDATASIZE PUSH1 0x3 NOT ADD SLT PUSH2 0x138 JUMPI PUSH2 0x69D PUSH2 0x11B4 JUMP JUMPDEST PUSH1 0x24 CALLDATALOAD SWAP1 PUSH2 0x6A9 PUSH2 0x146C JUMP JUMPDEST PUSH1 0x1 PUSH1 0x1 PUSH1 0xA0 SHL SUB SWAP1 DUP2 AND DUP1 PUSH2 0x6D7 JUMPI POP PUSH1 0x0 DUP1 DUP1 SWAP4 DUP2 SWAP4 PUSH1 0x1 SLOAD AND GAS CALL PUSH2 0x6CF PUSH2 0x14D1 JUMP JUMPDEST POP ISZERO PUSH2 0x472 JUMPI STOP JUMPDEST PUSH2 0x19 SWAP3 SWAP2 PUSH1 0x1 SLOAD AND SWAP1 PUSH2 0x1658 JUMP JUMPDEST CALLVALUE PUSH2 0x138 JUMPI PUSH1 0x0 CALLDATASIZE PUSH1 0x3 NOT ADD SLT PUSH2 0x138 JUMPI PUSH1 0x1 SLOAD PUSH1 0x40 MLOAD PUSH1 0x1 PUSH1 0x1 PUSH1 0xA0 SHL SUB SWAP1 SWAP2 AND DUP2 MSTORE PUSH1 0x20 SWAP1 RETURN JUMPDEST CALLVALUE PUSH2 0x138 JUMPI PUSH1 0x60 CALLDATASIZE PUSH1 0x3 NOT ADD SLT PUSH2 0x138 JUMPI PUSH1 0x4 CALLDATALOAD PUSH1 0x24 CALLDATALOAD PUSH1 0x1 PUSH1 0x1 PUSH1 0x40 SHL SUB DUP2 GT PUSH2 0x138 JUMPI PUSH2 0x742 SWAP1 CALLDATASIZE SWAP1 PUSH1 0x4 ADD PUSH2 0x11CA JUMP JUMPDEST SWAP1 SWAP2 PUSH1 0x44 CALLDATALOAD PUSH1 0x1 PUSH1 0x1 PUSH1 0xA0 SHL SUB DUP2 AND SWAP1 DUP2 SWAP1 SUB PUSH2 0x138 JUMPI PUSH2 0x761 PUSH2 0x146C JUMP JUMPDEST DUP1 ISZERO PUSH2 0x7EA JUMPI PUSH2 0x7DF PUSH32 0x89D28388318BAB8FA8F1B13024D02B273AD19672C583CE86798DDA98044F3EB0 SWAP5 DUP4 PUSH1 0x0 MSTORE PUSH1 0x2 PUSH1 0x20 MSTORE PUSH1 0x40 PUSH1 0x0 KECCAK256 PUSH1 0x20 PUSH1 0x40 MLOAD DUP1 SWAP3 DUP9 DUP6 DUP4 CALLDATACOPY DUP9 DUP3 ADD SWAP1 DUP2 MSTORE SUB ADD SWAP1 KECCAK256 DUP4 PUSH12 0xFFFFFFFFFFFFFFFFFFFFFFFF PUSH1 0xA0 SHL DUP3 SLOAD AND OR SWAP1 SSTORE PUSH1 0x40 MLOAD SWAP5 DUP6 SWAP5 DUP6 MSTORE PUSH1 0x60 PUSH1 0x20 DUP7 ADD MSTORE PUSH1 0x60 DUP6 ADD SWAP2 PUSH2 0x1584 JUMP JUMPDEST SWAP1 PUSH1 0x40 DUP4 ADD MSTORE SUB SWAP1 LOG1 STOP JUMPDEST PUSH1 0x40 MLOAD PUSH4 0x466D7FEF PUSH1 0xE0 SHL DUP2 MSTORE PUSH1 0x4 SWAP1 REVERT JUMPDEST CALLVALUE PUSH2 0x138 JUMPI PUSH1 0x0 CALLDATASIZE PUSH1 0x3 NOT ADD SLT PUSH2 0x138 JUMPI PUSH1 0x20 PUSH1 0x40 MLOAD PUSH1 0x32 DUP2 MSTORE RETURN JUMPDEST PUSH1 0xA0 CALLDATASIZE PUSH1 0x3 NOT ADD SLT PUSH2 0x138 JUMPI PUSH2 0x82C PUSH2 0x11B4 JUMP JUMPDEST PUSH1 0x1 PUSH1 0x1 PUSH1 0x40 SHL SUB PUSH1 0x64 CALLDATALOAD DUP2 DUP2 GT PUSH2 0x138 JUMPI PUSH2 0x84C SWAP1 CALLDATASIZE SWAP1 PUSH1 0x4 ADD PUSH2 0x12A6 JUMP JUMPDEST SWAP1 SWAP2 PUSH1 0x84 CALLDATALOAD SWAP1 DUP2 GT PUSH2 0x138 JUMPI PUSH2 0x866 SWAP1 CALLDATASIZE SWAP1 PUSH1 0x4 ADD PUSH2 0x12A6 JUMP JUMPDEST SWAP4 SWAP1 SWAP2 PUSH2 0x871 PUSH2 0x1602 JUMP JUMPDEST PUSH1 0x1 PUSH1 0x1 PUSH1 0xA0 SHL SUB DUP3 AND ISZERO PUSH2 0x4E2 JUMPI PUSH1 0x24 CALLDATALOAD ISZERO PUSH2 0x4D0 JUMPI DUP5 DUP2 SUB PUSH2 0x4D0 JUMPI PUSH2 0x8A6 PUSH1 0x24 CALLDATALOAD ADDRESS CALLER PUSH1 0x1 PUSH1 0x1 PUSH1 0xA0 SHL SUB DUP7 AND PUSH2 0x16A0 JUMP JUMPDEST PUSH1 0x32 PUSH1 0x24 CALLDATALOAD MUL SWAP5 PUSH1 0x24 CALLDATALOAD DUP7 DIV PUSH1 0x32 SUB PUSH2 0x4BA JUMPI PUSH2 0x8C9 PUSH2 0x2710 DUP8 DIV PUSH1 0x24 CALLDATALOAD PUSH2 0x14C4 JUMP JUMPDEST SWAP5 PUSH2 0x2710 DUP8 DIV PUSH2 0xA84 JUMPI JUMPDEST PUSH1 0x0 SWAP3 DUP1 ISZERO PUSH2 0x415 JUMPI DUP2 CALLDATALOAD PUSH1 0xE DUP2 LT ISZERO PUSH2 0x138 JUMPI SWAP6 PUSH1 0x40 MLOAD PUSH2 0x8F5 DUP2 PUSH2 0x12D6 JUMP JUMPDEST PUSH1 0x0 DUP2 MSTORE SWAP8 PUSH1 0x0 JUMPDEST DUP4 DUP2 LT PUSH2 0x98A JUMPI POP POP POP POP POP POP DUP1 ISZERO PUSH2 0x2DC JUMPI PUSH1 0x44 CALLDATALOAD DUP2 LT PUSH2 0x2CA JUMPI PUSH1 0x0 DUP1 DUP1 DUP1 DUP5 CALLER GAS CALL PUSH2 0x92A PUSH2 0x14D1 JUMP JUMPDEST POP ISZERO PUSH2 0x472 JUMPI PUSH1 0x0 PUSH2 0x2C0 SWAP3 PUSH32 0xA5419696C7CF4550BEC4BA9809EE70D961231DC910170AA47919D28F630C6967 SWAP7 PUSH1 0x0 DUP1 MLOAD PUSH1 0x20 PUSH2 0x200E DUP4 CODECOPY DUP2 MLOAD SWAP2 MSTORE PUSH1 0x40 MLOAD SWAP3 PUSH1 0x1 DUP1 PUSH1 0xA0 SHL SUB AND SWAP3 DUP1 PUSH2 0x2B1 DUP11 DUP11 DUP10 PUSH2 0x2710 CALLER SWAP9 DIV PUSH1 0x24 CALLDATALOAD DUP7 PUSH2 0x15A5 JUMP JUMPDEST PUSH2 0x995 DUP2 DUP6 DUP8 PUSH2 0x1501 JUMP JUMPDEST CALLDATALOAD PUSH1 0xE DUP2 LT ISZERO PUSH2 0x138 JUMPI PUSH2 0x9D5 SWAP1 DUP10 PUSH2 0x9AF DUP5 DUP11 DUP9 PUSH2 0x1520 JUMP JUMPDEST SWAP1 PUSH1 0x40 MLOAD SWAP5 DUP6 SWAP3 DUP4 SWAP3 PUSH4 0x6FC45679 PUSH1 0xE0 SHL DUP5 MSTORE PUSH1 0x20 SWAP7 DUP8 SWAP7 DUP12 PUSH1 0x44 CALLDATALOAD SWAP2 PUSH1 0x4 DUP9 ADD PUSH2 0x188D JUMP JUMPDEST SUB DUP2 PUSH1 0x0 ADDRESS GAS CALL SWAP2 DUP3 SWAP2 PUSH1 0x0 SWAP4 PUSH2 0xA54 JUMPI JUMPDEST POP POP PUSH2 0x9FC JUMPI POP PUSH2 0x9F7 SWAP1 PUSH2 0x1511 JUMP JUMPDEST PUSH2 0x8FD JUMP JUMPDEST DUP8 DUP2 GT PUSH2 0xA0E JUMPI JUMPDEST POP PUSH2 0x9F7 SWAP1 PUSH2 0x1511 JUMP JUMPDEST SWAP3 SWAP7 POP SWAP9 POP SWAP7 POP SWAP4 PUSH2 0xA21 DUP9 DUP4 DUP6 PUSH2 0x1501 JUMP JUMPDEST CALLDATALOAD PUSH1 0xE DUP2 LT ISZERO PUSH2 0x138 JUMPI SWAP7 PUSH2 0xA37 DUP10 DUP5 DUP7 PUSH2 0x1501 JUMP JUMPDEST CALLDATALOAD PUSH1 0xE DUP2 LT ISZERO PUSH2 0x138 JUMPI PUSH2 0xA4D PUSH2 0x9F7 SWAP2 PUSH2 0x1D86 JUMP JUMPDEST SWAP10 SWAP1 PUSH2 0xA04 JUMP JUMPDEST SWAP1 DUP1 SWAP3 SWAP4 POP DUP2 RETURNDATASIZE DUP4 GT PUSH2 0xA7D JUMPI JUMPDEST PUSH2 0xA6C DUP2 DUP4 PUSH2 0x130C JUMP JUMPDEST DUP2 ADD SUB SLT PUSH2 0x138 JUMPI MLOAD SWAP1 DUP14 DUP1 PUSH2 0x9E7 JUMP JUMPDEST POP RETURNDATASIZE PUSH2 0xA62 JUMP JUMPDEST PUSH2 0xABC PUSH2 0x2710 DUP9 DIV PUSH32 0x0 PUSH1 0x1 PUSH1 0x1 PUSH1 0xA0 SHL SUB DUP8 AND PUSH2 0x1658 JUMP JUMPDEST PUSH2 0x8D4 JUMP JUMPDEST CALLVALUE PUSH2 0x138 JUMPI PUSH1 0x20 CALLDATASIZE PUSH1 0x3 NOT ADD SLT PUSH2 0x138 JUMPI PUSH1 0x4 CALLDATALOAD PUSH1 0x1 PUSH1 0x1 PUSH1 0x40 SHL SUB DUP2 GT PUSH2 0x138 JUMPI PUSH2 0xAF3 PUSH1 0x20 SWAP2 CALLDATASIZE SWAP1 PUSH1 0x4 ADD PUSH2 0x11CA JUMP JUMPDEST SWAP1 CHAINID PUSH1 0x0 MSTORE PUSH1 0x2 DUP4 MSTORE PUSH1 0x40 PUSH1 0x0 KECCAK256 SWAP2 DUP1 PUSH1 0x40 MLOAD SWAP3 DUP4 CALLDATACOPY DUP2 ADD SWAP2 DUP3 MSTORE SWAP1 DUP2 SWAP1 SUB DUP3 ADD SWAP1 KECCAK256 SLOAD PUSH1 0x40 MLOAD PUSH1 0x1 PUSH1 0x1 PUSH1 0xA0 SHL SUB SWAP1 SWAP2 AND DUP2 MSTORE RETURN JUMPDEST CALLVALUE PUSH2 0x138 JUMPI PUSH1 0x0 CALLDATASIZE PUSH1 0x3 NOT ADD SLT PUSH2 0x138 JUMPI PUSH2 0xB42 PUSH2 0x146C JUMP JUMPDEST PUSH1 0x1 DUP1 SLOAD PUSH1 0x1 PUSH1 0x1 PUSH1 0xA0 SHL SUB NOT DUP2 AND SWAP1 SWAP2 SSTORE PUSH1 0x0 SWAP1 PUSH1 0x1 PUSH1 0x1 PUSH1 0xA0 SHL SUB AND PUSH32 0x8BE0079C531659141344CD1FD0A4F28419497F9722A3DAAFE3B4186F6B6457E0 DUP3 DUP1 LOG3 STOP JUMPDEST CALLVALUE PUSH2 0x138 JUMPI PUSH1 0x20 PUSH2 0x130 PUSH2 0xB99 CALLDATASIZE PUSH2 0x1419 JUMP JUMPDEST SWAP5 SWAP4 SWAP1 SWAP4 SWAP3 SWAP2 SWAP3 PUSH2 0x18C5 JUMP JUMPDEST CALLVALUE PUSH2 0x138 JUMPI PUSH1 0x40 CALLDATASIZE PUSH1 0x3 NOT ADD SLT PUSH2 0x138 JUMPI PUSH1 0x24 CALLDATALOAD PUSH1 0x1 PUSH1 0x1 PUSH1 0x40 SHL SUB DUP2 GT PUSH2 0x138 JUMPI CALLDATASIZE PUSH1 0x23 DUP3 ADD SLT ISZERO PUSH2 0x138 JUMPI DUP1 PUSH1 0x4 ADD CALLDATALOAD PUSH2 0xBE0 DUP2 PUSH2 0x13FE JUMP JUMPDEST SWAP1 PUSH2 0xBEE PUSH1 0x40 MLOAD SWAP3 DUP4 PUSH2 0x130C JUMP JUMPDEST DUP1 DUP3 MSTORE PUSH1 0x20 DUP3 ADD SWAP1 CALLDATASIZE PUSH1 0x24 DUP3 DUP7 ADD ADD GT PUSH2 0x138 JUMPI PUSH1 0x20 DUP2 PUSH1 0x0 SWAP3 PUSH1 0x24 DUP4 SWAP8 ADD DUP6 CALLDATACOPY DUP5 ADD ADD MSTORE PUSH1 0x4 CALLDATALOAD PUSH1 0x0 MSTORE PUSH1 0x2 DUP4 MSTORE PUSH1 0x40 PUSH1 0x0 KECCAK256 SWAP2 PUSH2 0xC35 PUSH1 0x40 MLOAD SWAP3 DUP4 SWAP3 MLOAD SWAP3 DUP4 SWAP2 PUSH2 0x125E JUMP JUMPDEST DUP2 ADD SWAP2 DUP3 MSTORE SWAP1 DUP2 SWAP1 SUB DUP3 ADD SWAP1 KECCAK256 SLOAD PUSH1 0x40 MLOAD PUSH1 0x1 PUSH1 0x1 PUSH1 0xA0 SHL SUB SWAP1 SWAP2 AND DUP2 MSTORE RETURN JUMPDEST CALLVALUE PUSH2 0x138 JUMPI PUSH1 0x20 CALLDATASIZE PUSH1 0x3 NOT ADD SLT PUSH2 0x138 JUMPI PUSH1 0x4 CALLDATALOAD PUSH1 0x3 SLOAD DUP2 LT ISZERO PUSH2 0x138 JUMPI PUSH2 0xCA6 PUSH2 0xCBA SWAP2 PUSH1 0x3 PUSH1 0x0 MSTORE PUSH32 0xC2575A0E9E593C00F959F8C92F12DB2869C3395A3B0502D05E2516446F71F85B ADD PUSH2 0x132D JUMP JUMPDEST PUSH1 0x40 MLOAD SWAP2 DUP3 SWAP2 PUSH1 0x20 DUP4 MSTORE PUSH1 0x20 DUP4 ADD SWAP1 PUSH2 0x1281 JUMP JUMPDEST SUB SWAP1 RETURN JUMPDEST CALLVALUE PUSH2 0x138 JUMPI PUSH1 0x0 CALLDATASIZE PUSH1 0x3 NOT ADD SLT PUSH2 0x138 JUMPI PUSH1 0x40 MLOAD PUSH32 0x0 PUSH1 0x1 PUSH1 0x1 PUSH1 0xA0 SHL SUB AND DUP2 MSTORE PUSH1 0x20 SWAP1 RETURN JUMPDEST PUSH1 0x80 CALLDATASIZE PUSH1 0x3 NOT ADD SLT PUSH2 0x138 JUMPI PUSH2 0xD17 PUSH2 0x11B4 JUMP JUMPDEST PUSH1 0x1 PUSH1 0x1 PUSH1 0x40 SHL SUB PUSH1 0x44 CALLDATALOAD DUP2 DUP2 GT PUSH2 0x138 JUMPI PUSH2 0xD37 SWAP1 CALLDATASIZE SWAP1 PUSH1 0x4 ADD PUSH2 0x12A6 JUMP JUMPDEST SWAP1 SWAP2 PUSH1 0x64 CALLDATALOAD SWAP1 DUP2 GT PUSH2 0x138 JUMPI PUSH2 0xD51 SWAP1 CALLDATASIZE SWAP1 PUSH1 0x4 ADD PUSH2 0x12A6 JUMP JUMPDEST SWAP1 SWAP2 PUSH2 0xD5B PUSH2 0x1602 JUMP JUMPDEST PUSH1 0x1 PUSH1 0x1 PUSH1 0xA0 SHL SUB DUP6 AND ISZERO PUSH2 0x4E2 JUMPI CALLVALUE ISZERO PUSH2 0x4D0 JUMPI DUP2 DUP2 SUB PUSH2 0x4D0 JUMPI PUSH1 0x32 CALLVALUE MUL SWAP2 CALLVALUE DUP4 DIV PUSH1 0x32 SUB PUSH2 0x4BA JUMPI PUSH2 0xD94 PUSH2 0x2710 DUP5 DIV CALLVALUE PUSH2 0x14C4 JUMP JUMPDEST SWAP5 PUSH2 0x2710 DUP5 DIV PUSH2 0xF4B JUMPI JUMPDEST PUSH1 0x0 SWAP3 DUP1 ISZERO PUSH2 0x415 JUMPI DUP2 CALLDATALOAD PUSH1 0xE DUP2 LT ISZERO PUSH2 0x138 JUMPI SWAP6 PUSH1 0x40 MLOAD PUSH2 0xDC0 DUP2 PUSH2 0x12D6 JUMP JUMPDEST PUSH1 0x0 DUP2 MSTORE SWAP8 PUSH1 0x0 JUMPDEST DUP4 DUP2 LT PUSH2 0xE51 JUMPI POP POP POP POP POP POP DUP1 ISZERO PUSH2 0x2DC JUMPI PUSH1 0x24 CALLDATALOAD DUP2 LT PUSH2 0x2CA JUMPI PUSH32 0xA5419696C7CF4550BEC4BA9809EE70D961231DC910170AA47919D28F630C6967 SWAP5 PUSH2 0x2C0 SWAP3 PUSH1 0x0 SWAP1 PUSH2 0xE21 DUP5 CALLER PUSH1 0x1 PUSH1 0x1 PUSH1 0xA0 SHL SUB DUP7 AND PUSH2 0x1658 JUMP JUMPDEST PUSH1 0x0 DUP1 MLOAD PUSH1 0x20 PUSH2 0x200E DUP4 CODECOPY DUP2 MLOAD SWAP2 MSTORE PUSH1 0x40 MLOAD SWAP4 PUSH1 0x1 DUP1 PUSH1 0xA0 SHL SUB AND SWAP4 DUP1 PUSH2 0x2B1 DUP11 DUP11 DUP10 PUSH2 0x2710 CALLER SWAP9 DIV CALLVALUE DUP7 PUSH2 0x15A5 JUMP JUMPDEST PUSH2 0xE5C DUP2 DUP6 DUP8 PUSH2 0x1501 JUMP JUMPDEST CALLDATALOAD PUSH1 0xE DUP2 LT ISZERO PUSH2 0x138 JUMPI PUSH2 0xE9C SWAP1 DUP13 PUSH2 0xE76 DUP5 DUP11 DUP9 PUSH2 0x1520 JUMP JUMPDEST SWAP1 PUSH1 0x40 MLOAD SWAP5 DUP6 SWAP3 DUP4 SWAP3 PUSH4 0x1FF03661 PUSH1 0xE3 SHL DUP5 MSTORE PUSH1 0x20 SWAP7 DUP8 SWAP7 DUP12 PUSH1 0x24 CALLDATALOAD SWAP2 PUSH1 0x4 DUP9 ADD PUSH2 0x188D JUMP JUMPDEST SUB DUP2 PUSH1 0x0 ADDRESS GAS CALL SWAP2 DUP3 SWAP2 PUSH1 0x0 SWAP4 PUSH2 0xF1B JUMPI JUMPDEST POP POP PUSH2 0xEC3 JUMPI POP PUSH2 0xEBE SWAP1 PUSH2 0x1511 JUMP JUMPDEST PUSH2 0xDC8 JUMP JUMPDEST DUP8 DUP2 GT PUSH2 0xED5 JUMPI JUMPDEST POP PUSH2 0xEBE SWAP1 PUSH2 0x1511 JUMP JUMPDEST SWAP3 SWAP7 POP SWAP9 POP SWAP7 POP SWAP4 PUSH2 0xEE8 DUP9 DUP4 DUP6 PUSH2 0x1501 JUMP JUMPDEST CALLDATALOAD PUSH1 0xE DUP2 LT ISZERO PUSH2 0x138 JUMPI SWAP7 PUSH2 0xEFE DUP10 DUP5 DUP7 PUSH2 0x1501 JUMP JUMPDEST CALLDATALOAD PUSH1 0xE DUP2 LT ISZERO PUSH2 0x138 JUMPI PUSH2 0xF14 PUSH2 0xEBE SWAP2 PUSH2 0x1D86 JUMP JUMPDEST SWAP10 SWAP1 PUSH2 0xECB JUMP JUMPDEST SWAP1 DUP1 SWAP3 SWAP4 POP DUP2 RETURNDATASIZE DUP4 GT PUSH2 0xF44 JUMPI JUMPDEST PUSH2 0xF33 DUP2 DUP4 PUSH2 0x130C JUMP JUMPDEST DUP2 ADD SUB SLT PUSH2 0x138 JUMPI MLOAD SWAP1 DUP14 DUP1 PUSH2 0xEAE JUMP JUMPDEST POP RETURNDATASIZE PUSH2 0xF29 JUMP JUMPDEST PUSH1 0x0 DUP1 DUP1 DUP1 PUSH2 0x2710 DUP9 DIV PUSH32 0x0 GAS CALL PUSH2 0xF80 PUSH2 0x14D1 JUMP JUMPDEST POP PUSH2 0xD9F JUMPI PUSH1 0x40 MLOAD PUSH4 0x12171D83 PUSH1 0xE3 SHL DUP2 MSTORE PUSH1 0x4 SWAP1 REVERT JUMPDEST CALLVALUE PUSH2 0x138 JUMPI PUSH1 0x0 CALLDATASIZE PUSH1 0x3 NOT ADD SLT PUSH2 0x138 JUMPI PUSH1 0x3 SLOAD PUSH1 0x1 PUSH1 0x1 PUSH1 0x40 SHL SUB DUP2 GT PUSH2 0x108A JUMPI PUSH1 0x40 MLOAD SWAP1 PUSH1 0x20 SWAP1 PUSH2 0xFCF DUP3 DUP3 PUSH1 0x5 SHL ADD DUP5 PUSH2 0x130C JUMP JUMPDEST DUP1 DUP4 MSTORE DUP2 DUP4 ADD SWAP1 DUP2 PUSH1 0x3 PUSH1 0x0 MSTORE PUSH32 0xC2575A0E9E593C00F959F8C92F12DB2869C3395A3B0502D05E2516446F71F85B PUSH1 0x0 SWAP2 JUMPDEST DUP4 DUP4 LT PUSH2 0x1068 JUMPI POP POP POP POP PUSH1 0x40 MLOAD SWAP2 DUP1 DUP4 ADD SWAP4 DUP2 DUP5 MSTORE MLOAD DUP1 SWAP5 MSTORE PUSH1 0x40 DUP4 ADD SWAP4 PUSH1 0x40 DUP2 PUSH1 0x5 SHL DUP6 ADD ADD SWAP3 SWAP2 PUSH1 0x0 SWAP6 JUMPDEST DUP3 DUP8 LT PUSH2 0x103C JUMPI DUP6 DUP6 SUB DUP7 RETURN JUMPDEST SWAP1 SWAP2 SWAP3 SWAP4 DUP3 DUP1 PUSH2 0x1058 PUSH1 0x1 SWAP4 PUSH1 0x3F NOT DUP11 DUP3 SUB ADD DUP7 MSTORE DUP9 MLOAD PUSH2 0x1281 JUMP JUMPDEST SWAP7 ADD SWAP3 ADD SWAP7 ADD SWAP6 SWAP3 SWAP2 SWAP1 SWAP3 PUSH2 0x102F JUMP JUMPDEST PUSH1 0x1 DUP7 DUP2 SWAP3 PUSH2 0x1079 DUP6 SWAP11 SWAP10 SWAP11 PUSH2 0x132D JUMP JUMPDEST DUP2 MSTORE ADD SWAP3 ADD SWAP3 ADD SWAP2 SWAP1 SWAP6 SWAP5 SWAP6 PUSH2 0x1001 JUMP JUMPDEST PUSH4 0x4E487B71 PUSH1 0xE0 SHL PUSH1 0x0 MSTORE PUSH1 0x41 PUSH1 0x4 MSTORE PUSH1 0x24 PUSH1 0x0 REVERT JUMPDEST CALLVALUE PUSH2 0x138 JUMPI PUSH1 0x20 PUSH2 0x130 PUSH2 0x10B3 CALLDATASIZE PUSH2 0x11F7 JUMP JUMPDEST SWAP6 SWAP1 SWAP5 POP SWAP3 SWAP1 SWAP3 PUSH2 0x18C5 JUMP JUMPDEST PUSH2 0x10C8 CALLDATASIZE PUSH2 0x11F7 JUMP JUMPDEST PUSH2 0x10D6 SWAP7 SWAP2 SWAP4 SWAP6 SWAP3 SWAP7 PUSH2 0x1602 JUMP JUMPDEST PUSH1 0x1 PUSH1 0x1 PUSH1 0xA0 SHL SUB DUP3 DUP2 AND SWAP7 DUP8 ISZERO DUP1 ISZERO PUSH2 0x11AA JUMPI JUMPDEST PUSH2 0x4E2 JUMPI DUP7 ISZERO PUSH2 0x4D0 JUMPI PUSH2 0x1101 DUP8 ADDRESS CALLER DUP12 PUSH2 0x16A0 JUMP JUMPDEST PUSH1 0x32 DUP8 MUL SWAP3 DUP8 DUP5 DIV PUSH1 0x32 SUB PUSH2 0x4BA JUMPI PUSH1 0x0 DUP1 MLOAD PUSH1 0x20 PUSH2 0x200E DUP4 CODECOPY DUP2 MLOAD SWAP2 MSTORE SWAP7 DUP11 PUSH2 0x1148 SWAP4 PUSH2 0x2710 PUSH2 0x116E SWAP8 DIV SWAP8 PUSH2 0x1138 DUP10 DUP14 PUSH2 0x14C4 JUMP JUMPDEST SWAP1 DUP14 DUP11 DUP1 PUSH2 0x1178 JUMPI JUMPDEST POP POP PUSH2 0x18C5 JUMP JUMPDEST SWAP4 AND SWAP7 PUSH2 0x1156 DUP5 CALLER DUP11 PUSH2 0x1658 JUMP JUMPDEST PUSH2 0x115F DUP2 PUSH2 0x1D86 JUMP JUMPDEST SWAP1 PUSH1 0x40 MLOAD SWAP5 DUP6 SWAP5 CALLER SWAP9 DUP7 PUSH2 0x15A5 JUMP JUMPDEST SUB SWAP1 LOG4 PUSH1 0x1 PUSH1 0x0 SSTORE STOP JUMPDEST PUSH2 0x11A3 SWAP2 PUSH32 0x0 SWAP1 PUSH2 0x1658 JUMP JUMPDEST DUP14 DUP11 PUSH2 0x1141 JUMP JUMPDEST POP DUP2 DUP6 AND ISZERO PUSH2 0x10EB JUMP JUMPDEST PUSH1 0x4 CALLDATALOAD SWAP1 PUSH1 0x1 PUSH1 0x1 PUSH1 0xA0 SHL SUB DUP3 AND DUP3 SUB PUSH2 0x138 JUMPI JUMP JUMPDEST SWAP2 DUP2 PUSH1 0x1F DUP5 ADD SLT ISZERO PUSH2 0x138 JUMPI DUP3 CALLDATALOAD SWAP2 PUSH1 0x1 PUSH1 0x1 PUSH1 0x40 SHL SUB DUP4 GT PUSH2 0x138 JUMPI PUSH1 0x20 DUP4 DUP2 DUP7 ADD SWAP6 ADD ADD GT PUSH2 0x138 JUMPI JUMP JUMPDEST SWAP1 PUSH1 0xC0 PUSH1 0x3 NOT DUP4 ADD SLT PUSH2 0x138 JUMPI PUSH1 0x1 PUSH1 0x1 PUSH1 0xA0 SHL SUB SWAP2 PUSH1 0x4 CALLDATALOAD DUP4 DUP2 AND DUP2 SUB PUSH2 0x138 JUMPI SWAP3 PUSH1 0x24 CALLDATALOAD SWAP1 DUP2 AND DUP2 SUB PUSH2 0x138 JUMPI SWAP2 PUSH1 0x44 CALLDATALOAD SWAP2 PUSH1 0x64 CALLDATALOAD SWAP2 PUSH1 0x84 CALLDATALOAD PUSH1 0xE DUP2 LT ISZERO PUSH2 0x138 JUMPI SWAP2 PUSH1 0xA4 CALLDATALOAD SWAP1 PUSH1 0x1 PUSH1 0x1 PUSH1 0x40 SHL SUB DUP3 GT PUSH2 0x138 JUMPI PUSH2 0x125A SWAP2 PUSH1 0x4 ADD PUSH2 0x11CA JUMP JUMPDEST SWAP1 SWAP2 JUMP JUMPDEST PUSH1 0x0 JUMPDEST DUP4 DUP2 LT PUSH2 0x1271 JUMPI POP POP PUSH1 0x0 SWAP2 ADD MSTORE JUMP JUMPDEST DUP2 DUP2 ADD MLOAD DUP4 DUP3 ADD MSTORE PUSH1 0x20 ADD PUSH2 0x1261 JUMP JUMPDEST SWAP1 PUSH1 0x20 SWAP2 PUSH2 0x129A DUP2 MLOAD DUP1 SWAP3 DUP2 DUP6 MSTORE DUP6 DUP1 DUP7 ADD SWAP2 ADD PUSH2 0x125E JUMP JUMPDEST PUSH1 0x1F ADD PUSH1 0x1F NOT AND ADD ADD SWAP1 JUMP JUMPDEST SWAP2 DUP2 PUSH1 0x1F DUP5 ADD SLT ISZERO PUSH2 0x138 JUMPI DUP3 CALLDATALOAD SWAP2 PUSH1 0x1 PUSH1 0x1 PUSH1 0x40 SHL SUB DUP4 GT PUSH2 0x138 JUMPI PUSH1 0x20 DUP1 DUP6 ADD SWAP5 DUP5 PUSH1 0x5 SHL ADD ADD GT PUSH2 0x138 JUMPI JUMP JUMPDEST PUSH1 0x20 DUP2 ADD SWAP1 DUP2 LT PUSH1 0x1 PUSH1 0x1 PUSH1 0x40 SHL SUB DUP3 GT OR PUSH2 0x108A JUMPI PUSH1 0x40 MSTORE JUMP JUMPDEST PUSH1 0x40 DUP2 ADD SWAP1 DUP2 LT PUSH1 0x1 PUSH1 0x1 PUSH1 0x40 SHL SUB DUP3 GT OR PUSH2 0x108A JUMPI PUSH1 0x40 MSTORE JUMP JUMPDEST SWAP1 PUSH1 0x1F DUP1 NOT SWAP2 ADD AND DUP2 ADD SWAP1 DUP2 LT PUSH1 0x1 PUSH1 0x1 PUSH1 0x40 SHL SUB DUP3 GT OR PUSH2 0x108A JUMPI PUSH1 0x40 MSTORE JUMP JUMPDEST SWAP1 PUSH1 0x40 MLOAD SWAP1 PUSH1 0x0 DUP4 SLOAD SWAP1 PUSH1 0x1 DUP3 DUP2 SHR SWAP1 DUP1 DUP5 AND SWAP7 DUP8 ISZERO PUSH2 0x13F4 JUMPI JUMPDEST PUSH1 0x20 SWAP5 DUP6 DUP5 LT DUP10 EQ PUSH2 0x13E0 JUMPI DUP8 SWAP9 DUP5 DUP10 SWAP8 SWAP9 SWAP10 MSTORE SWAP1 DUP2 PUSH1 0x0 EQ PUSH2 0x13BE JUMPI POP PUSH1 0x1 EQ PUSH2 0x137F JUMPI JUMPDEST POP POP POP PUSH2 0x137D SWAP3 POP SUB DUP4 PUSH2 0x130C JUMP JUMPDEST JUMP JUMPDEST PUSH1 0x0 SWAP1 DUP2 MSTORE DUP6 DUP2 KECCAK256 SWAP6 SWAP4 POP SWAP2 SWAP1 JUMPDEST DUP2 DUP4 LT PUSH2 0x13A6 JUMPI POP POP PUSH2 0x137D SWAP4 POP DUP3 ADD ADD CODESIZE DUP1 DUP1 PUSH2 0x136E JUMP JUMPDEST DUP6 SLOAD DUP9 DUP5 ADD DUP6 ADD MSTORE SWAP5 DUP6 ADD SWAP5 DUP8 SWAP5 POP SWAP2 DUP4 ADD SWAP2 PUSH2 0x138D JUMP JUMPDEST SWAP3 POP POP POP PUSH2 0x137D SWAP5 SWAP3 POP PUSH1 0xFF NOT AND DUP3 DUP5 ADD MSTORE ISZERO ISZERO PUSH1 0x5 SHL DUP3 ADD ADD CODESIZE DUP1 DUP1 PUSH2 0x136E JUMP JUMPDEST PUSH4 0x4E487B71 PUSH1 0xE0 SHL DUP6 MSTORE PUSH1 0x22 PUSH1 0x4 MSTORE PUSH1 0x24 DUP6 REVERT JUMPDEST SWAP2 PUSH1 0x7F AND SWAP2 PUSH2 0x1348 JUMP JUMPDEST PUSH1 0x1 PUSH1 0x1 PUSH1 0x40 SHL SUB DUP2 GT PUSH2 0x108A JUMPI PUSH1 0x1F ADD PUSH1 0x1F NOT AND PUSH1 0x20 ADD SWAP1 JUMP JUMPDEST PUSH1 0xA0 PUSH1 0x3 NOT DUP3 ADD SLT PUSH2 0x138 JUMPI PUSH1 0x4 CALLDATALOAD PUSH1 0x1 PUSH1 0x1 PUSH1 0xA0 SHL SUB DUP2 AND DUP2 SUB PUSH2 0x138 JUMPI SWAP2 PUSH1 0x24 CALLDATALOAD SWAP2 PUSH1 0x44 CALLDATALOAD SWAP2 PUSH1 0x64 CALLDATALOAD PUSH1 0xE DUP2 LT ISZERO PUSH2 0x138 JUMPI SWAP2 PUSH1 0x84 CALLDATALOAD SWAP1 PUSH1 0x1 PUSH1 0x1 PUSH1 0x40 SHL SUB DUP3 GT PUSH2 0x138 JUMPI PUSH2 0x125A SWAP2 PUSH1 0x4 ADD PUSH2 0x11CA JUMP JUMPDEST PUSH1 0x1 SLOAD PUSH1 0x1 PUSH1 0x1 PUSH1 0xA0 SHL SUB AND CALLER SUB PUSH2 0x1480 JUMPI JUMP JUMPDEST PUSH1 0x64 PUSH1 0x40 MLOAD PUSH3 0x461BCD PUSH1 0xE5 SHL DUP2 MSTORE PUSH1 0x20 PUSH1 0x4 DUP3 ADD MSTORE PUSH1 0x20 PUSH1 0x24 DUP3 ADD MSTORE PUSH32 0x4F776E61626C653A2063616C6C6572206973206E6F7420746865206F776E6572 PUSH1 0x44 DUP3 ADD MSTORE REVERT JUMPDEST SWAP2 SWAP1 DUP3 SUB SWAP2 DUP3 GT PUSH2 0x4BA JUMPI JUMP JUMPDEST RETURNDATASIZE ISZERO PUSH2 0x14FC JUMPI RETURNDATASIZE SWAP1 PUSH2 0x14E2 DUP3 PUSH2 0x13FE JUMP JUMPDEST SWAP2 PUSH2 0x14F0 PUSH1 0x40 MLOAD SWAP4 DUP5 PUSH2 0x130C JUMP JUMPDEST DUP3 MSTORE RETURNDATASIZE PUSH1 0x0 PUSH1 0x20 DUP5 ADD RETURNDATACOPY JUMP JUMPDEST PUSH1 0x60 SWAP1 JUMP JUMPDEST SWAP2 SWAP1 DUP2 LT ISZERO PUSH2 0x415 JUMPI PUSH1 0x5 SHL ADD SWAP1 JUMP JUMPDEST PUSH1 0x0 NOT DUP2 EQ PUSH2 0x4BA JUMPI PUSH1 0x1 ADD SWAP1 JUMP JUMPDEST SWAP2 SWAP1 DUP2 LT ISZERO PUSH2 0x415 JUMPI PUSH1 0x5 SHL DUP2 ADD CALLDATALOAD SWAP1 PUSH1 0x1E NOT DUP2 CALLDATASIZE SUB ADD DUP3 SLT ISZERO PUSH2 0x138 JUMPI ADD SWAP1 DUP2 CALLDATALOAD SWAP2 PUSH1 0x1 PUSH1 0x1 PUSH1 0x40 SHL SUB DUP4 GT PUSH2 0x138 JUMPI PUSH1 0x20 ADD DUP3 CALLDATASIZE SUB DUP2 SGT PUSH2 0x138 JUMPI SWAP2 SWAP1 JUMP JUMPDEST SWAP1 PUSH1 0xE DUP3 LT ISZERO PUSH2 0x156E JUMPI MSTORE JUMP JUMPDEST PUSH4 0x4E487B71 PUSH1 0xE0 SHL PUSH1 0x0 MSTORE PUSH1 0x21 PUSH1 0x4 MSTORE PUSH1 0x24 PUSH1 0x0 REVERT JUMPDEST SWAP1 DUP1 PUSH1 0x20 SWAP4 SWAP3 DUP2 DUP5 MSTORE DUP5 DUP5 ADD CALLDATACOPY PUSH1 0x0 DUP3 DUP3 ADD DUP5 ADD MSTORE PUSH1 0x1F ADD PUSH1 0x1F NOT AND ADD ADD SWAP1 JUMP JUMPDEST SWAP2 SWAP4 PUSH1 0xA0 SWAP4 PUSH2 0x15D6 SWAP7 SWAP6 PUSH2 0x15C9 SWAP4 DUP6 MSTORE PUSH1 0x20 DUP6 ADD MSTORE PUSH1 0x40 DUP5 ADD MSTORE PUSH1 0x60 DUP4 ADD SWAP1 PUSH2 0x1561 JUMP JUMPDEST DUP2 PUSH1 0x80 DUP3 ADD MSTORE ADD SWAP1 PUSH2 0x1281 JUMP JUMPDEST SWAP1 JUMP JUMPDEST SWAP4 SWAP3 SWAP2 PUSH2 0x15FD SWAP1 PUSH2 0x15EC DUP7 PUSH1 0x40 SWAP5 PUSH2 0x1561 JUMP JUMPDEST PUSH1 0x60 PUSH1 0x20 DUP8 ADD MSTORE PUSH1 0x60 DUP7 ADD SWAP1 PUSH2 0x1281 JUMP JUMPDEST SWAP4 ADD MSTORE JUMP JUMPDEST PUSH1 0x2 PUSH1 0x0 SLOAD EQ PUSH2 0x1613 JUMPI PUSH1 0x2 PUSH1 0x0 SSTORE JUMP JUMPDEST PUSH1 0x40 MLOAD PUSH3 0x461BCD PUSH1 0xE5 SHL DUP2 MSTORE PUSH1 0x20 PUSH1 0x4 DUP3 ADD MSTORE PUSH1 0x1F PUSH1 0x24 DUP3 ADD MSTORE PUSH32 0x5265656E7472616E637947756172643A207265656E7472616E742063616C6C00 PUSH1 0x44 DUP3 ADD MSTORE PUSH1 0x64 SWAP1 REVERT JUMPDEST PUSH1 0x40 MLOAD PUSH4 0xA9059CBB PUSH1 0xE0 SHL PUSH1 0x20 DUP3 ADD MSTORE PUSH1 0x1 PUSH1 0x1 PUSH1 0xA0 SHL SUB SWAP1 SWAP3 AND PUSH1 0x24 DUP4 ADD MSTORE PUSH1 0x44 DUP3 ADD SWAP3 SWAP1 SWAP3 MSTORE PUSH2 0x137D SWAP2 PUSH2 0x169B DUP3 PUSH1 0x64 DUP2 ADD JUMPDEST SUB PUSH1 0x1F NOT DUP2 ADD DUP5 MSTORE DUP4 PUSH2 0x130C JUMP JUMPDEST PUSH2 0x16F4 JUMP JUMPDEST PUSH1 0x40 MLOAD PUSH4 0x23B872DD PUSH1 0xE0 SHL PUSH1 0x20 DUP3 ADD MSTORE PUSH1 0x1 PUSH1 0x1 PUSH1 0xA0 SHL SUB SWAP3 DUP4 AND PUSH1 0x24 DUP3 ADD MSTORE SWAP3 SWAP1 SWAP2 AND PUSH1 0x44 DUP4 ADD MSTORE PUSH1 0x64 DUP1 DUP4 ADD SWAP4 SWAP1 SWAP4 MSTORE SWAP2 DUP2 MSTORE PUSH1 0xA0 DUP2 ADD SWAP2 DUP2 DUP4 LT PUSH1 0x1 PUSH1 0x1 PUSH1 0x40 SHL SUB DUP5 GT OR PUSH2 0x108A JUMPI PUSH2 0x137D SWAP3 PUSH1 0x40 MSTORE JUMPDEST PUSH1 0x1 DUP1 PUSH1 0xA0 SHL SUB AND SWAP1 PUSH2 0x1753 PUSH1 0x40 MLOAD PUSH2 0x170C DUP2 PUSH2 0x12F1 JUMP JUMPDEST PUSH1 0x20 SWAP4 DUP5 DUP3 MSTORE PUSH32 0x5361666545524332303A206C6F772D6C6576656C2063616C6C206661696C6564 DUP6 DUP4 ADD MSTORE PUSH1 0x0 DUP1 DUP6 DUP8 DUP3 SWAP8 MLOAD SWAP2 ADD DUP3 DUP6 GAS CALL PUSH2 0x174D PUSH2 0x14D1 JUMP JUMPDEST SWAP2 PUSH2 0x17F0 JUMP JUMPDEST DUP1 MLOAD SWAP2 DUP3 ISZERO SWAP2 DUP5 DUP4 ISZERO PUSH2 0x17C5 JUMPI JUMPDEST POP POP POP SWAP1 POP ISZERO PUSH2 0x176E JUMPI POP JUMP JUMPDEST PUSH1 0x84 SWAP1 PUSH1 0x40 MLOAD SWAP1 PUSH3 0x461BCD PUSH1 0xE5 SHL DUP3 MSTORE PUSH1 0x4 DUP3 ADD MSTORE PUSH1 0x2A PUSH1 0x24 DUP3 ADD MSTORE PUSH32 0x5361666545524332303A204552433230206F7065726174696F6E20646964206E PUSH1 0x44 DUP3 ADD MSTORE PUSH10 0x1BDD081CDD58D8D95959 PUSH1 0xB2 SHL PUSH1 0x64 DUP3 ADD MSTORE REVERT JUMPDEST SWAP2 SWAP4 DUP2 DUP1 SWAP5 POP ADD SUB SLT PUSH2 0x17EC JUMPI DUP3 ADD MLOAD SWAP1 DUP2 ISZERO ISZERO DUP3 SUB PUSH2 0x17E9 JUMPI POP DUP1 CODESIZE DUP1 DUP5 PUSH2 0x1761 JUMP JUMPDEST DUP1 REVERT JUMPDEST POP DUP1 REVERT JUMPDEST SWAP2 SWAP3 SWAP1 ISZERO PUSH2 0x1852 JUMPI POP DUP2 MLOAD ISZERO PUSH2 0x1804 JUMPI POP SWAP1 JUMP JUMPDEST EXTCODESIZE ISZERO PUSH2 0x180D JUMPI SWAP1 JUMP JUMPDEST PUSH1 0x40 MLOAD PUSH3 0x461BCD PUSH1 0xE5 SHL DUP2 MSTORE PUSH1 0x20 PUSH1 0x4 DUP3 ADD MSTORE PUSH1 0x1D PUSH1 0x24 DUP3 ADD MSTORE PUSH32 0x416464726573733A2063616C6C20746F206E6F6E2D636F6E7472616374000000 PUSH1 0x44 DUP3 ADD MSTORE PUSH1 0x64 SWAP1 REVERT JUMPDEST DUP3 MLOAD SWAP1 SWAP2 POP ISZERO PUSH2 0x1865 JUMPI POP DUP1 MLOAD SWAP1 PUSH1 0x20 ADD REVERT JUMPDEST PUSH1 0x40 MLOAD PUSH3 0x461BCD PUSH1 0xE5 SHL DUP2 MSTORE PUSH1 0x20 PUSH1 0x4 DUP3 ADD MSTORE SWAP1 DUP2 SWAP1 PUSH2 0x1889 SWAP1 PUSH1 0x24 DUP4 ADD SWAP1 PUSH2 0x1281 JUMP JUMPDEST SUB SWAP1 REVERT JUMPDEST SWAP2 SWAP4 PUSH1 0xA0 SWAP4 PUSH2 0x15D6 SWAP8 SWAP6 PUSH2 0x18B8 SWAP4 PUSH1 0x1 DUP1 DUP9 SHL SUB AND DUP6 MSTORE PUSH1 0x20 DUP6 ADD MSTORE PUSH1 0x40 DUP5 ADD MSTORE PUSH1 0x60 DUP4 ADD SWAP1 PUSH2 0x1561 JUMP JUMPDEST DUP2 PUSH1 0x80 DUP3 ADD MSTORE ADD SWAP2 PUSH2 0x1584 JUMP JUMPDEST SWAP1 SWAP2 SWAP5 SWAP4 SWAP3 PUSH1 0xE DUP2 LT ISZERO PUSH2 0x156E JUMPI DUP1 PUSH2 0x1934 JUMPI POP PUSH2 0x18EE SWAP2 SWAP1 ADDRESS SWAP1 PUSH1 0x1 PUSH1 0x1 PUSH1 0xA0 SHL SUB AND PUSH2 0x1C52 JUMP JUMPDEST DUP2 PUSH1 0x40 MLOAD SWAP3 DUP4 SWAP3 DUP4 CALLDATACOPY DUP2 ADD PUSH1 0x0 SWAP3 DUP4 SWAP3 DUP3 DUP5 DUP1 SWAP5 MSTORE SUB SWAP1 DUP3 ADDRESS GAS CALL SWAP1 PUSH2 0x1912 PUSH2 0x14D1 JUMP JUMPDEST SWAP2 ISZERO PUSH2 0x2DC JUMPI PUSH1 0x20 DUP3 DUP1 MLOAD DUP2 ADD SUB SLT PUSH2 0x17E9 JUMPI POP PUSH1 0x20 ADD MLOAD SWAP1 DUP2 LT PUSH2 0x2DC JUMPI SWAP1 JUMP JUMPDEST SWAP2 SWAP4 SWAP1 SWAP2 PUSH1 0x1 DUP2 SUB PUSH2 0x19FF JUMPI POP PUSH1 0x0 SWAP3 CHAINID DUP5 MSTORE PUSH1 0x2 PUSH1 0x20 MSTORE PUSH1 0x40 SWAP5 PUSH1 0x25 DUP7 DUP7 KECCAK256 DUP8 MLOAD SWAP1 PUSH5 0x62D2DCC6D PUSH1 0xDB SHL DUP3 MSTORE PUSH1 0x5 DUP3 ADD MSTORE PUSH1 0x1 DUP1 PUSH1 0xA0 SHL SUB SWAP2 DUP3 SWAP2 KECCAK256 SLOAD AND SWAP5 DUP6 ISZERO PUSH2 0x19EE JUMPI SWAP3 PUSH2 0x1990 DUP8 SWAP7 SWAP5 SWAP4 DUP6 DUP9 SWAP8 SWAP6 SWAP5 DUP9 SWAP6 AND PUSH2 0x1C52 JUMP JUMPDEST DUP3 DUP9 MLOAD SWAP4 DUP5 SWAP3 DUP4 CALLDATACOPY DUP2 ADD DUP3 DUP2 MSTORE SUB SWAP3 GAS CALL SWAP1 PUSH2 0x19AA PUSH2 0x14D1 JUMP JUMPDEST SWAP2 ISZERO PUSH2 0x19DD JUMPI PUSH1 0x20 DUP3 DUP1 MLOAD DUP2 ADD SUB SLT PUSH2 0x17E9 JUMPI POP PUSH1 0x20 ADD MLOAD SWAP2 DUP3 LT PUSH2 0x19CD JUMPI POP SWAP1 JUMP JUMPDEST MLOAD PUSH4 0x81CEFF3 PUSH1 0xE4 SHL DUP2 MSTORE PUSH1 0x4 SWAP1 REVERT JUMPDEST DUP3 MLOAD PUSH4 0x81CEFF3 PUSH1 0xE4 SHL DUP2 MSTORE PUSH1 0x4 SWAP1 REVERT JUMPDEST DUP8 MLOAD PUSH4 0x4A92F12B PUSH1 0xE0 SHL DUP2 MSTORE PUSH1 0x4 SWAP1 REVERT JUMPDEST PUSH1 0x2 DUP2 SUB PUSH2 0x1A54 JUMPI POP PUSH1 0x0 SWAP3 CHAINID DUP5 MSTORE PUSH1 0x2 PUSH1 0x20 MSTORE PUSH1 0x40 SWAP5 PUSH1 0x22 DUP7 DUP7 KECCAK256 DUP8 MLOAD SWAP1 PUSH2 0x60F PUSH1 0xF3 SHL DUP3 MSTORE PUSH1 0x2 DUP3 ADD MSTORE PUSH1 0x1 DUP1 PUSH1 0xA0 SHL SUB SWAP2 DUP3 SWAP2 KECCAK256 SLOAD AND SWAP5 DUP6 ISZERO PUSH2 0x19EE JUMPI SWAP3 PUSH2 0x1990 DUP8 SWAP7 SWAP5 SWAP4 DUP6 DUP9 SWAP8 SWAP6 SWAP5 DUP9 SWAP6 AND PUSH2 0x1C52 JUMP JUMPDEST PUSH2 0x1A60 SWAP1 SWAP5 SWAP4 SWAP5 PUSH2 0x1D86 JUMP JUMPDEST SWAP4 PUSH1 0x0 SWAP4 CHAINID DUP6 MSTORE PUSH1 0x2 PUSH1 0x20 MSTORE PUSH1 0x40 SWAP6 DUP7 DUP7 KECCAK256 PUSH1 0x20 PUSH2 0x1A86 DUP10 MLOAD SWAP4 DUP5 DUP2 MLOAD SWAP4 DUP5 SWAP3 ADD PUSH2 0x125E JUMP JUMPDEST DUP3 ADD SWAP1 DUP2 MSTORE DUP2 SWAP1 SUB PUSH1 0x20 ADD SWAP1 KECCAK256 SLOAD PUSH1 0x1 PUSH1 0x1 PUSH1 0xA0 SHL SUB SWAP1 DUP2 AND SWAP5 DUP6 ISZERO PUSH2 0x19EE JUMPI SWAP3 PUSH2 0x1990 DUP8 SWAP7 SWAP5 SWAP4 DUP6 DUP9 SWAP8 SWAP6 SWAP5 DUP9 SWAP6 AND PUSH2 0x1C52 JUMP JUMPDEST SWAP3 SWAP1 SWAP4 SWAP2 PUSH1 0xE DUP2 LT ISZERO PUSH2 0x156E JUMPI DUP1 PUSH2 0x1B10 JUMPI POP SWAP2 DUP2 PUSH1 0x0 SWAP4 DUP5 SWAP4 PUSH1 0x40 MLOAD SWAP3 DUP4 SWAP3 DUP4 CALLDATACOPY DUP2 ADD DUP5 DUP2 MSTORE SUB SWAP2 ADDRESS GAS CALL PUSH2 0x1AEF PUSH2 0x14D1 JUMP JUMPDEST SWAP1 ISZERO PUSH2 0x2DC JUMPI PUSH1 0x20 DUP2 DUP1 MLOAD DUP2 ADD SUB SLT PUSH2 0x138 JUMPI PUSH1 0x20 ADD MLOAD SWAP1 DUP2 LT PUSH2 0x2DC JUMPI SWAP1 JUMP JUMPDEST PUSH1 0x1 DUP2 SUB PUSH2 0x1B82 JUMPI POP PUSH1 0x0 SWAP2 CHAINID DUP4 MSTORE PUSH1 0x2 PUSH1 0x20 MSTORE PUSH1 0x40 SWAP4 DUP5 DUP5 KECCAK256 DUP6 MLOAD SWAP1 PUSH5 0x62D2DCC6D PUSH1 0xDB SHL DUP3 MSTORE PUSH1 0x5 DUP3 ADD MSTORE PUSH1 0x25 PUSH1 0x1 DUP1 PUSH1 0xA0 SHL SUB SWAP2 KECCAK256 SLOAD AND SWAP3 DUP4 ISZERO PUSH2 0x1B71 JUMPI SWAP2 DUP5 SWAP4 SWAP2 DUP5 SWAP4 DUP3 DUP9 MLOAD SWAP4 DUP5 SWAP3 DUP4 CALLDATACOPY DUP2 ADD DUP6 DUP2 MSTORE SUB SWAP3 GAS CALL SWAP1 PUSH2 0x19AA PUSH2 0x14D1 JUMP JUMPDEST DUP6 MLOAD PUSH4 0x4A92F12B PUSH1 0xE0 SHL DUP2 MSTORE PUSH1 0x4 SWAP1 REVERT JUMPDEST PUSH1 0x2 DUP2 SUB PUSH2 0x1BE0 JUMPI POP PUSH1 0x0 SWAP2 CHAINID DUP4 MSTORE PUSH1 0x2 PUSH1 0x20 MSTORE PUSH1 0x40 SWAP4 DUP5 DUP5 KECCAK256 DUP6 MLOAD SWAP1 PUSH2 0x60F PUSH1 0xF3 SHL DUP3 MSTORE PUSH1 0x2 DUP3 ADD MSTORE PUSH1 0x22 PUSH1 0x1 DUP1 PUSH1 0xA0 SHL SUB SWAP2 KECCAK256 SLOAD AND SWAP3 DUP4 ISZERO PUSH2 0x1B71 JUMPI SWAP2 DUP5 SWAP4 SWAP2 DUP5 SWAP4 DUP3 DUP9 MLOAD SWAP4 DUP5 SWAP3 DUP4 CALLDATACOPY DUP2 ADD DUP6 DUP2 MSTORE SUB SWAP3 GAS CALL SWAP1 PUSH2 0x19AA PUSH2 0x14D1 JUMP JUMPDEST PUSH2 0x1BEC SWAP1 SWAP4 SWAP3 SWAP4 PUSH2 0x1D86 JUMP JUMPDEST SWAP3 PUSH1 0x0 SWAP3 CHAINID DUP5 MSTORE PUSH1 0x2 PUSH1 0x20 MSTORE PUSH1 0x40 SWAP5 DUP6 DUP6 KECCAK256 SWAP1 PUSH1 0x20 PUSH2 0x1C13 DUP9 MLOAD SWAP3 DUP4 DUP2 MLOAD SWAP4 DUP5 SWAP3 ADD PUSH2 0x125E JUMP JUMPDEST DUP2 ADD SWAP2 DUP3 MSTORE SWAP1 DUP2 SWAP1 SUB PUSH1 0x20 ADD SWAP1 KECCAK256 SLOAD PUSH1 0x1 PUSH1 0x1 PUSH1 0xA0 SHL SUB AND SWAP3 DUP4 ISZERO PUSH2 0x1B71 JUMPI SWAP2 DUP5 SWAP4 SWAP2 DUP5 SWAP4 DUP3 DUP9 MLOAD SWAP4 DUP5 SWAP3 DUP4 CALLDATACOPY DUP2 ADD DUP6 DUP2 MSTORE SUB SWAP3 GAS CALL SWAP1 PUSH2 0x19AA PUSH2 0x14D1 JUMP JUMPDEST SWAP2 SWAP1 SWAP2 DUP2 ISZERO DUP1 ISZERO PUSH2 0x1D01 JUMPI JUMPDEST ISZERO PUSH2 0x1C9D JUMPI PUSH1 0x40 MLOAD PUSH4 0x95EA7B3 PUSH1 0xE0 SHL PUSH1 0x20 DUP3 ADD MSTORE PUSH1 0x1 PUSH1 0x1 PUSH1 0xA0 SHL SUB SWAP1 SWAP4 AND PUSH1 0x24 DUP5 ADD MSTORE PUSH1 0x44 DUP4 ADD SWAP2 SWAP1 SWAP2 MSTORE PUSH2 0x137D SWAP2 SWAP1 PUSH2 0x169B DUP3 PUSH1 0x64 DUP2 ADD PUSH2 0x168D JUMP JUMPDEST PUSH1 0x40 MLOAD PUSH3 0x461BCD PUSH1 0xE5 SHL DUP2 MSTORE PUSH1 0x20 PUSH1 0x4 DUP3 ADD MSTORE PUSH1 0x36 PUSH1 0x24 DUP3 ADD MSTORE PUSH32 0x5361666545524332303A20617070726F76652066726F6D206E6F6E2D7A65726F PUSH1 0x44 DUP3 ADD MSTORE PUSH22 0x20746F206E6F6E2D7A65726F20616C6C6F77616E6365 PUSH1 0x50 SHL PUSH1 0x64 DUP3 ADD MSTORE PUSH1 0x84 SWAP1 REVERT JUMPDEST POP PUSH1 0x40 MLOAD PUSH4 0x6EB1769F PUSH1 0xE1 SHL DUP2 MSTORE ADDRESS PUSH1 0x4 DUP3 ADD MSTORE PUSH1 0x1 PUSH1 0x1 PUSH1 0xA0 SHL SUB DUP5 DUP2 AND PUSH1 0x24 DUP4 ADD MSTORE PUSH1 0x20 SWAP1 DUP3 SWAP1 PUSH1 0x44 SWAP1 DUP3 SWAP1 DUP7 AND GAS STATICCALL SWAP1 DUP2 ISZERO PUSH2 0x1D7A JUMPI PUSH1 0x0 SWAP2 PUSH2 0x1D49 JUMPI JUMPDEST POP ISZERO PUSH2 0x1C5E JUMP JUMPDEST SWAP1 PUSH1 0x20 DUP3 RETURNDATASIZE DUP3 GT PUSH2 0x1D72 JUMPI JUMPDEST DUP2 PUSH2 0x1D62 PUSH1 0x20 SWAP4 DUP4 PUSH2 0x130C JUMP JUMPDEST DUP2 ADD SUB SLT PUSH2 0x17E9 JUMPI POP MLOAD CODESIZE PUSH2 0x1D42 JUMP JUMPDEST RETURNDATASIZE SWAP2 POP PUSH2 0x1D55 JUMP JUMPDEST PUSH1 0x40 MLOAD RETURNDATASIZE PUSH1 0x0 DUP3 RETURNDATACOPY RETURNDATASIZE SWAP1 REVERT JUMPDEST PUSH1 0xE DUP2 LT ISZERO PUSH2 0x156E JUMPI DUP1 ISZERO PUSH2 0x1FEC JUMPI PUSH1 0x1 DUP2 EQ PUSH2 0x1FCA JUMPI PUSH1 0x2 DUP2 EQ PUSH2 0x1FAB JUMPI PUSH1 0x3 DUP2 EQ PUSH2 0x1F81 JUMPI PUSH1 0x4 DUP2 EQ PUSH2 0x1F5B JUMPI PUSH1 0x5 DUP2 EQ PUSH2 0x1F35 JUMPI PUSH1 0x6 DUP2 EQ PUSH2 0x1F0F JUMPI PUSH1 0x7 DUP2 EQ PUSH2 0x1EE9 JUMPI PUSH1 0x8 DUP2 EQ PUSH2 0x1EC3 JUMPI PUSH1 0x9 DUP2 EQ PUSH2 0x1E9C JUMPI PUSH1 0xA DUP2 EQ PUSH2 0x1E75 JUMPI PUSH1 0xB DUP2 EQ PUSH2 0x1E51 JUMPI PUSH1 0xC DUP2 EQ PUSH2 0x1E2E JUMPI PUSH1 0xD EQ PUSH2 0x1E0E JUMPI PUSH1 0x40 MLOAD PUSH4 0x27167083 PUSH1 0xE2 SHL DUP2 MSTORE PUSH1 0x4 SWAP1 REVERT JUMPDEST PUSH1 0x40 MLOAD PUSH2 0x1E1A DUP2 PUSH2 0x12F1 JUMP JUMPDEST PUSH1 0x4 DUP2 MSTORE PUSH4 0xDAC8CAF PUSH1 0xE3 SHL PUSH1 0x20 DUP3 ADD MSTORE SWAP1 JUMP JUMPDEST POP PUSH1 0x40 MLOAD PUSH2 0x1E3B DUP2 PUSH2 0x12F1 JUMP JUMPDEST PUSH1 0x6 DUP2 MSTORE PUSH6 0x62697377617 PUSH1 0xD4 SHL PUSH1 0x20 DUP3 ADD MSTORE SWAP1 JUMP JUMPDEST POP PUSH1 0x40 MLOAD PUSH2 0x1E5E DUP2 PUSH2 0x12F1 JUMP JUMPDEST PUSH1 0x7 DUP2 MSTORE PUSH7 0x6170657377617 PUSH1 0xCC SHL PUSH1 0x20 DUP3 ADD MSTORE SWAP1 JUMP JUMPDEST POP PUSH1 0x40 MLOAD PUSH2 0x1E82 DUP2 PUSH2 0x12F1 JUMP JUMPDEST PUSH1 0xA DUP2 MSTORE PUSH10 0x73706F6F6B797377617 PUSH1 0xB4 SHL PUSH1 0x20 DUP3 ADD MSTORE SWAP1 JUMP JUMPDEST POP PUSH1 0x40 MLOAD PUSH2 0x1EA9 DUP2 PUSH2 0x12F1 JUMP JUMPDEST PUSH1 0xA DUP2 MSTORE PUSH10 0x7370697269747377617 PUSH1 0xB4 SHL PUSH1 0x20 DUP3 ADD MSTORE SWAP1 JUMP JUMPDEST POP PUSH1 0x40 MLOAD PUSH2 0x1ED0 DUP2 PUSH2 0x12F1 JUMP JUMPDEST PUSH1 0x9 DUP2 MSTORE PUSH9 0x7472616465726A6F65 PUSH1 0xB8 SHL PUSH1 0x20 DUP3 ADD MSTORE SWAP1 JUMP JUMPDEST POP PUSH1 0x40 MLOAD PUSH2 0x1EF6 DUP2 PUSH2 0x12F1 JUMP JUMPDEST PUSH1 0x9 DUP2 MSTORE PUSH9 0x717569636B7377617 PUSH1 0xBC SHL PUSH1 0x20 DUP3 ADD MSTORE SWAP1 JUMP JUMPDEST POP PUSH1 0x40 MLOAD PUSH2 0x1F1C DUP2 PUSH2 0x12F1 JUMP JUMPDEST PUSH1 0x9 DUP2 MSTORE PUSH9 0x73757368697377617 PUSH1 0xBC SHL PUSH1 0x20 DUP3 ADD MSTORE SWAP1 JUMP JUMPDEST POP PUSH1 0x40 MLOAD PUSH2 0x1F42 DUP2 PUSH2 0x12F1 JUMP JUMPDEST PUSH1 0x9 DUP2 MSTORE PUSH9 0x756E69737761705633 PUSH1 0xB8 SHL PUSH1 0x20 DUP3 ADD MSTORE SWAP1 JUMP JUMPDEST POP PUSH1 0x40 MLOAD PUSH2 0x1F68 DUP2 PUSH2 0x12F1 JUMP JUMPDEST PUSH1 0x9 DUP2 MSTORE PUSH9 0x3AB734B9BBB0B82B19 PUSH1 0xB9 SHL PUSH1 0x20 DUP3 ADD MSTORE SWAP1 JUMP JUMPDEST POP PUSH1 0x40 MLOAD PUSH2 0x1F8E DUP2 PUSH2 0x12F1 JUMP JUMPDEST PUSH1 0xD DUP2 MSTORE PUSH13 0x3830B731B0B5B2A9BBB0B82B19 PUSH1 0x99 SHL PUSH1 0x20 DUP3 ADD MSTORE SWAP1 JUMP JUMPDEST POP PUSH1 0x40 MLOAD PUSH2 0x1FB8 DUP2 PUSH2 0x12F1 JUMP JUMPDEST PUSH1 0x2 DUP2 MSTORE PUSH2 0x60F PUSH1 0xF3 SHL PUSH1 0x20 DUP3 ADD MSTORE SWAP1 JUMP JUMPDEST POP PUSH1 0x40 MLOAD PUSH2 0x1FD7 DUP2 PUSH2 0x12F1 JUMP JUMPDEST PUSH1 0x5 DUP2 MSTORE PUSH5 0x62D2DCC6D PUSH1 0xDB SHL PUSH1 0x20 DUP3 ADD MSTORE SWAP1 JUMP JUMPDEST POP PUSH1 0x40 MLOAD PUSH2 0x1FF9 DUP2 PUSH2 0x12F1 JUMP JUMPDEST PUSH1 0x4 DUP2 MSTORE PUSH4 0x6C696669 PUSH1 0xE0 SHL PUSH1 0x20 DUP3 ADD MSTORE SWAP1 JUMP INVALID 0xC0 0xE5 DUP15 0xAA DUP14 ADD 0xF8 ADDMOD SWAP7 0xEA SELFBALANCE EXTCODEHASH ADD 0x4B PUSH20 0xB4816ED1CC0335591467BA75BB552837A26469 PUSH17 0x667358221220A1EBFFA5BD035B63191396 CODECOPY DUP2 SWAP15 PUSH25 0x4E9D423AC8D4FA83F0D963FA731D6CF5364736F6C63430008 SGT STOP CALLER "},"methodIdentifiers":{"BASIS_POINTS()":"e1f1c4a7","FEE_RATE_BPS()":"0a89fa82","_executeSwapETHWithRouteInternal(address,uint256,uint256,uint8,bytes)":"ff81b308","_executeSwapToETHWithRouteInternal(address,uint256,uint256,uint8,bytes)":"6fc45679","_executeSwapWithRouteInternal(address,address,uint256,uint256,uint8,bytes)":"06414a39","calculateFee(uint256)":"99a5d747","dexRouters(uint256,string)":"53326fa3","emergencyWithdraw(address,uint256)":"95ccea67","getDEXRouter(string)":"78e3399d","getFeeRate()":"84e5eed0","getSupportedDEXes()":"386e07bf","isDEXSupported(string)":"d88545ba","owner()":"8da5cb5b","renounceOwnership()":"715018a6","revenueWallet()":"44478425","supportedDEXes(uint256)":"4caf81f5","swapETHWithRouteSelection(address,uint256,uint8[],bytes[])":"3b5a0821","swapToETHWithRouteSelection(address,uint256,uint256,uint8[],bytes[])":"8043d830","swapWithRouteSelection(address,address,uint256,uint256,uint8[],bytes[])":"fe7088f9","swapWithSpecificRoute(address,address,uint256,uint256,uint8,bytes)":"02b40eae","transferOwnership(address)":"f2fde38b","updateDEXRouter(uint256,string,address)":"89b476ec"}}}}}