{"contracts/RevenueSplitter.sol":{"RevenueSplitter":{"abi":[{"anonymous":false,"inputs":[{"indexed":true,"internalType":"address","name":"user","type":"address"},{"indexed":true,"internalType":"address","name":"originalRecipient","type":"address"},{"indexed":false,"internalType":"uint256","name":"originalAmount","type":"uint256"},{"indexed":false,"internalType":"uint256","name":"revenueAmount","type":"uint256"},{"indexed":false,"internalType":"uint256","name":"totalAmount","type":"uint256"}],"name":"RevenueSplit","type":"event"},{"inputs":[],"name":"REVENUE_PERCENTAGE","outputs":[{"internalType":"uint256","name":"","type":"uint256"}],"stateMutability":"view","type":"function"},{"inputs":[],"name":"REVENUE_WALLET","outputs":[{"internalType":"address","name":"","type":"address"}],"stateMutability":"view","type":"function"},{"inputs":[],"name":"getRevenuePercentage","outputs":[{"internalType":"uint256","name":"","type":"uint256"}],"stateMutability":"pure","type":"function"},{"inputs":[],"name":"getRevenueWallet","outputs":[{"internalType":"address","name":"","type":"address"}],"stateMutability":"pure","type":"function"},{"inputs":[{"internalType":"address","name":"recipient","type":"address"}],"name":"splitRevenue","outputs":[],"stateMutability":"payable","type":"function"},{"stateMutability":"payable","type":"receive"}],"evm":{"bytecode":{"linkReferences":{},"object":"608080604052346100165761049f908161001c8239f35b600080fdfe60806040908082526004361015610107575b50361561001d57600080fd5b34159061002a8215610327565b603234029134830460321417156100f1577f9a89513c0f704cf2ac6de81ba9c12f6c6a4f828c8b8efcf5f78ba1420c1d82b66100ae606473d9bd71aa48872430c54730a2d412918ab01cb1cc9404926100838434610363565b90846100d2575b816100b3575b51908152602081019390935234604084015233929081906060820190565b0390a3005b6100cd600080808086335af16100c7610370565b5061041d565b610090565b6100ec6000808080898b5af16100e6610370565b506103d1565b61008a565b634e487b7160e01b600052601160045260246000fd5b600090813560e01c908163110282db1461030c57508063159485d6146102dd578063b6fa49b0146102c1578063d711da59146101795763f3cd3798036100115790346101755781600319360112610175576020905173d9bd71aa48872430c54730a2d412918ab01cb1cc8152f35b5080fd5b50906020366003190112610175576004356001600160a01b038116918282036102bd5734156101a88115610327565b8315610285576032340290348204603214171561027157847f9a89513c0f704cf2ac6de81ba9c12f6c6a4f828c8b8efcf5f78ba1420c1d82b69260646102259304946101f48634610363565b92839187610245575b8261022b575b5050505191829133953491846040919493926060820195825260208201520152565b0390a380f35b818061023d9481935af16100c7610370565b818738610203565b61026c828080808c73d9bd71aa48872430c54730a2d412918ab01cb1cc5af16100e6610370565b6101fd565b634e487b7160e01b85526011600452602485fd5b815162461bcd60e51b8152602060048201526011602482015270125b9d985b1a59081c9958da5c1a595b9d607a1b6044820152606490fd5b8380fd5b5090346101755781600319360112610175576020905160328152f35b5090346101755781600319360112610175576020905173d9bd71aa48872430c54730a2d412918ab01cb1cc8152f35b90503461017557816003193601126101755780603260209252f35b1561032e57565b60405162461bcd60e51b815260206004820152600d60248201526c139bc81d985b1d59481cd95b9d609a1b6044820152606490fd5b919082039182116100f157565b3d156103cc5767ffffffffffffffff903d8281116103b65760405192601f8201601f19908116603f01168401908111848210176103b65760405282523d6000602084013e565b634e487b7160e01b600052604160045260246000fd5b606090565b156103d857565b60405162461bcd60e51b815260206004820152601760248201527f526576656e7565207472616e73666572206661696c65640000000000000000006044820152606490fd5b1561042457565b60405162461bcd60e51b815260206004820152601f60248201527f4f726967696e616c20616d6f756e74207472616e73666572206661696c6564006044820152606490fdfea264697066735822122034b1c072dd7ed0787e96dc10f8c04d8c02af106d4a2c5ecb9438dc741149ef5b64736f6c63430008130033","opcodes":"PUSH1 0x80 DUP1 PUSH1 0x40 MSTORE CALLVALUE PUSH2 0x16 JUMPI PUSH2 0x49F SWAP1 DUP2 PUSH2 0x1C DUP3 CODECOPY RETURN JUMPDEST PUSH1 0x0 DUP1 REVERT INVALID PUSH1 0x80 PUSH1 0x40 SWAP1 DUP1 DUP3 MSTORE PUSH1 0x4 CALLDATASIZE LT ISZERO PUSH2 0x107 JUMPI JUMPDEST POP CALLDATASIZE ISZERO PUSH2 0x1D JUMPI PUSH1 0x0 DUP1 REVERT JUMPDEST CALLVALUE ISZERO SWAP1 PUSH2 0x2A DUP3 ISZERO PUSH2 0x327 JUMP JUMPDEST PUSH1 0x32 CALLVALUE MUL SWAP2 CALLVALUE DUP4 DIV PUSH1 0x32 EQ OR ISZERO PUSH2 0xF1 JUMPI PUSH32 0x9A89513C0F704CF2AC6DE81BA9C12F6C6A4F828C8B8EFCF5F78BA1420C1D82B6 PUSH2 0xAE PUSH1 0x64 PUSH20 0xD9BD71AA48872430C54730A2D412918AB01CB1CC SWAP5 DIV SWAP3 PUSH2 0x83 DUP5 CALLVALUE PUSH2 0x363 JUMP JUMPDEST SWAP1 DUP5 PUSH2 0xD2 JUMPI JUMPDEST DUP2 PUSH2 0xB3 JUMPI JUMPDEST MLOAD SWAP1 DUP2 MSTORE PUSH1 0x20 DUP2 ADD SWAP4 SWAP1 SWAP4 MSTORE CALLVALUE PUSH1 0x40 DUP5 ADD MSTORE CALLER SWAP3 SWAP1 DUP2 SWAP1 PUSH1 0x60 DUP3 ADD SWAP1 JUMP JUMPDEST SUB SWAP1 LOG3 STOP JUMPDEST PUSH2 0xCD PUSH1 0x0 DUP1 DUP1 DUP1 DUP7 CALLER GAS CALL PUSH2 0xC7 PUSH2 0x370 JUMP JUMPDEST POP PUSH2 0x41D JUMP JUMPDEST PUSH2 0x90 JUMP JUMPDEST PUSH2 0xEC PUSH1 0x0 DUP1 DUP1 DUP1 DUP10 DUP12 GAS CALL PUSH2 0xE6 PUSH2 0x370 JUMP JUMPDEST POP PUSH2 0x3D1 JUMP JUMPDEST PUSH2 0x8A JUMP JUMPDEST PUSH4 0x4E487B71 PUSH1 0xE0 SHL PUSH1 0x0 MSTORE PUSH1 0x11 PUSH1 0x4 MSTORE PUSH1 0x24 PUSH1 0x0 REVERT JUMPDEST PUSH1 0x0 SWAP1 DUP2 CALLDATALOAD PUSH1 0xE0 SHR SWAP1 DUP2 PUSH4 0x110282DB EQ PUSH2 0x30C JUMPI POP DUP1 PUSH4 0x159485D6 EQ PUSH2 0x2DD JUMPI DUP1 PUSH4 0xB6FA49B0 EQ PUSH2 0x2C1 JUMPI DUP1 PUSH4 0xD711DA59 EQ PUSH2 0x179 JUMPI PUSH4 0xF3CD3798 SUB PUSH2 0x11 JUMPI SWAP1 CALLVALUE PUSH2 0x175 JUMPI DUP2 PUSH1 0x3 NOT CALLDATASIZE ADD SLT PUSH2 0x175 JUMPI PUSH1 0x20 SWAP1 MLOAD PUSH20 0xD9BD71AA48872430C54730A2D412918AB01CB1CC DUP2 MSTORE RETURN JUMPDEST POP DUP1 REVERT JUMPDEST POP SWAP1 PUSH1 0x20 CALLDATASIZE PUSH1 0x3 NOT ADD SLT PUSH2 0x175 JUMPI PUSH1 0x4 CALLDATALOAD PUSH1 0x1 PUSH1 0x1 PUSH1 0xA0 SHL SUB DUP2 AND SWAP2 DUP3 DUP3 SUB PUSH2 0x2BD JUMPI CALLVALUE ISZERO PUSH2 0x1A8 DUP2 ISZERO PUSH2 0x327 JUMP JUMPDEST DUP4 ISZERO PUSH2 0x285 JUMPI PUSH1 0x32 CALLVALUE MUL SWAP1 CALLVALUE DUP3 DIV PUSH1 0x32 EQ OR ISZERO PUSH2 0x271 JUMPI DUP5 PUSH32 0x9A89513C0F704CF2AC6DE81BA9C12F6C6A4F828C8B8EFCF5F78BA1420C1D82B6 SWAP3 PUSH1 0x64 PUSH2 0x225 SWAP4 DIV SWAP5 PUSH2 0x1F4 DUP7 CALLVALUE PUSH2 0x363 JUMP JUMPDEST SWAP3 DUP4 SWAP2 DUP8 PUSH2 0x245 JUMPI JUMPDEST DUP3 PUSH2 0x22B JUMPI JUMPDEST POP POP POP MLOAD SWAP2 DUP3 SWAP2 CALLER SWAP6 CALLVALUE SWAP2 DUP5 PUSH1 0x40 SWAP2 SWAP5 SWAP4 SWAP3 PUSH1 0x60 DUP3 ADD SWAP6 DUP3 MSTORE PUSH1 0x20 DUP3 ADD MSTORE ADD MSTORE JUMP JUMPDEST SUB SWAP1 LOG3 DUP1 RETURN JUMPDEST DUP2 DUP1 PUSH2 0x23D SWAP5 DUP2 SWAP4 GAS CALL PUSH2 0xC7 PUSH2 0x370 JUMP JUMPDEST DUP2 DUP8 CODESIZE PUSH2 0x203 JUMP JUMPDEST PUSH2 0x26C DUP3 DUP1 DUP1 DUP1 DUP13 PUSH20 0xD9BD71AA48872430C54730A2D412918AB01CB1CC GAS CALL PUSH2 0xE6 PUSH2 0x370 JUMP JUMPDEST PUSH2 0x1FD JUMP JUMPDEST PUSH4 0x4E487B71 PUSH1 0xE0 SHL DUP6 MSTORE PUSH1 0x11 PUSH1 0x4 MSTORE PUSH1 0x24 DUP6 REVERT JUMPDEST DUP2 MLOAD PUSH3 0x461BCD PUSH1 0xE5 SHL DUP2 MSTORE PUSH1 0x20 PUSH1 0x4 DUP3 ADD MSTORE PUSH1 0x11 PUSH1 0x24 DUP3 ADD MSTORE PUSH17 0x125B9D985B1A59081C9958DA5C1A595B9D PUSH1 0x7A SHL PUSH1 0x44 DUP3 ADD MSTORE PUSH1 0x64 SWAP1 REVERT JUMPDEST DUP4 DUP1 REVERT JUMPDEST POP SWAP1 CALLVALUE PUSH2 0x175 JUMPI DUP2 PUSH1 0x3 NOT CALLDATASIZE ADD SLT PUSH2 0x175 JUMPI PUSH1 0x20 SWAP1 MLOAD PUSH1 0x32 DUP2 MSTORE RETURN JUMPDEST POP SWAP1 CALLVALUE PUSH2 0x175 JUMPI DUP2 PUSH1 0x3 NOT CALLDATASIZE ADD SLT PUSH2 0x175 JUMPI PUSH1 0x20 SWAP1 MLOAD PUSH20 0xD9BD71AA48872430C54730A2D412918AB01CB1CC DUP2 MSTORE RETURN JUMPDEST SWAP1 POP CALLVALUE PUSH2 0x175 JUMPI DUP2 PUSH1 0x3 NOT CALLDATASIZE ADD SLT PUSH2 0x175 JUMPI DUP1 PUSH1 0x32 PUSH1 0x20 SWAP3 MSTORE RETURN JUMPDEST ISZERO PUSH2 0x32E JUMPI JUMP JUMPDEST PUSH1 0x40 MLOAD PUSH3 0x461BCD PUSH1 0xE5 SHL DUP2 MSTORE PUSH1 0x20 PUSH1 0x4 DUP3 ADD MSTORE PUSH1 0xD PUSH1 0x24 DUP3 ADD MSTORE PUSH13 0x139BC81D985B1D59481CD95B9D PUSH1 0x9A SHL PUSH1 0x44 DUP3 ADD MSTORE PUSH1 0x64 SWAP1 REVERT JUMPDEST SWAP2 SWAP1 DUP3 SUB SWAP2 DUP3 GT PUSH2 0xF1 JUMPI JUMP JUMPDEST RETURNDATASIZE ISZERO PUSH2 0x3CC JUMPI PUSH8 0xFFFFFFFFFFFFFFFF SWAP1 RETURNDATASIZE DUP3 DUP2 GT PUSH2 0x3B6 JUMPI PUSH1 0x40 MLOAD SWAP3 PUSH1 0x1F DUP3 ADD PUSH1 0x1F NOT SWAP1 DUP2 AND PUSH1 0x3F ADD AND DUP5 ADD SWAP1 DUP2 GT DUP5 DUP3 LT OR PUSH2 0x3B6 JUMPI PUSH1 0x40 MSTORE DUP3 MSTORE RETURNDATASIZE PUSH1 0x0 PUSH1 0x20 DUP5 ADD RETURNDATACOPY JUMP JUMPDEST PUSH4 0x4E487B71 PUSH1 0xE0 SHL PUSH1 0x0 MSTORE PUSH1 0x41 PUSH1 0x4 MSTORE PUSH1 0x24 PUSH1 0x0 REVERT JUMPDEST PUSH1 0x60 SWAP1 JUMP JUMPDEST ISZERO PUSH2 0x3D8 JUMPI JUMP JUMPDEST PUSH1 0x40 MLOAD PUSH3 0x461BCD PUSH1 0xE5 SHL DUP2 MSTORE PUSH1 0x20 PUSH1 0x4 DUP3 ADD MSTORE PUSH1 0x17 PUSH1 0x24 DUP3 ADD MSTORE PUSH32 0x526576656E7565207472616E73666572206661696C6564000000000000000000 PUSH1 0x44 DUP3 ADD MSTORE PUSH1 0x64 SWAP1 REVERT JUMPDEST ISZERO PUSH2 0x424 JUMPI JUMP JUMPDEST PUSH1 0x40 MLOAD PUSH3 0x461BCD PUSH1 0xE5 SHL DUP2 MSTORE PUSH1 0x20 PUSH1 0x4 DUP3 ADD MSTORE PUSH1 0x1F PUSH1 0x24 DUP3 ADD MSTORE PUSH32 0x4F726967696E616C20616D6F756E74207472616E73666572206661696C656400 PUSH1 0x44 DUP3 ADD MSTORE PUSH1 0x64 SWAP1 REVERT INVALID LOG2 PUSH5 0x6970667358 0x22 SLT KECCAK256 CALLVALUE 0xB1 0xC0 PUSH19 0xDD7ED0787E96DC10F8C04D8C02AF106D4A2C5E 0xCB SWAP5 CODESIZE 0xDC PUSH21 0x1149EF5B64736F6C63430008130033000000000000 "},"methodIdentifiers":{"REVENUE_PERCENTAGE()":"110282db","REVENUE_WALLET()":"159485d6","getRevenuePercentage()":"b6fa49b0","getRevenueWallet()":"f3cd3798","splitRevenue(address)":"d711da59"}}}}}