{"contracts/SplenexRevenueCollector.sol":{"SplenexRevenueCollector":{"abi":[{"inputs":[{"internalType":"address","name":"_revenueWallet","type":"address"}],"stateMutability":"nonpayable","type":"constructor"},{"anonymous":false,"inputs":[{"indexed":true,"internalType":"address","name":"user","type":"address"},{"indexed":false,"internalType":"uint256","name":"taxAmount","type":"uint256"},{"indexed":false,"internalType":"uint256","name":"swapAmount","type":"uint256"}],"name":"RevenueCollected","type":"event"},{"inputs":[],"name":"owner","outputs":[{"internalType":"address","name":"","type":"address"}],"stateMutability":"view","type":"function"},{"inputs":[],"name":"revenueWallet","outputs":[{"internalType":"address","name":"","type":"address"}],"stateMutability":"view","type":"function"},{"inputs":[],"name":"withdrawStuckFunds","outputs":[],"stateMutability":"nonpayable","type":"function"},{"stateMutability":"payable","type":"receive"}],"evm":{"bytecode":{"linkReferences":{},"object":"60c0346100cf57601f6104c238819003918201601f19168301916001600160401b038311848410176100d4578084926020946040528339810103126100cf57516001600160a01b0381168082036100cf571561008a576080523360a0526040516103d790816100eb823960805181818160d00152610311015260a0518181816101a001526102ca0152f35b60405162461bcd60e51b815260206004820152601660248201527f496e76616c696420726576656e75652077616c6c6574000000000000000000006044820152606490fd5b600080fd5b634e487b7160e01b600052604160045260246000fdfe6080604081815260049182361015610162575b50361561001e57600080fd5b60143404918234039034821161014d57836100c8575b83340361006f575b50907f7bf13ec77f235dc6a5aa70491a5d0437332806ee638a2d055781071de467ae2c91815193845260208401523392a2005b600080808085335af1610080610340565b5061003c57606490602084519162461bcd60e51b8352820152601d60248201527f4661696c656420746f20666f7277617264207377617020616d6f756e740000006044820152fd5b6000808080877f00000000000000000000000000000000000000000000000000000000000000005af16100f9610340565b5061003457608490602084519162461bcd60e51b83528201526024808201527f4661696c656420746f2073656e642074617820746f20726576656e75652077616044820152631b1b195d60e21b6064820152fd5b601190634e487b7160e01b6000525260246000fd5b600090813560e01c90816344478425146102fd575080638da5cb5b146102b55763c5b60a4803610012579190346102b157826003193601126102b1577f00000000000000000000000000000000000000000000000000000000000000006001600160a01b038116330361026e5747908115610234578480809381935af16101e7610340565b50156101f1578280f35b906020606492519162461bcd60e51b8352820152601860248201527f4661696c656420746f2077697468647261772066756e647300000000000000006044820152fd5b825162461bcd60e51b815260208186015260146024820152734e6f2066756e647320746f20776974686472617760601b6044820152606490fd5b815162461bcd60e51b8152602081850152601760248201527f4f6e6c79206f776e65722063616e2077697468647261770000000000000000006044820152606490fd5b8280fd5b5090346102f957816003193601126102f957517f00000000000000000000000000000000000000000000000000000000000000006001600160a01b03168152602090f35b5080fd5b9050346102f957816003193601126102f9577f00000000000000000000000000000000000000000000000000000000000000006001600160a01b03168152602090f35b3d1561039c5767ffffffffffffffff903d8281116103865760405192601f8201601f19908116603f01168401908111848210176103865760405282523d6000602084013e565b634e487b7160e01b600052604160045260246000fd5b60609056fea26469706673582212205b02ca697692d3c14098b9890b6b3801d6421b6ff8774caea640bcce7069ed0264736f6c63430008130033","opcodes":"PUSH1 0xC0 CALLVALUE PUSH2 0xCF JUMPI PUSH1 0x1F PUSH2 0x4C2 CODESIZE DUP2 SWAP1 SUB SWAP2 DUP3 ADD PUSH1 0x1F NOT AND DUP4 ADD SWAP2 PUSH1 0x1 PUSH1 0x1 PUSH1 0x40 SHL SUB DUP4 GT DUP5 DUP5 LT OR PUSH2 0xD4 JUMPI DUP1 DUP5 SWAP3 PUSH1 0x20 SWAP5 PUSH1 0x40 MSTORE DUP4 CODECOPY DUP2 ADD SUB SLT PUSH2 0xCF JUMPI MLOAD PUSH1 0x1 PUSH1 0x1 PUSH1 0xA0 SHL SUB DUP2 AND DUP1 DUP3 SUB PUSH2 0xCF JUMPI ISZERO PUSH2 0x8A JUMPI PUSH1 0x80 MSTORE CALLER PUSH1 0xA0 MSTORE PUSH1 0x40 MLOAD PUSH2 0x3D7 SWAP1 DUP2 PUSH2 0xEB DUP3 CODECOPY PUSH1 0x80 MLOAD DUP2 DUP2 DUP2 PUSH1 0xD0 ADD MSTORE PUSH2 0x311 ADD MSTORE PUSH1 0xA0 MLOAD DUP2 DUP2 DUP2 PUSH2 0x1A0 ADD MSTORE PUSH2 0x2CA ADD MSTORE RETURN JUMPDEST PUSH1 0x40 MLOAD PUSH3 0x461BCD PUSH1 0xE5 SHL DUP2 MSTORE PUSH1 0x20 PUSH1 0x4 DUP3 ADD MSTORE PUSH1 0x16 PUSH1 0x24 DUP3 ADD MSTORE PUSH32 0x496E76616C696420726576656E75652077616C6C657400000000000000000000 PUSH1 0x44 DUP3 ADD MSTORE PUSH1 0x64 SWAP1 REVERT JUMPDEST PUSH1 0x0 DUP1 REVERT JUMPDEST PUSH4 0x4E487B71 PUSH1 0xE0 SHL PUSH1 0x0 MSTORE PUSH1 0x41 PUSH1 0x4 MSTORE PUSH1 0x24 PUSH1 0x0 REVERT INVALID PUSH1 0x80 PUSH1 0x40 DUP2 DUP2 MSTORE PUSH1 0x4 SWAP2 DUP3 CALLDATASIZE LT ISZERO PUSH2 0x162 JUMPI JUMPDEST POP CALLDATASIZE ISZERO PUSH2 0x1E JUMPI PUSH1 0x0 DUP1 REVERT JUMPDEST PUSH1 0x14 CALLVALUE DIV SWAP2 DUP3 CALLVALUE SUB SWAP1 CALLVALUE DUP3 GT PUSH2 0x14D JUMPI DUP4 PUSH2 0xC8 JUMPI JUMPDEST DUP4 CALLVALUE SUB PUSH2 0x6F JUMPI JUMPDEST POP SWAP1 PUSH32 0x7BF13EC77F235DC6A5AA70491A5D0437332806EE638A2D055781071DE467AE2C SWAP2 DUP2 MLOAD SWAP4 DUP5 MSTORE PUSH1 0x20 DUP5 ADD MSTORE CALLER SWAP3 LOG2 STOP JUMPDEST PUSH1 0x0 DUP1 DUP1 DUP1 DUP6 CALLER GAS CALL PUSH2 0x80 PUSH2 0x340 JUMP JUMPDEST POP PUSH2 0x3C JUMPI PUSH1 0x64 SWAP1 PUSH1 0x20 DUP5 MLOAD SWAP2 PUSH3 0x461BCD PUSH1 0xE5 SHL DUP4 MSTORE DUP3 ADD MSTORE PUSH1 0x1D PUSH1 0x24 DUP3 ADD MSTORE PUSH32 0x4661696C656420746F20666F7277617264207377617020616D6F756E74000000 PUSH1 0x44 DUP3 ADD MSTORE REVERT JUMPDEST PUSH1 0x0 DUP1 DUP1 DUP1 DUP8 PUSH32 0x0 GAS CALL PUSH2 0xF9 PUSH2 0x340 JUMP JUMPDEST POP PUSH2 0x34 JUMPI PUSH1 0x84 SWAP1 PUSH1 0x20 DUP5 MLOAD SWAP2 PUSH3 0x461BCD PUSH1 0xE5 SHL DUP4 MSTORE DUP3 ADD MSTORE PUSH1 0x24 DUP1 DUP3 ADD MSTORE PUSH32 0x4661696C656420746F2073656E642074617820746F20726576656E7565207761 PUSH1 0x44 DUP3 ADD MSTORE PUSH4 0x1B1B195D PUSH1 0xE2 SHL PUSH1 0x64 DUP3 ADD MSTORE REVERT JUMPDEST PUSH1 0x11 SWAP1 PUSH4 0x4E487B71 PUSH1 0xE0 SHL PUSH1 0x0 MSTORE MSTORE PUSH1 0x24 PUSH1 0x0 REVERT JUMPDEST PUSH1 0x0 SWAP1 DUP2 CALLDATALOAD PUSH1 0xE0 SHR SWAP1 DUP2 PUSH4 0x44478425 EQ PUSH2 0x2FD JUMPI POP DUP1 PUSH4 0x8DA5CB5B EQ PUSH2 0x2B5 JUMPI PUSH4 0xC5B60A48 SUB PUSH2 0x12 JUMPI SWAP2 SWAP1 CALLVALUE PUSH2 0x2B1 JUMPI DUP3 PUSH1 0x3 NOT CALLDATASIZE ADD SLT PUSH2 0x2B1 JUMPI PUSH32 0x0 PUSH1 0x1 PUSH1 0x1 PUSH1 0xA0 SHL SUB DUP2 AND CALLER SUB PUSH2 0x26E JUMPI SELFBALANCE SWAP1 DUP2 ISZERO PUSH2 0x234 JUMPI DUP5 DUP1 DUP1 SWAP4 DUP2 SWAP4 GAS CALL PUSH2 0x1E7 PUSH2 0x340 JUMP JUMPDEST POP ISZERO PUSH2 0x1F1 JUMPI DUP3 DUP1 RETURN JUMPDEST SWAP1 PUSH1 0x20 PUSH1 0x64 SWAP3 MLOAD SWAP2 PUSH3 0x461BCD PUSH1 0xE5 SHL DUP4 MSTORE DUP3 ADD MSTORE PUSH1 0x18 PUSH1 0x24 DUP3 ADD MSTORE PUSH32 0x4661696C656420746F2077697468647261772066756E64730000000000000000 PUSH1 0x44 DUP3 ADD MSTORE REVERT JUMPDEST DUP3 MLOAD PUSH3 0x461BCD PUSH1 0xE5 SHL DUP2 MSTORE PUSH1 0x20 DUP2 DUP7 ADD MSTORE PUSH1 0x14 PUSH1 0x24 DUP3 ADD MSTORE PUSH20 0x4E6F2066756E647320746F207769746864726177 PUSH1 0x60 SHL PUSH1 0x44 DUP3 ADD MSTORE PUSH1 0x64 SWAP1 REVERT JUMPDEST DUP2 MLOAD PUSH3 0x461BCD PUSH1 0xE5 SHL DUP2 MSTORE PUSH1 0x20 DUP2 DUP6 ADD MSTORE PUSH1 0x17 PUSH1 0x24 DUP3 ADD MSTORE PUSH32 0x4F6E6C79206F776E65722063616E207769746864726177000000000000000000 PUSH1 0x44 DUP3 ADD MSTORE PUSH1 0x64 SWAP1 REVERT JUMPDEST DUP3 DUP1 REVERT JUMPDEST POP SWAP1 CALLVALUE PUSH2 0x2F9 JUMPI DUP2 PUSH1 0x3 NOT CALLDATASIZE ADD SLT PUSH2 0x2F9 JUMPI MLOAD PUSH32 0x0 PUSH1 0x1 PUSH1 0x1 PUSH1 0xA0 SHL SUB AND DUP2 MSTORE PUSH1 0x20 SWAP1 RETURN JUMPDEST POP DUP1 REVERT JUMPDEST SWAP1 POP CALLVALUE PUSH2 0x2F9 JUMPI DUP2 PUSH1 0x3 NOT CALLDATASIZE ADD SLT PUSH2 0x2F9 JUMPI PUSH32 0x0 PUSH1 0x1 PUSH1 0x1 PUSH1 0xA0 SHL SUB AND DUP2 MSTORE PUSH1 0x20 SWAP1 RETURN JUMPDEST RETURNDATASIZE ISZERO PUSH2 0x39C JUMPI PUSH8 0xFFFFFFFFFFFFFFFF SWAP1 RETURNDATASIZE DUP3 DUP2 GT PUSH2 0x386 JUMPI PUSH1 0x40 MLOAD SWAP3 PUSH1 0x1F DUP3 ADD PUSH1 0x1F NOT SWAP1 DUP2 AND PUSH1 0x3F ADD AND DUP5 ADD SWAP1 DUP2 GT DUP5 DUP3 LT OR PUSH2 0x386 JUMPI PUSH1 0x40 MSTORE DUP3 MSTORE RETURNDATASIZE PUSH1 0x0 PUSH1 0x20 DUP5 ADD RETURNDATACOPY JUMP JUMPDEST PUSH4 0x4E487B71 PUSH1 0xE0 SHL PUSH1 0x0 MSTORE PUSH1 0x41 PUSH1 0x4 MSTORE PUSH1 0x24 PUSH1 0x0 REVERT JUMPDEST PUSH1 0x60 SWAP1 JUMP INVALID LOG2 PUSH5 0x6970667358 0x22 SLT KECCAK256 JUMPDEST MUL 0xCA PUSH10 0x7692D3C14098B9890B6B CODESIZE ADD 0xD6 TIMESTAMP SHL PUSH16 0xF8774CAEA640BCCE7069ED0264736F6C PUSH4 0x43000813 STOP CALLER "},"methodIdentifiers":{"owner()":"8da5cb5b","revenueWallet()":"44478425","withdrawStuckFunds()":"c5b60a48"}}}}}