{"contracts/SplenexSwapContract.sol":{"SplenexSwapContract":{"abi":[{"inputs":[{"internalType":"address","name":"_revenueWallet","type":"address"}],"stateMutability":"nonpayable","type":"constructor"},{"inputs":[],"name":"InsufficientBalance","type":"error"},{"inputs":[],"name":"InvalidAmount","type":"error"},{"inputs":[],"name":"InvalidTokenAddress","type":"error"},{"inputs":[],"name":"SwapFailed","type":"error"},{"inputs":[],"name":"TransferFailed","type":"error"},{"anonymous":false,"inputs":[{"indexed":true,"internalType":"address","name":"previousOwner","type":"address"},{"indexed":true,"internalType":"address","name":"newOwner","type":"address"}],"name":"OwnershipTransferred","type":"event"},{"anonymous":false,"inputs":[{"indexed":false,"internalType":"address","name":"oldWallet","type":"address"},{"indexed":false,"internalType":"address","name":"newWallet","type":"address"}],"name":"RevenueWalletUpdated","type":"event"},{"anonymous":false,"inputs":[{"indexed":true,"internalType":"address","name":"user","type":"address"},{"indexed":true,"internalType":"address","name":"tokenIn","type":"address"},{"indexed":true,"internalType":"address","name":"tokenOut","type":"address"},{"indexed":false,"internalType":"uint256","name":"amountIn","type":"uint256"},{"indexed":false,"internalType":"uint256","name":"gasFeeTax","type":"uint256"},{"indexed":false,"internalType":"uint256","name":"amountOut","type":"uint256"}],"name":"SwapExecuted","type":"event"},{"inputs":[],"name":"GAS_FEE_TAX_RATE_BPS","outputs":[{"internalType":"uint256","name":"","type":"uint256"}],"stateMutability":"view","type":"function"},{"inputs":[{"internalType":"uint256","name":"gasUsed","type":"uint256"}],"name":"calculateGasFeeTax","outputs":[{"internalType":"uint256","name":"gasFeeTax","type":"uint256"}],"stateMutability":"view","type":"function"},{"inputs":[{"internalType":"address","name":"token","type":"address"},{"internalType":"uint256","name":"amount","type":"uint256"}],"name":"emergencyWithdraw","outputs":[],"stateMutability":"nonpayable","type":"function"},{"inputs":[],"name":"owner","outputs":[{"internalType":"address","name":"","type":"address"}],"stateMutability":"view","type":"function"},{"inputs":[],"name":"renounceOwnership","outputs":[],"stateMutability":"nonpayable","type":"function"},{"inputs":[],"name":"revenueWallet","outputs":[{"internalType":"address","name":"","type":"address"}],"stateMutability":"view","type":"function"},{"inputs":[{"internalType":"address","name":"tokenIn","type":"address"},{"internalType":"address","name":"tokenOut","type":"address"},{"internalType":"uint256","name":"amountIn","type":"uint256"},{"internalType":"uint256","name":"minAmountOut","type":"uint256"},{"internalType":"bytes","name":"swapData","type":"bytes"}],"name":"swap","outputs":[],"stateMutability":"payable","type":"function"},{"inputs":[{"internalType":"address","name":"tokenOut","type":"address"},{"internalType":"uint256","name":"minAmountOut","type":"uint256"},{"internalType":"bytes","name":"swapData","type":"bytes"}],"name":"swapETH","outputs":[],"stateMutability":"payable","type":"function"},{"inputs":[{"internalType":"address","name":"tokenIn","type":"address"},{"internalType":"uint256","name":"amountIn","type":"uint256"},{"internalType":"uint256","name":"minAmountOut","type":"uint256"},{"internalType":"bytes","name":"swapData","type":"bytes"}],"name":"swapToETH","outputs":[],"stateMutability":"payable","type":"function"},{"inputs":[{"internalType":"address","name":"newOwner","type":"address"}],"name":"transferOwnership","outputs":[],"stateMutability":"nonpayable","type":"function"},{"stateMutability":"payable","type":"receive"}],"evm":{"bytecode":{"linkReferences":{},"object":"60a0346100da57601f610e9c38819003918201601f19168301916001600160401b038311848410176100df578084926020946040528339810103126100da57516001600160a01b038082168083036100da57600160008181558154336001600160a01b0319821681179093556040519416907f8be0079c531659141344cd1fd0a4f28419497f9722a3daafe3b4186f6b6457e09080a3156100cb5750608052604051610da690816100f682396080518181816102f4015281816105b10152818161063301526107730152f35b630f58058360e11b8152600490fd5b600080fd5b634e487b7160e01b600052604160045260246000fdfe60406080815260049081361015610020575b5050361561001e57600080fd5b005b600091823560e01c80632506c01814610662578063444784251461061e578063481eaf63146104a7578063596bfce81461048a578063715018a61461042d5780638da5cb5b1461040457806395ccea671461038a578063b9dac726146101c0578063c0f03105146101695763f2fde38b1461009b5750610011565b34610165576020366003190112610165576100b46107d2565b906100bd61081b565b6001600160a01b03918216928315610113575050600154826bffffffffffffffffffffffff60a01b821617600155167f8be0079c531659141344cd1fd0a4f28419497f9722a3daafe3b4186f6b6457e08380a380f35b906020608492519162461bcd60e51b8352820152602660248201527f4f776e61626c653a206e6577206f776e657220697320746865207a65726f206160448201526564647265737360d01b6064820152fd5b8280fd5b5082346101bd5760203660031901126101bd576101873a8335610896565b91611388928381029381850414901517156101aa57602083612710865191048152f35b634e487b7160e01b825260119052602490fd5b80fd5b5082906060366003190112610386576101d76107d2565b9060443567ffffffffffffffff8111610382576101f790369083016107ed565b92610200610921565b6001600160a01b0316928315610372573415610362578480915a9381895192839283378101838152039034305af16102366108e1565b901561034e5760208180518101031261035e576020015190602435821061034e5761026561026c915a90610873565b3a90610896565b946113889586810296818804149015171561033b5761271085969594950492836102ea575b50816102e0916102c37fad671c9d50262b75ba17bdf7e330ae0d7da971800b2526584a85f83d23296b15943389610977565b513481526020810194909452604084015233929081906060820190565b0390a46001815580f35b90919293808080877f00000000000000000000000000000000000000000000000000000000000000005af161031d6108e1565b501561032d579085939291610291565b90516312171d8360e31b8152fd5b634e487b7160e01b855260118352602485fd5b855163081ceff360e41b81528390fd5b8480fd5b855163162908e360e11b81528390fd5b8551630f58058360e11b81528390fd5b8380fd5b5080fd5b509034610165578060031936011261016557826103a56107d2565b602435906103b161081b565b6001600160a01b03908116806103ed57508280928192600154165af16103d56108e1565b50156103e057505080f35b516312171d8360e31b8152fd5b925090925061040193506001541690610977565b80f35b50503461038657816003193601126103865760015490516001600160a01b039091168152602090f35b83346101bd57806003193601126101bd5761044661081b565b600180546001600160a01b0319811690915581906001600160a01b03167f8be0079c531659141344cd1fd0a4f28419497f9722a3daafe3b4186f6b6457e08280a380f35b505034610386578160031936011261038657602090516113888152f35b5091906080366003190112610386576104be6107d2565b926024359060643567ffffffffffffffff811161035e576104e290369083016107ed565b6104ed949194610921565b6001600160a01b03871694851561060f5784156106005761052761052f92610265925a9a61051d8930338d6109c1565b8860443591610bf2565b975a90610873565b611388908181029181830414901517156105ed57612710900491826105aa575b858080808a335af161055f6108e1565b501561032d57505191825260208201526040810193909352909182919033907fad671c9d50262b75ba17bdf7e330ae0d7da971800b2526584a85f83d23296b159080606081016102e0565b85808080867f00000000000000000000000000000000000000000000000000000000000000005af16105da6108e1565b5061054f5790516312171d8360e31b8152fd5b634e487b7160e01b865260118352602486fd5b50505163162908e360e11b8152fd5b505051630f58058360e11b8152fd5b505034610386578160031936011261038657517f00000000000000000000000000000000000000000000000000000000000000006001600160a01b03168152602090f35b5060a0366003190112610165576106776107d2565b916024359260018060a01b03928385168095036107ce576044359260843567ffffffffffffffff81116107ca576106b190369084016107ed565b90956106bb610921565b841695861580156107c2575b61060f578515610600576106f46106fc92610265925a976106ea8a30338e6109c1565b8960643591610bf2565b945a90610873565b611388908181029181830414901517156107af576127109004918261076c575b50906102e0839261074f7fad671c9d50262b75ba17bdf7e330ae0d7da971800b2526584a85f83d23296b1595338a610977565b519283923396846040919493926060820195825260208201520152565b87808080867f00000000000000000000000000000000000000000000000000000000000000005af161079c6108e1565b5061071c5790516312171d8360e31b8152fd5b634e487b7160e01b885260118352602488fd5b5087156106c7565b8780fd5b8580fd5b600435906001600160a01b03821682036107e857565b600080fd5b9181601f840112156107e85782359167ffffffffffffffff83116107e857602083818601950101116107e857565b6001546001600160a01b0316330361082f57565b606460405162461bcd60e51b815260206004820152602060248201527f4f776e61626c653a2063616c6c6572206973206e6f7420746865206f776e65726044820152fd5b9190820391821161088057565b634e487b7160e01b600052601160045260246000fd5b8181029291811591840414171561088057565b90601f8019910116810190811067ffffffffffffffff8211176108cb57604052565b634e487b7160e01b600052604160045260246000fd5b3d1561091c573d9067ffffffffffffffff82116108cb5760405191610910601f8201601f1916602001846108a9565b82523d6000602084013e565b606090565b600260005414610932576002600055565b60405162461bcd60e51b815260206004820152601f60248201527f5265656e7472616e637947756172643a207265656e7472616e742063616c6c006044820152606490fd5b60405163a9059cbb60e01b60208201526001600160a01b03909216602483015260448201929092526109bf916109ba82606481015b03601f1981018452836108a9565b610a16565b565b6040516323b872dd60e01b60208201526001600160a01b03928316602482015292909116604483015260648083019390935291815260a081019181831067ffffffffffffffff8411176108cb576109bf926040525b60018060a01b031690604051604081019080821067ffffffffffffffff8311176108cb57610a88916040526020938482527f5361666545524332303a206c6f772d6c6576656c2063616c6c206661696c6564858301526000808587829751910182855af1610a826108e1565b91610b1e565b805191821591848315610afa575b505050905015610aa35750565b6084906040519062461bcd60e51b82526004820152602a60248201527f5361666545524332303a204552433230206f7065726174696f6e20646964206e6044820152691bdd081cdd58d8d9595960b21b6064820152fd5b919381809450010312610386578201519081151582036101bd575080388084610a96565b91929015610b805750815115610b32575090565b3b15610b3b5790565b60405162461bcd60e51b815260206004820152601d60248201527f416464726573733a2063616c6c20746f206e6f6e2d636f6e74726163740000006044820152606490fd5b825190915015610b935750805190602001fd5b6040519062461bcd60e51b82528160208060048301528251908160248401526000935b828510610bd9575050604492506000838284010152601f80199101168101030190fd5b8481018201518686016044015293810193859350610bb6565b919392916001600160a01b03169080158015610cf9575b15610c955760405163095ea7b360e01b60208201523060248201526044810191909152610c3d916109ba82606481016109ac565b816040519283928337810160009283928284809452039082305af190610c616108e1565b9115610c83576020828051810103126101bd575060200151908110610c835790565b60405163081ceff360e41b8152600490fd5b60405162461bcd60e51b815260206004820152603660248201527f5361666545524332303a20617070726f76652066726f6d206e6f6e2d7a65726f60448201527520746f206e6f6e2d7a65726f20616c6c6f77616e636560501b6064820152608490fd5b50604051636eb1769f60e11b815230600482018190526024820152602081604481865afa908115610d6457600091610d33575b5015610c09565b906020823d8211610d5c575b81610d4c602093836108a9565b810103126101bd57505138610d2c565b3d9150610d3f565b6040513d6000823e3d90fdfea2646970667358221220808632c2cb162609175f959c6c15d90b73960941451ebc2707bf76dc1940d50d64736f6c63430008130033","opcodes":"PUSH1 0xA0 CALLVALUE PUSH2 0xDA JUMPI PUSH1 0x1F PUSH2 0xE9C CODESIZE DUP2 SWAP1 SUB SWAP2 DUP3 ADD PUSH1 0x1F NOT AND DUP4 ADD SWAP2 PUSH1 0x1 PUSH1 0x1 PUSH1 0x40 SHL SUB DUP4 GT DUP5 DUP5 LT OR PUSH2 0xDF JUMPI DUP1 DUP5 SWAP3 PUSH1 0x20 SWAP5 PUSH1 0x40 MSTORE DUP4 CODECOPY DUP2 ADD SUB SLT PUSH2 0xDA JUMPI MLOAD PUSH1 0x1 PUSH1 0x1 PUSH1 0xA0 SHL SUB DUP1 DUP3 AND DUP1 DUP4 SUB PUSH2 0xDA JUMPI PUSH1 0x1 PUSH1 0x0 DUP2 DUP2 SSTORE DUP2 SLOAD CALLER PUSH1 0x1 PUSH1 0x1 PUSH1 0xA0 SHL SUB NOT DUP3 AND DUP2 OR SWAP1 SWAP4 SSTORE PUSH1 0x40 MLOAD SWAP5 AND SWAP1 PUSH32 0x8BE0079C531659141344CD1FD0A4F28419497F9722A3DAAFE3B4186F6B6457E0 SWAP1 DUP1 LOG3 ISZERO PUSH2 0xCB JUMPI POP PUSH1 0x80 MSTORE PUSH1 0x40 MLOAD PUSH2 0xDA6 SWAP1 DUP2 PUSH2 0xF6 DUP3 CODECOPY PUSH1 0x80 MLOAD DUP2 DUP2 DUP2 PUSH2 0x2F4 ADD MSTORE DUP2 DUP2 PUSH2 0x5B1 ADD MSTORE DUP2 DUP2 PUSH2 0x633 ADD MSTORE PUSH2 0x773 ADD MSTORE RETURN JUMPDEST PUSH4 0xF580583 PUSH1 0xE1 SHL DUP2 MSTORE PUSH1 0x4 SWAP1 REVERT JUMPDEST PUSH1 0x0 DUP1 REVERT JUMPDEST PUSH4 0x4E487B71 PUSH1 0xE0 SHL PUSH1 0x0 MSTORE PUSH1 0x41 PUSH1 0x4 MSTORE PUSH1 0x24 PUSH1 0x0 REVERT INVALID PUSH1 0x40 PUSH1 0x80 DUP2 MSTORE PUSH1 0x4 SWAP1 DUP2 CALLDATASIZE LT ISZERO PUSH2 0x20 JUMPI JUMPDEST POP POP CALLDATASIZE ISZERO PUSH2 0x1E JUMPI PUSH1 0x0 DUP1 REVERT JUMPDEST STOP JUMPDEST PUSH1 0x0 SWAP2 DUP3 CALLDATALOAD PUSH1 0xE0 SHR DUP1 PUSH4 0x2506C018 EQ PUSH2 0x662 JUMPI DUP1 PUSH4 0x44478425 EQ PUSH2 0x61E JUMPI DUP1 PUSH4 0x481EAF63 EQ PUSH2 0x4A7 JUMPI DUP1 PUSH4 0x596BFCE8 EQ PUSH2 0x48A JUMPI DUP1 PUSH4 0x715018A6 EQ PUSH2 0x42D JUMPI DUP1 PUSH4 0x8DA5CB5B EQ PUSH2 0x404 JUMPI DUP1 PUSH4 0x95CCEA67 EQ PUSH2 0x38A JUMPI DUP1 PUSH4 0xB9DAC726 EQ PUSH2 0x1C0 JUMPI DUP1 PUSH4 0xC0F03105 EQ PUSH2 0x169 JUMPI PUSH4 0xF2FDE38B EQ PUSH2 0x9B JUMPI POP PUSH2 0x11 JUMP JUMPDEST CALLVALUE PUSH2 0x165 JUMPI PUSH1 0x20 CALLDATASIZE PUSH1 0x3 NOT ADD SLT PUSH2 0x165 JUMPI PUSH2 0xB4 PUSH2 0x7D2 JUMP JUMPDEST SWAP1 PUSH2 0xBD PUSH2 0x81B JUMP JUMPDEST PUSH1 0x1 PUSH1 0x1 PUSH1 0xA0 SHL SUB SWAP2 DUP3 AND SWAP3 DUP4 ISZERO PUSH2 0x113 JUMPI POP POP PUSH1 0x1 SLOAD DUP3 PUSH12 0xFFFFFFFFFFFFFFFFFFFFFFFF PUSH1 0xA0 SHL DUP3 AND OR PUSH1 0x1 SSTORE AND PUSH32 0x8BE0079C531659141344CD1FD0A4F28419497F9722A3DAAFE3B4186F6B6457E0 DUP4 DUP1 LOG3 DUP1 RETURN JUMPDEST SWAP1 PUSH1 0x20 PUSH1 0x84 SWAP3 MLOAD SWAP2 PUSH3 0x461BCD PUSH1 0xE5 SHL DUP4 MSTORE DUP3 ADD MSTORE PUSH1 0x26 PUSH1 0x24 DUP3 ADD MSTORE PUSH32 0x4F776E61626C653A206E6577206F776E657220697320746865207A65726F2061 PUSH1 0x44 DUP3 ADD MSTORE PUSH6 0x646472657373 PUSH1 0xD0 SHL PUSH1 0x64 DUP3 ADD MSTORE REVERT JUMPDEST DUP3 DUP1 REVERT JUMPDEST POP DUP3 CALLVALUE PUSH2 0x1BD JUMPI PUSH1 0x20 CALLDATASIZE PUSH1 0x3 NOT ADD SLT PUSH2 0x1BD JUMPI PUSH2 0x187 GASPRICE DUP4 CALLDATALOAD PUSH2 0x896 JUMP JUMPDEST SWAP2 PUSH2 0x1388 SWAP3 DUP4 DUP2 MUL SWAP4 DUP2 DUP6 DIV EQ SWAP1 ISZERO OR ISZERO PUSH2 0x1AA JUMPI PUSH1 0x20 DUP4 PUSH2 0x2710 DUP7 MLOAD SWAP2 DIV DUP2 MSTORE RETURN JUMPDEST PUSH4 0x4E487B71 PUSH1 0xE0 SHL DUP3 MSTORE PUSH1 0x11 SWAP1 MSTORE PUSH1 0x24 SWAP1 REVERT JUMPDEST DUP1 REVERT JUMPDEST POP DUP3 SWAP1 PUSH1 0x60 CALLDATASIZE PUSH1 0x3 NOT ADD SLT PUSH2 0x386 JUMPI PUSH2 0x1D7 PUSH2 0x7D2 JUMP JUMPDEST SWAP1 PUSH1 0x44 CALLDATALOAD PUSH8 0xFFFFFFFFFFFFFFFF DUP2 GT PUSH2 0x382 JUMPI PUSH2 0x1F7 SWAP1 CALLDATASIZE SWAP1 DUP4 ADD PUSH2 0x7ED JUMP JUMPDEST SWAP3 PUSH2 0x200 PUSH2 0x921 JUMP JUMPDEST PUSH1 0x1 PUSH1 0x1 PUSH1 0xA0 SHL SUB AND SWAP3 DUP4 ISZERO PUSH2 0x372 JUMPI CALLVALUE ISZERO PUSH2 0x362 JUMPI DUP5 DUP1 SWAP2 GAS SWAP4 DUP2 DUP10 MLOAD SWAP3 DUP4 SWAP3 DUP4 CALLDATACOPY DUP2 ADD DUP4 DUP2 MSTORE SUB SWAP1 CALLVALUE ADDRESS GAS CALL PUSH2 0x236 PUSH2 0x8E1 JUMP JUMPDEST SWAP1 ISZERO PUSH2 0x34E JUMPI PUSH1 0x20 DUP2 DUP1 MLOAD DUP2 ADD SUB SLT PUSH2 0x35E JUMPI PUSH1 0x20 ADD MLOAD SWAP1 PUSH1 0x24 CALLDATALOAD DUP3 LT PUSH2 0x34E JUMPI PUSH2 0x265 PUSH2 0x26C SWAP2 GAS SWAP1 PUSH2 0x873 JUMP JUMPDEST GASPRICE SWAP1 PUSH2 0x896 JUMP JUMPDEST SWAP5 PUSH2 0x1388 SWAP6 DUP7 DUP2 MUL SWAP7 DUP2 DUP9 DIV EQ SWAP1 ISZERO OR ISZERO PUSH2 0x33B JUMPI PUSH2 0x2710 DUP6 SWAP7 SWAP6 SWAP5 SWAP6 DIV SWAP3 DUP4 PUSH2 0x2EA JUMPI JUMPDEST POP DUP2 PUSH2 0x2E0 SWAP2 PUSH2 0x2C3 PUSH32 0xAD671C9D50262B75BA17BDF7E330AE0D7DA971800B2526584A85F83D23296B15 SWAP5 CALLER DUP10 PUSH2 0x977 JUMP JUMPDEST MLOAD CALLVALUE DUP2 MSTORE PUSH1 0x20 DUP2 ADD SWAP5 SWAP1 SWAP5 MSTORE PUSH1 0x40 DUP5 ADD MSTORE CALLER SWAP3 SWAP1 DUP2 SWAP1 PUSH1 0x60 DUP3 ADD SWAP1 JUMP JUMPDEST SUB SWAP1 LOG4 PUSH1 0x1 DUP2 SSTORE DUP1 RETURN JUMPDEST SWAP1 SWAP2 SWAP3 SWAP4 DUP1 DUP1 DUP1 DUP8 PUSH32 0x0 GAS CALL PUSH2 0x31D PUSH2 0x8E1 JUMP JUMPDEST POP ISZERO PUSH2 0x32D JUMPI SWAP1 DUP6 SWAP4 SWAP3 SWAP2 PUSH2 0x291 JUMP JUMPDEST SWAP1 MLOAD PUSH4 0x12171D83 PUSH1 0xE3 SHL DUP2 MSTORE REVERT JUMPDEST PUSH4 0x4E487B71 PUSH1 0xE0 SHL DUP6 MSTORE PUSH1 0x11 DUP4 MSTORE PUSH1 0x24 DUP6 REVERT JUMPDEST DUP6 MLOAD PUSH4 0x81CEFF3 PUSH1 0xE4 SHL DUP2 MSTORE DUP4 SWAP1 REVERT JUMPDEST DUP5 DUP1 REVERT JUMPDEST DUP6 MLOAD PUSH4 0x162908E3 PUSH1 0xE1 SHL DUP2 MSTORE DUP4 SWAP1 REVERT JUMPDEST DUP6 MLOAD PUSH4 0xF580583 PUSH1 0xE1 SHL DUP2 MSTORE DUP4 SWAP1 REVERT JUMPDEST DUP4 DUP1 REVERT JUMPDEST POP DUP1 REVERT JUMPDEST POP SWAP1 CALLVALUE PUSH2 0x165 JUMPI DUP1 PUSH1 0x3 NOT CALLDATASIZE ADD SLT PUSH2 0x165 JUMPI DUP3 PUSH2 0x3A5 PUSH2 0x7D2 JUMP JUMPDEST PUSH1 0x24 CALLDATALOAD SWAP1 PUSH2 0x3B1 PUSH2 0x81B JUMP JUMPDEST PUSH1 0x1 PUSH1 0x1 PUSH1 0xA0 SHL SUB SWAP1 DUP2 AND DUP1 PUSH2 0x3ED JUMPI POP DUP3 DUP1 SWAP3 DUP2 SWAP3 PUSH1 0x1 SLOAD AND GAS CALL PUSH2 0x3D5 PUSH2 0x8E1 JUMP JUMPDEST POP ISZERO PUSH2 0x3E0 JUMPI POP POP DUP1 RETURN JUMPDEST MLOAD PUSH4 0x12171D83 PUSH1 0xE3 SHL DUP2 MSTORE REVERT JUMPDEST SWAP3 POP SWAP1 SWAP3 POP PUSH2 0x401 SWAP4 POP PUSH1 0x1 SLOAD AND SWAP1 PUSH2 0x977 JUMP JUMPDEST DUP1 RETURN JUMPDEST POP POP CALLVALUE PUSH2 0x386 JUMPI DUP2 PUSH1 0x3 NOT CALLDATASIZE ADD SLT PUSH2 0x386 JUMPI PUSH1 0x1 SLOAD SWAP1 MLOAD PUSH1 0x1 PUSH1 0x1 PUSH1 0xA0 SHL SUB SWAP1 SWAP2 AND DUP2 MSTORE PUSH1 0x20 SWAP1 RETURN JUMPDEST DUP4 CALLVALUE PUSH2 0x1BD JUMPI DUP1 PUSH1 0x3 NOT CALLDATASIZE ADD SLT PUSH2 0x1BD JUMPI PUSH2 0x446 PUSH2 0x81B JUMP JUMPDEST PUSH1 0x1 DUP1 SLOAD PUSH1 0x1 PUSH1 0x1 PUSH1 0xA0 SHL SUB NOT DUP2 AND SWAP1 SWAP2 SSTORE DUP2 SWAP1 PUSH1 0x1 PUSH1 0x1 PUSH1 0xA0 SHL SUB AND PUSH32 0x8BE0079C531659141344CD1FD0A4F28419497F9722A3DAAFE3B4186F6B6457E0 DUP3 DUP1 LOG3 DUP1 RETURN JUMPDEST POP POP CALLVALUE PUSH2 0x386 JUMPI DUP2 PUSH1 0x3 NOT CALLDATASIZE ADD SLT PUSH2 0x386 JUMPI PUSH1 0x20 SWAP1 MLOAD PUSH2 0x1388 DUP2 MSTORE RETURN JUMPDEST POP SWAP2 SWAP1 PUSH1 0x80 CALLDATASIZE PUSH1 0x3 NOT ADD SLT PUSH2 0x386 JUMPI PUSH2 0x4BE PUSH2 0x7D2 JUMP JUMPDEST SWAP3 PUSH1 0x24 CALLDATALOAD SWAP1 PUSH1 0x64 CALLDATALOAD PUSH8 0xFFFFFFFFFFFFFFFF DUP2 GT PUSH2 0x35E JUMPI PUSH2 0x4E2 SWAP1 CALLDATASIZE SWAP1 DUP4 ADD PUSH2 0x7ED JUMP JUMPDEST PUSH2 0x4ED SWAP5 SWAP2 SWAP5 PUSH2 0x921 JUMP JUMPDEST PUSH1 0x1 PUSH1 0x1 PUSH1 0xA0 SHL SUB DUP8 AND SWAP5 DUP6 ISZERO PUSH2 0x60F JUMPI DUP5 ISZERO PUSH2 0x600 JUMPI PUSH2 0x527 PUSH2 0x52F SWAP3 PUSH2 0x265 SWAP3 GAS SWAP11 PUSH2 0x51D DUP10 ADDRESS CALLER DUP14 PUSH2 0x9C1 JUMP JUMPDEST DUP9 PUSH1 0x44 CALLDATALOAD SWAP2 PUSH2 0xBF2 JUMP JUMPDEST SWAP8 GAS SWAP1 PUSH2 0x873 JUMP JUMPDEST PUSH2 0x1388 SWAP1 DUP2 DUP2 MUL SWAP2 DUP2 DUP4 DIV EQ SWAP1 ISZERO OR ISZERO PUSH2 0x5ED JUMPI PUSH2 0x2710 SWAP1 DIV SWAP2 DUP3 PUSH2 0x5AA JUMPI JUMPDEST DUP6 DUP1 DUP1 DUP1 DUP11 CALLER GAS CALL PUSH2 0x55F PUSH2 0x8E1 JUMP JUMPDEST POP ISZERO PUSH2 0x32D JUMPI POP MLOAD SWAP2 DUP3 MSTORE PUSH1 0x20 DUP3 ADD MSTORE PUSH1 0x40 DUP2 ADD SWAP4 SWAP1 SWAP4 MSTORE SWAP1 SWAP2 DUP3 SWAP2 SWAP1 CALLER SWAP1 PUSH32 0xAD671C9D50262B75BA17BDF7E330AE0D7DA971800B2526584A85F83D23296B15 SWAP1 DUP1 PUSH1 0x60 DUP2 ADD PUSH2 0x2E0 JUMP JUMPDEST DUP6 DUP1 DUP1 DUP1 DUP7 PUSH32 0x0 GAS CALL PUSH2 0x5DA PUSH2 0x8E1 JUMP JUMPDEST POP PUSH2 0x54F JUMPI SWAP1 MLOAD PUSH4 0x12171D83 PUSH1 0xE3 SHL DUP2 MSTORE REVERT JUMPDEST PUSH4 0x4E487B71 PUSH1 0xE0 SHL DUP7 MSTORE PUSH1 0x11 DUP4 MSTORE PUSH1 0x24 DUP7 REVERT JUMPDEST POP POP MLOAD PUSH4 0x162908E3 PUSH1 0xE1 SHL DUP2 MSTORE REVERT JUMPDEST POP POP MLOAD PUSH4 0xF580583 PUSH1 0xE1 SHL DUP2 MSTORE REVERT JUMPDEST POP POP CALLVALUE PUSH2 0x386 JUMPI DUP2 PUSH1 0x3 NOT CALLDATASIZE ADD SLT PUSH2 0x386 JUMPI MLOAD PUSH32 0x0 PUSH1 0x1 PUSH1 0x1 PUSH1 0xA0 SHL SUB AND DUP2 MSTORE PUSH1 0x20 SWAP1 RETURN JUMPDEST POP PUSH1 0xA0 CALLDATASIZE PUSH1 0x3 NOT ADD SLT PUSH2 0x165 JUMPI PUSH2 0x677 PUSH2 0x7D2 JUMP JUMPDEST SWAP2 PUSH1 0x24 CALLDATALOAD SWAP3 PUSH1 0x1 DUP1 PUSH1 0xA0 SHL SUB SWAP3 DUP4 DUP6 AND DUP1 SWAP6 SUB PUSH2 0x7CE JUMPI PUSH1 0x44 CALLDATALOAD SWAP3 PUSH1 0x84 CALLDATALOAD PUSH8 0xFFFFFFFFFFFFFFFF DUP2 GT PUSH2 0x7CA JUMPI PUSH2 0x6B1 SWAP1 CALLDATASIZE SWAP1 DUP5 ADD PUSH2 0x7ED JUMP JUMPDEST SWAP1 SWAP6 PUSH2 0x6BB PUSH2 0x921 JUMP JUMPDEST DUP5 AND SWAP6 DUP7 ISZERO DUP1 ISZERO PUSH2 0x7C2 JUMPI JUMPDEST PUSH2 0x60F JUMPI DUP6 ISZERO PUSH2 0x600 JUMPI PUSH2 0x6F4 PUSH2 0x6FC SWAP3 PUSH2 0x265 SWAP3 GAS SWAP8 PUSH2 0x6EA DUP11 ADDRESS CALLER DUP15 PUSH2 0x9C1 JUMP JUMPDEST DUP10 PUSH1 0x64 CALLDATALOAD SWAP2 PUSH2 0xBF2 JUMP JUMPDEST SWAP5 GAS SWAP1 PUSH2 0x873 JUMP JUMPDEST PUSH2 0x1388 SWAP1 DUP2 DUP2 MUL SWAP2 DUP2 DUP4 DIV EQ SWAP1 ISZERO OR ISZERO PUSH2 0x7AF JUMPI PUSH2 0x2710 SWAP1 DIV SWAP2 DUP3 PUSH2 0x76C JUMPI JUMPDEST POP SWAP1 PUSH2 0x2E0 DUP4 SWAP3 PUSH2 0x74F PUSH32 0xAD671C9D50262B75BA17BDF7E330AE0D7DA971800B2526584A85F83D23296B15 SWAP6 CALLER DUP11 PUSH2 0x977 JUMP JUMPDEST MLOAD SWAP3 DUP4 SWAP3 CALLER SWAP7 DUP5 PUSH1 0x40 SWAP2 SWAP5 SWAP4 SWAP3 PUSH1 0x60 DUP3 ADD SWAP6 DUP3 MSTORE PUSH1 0x20 DUP3 ADD MSTORE ADD MSTORE JUMP JUMPDEST DUP8 DUP1 DUP1 DUP1 DUP7 PUSH32 0x0 GAS CALL PUSH2 0x79C PUSH2 0x8E1 JUMP JUMPDEST POP PUSH2 0x71C JUMPI SWAP1 MLOAD PUSH4 0x12171D83 PUSH1 0xE3 SHL DUP2 MSTORE REVERT JUMPDEST PUSH4 0x4E487B71 PUSH1 0xE0 SHL DUP9 MSTORE PUSH1 0x11 DUP4 MSTORE PUSH1 0x24 DUP9 REVERT JUMPDEST POP DUP8 ISZERO PUSH2 0x6C7 JUMP JUMPDEST DUP8 DUP1 REVERT JUMPDEST DUP6 DUP1 REVERT JUMPDEST PUSH1 0x4 CALLDATALOAD SWAP1 PUSH1 0x1 PUSH1 0x1 PUSH1 0xA0 SHL SUB DUP3 AND DUP3 SUB PUSH2 0x7E8 JUMPI JUMP JUMPDEST PUSH1 0x0 DUP1 REVERT JUMPDEST SWAP2 DUP2 PUSH1 0x1F DUP5 ADD SLT ISZERO PUSH2 0x7E8 JUMPI DUP3 CALLDATALOAD SWAP2 PUSH8 0xFFFFFFFFFFFFFFFF DUP4 GT PUSH2 0x7E8 JUMPI PUSH1 0x20 DUP4 DUP2 DUP7 ADD SWAP6 ADD ADD GT PUSH2 0x7E8 JUMPI JUMP JUMPDEST PUSH1 0x1 SLOAD PUSH1 0x1 PUSH1 0x1 PUSH1 0xA0 SHL SUB AND CALLER SUB PUSH2 0x82F JUMPI JUMP JUMPDEST PUSH1 0x64 PUSH1 0x40 MLOAD PUSH3 0x461BCD PUSH1 0xE5 SHL DUP2 MSTORE PUSH1 0x20 PUSH1 0x4 DUP3 ADD MSTORE PUSH1 0x20 PUSH1 0x24 DUP3 ADD MSTORE PUSH32 0x4F776E61626C653A2063616C6C6572206973206E6F7420746865206F776E6572 PUSH1 0x44 DUP3 ADD MSTORE REVERT JUMPDEST SWAP2 SWAP1 DUP3 SUB SWAP2 DUP3 GT PUSH2 0x880 JUMPI JUMP JUMPDEST PUSH4 0x4E487B71 PUSH1 0xE0 SHL PUSH1 0x0 MSTORE PUSH1 0x11 PUSH1 0x4 MSTORE PUSH1 0x24 PUSH1 0x0 REVERT JUMPDEST DUP2 DUP2 MUL SWAP3 SWAP2 DUP2 ISZERO SWAP2 DUP5 DIV EQ OR ISZERO PUSH2 0x880 JUMPI JUMP JUMPDEST SWAP1 PUSH1 0x1F DUP1 NOT SWAP2 ADD AND DUP2 ADD SWAP1 DUP2 LT PUSH8 0xFFFFFFFFFFFFFFFF DUP3 GT OR PUSH2 0x8CB JUMPI PUSH1 0x40 MSTORE JUMP JUMPDEST PUSH4 0x4E487B71 PUSH1 0xE0 SHL PUSH1 0x0 MSTORE PUSH1 0x41 PUSH1 0x4 MSTORE PUSH1 0x24 PUSH1 0x0 REVERT JUMPDEST RETURNDATASIZE ISZERO PUSH2 0x91C JUMPI RETURNDATASIZE SWAP1 PUSH8 0xFFFFFFFFFFFFFFFF DUP3 GT PUSH2 0x8CB JUMPI PUSH1 0x40 MLOAD SWAP2 PUSH2 0x910 PUSH1 0x1F DUP3 ADD PUSH1 0x1F NOT AND PUSH1 0x20 ADD DUP5 PUSH2 0x8A9 JUMP JUMPDEST DUP3 MSTORE RETURNDATASIZE PUSH1 0x0 PUSH1 0x20 DUP5 ADD RETURNDATACOPY JUMP JUMPDEST PUSH1 0x60 SWAP1 JUMP JUMPDEST PUSH1 0x2 PUSH1 0x0 SLOAD EQ PUSH2 0x932 JUMPI PUSH1 0x2 PUSH1 0x0 SSTORE JUMP JUMPDEST PUSH1 0x40 MLOAD PUSH3 0x461BCD PUSH1 0xE5 SHL DUP2 MSTORE PUSH1 0x20 PUSH1 0x4 DUP3 ADD MSTORE PUSH1 0x1F PUSH1 0x24 DUP3 ADD MSTORE PUSH32 0x5265656E7472616E637947756172643A207265656E7472616E742063616C6C00 PUSH1 0x44 DUP3 ADD MSTORE PUSH1 0x64 SWAP1 REVERT JUMPDEST PUSH1 0x40 MLOAD PUSH4 0xA9059CBB PUSH1 0xE0 SHL PUSH1 0x20 DUP3 ADD MSTORE PUSH1 0x1 PUSH1 0x1 PUSH1 0xA0 SHL SUB SWAP1 SWAP3 AND PUSH1 0x24 DUP4 ADD MSTORE PUSH1 0x44 DUP3 ADD SWAP3 SWAP1 SWAP3 MSTORE PUSH2 0x9BF SWAP2 PUSH2 0x9BA DUP3 PUSH1 0x64 DUP2 ADD JUMPDEST SUB PUSH1 0x1F NOT DUP2 ADD DUP5 MSTORE DUP4 PUSH2 0x8A9 JUMP JUMPDEST PUSH2 0xA16 JUMP JUMPDEST JUMP JUMPDEST PUSH1 0x40 MLOAD PUSH4 0x23B872DD PUSH1 0xE0 SHL PUSH1 0x20 DUP3 ADD MSTORE PUSH1 0x1 PUSH1 0x1 PUSH1 0xA0 SHL SUB SWAP3 DUP4 AND PUSH1 0x24 DUP3 ADD MSTORE SWAP3 SWAP1 SWAP2 AND PUSH1 0x44 DUP4 ADD MSTORE PUSH1 0x64 DUP1 DUP4 ADD SWAP4 SWAP1 SWAP4 MSTORE SWAP2 DUP2 MSTORE PUSH1 0xA0 DUP2 ADD SWAP2 DUP2 DUP4 LT PUSH8 0xFFFFFFFFFFFFFFFF DUP5 GT OR PUSH2 0x8CB JUMPI PUSH2 0x9BF SWAP3 PUSH1 0x40 MSTORE JUMPDEST PUSH1 0x1 DUP1 PUSH1 0xA0 SHL SUB AND SWAP1 PUSH1 0x40 MLOAD PUSH1 0x40 DUP2 ADD SWAP1 DUP1 DUP3 LT PUSH8 0xFFFFFFFFFFFFFFFF DUP4 GT OR PUSH2 0x8CB JUMPI PUSH2 0xA88 SWAP2 PUSH1 0x40 MSTORE PUSH1 0x20 SWAP4 DUP5 DUP3 MSTORE PUSH32 0x5361666545524332303A206C6F772D6C6576656C2063616C6C206661696C6564 DUP6 DUP4 ADD MSTORE PUSH1 0x0 DUP1 DUP6 DUP8 DUP3 SWAP8 MLOAD SWAP2 ADD DUP3 DUP6 GAS CALL PUSH2 0xA82 PUSH2 0x8E1 JUMP JUMPDEST SWAP2 PUSH2 0xB1E JUMP JUMPDEST DUP1 MLOAD SWAP2 DUP3 ISZERO SWAP2 DUP5 DUP4 ISZERO PUSH2 0xAFA JUMPI JUMPDEST POP POP POP SWAP1 POP ISZERO PUSH2 0xAA3 JUMPI POP JUMP JUMPDEST PUSH1 0x84 SWAP1 PUSH1 0x40 MLOAD SWAP1 PUSH3 0x461BCD PUSH1 0xE5 SHL DUP3 MSTORE PUSH1 0x4 DUP3 ADD MSTORE PUSH1 0x2A PUSH1 0x24 DUP3 ADD MSTORE PUSH32 0x5361666545524332303A204552433230206F7065726174696F6E20646964206E PUSH1 0x44 DUP3 ADD MSTORE PUSH10 0x1BDD081CDD58D8D95959 PUSH1 0xB2 SHL PUSH1 0x64 DUP3 ADD MSTORE REVERT JUMPDEST SWAP2 SWAP4 DUP2 DUP1 SWAP5 POP ADD SUB SLT PUSH2 0x386 JUMPI DUP3 ADD MLOAD SWAP1 DUP2 ISZERO ISZERO DUP3 SUB PUSH2 0x1BD JUMPI POP DUP1 CODESIZE DUP1 DUP5 PUSH2 0xA96 JUMP JUMPDEST SWAP2 SWAP3 SWAP1 ISZERO PUSH2 0xB80 JUMPI POP DUP2 MLOAD ISZERO PUSH2 0xB32 JUMPI POP SWAP1 JUMP JUMPDEST EXTCODESIZE ISZERO PUSH2 0xB3B JUMPI SWAP1 JUMP JUMPDEST PUSH1 0x40 MLOAD PUSH3 0x461BCD PUSH1 0xE5 SHL DUP2 MSTORE PUSH1 0x20 PUSH1 0x4 DUP3 ADD MSTORE PUSH1 0x1D PUSH1 0x24 DUP3 ADD MSTORE PUSH32 0x416464726573733A2063616C6C20746F206E6F6E2D636F6E7472616374000000 PUSH1 0x44 DUP3 ADD MSTORE PUSH1 0x64 SWAP1 REVERT JUMPDEST DUP3 MLOAD SWAP1 SWAP2 POP ISZERO PUSH2 0xB93 JUMPI POP DUP1 MLOAD SWAP1 PUSH1 0x20 ADD REVERT JUMPDEST PUSH1 0x40 MLOAD SWAP1 PUSH3 0x461BCD PUSH1 0xE5 SHL DUP3 MSTORE DUP2 PUSH1 0x20 DUP1 PUSH1 0x4 DUP4 ADD MSTORE DUP3 MLOAD SWAP1 DUP2 PUSH1 0x24 DUP5 ADD MSTORE PUSH1 0x0 SWAP4 JUMPDEST DUP3 DUP6 LT PUSH2 0xBD9 JUMPI POP POP PUSH1 0x44 SWAP3 POP PUSH1 0x0 DUP4 DUP3 DUP5 ADD ADD MSTORE PUSH1 0x1F DUP1 NOT SWAP2 ADD AND DUP2 ADD SUB ADD SWAP1 REVERT JUMPDEST DUP5 DUP2 ADD DUP3 ADD MLOAD DUP7 DUP7 ADD PUSH1 0x44 ADD MSTORE SWAP4 DUP2 ADD SWAP4 DUP6 SWAP4 POP PUSH2 0xBB6 JUMP JUMPDEST SWAP2 SWAP4 SWAP3 SWAP2 PUSH1 0x1 PUSH1 0x1 PUSH1 0xA0 SHL SUB AND SWAP1 DUP1 ISZERO DUP1 ISZERO PUSH2 0xCF9 JUMPI JUMPDEST ISZERO PUSH2 0xC95 JUMPI PUSH1 0x40 MLOAD PUSH4 0x95EA7B3 PUSH1 0xE0 SHL PUSH1 0x20 DUP3 ADD MSTORE ADDRESS PUSH1 0x24 DUP3 ADD MSTORE PUSH1 0x44 DUP2 ADD SWAP2 SWAP1 SWAP2 MSTORE PUSH2 0xC3D SWAP2 PUSH2 0x9BA DUP3 PUSH1 0x64 DUP2 ADD PUSH2 0x9AC JUMP JUMPDEST DUP2 PUSH1 0x40 MLOAD SWAP3 DUP4 SWAP3 DUP4 CALLDATACOPY DUP2 ADD PUSH1 0x0 SWAP3 DUP4 SWAP3 DUP3 DUP5 DUP1 SWAP5 MSTORE SUB SWAP1 DUP3 ADDRESS GAS CALL SWAP1 PUSH2 0xC61 PUSH2 0x8E1 JUMP JUMPDEST SWAP2 ISZERO PUSH2 0xC83 JUMPI PUSH1 0x20 DUP3 DUP1 MLOAD DUP2 ADD SUB SLT PUSH2 0x1BD JUMPI POP PUSH1 0x20 ADD MLOAD SWAP1 DUP2 LT PUSH2 0xC83 JUMPI SWAP1 JUMP JUMPDEST PUSH1 0x40 MLOAD PUSH4 0x81CEFF3 PUSH1 0xE4 SHL DUP2 MSTORE PUSH1 0x4 SWAP1 REVERT JUMPDEST PUSH1 0x40 MLOAD PUSH3 0x461BCD PUSH1 0xE5 SHL DUP2 MSTORE PUSH1 0x20 PUSH1 0x4 DUP3 ADD MSTORE PUSH1 0x36 PUSH1 0x24 DUP3 ADD MSTORE PUSH32 0x5361666545524332303A20617070726F76652066726F6D206E6F6E2D7A65726F PUSH1 0x44 DUP3 ADD MSTORE PUSH22 0x20746F206E6F6E2D7A65726F20616C6C6F77616E6365 PUSH1 0x50 SHL PUSH1 0x64 DUP3 ADD MSTORE PUSH1 0x84 SWAP1 REVERT JUMPDEST POP PUSH1 0x40 MLOAD PUSH4 0x6EB1769F PUSH1 0xE1 SHL DUP2 MSTORE ADDRESS PUSH1 0x4 DUP3 ADD DUP2 SWAP1 MSTORE PUSH1 0x24 DUP3 ADD MSTORE PUSH1 0x20 DUP2 PUSH1 0x44 DUP2 DUP7 GAS STATICCALL SWAP1 DUP2 ISZERO PUSH2 0xD64 JUMPI PUSH1 0x0 SWAP2 PUSH2 0xD33 JUMPI JUMPDEST POP ISZERO PUSH2 0xC09 JUMP JUMPDEST SWAP1 PUSH1 0x20 DUP3 RETURNDATASIZE DUP3 GT PUSH2 0xD5C JUMPI JUMPDEST DUP2 PUSH2 0xD4C PUSH1 0x20 SWAP4 DUP4 PUSH2 0x8A9 JUMP JUMPDEST DUP2 ADD SUB SLT PUSH2 0x1BD JUMPI POP MLOAD CODESIZE PUSH2 0xD2C JUMP JUMPDEST RETURNDATASIZE SWAP2 POP PUSH2 0xD3F JUMP JUMPDEST PUSH1 0x40 MLOAD RETURNDATASIZE PUSH1 0x0 DUP3 RETURNDATACOPY RETURNDATASIZE SWAP1 REVERT INVALID LOG2 PUSH5 0x6970667358 0x22 SLT KECCAK256 DUP1 DUP7 ORIGIN 0xC2 0xCB AND 0x26 MULMOD OR 0x5F SWAP6 SWAP13 PUSH13 0x15D90B73960941451EBC2707BF PUSH23 0xDC1940D50D64736F6C6343000813003300000000000000 "},"methodIdentifiers":{"GAS_FEE_TAX_RATE_BPS()":"596bfce8","calculateGasFeeTax(uint256)":"c0f03105","emergencyWithdraw(address,uint256)":"95ccea67","owner()":"8da5cb5b","renounceOwnership()":"715018a6","revenueWallet()":"44478425","swap(address,address,uint256,uint256,bytes)":"2506c018","swapETH(address,uint256,bytes)":"b9dac726","swapToETH(address,uint256,uint256,bytes)":"481eaf63","transferOwnership(address)":"f2fde38b"}}}}}