{"contracts/SplenexAdvancedSwapContractWithPermit.sol":{"SplenexAdvancedSwapContractWithPermit":{"abi":[{"inputs":[{"internalType":"address","name":"_revenueWallet","type":"address"}],"stateMutability":"nonpayable","type":"constructor"},{"inputs":[],"name":"InsufficientBalance","type":"error"},{"inputs":[],"name":"InvalidAmount","type":"error"},{"inputs":[],"name":"InvalidSignature","type":"error"},{"inputs":[],"name":"InvalidTokenAddress","type":"error"},{"inputs":[],"name":"SwapFailed","type":"error"},{"inputs":[],"name":"TransferFailed","type":"error"},{"anonymous":false,"inputs":[{"indexed":true,"internalType":"address","name":"previousOwner","type":"address"},{"indexed":true,"internalType":"address","name":"newOwner","type":"address"}],"name":"OwnershipTransferred","type":"event"},{"anonymous":false,"inputs":[{"indexed":true,"internalType":"address","name":"user","type":"address"},{"indexed":true,"internalType":"address","name":"tokenIn","type":"address"},{"indexed":true,"internalType":"address","name":"tokenOut","type":"address"},{"indexed":false,"internalType":"uint256","name":"amountIn","type":"uint256"},{"indexed":false,"internalType":"uint256","name":"gasFeeTax","type":"uint256"},{"indexed":false,"internalType":"uint256","name":"amountOut","type":"uint256"},{"indexed":false,"internalType":"string","name":"dexUsed","type":"string"}],"name":"SwapExecuted","type":"event"},{"inputs":[],"name":"GAS_FEE_TAX_RATE_BPS","outputs":[{"internalType":"uint256","name":"","type":"uint256"}],"stateMutability":"view","type":"function"},{"inputs":[],"name":"LIFI_CONTRACT","outputs":[{"internalType":"address","name":"","type":"address"}],"stateMutability":"view","type":"function"},{"inputs":[],"name":"owner","outputs":[{"internalType":"address","name":"","type":"address"}],"stateMutability":"view","type":"function"},{"inputs":[],"name":"renounceOwnership","outputs":[],"stateMutability":"nonpayable","type":"function"},{"inputs":[],"name":"revenueWallet","outputs":[{"internalType":"address","name":"","type":"address"}],"stateMutability":"view","type":"function"},{"inputs":[{"internalType":"address","name":"tokenIn","type":"address"},{"internalType":"uint256","name":"amountIn","type":"uint256"},{"internalType":"bytes","name":"liFiCalldata","type":"bytes"},{"internalType":"address","name":"toToken","type":"address"},{"internalType":"uint256","name":"minAmountOut","type":"uint256"},{"internalType":"uint256","name":"lifiExpectedAmount","type":"uint256"},{"components":[{"internalType":"address","name":"token","type":"address"},{"internalType":"uint256","name":"value","type":"uint256"},{"internalType":"uint256","name":"deadline","type":"uint256"},{"internalType":"uint8","name":"v","type":"uint8"},{"internalType":"bytes32","name":"r","type":"bytes32"},{"internalType":"bytes32","name":"s","type":"bytes32"}],"internalType":"struct PermitData","name":"permitData","type":"tuple"}],"name":"swapTokenViaLiFiWithPermit","outputs":[],"stateMutability":"payable","type":"function"},{"inputs":[{"internalType":"bytes","name":"liFiCalldata","type":"bytes"},{"internalType":"address","name":"toToken","type":"address"},{"internalType":"uint256","name":"minAmountOut","type":"uint256"},{"internalType":"uint256","name":"lifiExpectedAmount","type":"uint256"},{"components":[{"internalType":"address","name":"token","type":"address"},{"internalType":"uint256","name":"value","type":"uint256"},{"internalType":"uint256","name":"deadline","type":"uint256"},{"internalType":"uint8","name":"v","type":"uint8"},{"internalType":"bytes32","name":"r","type":"bytes32"},{"internalType":"bytes32","name":"s","type":"bytes32"}],"internalType":"struct PermitData","name":"permitData","type":"tuple"}],"name":"swapViaLiFiWithPermit","outputs":[],"stateMutability":"payable","type":"function"},{"inputs":[{"internalType":"address","name":"newOwner","type":"address"}],"name":"transferOwnership","outputs":[],"stateMutability":"nonpayable","type":"function"},{"stateMutability":"payable","type":"receive"}],"evm":{"bytecode":{"linkReferences":{},"object":"60a0346100d357601f610e2938819003918201601f19168301916001600160401b038311848410176100d8578084926020946040528339810103126100d357516001600160a01b038082168083036100d357600160008181558154336001600160a01b0319821681179093556040519416907f8be0079c531659141344cd1fd0a4f28419497f9722a3daafe3b4186f6b6457e09080a3156100c45750608052604051610d3a90816100ef823960805181818161020e0152818161032901526104f40152f35b630f58058360e11b8152600490fd5b600080fd5b634e487b7160e01b600052604160045260246000fdfe6080604052600436101561001b575b361561001957600080fd5b005b6000803560e01c908163108e3c991461009e57508063252af127146100995780634447842514610094578063596bfce81461008f578063715018a61461008a5780638da5cb5b14610085578063e3fff0d1146100805763f2fde38b0361000e576105a4565b6103fc565b6103d3565b610375565b610358565b610313565b610135565b346100cc57806003193601126100cc57731231deb6f5749ef6ce6943a275a1d3e7486f4eae60805260206080f35b80fd5b9181601f840112156100fd5782359167ffffffffffffffff83116100fd57602083818601950101116100fd57565b600080fd5b6001600160a01b038116036100fd57565b60c09060831901126100fd57608490565b60c09060c31901126100fd5760c490565b6101403660031901126100fd576004803567ffffffffffffffff81116100fd5761016290369083016100cf565b906024359261017084610102565b6064359361017d36610113565b906101866107e8565b6001600160a01b0316938415610302578560011c936101a585886106df565b928334106102f1576101c56101b9826106f1565b6001600160a01b031690565b6102e2575b506040519687806101e060009a8b9687966106fe565b0391731231deb6f5749ef6ce6943a275a1d3e7486f4eae5af1610201610765565b50156102d25784808080867f00000000000000000000000000000000000000000000000000000000000000005af1610237610765565b50156102c2579061024a859392346107a5565b80610292575b50507f724ef2525566d177428085a63ac07146a393ad3a7737e1a9c2349496a33764cf604051806102823394826107b2565b0390a461028f6001600055565b80f35b92808080939495335af16102a4610765565b50156102b35790818492610250565b6040516312171d8360e31b8152fd5b506040516312171d8360e31b8152fd5b5060405163081ceff360e41b8152fd5b6102eb90610c43565b386101ca565b604051631e9acf1760e31b81528590fd5b604051630f58058360e11b81528390fd5b346100fd5760003660031901126100fd576040517f00000000000000000000000000000000000000000000000000000000000000006001600160a01b03168152602090f35b346100fd5760003660031901126100fd5760206040516113888152f35b346100fd576000806003193601126100cc5761038f610671565b600180546001600160a01b0319811690915581906001600160a01b03167f8be0079c531659141344cd1fd0a4f28419497f9722a3daafe3b4186f6b6457e08280a380f35b346100fd5760003660031901126100fd576001546040516001600160a01b039091168152602090f35b6101803660031901126100fd576004803561041681610102565b60243560443567ffffffffffffffff81116100fd5761043890369085016100cf565b91909260643561044781610102565b60a4359561045436610124565b61045c6107e8565b6001600160a01b03938416958615801561059a575b610302578515610589578860011c9761048a898b6106df565b928334106102f15761049b90610c43565b6104a78730338b610872565b6104b18789610953565b604051998a806104c660009d8e9687966106fe565b0391731231deb6f5749ef6ce6943a275a1d3e7486f4eae5af16104e7610765565b50156102d257878080808a7f00000000000000000000000000000000000000000000000000000000000000005af161051d610765565b50156102c25761052e8891346107a5565b8061056d575b505050907f724ef2525566d177428085a63ac07146a393ad3a7737e1a9c2349496a33764cf91610282604051928392169633958361083e565b81808092335af161057c610765565b50156102b3578681610534565b60405163162908e360e11b81528390fd5b5084841615610471565b346100fd5760203660031901126100fd576004356105c181610102565b6105c9610671565b6001600160a01b0390811690811561061d57600154826bffffffffffffffffffffffff60a01b821617600155167f8be0079c531659141344cd1fd0a4f28419497f9722a3daafe3b4186f6b6457e0600080a3005b60405162461bcd60e51b815260206004820152602660248201527f4f776e61626c653a206e6577206f776e657220697320746865207a65726f206160448201526564647265737360d01b6064820152608490fd5b6001546001600160a01b0316330361068557565b606460405162461bcd60e51b815260206004820152602060248201527f4f776e61626c653a2063616c6c6572206973206e6f7420746865206f776e65726044820152fd5b634e487b7160e01b600052601160045260246000fd5b919082018092116106ec57565b6106c9565b356106fb81610102565b90565b908092918237016000815290565b634e487b7160e01b600052604160045260246000fd5b6040810190811067ffffffffffffffff82111761073e57604052565b61070c565b90601f8019910116810190811067ffffffffffffffff82111761073e57604052565b3d156107a0573d9067ffffffffffffffff821161073e5760405191610794601f8201601f191660200184610743565b82523d6000602084013e565b606090565b919082039182116106ec57565b6080906106fb92600082526020820152600060408201528160608201520160409060048152636c69666960e01b60208201520190565b6002600054146107f9576002600055565b60405162461bcd60e51b815260206004820152601f60248201527f5265656e7472616e637947756172643a207265656e7472616e742063616c6c006044820152606490fd5b6106fb9260809282526020820152600060408201528160608201520160409060048152636c69666960e01b60208201520190565b6040516323b872dd60e01b60208201526001600160a01b03928316602482015292909116604483015260648083019390935291815260a081019181831067ffffffffffffffff84111761073e576108cb92604052610a5e565b565b908160209103126100fd575190565b6040513d6000823e3d90fd5b156108ef57565b60405162461bcd60e51b815260206004820152603660248201527f5361666545524332303a20617070726f76652066726f6d206e6f6e2d7a65726f60448201527520746f206e6f6e2d7a65726f20616c6c6f77616e636560501b6064820152608490fd5b811580156109bf575b906109ba6108cb936109706109ac946108e8565b60405163095ea7b360e01b6020820152731231deb6f5749ef6ce6943a275a1d3e7486f4eae602482015260448101919091529283906064820190565b03601f198101845283610743565b610a5e565b50604051636eb1769f60e11b8152306004820152731231deb6f5749ef6ce6943a275a1d3e7486f4eae6024820152906020826044816001600160a01b0385165afa8015610a59576108cb936109706109ba926109ac95600091610a2b575b50159394505093505061095c565b610a4c915060203d8111610a52575b610a448183610743565b8101906108cd565b38610a1d565b503d610a3a565b6108dc565b60018060a01b031690610abd604051610a7681610722565b6020938482527f5361666545524332303a206c6f772d6c6576656c2063616c6c206661696c6564858301526000808587829751910182855af1610ab7610765565b91610ba3565b805191821591848315610b2f575b505050905015610ad85750565b6084906040519062461bcd60e51b82526004820152602a60248201527f5361666545524332303a204552433230206f7065726174696f6e20646964206e6044820152691bdd081cdd58d8d9595960b21b6064820152fd5b919381809450010312610b53578201519081151582036100cc575080388084610acb565b5080fd5b15610b5e57565b60405162461bcd60e51b815260206004820152601d60248201527f416464726573733a2063616c6c20746f206e6f6e2d636f6e74726163740000006044820152606490fd5b91929015610bc35750815115610bb7575090565b6106fb903b1515610b57565b825190915015610bd65750805190602001fd5b6040519062461bcd60e51b82528160208060048301528251908160248401526000935b828510610c1c575050604492506000838284010152601f80199101168101030190fd5b8481018201518686016044015293810193859350610bf9565b3560ff811681036100fd5790565b6001600160a01b03610c54826106f1565b1615610d0157600081610c6782936106f1565b9082610cd6610ce4610c7b60608501610c35565b6040805163d505accf60e01b6020808301918252336024840152306044840152880135606483015291870135608482015260ff90921660a4830152608086013560c483015260a09095013560e4820152918290610104820190565b03601f198101835282610743565b51925af1610cf0610765565b9015610cf95750565b805190602001fd5b5056fea26469706673582212208b938b65c5d1c64f5a34291567c642b1035dcf4b6ea1f42e05832a70dc928c1a64736f6c63430008130033","opcodes":"PUSH1 0xA0 CALLVALUE PUSH2 0xD3 JUMPI PUSH1 0x1F PUSH2 0xE29 CODESIZE DUP2 SWAP1 SUB SWAP2 DUP3 ADD PUSH1 0x1F NOT AND DUP4 ADD SWAP2 PUSH1 0x1 PUSH1 0x1 PUSH1 0x40 SHL SUB DUP4 GT DUP5 DUP5 LT OR PUSH2 0xD8 JUMPI DUP1 DUP5 SWAP3 PUSH1 0x20 SWAP5 PUSH1 0x40 MSTORE DUP4 CODECOPY DUP2 ADD SUB SLT PUSH2 0xD3 JUMPI MLOAD PUSH1 0x1 PUSH1 0x1 PUSH1 0xA0 SHL SUB DUP1 DUP3 AND DUP1 DUP4 SUB PUSH2 0xD3 JUMPI PUSH1 0x1 PUSH1 0x0 DUP2 DUP2 SSTORE DUP2 SLOAD CALLER PUSH1 0x1 PUSH1 0x1 PUSH1 0xA0 SHL SUB NOT DUP3 AND DUP2 OR SWAP1 SWAP4 SSTORE PUSH1 0x40 MLOAD SWAP5 AND SWAP1 PUSH32 0x8BE0079C531659141344CD1FD0A4F28419497F9722A3DAAFE3B4186F6B6457E0 SWAP1 DUP1 LOG3 ISZERO PUSH2 0xC4 JUMPI POP PUSH1 0x80 MSTORE PUSH1 0x40 MLOAD PUSH2 0xD3A SWAP1 DUP2 PUSH2 0xEF DUP3 CODECOPY PUSH1 0x80 MLOAD DUP2 DUP2 DUP2 PUSH2 0x20E ADD MSTORE DUP2 DUP2 PUSH2 0x329 ADD MSTORE PUSH2 0x4F4 ADD MSTORE RETURN JUMPDEST PUSH4 0xF580583 PUSH1 0xE1 SHL DUP2 MSTORE PUSH1 0x4 SWAP1 REVERT JUMPDEST PUSH1 0x0 DUP1 REVERT JUMPDEST PUSH4 0x4E487B71 PUSH1 0xE0 SHL PUSH1 0x0 MSTORE PUSH1 0x41 PUSH1 0x4 MSTORE PUSH1 0x24 PUSH1 0x0 REVERT INVALID PUSH1 0x80 PUSH1 0x40 MSTORE PUSH1 0x4 CALLDATASIZE LT ISZERO PUSH2 0x1B JUMPI JUMPDEST CALLDATASIZE ISZERO PUSH2 0x19 JUMPI PUSH1 0x0 DUP1 REVERT JUMPDEST STOP JUMPDEST PUSH1 0x0 DUP1 CALLDATALOAD PUSH1 0xE0 SHR SWAP1 DUP2 PUSH4 0x108E3C99 EQ PUSH2 0x9E JUMPI POP DUP1 PUSH4 0x252AF127 EQ PUSH2 0x99 JUMPI DUP1 PUSH4 0x44478425 EQ PUSH2 0x94 JUMPI DUP1 PUSH4 0x596BFCE8 EQ PUSH2 0x8F JUMPI DUP1 PUSH4 0x715018A6 EQ PUSH2 0x8A JUMPI DUP1 PUSH4 0x8DA5CB5B EQ PUSH2 0x85 JUMPI DUP1 PUSH4 0xE3FFF0D1 EQ PUSH2 0x80 JUMPI PUSH4 0xF2FDE38B SUB PUSH2 0xE JUMPI PUSH2 0x5A4 JUMP JUMPDEST PUSH2 0x3FC JUMP JUMPDEST PUSH2 0x3D3 JUMP JUMPDEST PUSH2 0x375 JUMP JUMPDEST PUSH2 0x358 JUMP JUMPDEST PUSH2 0x313 JUMP JUMPDEST PUSH2 0x135 JUMP JUMPDEST CALLVALUE PUSH2 0xCC JUMPI DUP1 PUSH1 0x3 NOT CALLDATASIZE ADD SLT PUSH2 0xCC JUMPI PUSH20 0x1231DEB6F5749EF6CE6943A275A1D3E7486F4EAE PUSH1 0x80 MSTORE PUSH1 0x20 PUSH1 0x80 RETURN JUMPDEST DUP1 REVERT JUMPDEST SWAP2 DUP2 PUSH1 0x1F DUP5 ADD SLT ISZERO PUSH2 0xFD JUMPI DUP3 CALLDATALOAD SWAP2 PUSH8 0xFFFFFFFFFFFFFFFF DUP4 GT PUSH2 0xFD JUMPI PUSH1 0x20 DUP4 DUP2 DUP7 ADD SWAP6 ADD ADD GT PUSH2 0xFD JUMPI JUMP JUMPDEST PUSH1 0x0 DUP1 REVERT JUMPDEST PUSH1 0x1 PUSH1 0x1 PUSH1 0xA0 SHL SUB DUP2 AND SUB PUSH2 0xFD JUMPI JUMP JUMPDEST PUSH1 0xC0 SWAP1 PUSH1 0x83 NOT ADD SLT PUSH2 0xFD JUMPI PUSH1 0x84 SWAP1 JUMP JUMPDEST PUSH1 0xC0 SWAP1 PUSH1 0xC3 NOT ADD SLT PUSH2 0xFD JUMPI PUSH1 0xC4 SWAP1 JUMP JUMPDEST PUSH2 0x140 CALLDATASIZE PUSH1 0x3 NOT ADD SLT PUSH2 0xFD JUMPI PUSH1 0x4 DUP1 CALLDATALOAD PUSH8 0xFFFFFFFFFFFFFFFF DUP2 GT PUSH2 0xFD JUMPI PUSH2 0x162 SWAP1 CALLDATASIZE SWAP1 DUP4 ADD PUSH2 0xCF JUMP JUMPDEST SWAP1 PUSH1 0x24 CALLDATALOAD SWAP3 PUSH2 0x170 DUP5 PUSH2 0x102 JUMP JUMPDEST PUSH1 0x64 CALLDATALOAD SWAP4 PUSH2 0x17D CALLDATASIZE PUSH2 0x113 JUMP JUMPDEST SWAP1 PUSH2 0x186 PUSH2 0x7E8 JUMP JUMPDEST PUSH1 0x1 PUSH1 0x1 PUSH1 0xA0 SHL SUB AND SWAP4 DUP5 ISZERO PUSH2 0x302 JUMPI DUP6 PUSH1 0x1 SHR SWAP4 PUSH2 0x1A5 DUP6 DUP9 PUSH2 0x6DF JUMP JUMPDEST SWAP3 DUP4 CALLVALUE LT PUSH2 0x2F1 JUMPI PUSH2 0x1C5 PUSH2 0x1B9 DUP3 PUSH2 0x6F1 JUMP JUMPDEST PUSH1 0x1 PUSH1 0x1 PUSH1 0xA0 SHL SUB AND SWAP1 JUMP JUMPDEST PUSH2 0x2E2 JUMPI JUMPDEST POP PUSH1 0x40 MLOAD SWAP7 DUP8 DUP1 PUSH2 0x1E0 PUSH1 0x0 SWAP11 DUP12 SWAP7 DUP8 SWAP7 PUSH2 0x6FE JUMP JUMPDEST SUB SWAP2 PUSH20 0x1231DEB6F5749EF6CE6943A275A1D3E7486F4EAE GAS CALL PUSH2 0x201 PUSH2 0x765 JUMP JUMPDEST POP ISZERO PUSH2 0x2D2 JUMPI DUP5 DUP1 DUP1 DUP1 DUP7 PUSH32 0x0 GAS CALL PUSH2 0x237 PUSH2 0x765 JUMP JUMPDEST POP ISZERO PUSH2 0x2C2 JUMPI SWAP1 PUSH2 0x24A DUP6 SWAP4 SWAP3 CALLVALUE PUSH2 0x7A5 JUMP JUMPDEST DUP1 PUSH2 0x292 JUMPI JUMPDEST POP POP PUSH32 0x724EF2525566D177428085A63AC07146A393AD3A7737E1A9C2349496A33764CF PUSH1 0x40 MLOAD DUP1 PUSH2 0x282 CALLER SWAP5 DUP3 PUSH2 0x7B2 JUMP JUMPDEST SUB SWAP1 LOG4 PUSH2 0x28F PUSH1 0x1 PUSH1 0x0 SSTORE JUMP JUMPDEST DUP1 RETURN JUMPDEST SWAP3 DUP1 DUP1 DUP1 SWAP4 SWAP5 SWAP6 CALLER GAS CALL PUSH2 0x2A4 PUSH2 0x765 JUMP JUMPDEST POP ISZERO PUSH2 0x2B3 JUMPI SWAP1 DUP2 DUP5 SWAP3 PUSH2 0x250 JUMP JUMPDEST PUSH1 0x40 MLOAD PUSH4 0x12171D83 PUSH1 0xE3 SHL DUP2 MSTORE REVERT JUMPDEST POP PUSH1 0x40 MLOAD PUSH4 0x12171D83 PUSH1 0xE3 SHL DUP2 MSTORE REVERT JUMPDEST POP PUSH1 0x40 MLOAD PUSH4 0x81CEFF3 PUSH1 0xE4 SHL DUP2 MSTORE REVERT JUMPDEST PUSH2 0x2EB SWAP1 PUSH2 0xC43 JUMP JUMPDEST CODESIZE PUSH2 0x1CA JUMP JUMPDEST PUSH1 0x40 MLOAD PUSH4 0x1E9ACF17 PUSH1 0xE3 SHL DUP2 MSTORE DUP6 SWAP1 REVERT JUMPDEST PUSH1 0x40 MLOAD PUSH4 0xF580583 PUSH1 0xE1 SHL DUP2 MSTORE DUP4 SWAP1 REVERT JUMPDEST CALLVALUE PUSH2 0xFD JUMPI PUSH1 0x0 CALLDATASIZE PUSH1 0x3 NOT ADD SLT PUSH2 0xFD JUMPI PUSH1 0x40 MLOAD PUSH32 0x0 PUSH1 0x1 PUSH1 0x1 PUSH1 0xA0 SHL SUB AND DUP2 MSTORE PUSH1 0x20 SWAP1 RETURN JUMPDEST CALLVALUE PUSH2 0xFD JUMPI PUSH1 0x0 CALLDATASIZE PUSH1 0x3 NOT ADD SLT PUSH2 0xFD JUMPI PUSH1 0x20 PUSH1 0x40 MLOAD PUSH2 0x1388 DUP2 MSTORE RETURN JUMPDEST CALLVALUE PUSH2 0xFD JUMPI PUSH1 0x0 DUP1 PUSH1 0x3 NOT CALLDATASIZE ADD SLT PUSH2 0xCC JUMPI PUSH2 0x38F PUSH2 0x671 JUMP JUMPDEST PUSH1 0x1 DUP1 SLOAD PUSH1 0x1 PUSH1 0x1 PUSH1 0xA0 SHL SUB NOT DUP2 AND SWAP1 SWAP2 SSTORE DUP2 SWAP1 PUSH1 0x1 PUSH1 0x1 PUSH1 0xA0 SHL SUB AND PUSH32 0x8BE0079C531659141344CD1FD0A4F28419497F9722A3DAAFE3B4186F6B6457E0 DUP3 DUP1 LOG3 DUP1 RETURN JUMPDEST CALLVALUE PUSH2 0xFD JUMPI PUSH1 0x0 CALLDATASIZE PUSH1 0x3 NOT ADD SLT PUSH2 0xFD JUMPI PUSH1 0x1 SLOAD PUSH1 0x40 MLOAD PUSH1 0x1 PUSH1 0x1 PUSH1 0xA0 SHL SUB SWAP1 SWAP2 AND DUP2 MSTORE PUSH1 0x20 SWAP1 RETURN JUMPDEST PUSH2 0x180 CALLDATASIZE PUSH1 0x3 NOT ADD SLT PUSH2 0xFD JUMPI PUSH1 0x4 DUP1 CALLDATALOAD PUSH2 0x416 DUP2 PUSH2 0x102 JUMP JUMPDEST PUSH1 0x24 CALLDATALOAD PUSH1 0x44 CALLDATALOAD PUSH8 0xFFFFFFFFFFFFFFFF DUP2 GT PUSH2 0xFD JUMPI PUSH2 0x438 SWAP1 CALLDATASIZE SWAP1 DUP6 ADD PUSH2 0xCF JUMP JUMPDEST SWAP2 SWAP1 SWAP3 PUSH1 0x64 CALLDATALOAD PUSH2 0x447 DUP2 PUSH2 0x102 JUMP JUMPDEST PUSH1 0xA4 CALLDATALOAD SWAP6 PUSH2 0x454 CALLDATASIZE PUSH2 0x124 JUMP JUMPDEST PUSH2 0x45C PUSH2 0x7E8 JUMP JUMPDEST PUSH1 0x1 PUSH1 0x1 PUSH1 0xA0 SHL SUB SWAP4 DUP5 AND SWAP6 DUP7 ISZERO DUP1 ISZERO PUSH2 0x59A JUMPI JUMPDEST PUSH2 0x302 JUMPI DUP6 ISZERO PUSH2 0x589 JUMPI DUP9 PUSH1 0x1 SHR SWAP8 PUSH2 0x48A DUP10 DUP12 PUSH2 0x6DF JUMP JUMPDEST SWAP3 DUP4 CALLVALUE LT PUSH2 0x2F1 JUMPI PUSH2 0x49B SWAP1 PUSH2 0xC43 JUMP JUMPDEST PUSH2 0x4A7 DUP8 ADDRESS CALLER DUP12 PUSH2 0x872 JUMP JUMPDEST PUSH2 0x4B1 DUP8 DUP10 PUSH2 0x953 JUMP JUMPDEST PUSH1 0x40 MLOAD SWAP10 DUP11 DUP1 PUSH2 0x4C6 PUSH1 0x0 SWAP14 DUP15 SWAP7 DUP8 SWAP7 PUSH2 0x6FE JUMP JUMPDEST SUB SWAP2 PUSH20 0x1231DEB6F5749EF6CE6943A275A1D3E7486F4EAE GAS CALL PUSH2 0x4E7 PUSH2 0x765 JUMP JUMPDEST POP ISZERO PUSH2 0x2D2 JUMPI DUP8 DUP1 DUP1 DUP1 DUP11 PUSH32 0x0 GAS CALL PUSH2 0x51D PUSH2 0x765 JUMP JUMPDEST POP ISZERO PUSH2 0x2C2 JUMPI PUSH2 0x52E DUP9 SWAP2 CALLVALUE PUSH2 0x7A5 JUMP JUMPDEST DUP1 PUSH2 0x56D JUMPI JUMPDEST POP POP POP SWAP1 PUSH32 0x724EF2525566D177428085A63AC07146A393AD3A7737E1A9C2349496A33764CF SWAP2 PUSH2 0x282 PUSH1 0x40 MLOAD SWAP3 DUP4 SWAP3 AND SWAP7 CALLER SWAP6 DUP4 PUSH2 0x83E JUMP JUMPDEST DUP2 DUP1 DUP1 SWAP3 CALLER GAS CALL PUSH2 0x57C PUSH2 0x765 JUMP JUMPDEST POP ISZERO PUSH2 0x2B3 JUMPI DUP7 DUP2 PUSH2 0x534 JUMP JUMPDEST PUSH1 0x40 MLOAD PUSH4 0x162908E3 PUSH1 0xE1 SHL DUP2 MSTORE DUP4 SWAP1 REVERT JUMPDEST POP DUP5 DUP5 AND ISZERO PUSH2 0x471 JUMP JUMPDEST CALLVALUE PUSH2 0xFD JUMPI PUSH1 0x20 CALLDATASIZE PUSH1 0x3 NOT ADD SLT PUSH2 0xFD JUMPI PUSH1 0x4 CALLDATALOAD PUSH2 0x5C1 DUP2 PUSH2 0x102 JUMP JUMPDEST PUSH2 0x5C9 PUSH2 0x671 JUMP JUMPDEST PUSH1 0x1 PUSH1 0x1 PUSH1 0xA0 SHL SUB SWAP1 DUP2 AND SWAP1 DUP2 ISZERO PUSH2 0x61D JUMPI PUSH1 0x1 SLOAD DUP3 PUSH12 0xFFFFFFFFFFFFFFFFFFFFFFFF PUSH1 0xA0 SHL DUP3 AND OR PUSH1 0x1 SSTORE AND PUSH32 0x8BE0079C531659141344CD1FD0A4F28419497F9722A3DAAFE3B4186F6B6457E0 PUSH1 0x0 DUP1 LOG3 STOP JUMPDEST PUSH1 0x40 MLOAD PUSH3 0x461BCD PUSH1 0xE5 SHL DUP2 MSTORE PUSH1 0x20 PUSH1 0x4 DUP3 ADD MSTORE PUSH1 0x26 PUSH1 0x24 DUP3 ADD MSTORE PUSH32 0x4F776E61626C653A206E6577206F776E657220697320746865207A65726F2061 PUSH1 0x44 DUP3 ADD MSTORE PUSH6 0x646472657373 PUSH1 0xD0 SHL PUSH1 0x64 DUP3 ADD MSTORE PUSH1 0x84 SWAP1 REVERT JUMPDEST PUSH1 0x1 SLOAD PUSH1 0x1 PUSH1 0x1 PUSH1 0xA0 SHL SUB AND CALLER SUB PUSH2 0x685 JUMPI JUMP JUMPDEST PUSH1 0x64 PUSH1 0x40 MLOAD PUSH3 0x461BCD PUSH1 0xE5 SHL DUP2 MSTORE PUSH1 0x20 PUSH1 0x4 DUP3 ADD MSTORE PUSH1 0x20 PUSH1 0x24 DUP3 ADD MSTORE PUSH32 0x4F776E61626C653A2063616C6C6572206973206E6F7420746865206F776E6572 PUSH1 0x44 DUP3 ADD MSTORE REVERT JUMPDEST PUSH4 0x4E487B71 PUSH1 0xE0 SHL PUSH1 0x0 MSTORE PUSH1 0x11 PUSH1 0x4 MSTORE PUSH1 0x24 PUSH1 0x0 REVERT JUMPDEST SWAP2 SWAP1 DUP3 ADD DUP1 SWAP3 GT PUSH2 0x6EC JUMPI JUMP JUMPDEST PUSH2 0x6C9 JUMP JUMPDEST CALLDATALOAD PUSH2 0x6FB DUP2 PUSH2 0x102 JUMP JUMPDEST SWAP1 JUMP JUMPDEST SWAP1 DUP1 SWAP3 SWAP2 DUP3 CALLDATACOPY ADD PUSH1 0x0 DUP2 MSTORE SWAP1 JUMP JUMPDEST PUSH4 0x4E487B71 PUSH1 0xE0 SHL PUSH1 0x0 MSTORE PUSH1 0x41 PUSH1 0x4 MSTORE PUSH1 0x24 PUSH1 0x0 REVERT JUMPDEST PUSH1 0x40 DUP2 ADD SWAP1 DUP2 LT PUSH8 0xFFFFFFFFFFFFFFFF DUP3 GT OR PUSH2 0x73E JUMPI PUSH1 0x40 MSTORE JUMP JUMPDEST PUSH2 0x70C JUMP JUMPDEST SWAP1 PUSH1 0x1F DUP1 NOT SWAP2 ADD AND DUP2 ADD SWAP1 DUP2 LT PUSH8 0xFFFFFFFFFFFFFFFF DUP3 GT OR PUSH2 0x73E JUMPI PUSH1 0x40 MSTORE JUMP JUMPDEST RETURNDATASIZE ISZERO PUSH2 0x7A0 JUMPI RETURNDATASIZE SWAP1 PUSH8 0xFFFFFFFFFFFFFFFF DUP3 GT PUSH2 0x73E JUMPI PUSH1 0x40 MLOAD SWAP2 PUSH2 0x794 PUSH1 0x1F DUP3 ADD PUSH1 0x1F NOT AND PUSH1 0x20 ADD DUP5 PUSH2 0x743 JUMP JUMPDEST DUP3 MSTORE RETURNDATASIZE PUSH1 0x0 PUSH1 0x20 DUP5 ADD RETURNDATACOPY JUMP JUMPDEST PUSH1 0x60 SWAP1 JUMP JUMPDEST SWAP2 SWAP1 DUP3 SUB SWAP2 DUP3 GT PUSH2 0x6EC JUMPI JUMP JUMPDEST PUSH1 0x80 SWAP1 PUSH2 0x6FB SWAP3 PUSH1 0x0 DUP3 MSTORE PUSH1 0x20 DUP3 ADD MSTORE PUSH1 0x0 PUSH1 0x40 DUP3 ADD MSTORE DUP2 PUSH1 0x60 DUP3 ADD MSTORE ADD PUSH1 0x40 SWAP1 PUSH1 0x4 DUP2 MSTORE PUSH4 0x6C696669 PUSH1 0xE0 SHL PUSH1 0x20 DUP3 ADD MSTORE ADD SWAP1 JUMP JUMPDEST PUSH1 0x2 PUSH1 0x0 SLOAD EQ PUSH2 0x7F9 JUMPI PUSH1 0x2 PUSH1 0x0 SSTORE JUMP JUMPDEST PUSH1 0x40 MLOAD PUSH3 0x461BCD PUSH1 0xE5 SHL DUP2 MSTORE PUSH1 0x20 PUSH1 0x4 DUP3 ADD MSTORE PUSH1 0x1F PUSH1 0x24 DUP3 ADD MSTORE PUSH32 0x5265656E7472616E637947756172643A207265656E7472616E742063616C6C00 PUSH1 0x44 DUP3 ADD MSTORE PUSH1 0x64 SWAP1 REVERT JUMPDEST PUSH2 0x6FB SWAP3 PUSH1 0x80 SWAP3 DUP3 MSTORE PUSH1 0x20 DUP3 ADD MSTORE PUSH1 0x0 PUSH1 0x40 DUP3 ADD MSTORE DUP2 PUSH1 0x60 DUP3 ADD MSTORE ADD PUSH1 0x40 SWAP1 PUSH1 0x4 DUP2 MSTORE PUSH4 0x6C696669 PUSH1 0xE0 SHL PUSH1 0x20 DUP3 ADD MSTORE ADD SWAP1 JUMP JUMPDEST PUSH1 0x40 MLOAD PUSH4 0x23B872DD PUSH1 0xE0 SHL PUSH1 0x20 DUP3 ADD MSTORE PUSH1 0x1 PUSH1 0x1 PUSH1 0xA0 SHL SUB SWAP3 DUP4 AND PUSH1 0x24 DUP3 ADD MSTORE SWAP3 SWAP1 SWAP2 AND PUSH1 0x44 DUP4 ADD MSTORE PUSH1 0x64 DUP1 DUP4 ADD SWAP4 SWAP1 SWAP4 MSTORE SWAP2 DUP2 MSTORE PUSH1 0xA0 DUP2 ADD SWAP2 DUP2 DUP4 LT PUSH8 0xFFFFFFFFFFFFFFFF DUP5 GT OR PUSH2 0x73E JUMPI PUSH2 0x8CB SWAP3 PUSH1 0x40 MSTORE PUSH2 0xA5E JUMP JUMPDEST JUMP JUMPDEST SWAP1 DUP2 PUSH1 0x20 SWAP2 SUB SLT PUSH2 0xFD JUMPI MLOAD SWAP1 JUMP JUMPDEST PUSH1 0x40 MLOAD RETURNDATASIZE PUSH1 0x0 DUP3 RETURNDATACOPY RETURNDATASIZE SWAP1 REVERT JUMPDEST ISZERO PUSH2 0x8EF JUMPI JUMP JUMPDEST PUSH1 0x40 MLOAD PUSH3 0x461BCD PUSH1 0xE5 SHL DUP2 MSTORE PUSH1 0x20 PUSH1 0x4 DUP3 ADD MSTORE PUSH1 0x36 PUSH1 0x24 DUP3 ADD MSTORE PUSH32 0x5361666545524332303A20617070726F76652066726F6D206E6F6E2D7A65726F PUSH1 0x44 DUP3 ADD MSTORE PUSH22 0x20746F206E6F6E2D7A65726F20616C6C6F77616E6365 PUSH1 0x50 SHL PUSH1 0x64 DUP3 ADD MSTORE PUSH1 0x84 SWAP1 REVERT JUMPDEST DUP2 ISZERO DUP1 ISZERO PUSH2 0x9BF JUMPI JUMPDEST SWAP1 PUSH2 0x9BA PUSH2 0x8CB SWAP4 PUSH2 0x970 PUSH2 0x9AC SWAP5 PUSH2 0x8E8 JUMP JUMPDEST PUSH1 0x40 MLOAD PUSH4 0x95EA7B3 PUSH1 0xE0 SHL PUSH1 0x20 DUP3 ADD MSTORE PUSH20 0x1231DEB6F5749EF6CE6943A275A1D3E7486F4EAE PUSH1 0x24 DUP3 ADD MSTORE PUSH1 0x44 DUP2 ADD SWAP2 SWAP1 SWAP2 MSTORE SWAP3 DUP4 SWAP1 PUSH1 0x64 DUP3 ADD SWAP1 JUMP JUMPDEST SUB PUSH1 0x1F NOT DUP2 ADD DUP5 MSTORE DUP4 PUSH2 0x743 JUMP JUMPDEST PUSH2 0xA5E JUMP JUMPDEST POP PUSH1 0x40 MLOAD PUSH4 0x6EB1769F PUSH1 0xE1 SHL DUP2 MSTORE ADDRESS PUSH1 0x4 DUP3 ADD MSTORE PUSH20 0x1231DEB6F5749EF6CE6943A275A1D3E7486F4EAE PUSH1 0x24 DUP3 ADD MSTORE SWAP1 PUSH1 0x20 DUP3 PUSH1 0x44 DUP2 PUSH1 0x1 PUSH1 0x1 PUSH1 0xA0 SHL SUB DUP6 AND GAS STATICCALL DUP1 ISZERO PUSH2 0xA59 JUMPI PUSH2 0x8CB SWAP4 PUSH2 0x970 PUSH2 0x9BA SWAP3 PUSH2 0x9AC SWAP6 PUSH1 0x0 SWAP2 PUSH2 0xA2B JUMPI JUMPDEST POP ISZERO SWAP4 SWAP5 POP POP SWAP4 POP POP PUSH2 0x95C JUMP JUMPDEST PUSH2 0xA4C SWAP2 POP PUSH1 0x20 RETURNDATASIZE DUP2 GT PUSH2 0xA52 JUMPI JUMPDEST PUSH2 0xA44 DUP2 DUP4 PUSH2 0x743 JUMP JUMPDEST DUP2 ADD SWAP1 PUSH2 0x8CD JUMP JUMPDEST CODESIZE PUSH2 0xA1D JUMP JUMPDEST POP RETURNDATASIZE PUSH2 0xA3A JUMP JUMPDEST PUSH2 0x8DC JUMP JUMPDEST PUSH1 0x1 DUP1 PUSH1 0xA0 SHL SUB AND SWAP1 PUSH2 0xABD PUSH1 0x40 MLOAD PUSH2 0xA76 DUP2 PUSH2 0x722 JUMP JUMPDEST PUSH1 0x20 SWAP4 DUP5 DUP3 MSTORE PUSH32 0x5361666545524332303A206C6F772D6C6576656C2063616C6C206661696C6564 DUP6 DUP4 ADD MSTORE PUSH1 0x0 DUP1 DUP6 DUP8 DUP3 SWAP8 MLOAD SWAP2 ADD DUP3 DUP6 GAS CALL PUSH2 0xAB7 PUSH2 0x765 JUMP JUMPDEST SWAP2 PUSH2 0xBA3 JUMP JUMPDEST DUP1 MLOAD SWAP2 DUP3 ISZERO SWAP2 DUP5 DUP4 ISZERO PUSH2 0xB2F JUMPI JUMPDEST POP POP POP SWAP1 POP ISZERO PUSH2 0xAD8 JUMPI POP JUMP JUMPDEST PUSH1 0x84 SWAP1 PUSH1 0x40 MLOAD SWAP1 PUSH3 0x461BCD PUSH1 0xE5 SHL DUP3 MSTORE PUSH1 0x4 DUP3 ADD MSTORE PUSH1 0x2A PUSH1 0x24 DUP3 ADD MSTORE PUSH32 0x5361666545524332303A204552433230206F7065726174696F6E20646964206E PUSH1 0x44 DUP3 ADD MSTORE PUSH10 0x1BDD081CDD58D8D95959 PUSH1 0xB2 SHL PUSH1 0x64 DUP3 ADD MSTORE REVERT JUMPDEST SWAP2 SWAP4 DUP2 DUP1 SWAP5 POP ADD SUB SLT PUSH2 0xB53 JUMPI DUP3 ADD MLOAD SWAP1 DUP2 ISZERO ISZERO DUP3 SUB PUSH2 0xCC JUMPI POP DUP1 CODESIZE DUP1 DUP5 PUSH2 0xACB JUMP JUMPDEST POP DUP1 REVERT JUMPDEST ISZERO PUSH2 0xB5E JUMPI JUMP JUMPDEST PUSH1 0x40 MLOAD PUSH3 0x461BCD PUSH1 0xE5 SHL DUP2 MSTORE PUSH1 0x20 PUSH1 0x4 DUP3 ADD MSTORE PUSH1 0x1D PUSH1 0x24 DUP3 ADD MSTORE PUSH32 0x416464726573733A2063616C6C20746F206E6F6E2D636F6E7472616374000000 PUSH1 0x44 DUP3 ADD MSTORE PUSH1 0x64 SWAP1 REVERT JUMPDEST SWAP2 SWAP3 SWAP1 ISZERO PUSH2 0xBC3 JUMPI POP DUP2 MLOAD ISZERO PUSH2 0xBB7 JUMPI POP SWAP1 JUMP JUMPDEST PUSH2 0x6FB SWAP1 EXTCODESIZE ISZERO ISZERO PUSH2 0xB57 JUMP JUMPDEST DUP3 MLOAD SWAP1 SWAP2 POP ISZERO PUSH2 0xBD6 JUMPI POP DUP1 MLOAD SWAP1 PUSH1 0x20 ADD REVERT JUMPDEST PUSH1 0x40 MLOAD SWAP1 PUSH3 0x461BCD PUSH1 0xE5 SHL DUP3 MSTORE DUP2 PUSH1 0x20 DUP1 PUSH1 0x4 DUP4 ADD MSTORE DUP3 MLOAD SWAP1 DUP2 PUSH1 0x24 DUP5 ADD MSTORE PUSH1 0x0 SWAP4 JUMPDEST DUP3 DUP6 LT PUSH2 0xC1C JUMPI POP POP PUSH1 0x44 SWAP3 POP PUSH1 0x0 DUP4 DUP3 DUP5 ADD ADD MSTORE PUSH1 0x1F DUP1 NOT SWAP2 ADD AND DUP2 ADD SUB ADD SWAP1 REVERT JUMPDEST DUP5 DUP2 ADD DUP3 ADD MLOAD DUP7 DUP7 ADD PUSH1 0x44 ADD MSTORE SWAP4 DUP2 ADD SWAP4 DUP6 SWAP4 POP PUSH2 0xBF9 JUMP JUMPDEST CALLDATALOAD PUSH1 0xFF DUP2 AND DUP2 SUB PUSH2 0xFD JUMPI SWAP1 JUMP JUMPDEST PUSH1 0x1 PUSH1 0x1 PUSH1 0xA0 SHL SUB PUSH2 0xC54 DUP3 PUSH2 0x6F1 JUMP JUMPDEST AND ISZERO PUSH2 0xD01 JUMPI PUSH1 0x0 DUP2 PUSH2 0xC67 DUP3 SWAP4 PUSH2 0x6F1 JUMP JUMPDEST SWAP1 DUP3 PUSH2 0xCD6 PUSH2 0xCE4 PUSH2 0xC7B PUSH1 0x60 DUP6 ADD PUSH2 0xC35 JUMP JUMPDEST PUSH1 0x40 DUP1 MLOAD PUSH4 0xD505ACCF PUSH1 0xE0 SHL PUSH1 0x20 DUP1 DUP4 ADD SWAP2 DUP3 MSTORE CALLER PUSH1 0x24 DUP5 ADD MSTORE ADDRESS PUSH1 0x44 DUP5 ADD MSTORE DUP9 ADD CALLDATALOAD PUSH1 0x64 DUP4 ADD MSTORE SWAP2 DUP8 ADD CALLDATALOAD PUSH1 0x84 DUP3 ADD MSTORE PUSH1 0xFF SWAP1 SWAP3 AND PUSH1 0xA4 DUP4 ADD MSTORE PUSH1 0x80 DUP7 ADD CALLDATALOAD PUSH1 0xC4 DUP4 ADD MSTORE PUSH1 0xA0 SWAP1 SWAP6 ADD CALLDATALOAD PUSH1 0xE4 DUP3 ADD MSTORE SWAP2 DUP3 SWAP1 PUSH2 0x104 DUP3 ADD SWAP1 JUMP JUMPDEST SUB PUSH1 0x1F NOT DUP2 ADD DUP4 MSTORE DUP3 PUSH2 0x743 JUMP JUMPDEST MLOAD SWAP3 GAS CALL PUSH2 0xCF0 PUSH2 0x765 JUMP JUMPDEST SWAP1 ISZERO PUSH2 0xCF9 JUMPI POP JUMP JUMPDEST DUP1 MLOAD SWAP1 PUSH1 0x20 ADD REVERT JUMPDEST POP JUMP INVALID LOG2 PUSH5 0x6970667358 0x22 SLT KECCAK256 DUP12 SWAP4 DUP12 PUSH6 0xC5D1C64F5A34 0x29 ISZERO PUSH8 0xC642B1035DCF4B6E LOG1 DELEGATECALL 0x2E SDIV DUP4 0x2A PUSH17 0xDC928C1A64736F6C634300081300330000 "},"methodIdentifiers":{"GAS_FEE_TAX_RATE_BPS()":"596bfce8","LIFI_CONTRACT()":"108e3c99","owner()":"8da5cb5b","renounceOwnership()":"715018a6","revenueWallet()":"44478425","swapTokenViaLiFiWithPermit(address,uint256,bytes,address,uint256,uint256,(address,uint256,uint256,uint8,bytes32,bytes32))":"e3fff0d1","swapViaLiFiWithPermit(bytes,address,uint256,uint256,(address,uint256,uint256,uint8,bytes32,bytes32))":"252af127","transferOwnership(address)":"f2fde38b"}}}}}