{"contracts/SplenexDEXAggregatorConfig.sol":{"SplenexDEXAggregatorConfig":{"abi":[{"inputs":[],"stateMutability":"nonpayable","type":"constructor"},{"inputs":[],"name":"APE_SWAP","outputs":[{"internalType":"string","name":"","type":"string"}],"stateMutability":"view","type":"function"},{"inputs":[],"name":"ARBITRUM_MAINNET","outputs":[{"internalType":"uint256","name":"","type":"uint256"}],"stateMutability":"view","type":"function"},{"inputs":[],"name":"AVALANCHE_MAINNET","outputs":[{"internalType":"uint256","name":"","type":"uint256"}],"stateMutability":"view","type":"function"},{"inputs":[],"name":"BASE_MAINNET","outputs":[{"internalType":"uint256","name":"","type":"uint256"}],"stateMutability":"view","type":"function"},{"inputs":[],"name":"BISWAP","outputs":[{"internalType":"string","name":"","type":"string"}],"stateMutability":"view","type":"function"},{"inputs":[],"name":"BSC_MAINNET","outputs":[{"internalType":"uint256","name":"","type":"uint256"}],"stateMutability":"view","type":"function"},{"inputs":[],"name":"ETHEREUM_MAINNET","outputs":[{"internalType":"uint256","name":"","type":"uint256"}],"stateMutability":"view","type":"function"},{"inputs":[],"name":"FANTOM_MAINNET","outputs":[{"internalType":"uint256","name":"","type":"uint256"}],"stateMutability":"view","type":"function"},{"inputs":[],"name":"LIFI","outputs":[{"internalType":"string","name":"","type":"string"}],"stateMutability":"view","type":"function"},{"inputs":[],"name":"MDEX","outputs":[{"internalType":"string","name":"","type":"string"}],"stateMutability":"view","type":"function"},{"inputs":[],"name":"ONE_INCH","outputs":[{"internalType":"string","name":"","type":"string"}],"stateMutability":"view","type":"function"},{"inputs":[],"name":"OPTIMISM_MAINNET","outputs":[{"internalType":"uint256","name":"","type":"uint256"}],"stateMutability":"view","type":"function"},{"inputs":[],"name":"PANCAKE_SWAP_V2","outputs":[{"internalType":"string","name":"","type":"string"}],"stateMutability":"view","type":"function"},{"inputs":[],"name":"POLYGON_MAINNET","outputs":[{"internalType":"uint256","name":"","type":"uint256"}],"stateMutability":"view","type":"function"},{"inputs":[],"name":"QUICKSWAP","outputs":[{"internalType":"string","name":"","type":"string"}],"stateMutability":"view","type":"function"},{"inputs":[],"name":"SPIRIT_SWAP","outputs":[{"internalType":"string","name":"","type":"string"}],"stateMutability":"view","type":"function"},{"inputs":[],"name":"SPOOKY_SWAP","outputs":[{"internalType":"string","name":"","type":"string"}],"stateMutability":"view","type":"function"},{"inputs":[],"name":"SUSHISWAP","outputs":[{"internalType":"string","name":"","type":"string"}],"stateMutability":"view","type":"function"},{"inputs":[],"name":"TRADER_JOE","outputs":[{"internalType":"string","name":"","type":"string"}],"stateMutability":"view","type":"function"},{"inputs":[],"name":"UNISWAP_V2","outputs":[{"internalType":"string","name":"","type":"string"}],"stateMutability":"view","type":"function"},{"inputs":[],"name":"UNISWAP_V3","outputs":[{"internalType":"string","name":"","type":"string"}],"stateMutability":"view","type":"function"},{"inputs":[],"name":"ZERO_X","outputs":[{"internalType":"string","name":"","type":"string"}],"stateMutability":"view","type":"function"},{"inputs":[{"internalType":"uint256","name":"chainId","type":"uint256"}],"name":"getChainName","outputs":[{"internalType":"string","name":"","type":"string"}],"stateMutability":"pure","type":"function"},{"inputs":[{"internalType":"uint256","name":"chainId","type":"uint256"},{"internalType":"string","name":"dexName","type":"string"}],"name":"getRouterAddress","outputs":[{"internalType":"address","name":"","type":"address"}],"stateMutability":"view","type":"function"},{"inputs":[{"internalType":"uint256","name":"chainId","type":"uint256"}],"name":"getSupportedDEXes","outputs":[{"internalType":"string[]","name":"","type":"string[]"}],"stateMutability":"view","type":"function"},{"inputs":[{"internalType":"uint256","name":"chainId","type":"uint256"},{"internalType":"string","name":"dexName","type":"string"}],"name":"isDEXSupported","outputs":[{"internalType":"bool","name":"","type":"bool"}],"stateMutability":"view","type":"function"},{"inputs":[{"internalType":"uint256","name":"","type":"uint256"},{"internalType":"string","name":"","type":"string"}],"name":"routerAddresses","outputs":[{"internalType":"address","name":"","type":"address"}],"stateMutability":"view","type":"function"}],"evm":{"bytecode":{"linkReferences":{},"object":"6040608081523462000c0057600090600182526020828152818320926200002562000c05565b938264062d2dcc6d60db1b9586828201528551928184925190865b82811062000bea5750508201908152030190208054731111111254eeb25477b68fb85ed929f73a9605826001600160a01b031991821681179092556001835282845284832085516001600160401b0397929593918188018281108a82111762000bd6578852600280835261060f60f31b8684015288519286885b83811062000bc357505050820152602290208054861673def1c0ded9bec7f1a1670819833240f027b25eff1790556001845283835285842083620000fd62000c3f565b683ab734b9bbb0b82b1960b91b828201528851928184925190895b82811062000bad575050820190815203019020737a250d5630b4cf539739df2c5dacb4c659f2488d8682541617905560018452838352858420966200015c62000c3f565b978468756e6973776170563360b81b998a8282015289519281849251908a5b82811062000b975750508201908152030190209073e592427a0aece92de3edee1f18e0157c058615649182888254161790556001865285855287862090620001c262000c3f565b91866807375736869737761760bc1b9384828201528b519281849251908c5b82811062000b8157505082019081520301902073d9e1ce17f2641f24ae83637ab66a2cca9c378b9f8982541617905560388752868652888720866200022562000c05565b87828201528b519281849251908c5b82811062000b6b5750508201908152030190208489825416179055603887528686528887208951908a82018281108482111762000b31578b52600d8083526c3830b731b0b5b2a9bbb0b82b1960991b898401528b5192898b5b83811062000b5857505050820152602d9020805489167310ed43c718714eb63d5aa57b78b54704e256024e17905560388752868652888720895190818b018381118382101762000b31578b5260068083526506269737761760d41b898401528b5192898b5b83811062000b45575050508201526026902080548916733a6d8ca21d1cf76f653a67577fa0d27453350dd817905560388752868652888720895190818b018381118382101762000b31578b526007808352660617065737761760cc1b898401528b5192898b5b83811062000b1e57505050820152602790208054891673cf0febd3f17cef5b47b0cd257acf6025c5bff3b717905560388752868652888720895191828b019081118382101762000b0a578a526004808352630dac8caf60e31b888401528a5192888a5b83811062000af7575050508201526024902080548816737dae51bd3e3376b8c7c4900e9107f12be3af1ba81790556089865285855287862085620003fe62000c05565b86828201528a519281849251908b5b82811062000ae1575050820190815203019020838882541617905560898652858552878620856200043d62000c3f565b680717569636b737761760bc1b828201528a519281849251908b5b82811062000acb57505082019081520301902073a5e0829caced8ffdd4de3c43696c57f7d7a678ff8882541617905560898652858552878620856200049c62000c3f565b83828201528a519281849251908b5b82811062000ab557505082019081520301902090731b02da8cb0d097eb8d57a175b88c7d8b480975439182898254161790556089875286865288872086620004f262000c3f565b8c828201528b519281849251908c5b82811062000a9f575050820190815203019020838982541617905561a86a808852878752898820876200053362000c05565b88828201528c519281849251908d5b82811062000a89575050820190815203019020858a825416179055808852878752898820876200057162000c3f565b687472616465726a6f6560b81b828201528c519281849251908d5b82811062000a735750508201908152030190207360ae616a2155ee3d9a6854ba25216c3f1f9994b88a825416179055808852878752898888828220620005d162000c63565b90690737069726974737761760b41b948584840152519382859351915b82811062000a5d575050820190815203019020917316327e3fbdaca3bcf7e38f5af2599d2ddc33ae5292838c825416179055895288885288888c8083206200063562000c3f565b918784840152519382859351915b82811062000a47575050820190815203019020848b82541617905560fa895288885288888c8083206200067562000c05565b918b84840152519382859351915b82811062000a31575050820190815203019020868b82541617905560fa895288885288888c808320620006b562000c63565b9169073706f6f6b79737761760b41b84840152519382859351915b82811062000a1b57505082019081520301902073f491e7b69e4244ad4002bc14e878a34207e38c298b82541617905560fa8952888852878b8a20916200071562000c63565b90828201528c519281849251908d5b82811062000a05575050820190815203019020908982541617905560fa8752868652888720866200075462000c3f565b83828201528b519281849251908c5b828110620009ef575050820190815203019020828982541617905561a4b1808852878752898820876200079562000c05565b88828201528c519281849251908d5b828110620009d9575050820190815203019020858a82541617905580885287875289882087620007d362000c3f565b8d828201528c519281849251908d5b828110620009c3575050820190815203019020848a825416179055875286865285898820916200081162000c3f565b90828201528a519281849251908b5b828110620009ad5750508201908152030190209087825416179055600a8552848452868520846200085062000c05565b858282015289519281849251908a5b828110620009975750508201908152030190208287825416179055600a8552848452868520846200088f62000c3f565b8a8282015289519281849251908a5b828110620009815750508201908152030190209086825416179055612105918285528484528387862091620008d262000c05565b90828201528851928184925190895b8281106200096b575050820190815203019020908582541617905582528181528382206200090e62000c3f565b95828701528451928651905b81811062000959575083019081528290030190208054909116732626664c2603336e57b271c5c0b26f421741e4811790555161121f908162000c888239f35b8781018401518582015283016200091a565b81810186015187820152899587955001620008e1565b818101860151878201528a95879550016200089e565b818101860151878201528a95879550016200085f565b818101860151878201528b958795500162000820565b818101860151878201528d9587955001620007e2565b818101860151878201528d9587955001620007a4565b818101860151878201528c958795500162000763565b818101860151878201528d958795500162000724565b818101860151878201528e9587955001620006d0565b818101860151878201528e958795500162000683565b818101860151878201528e958795500162000643565b818101860151878201528e9587955001620005ee565b818101860151878201528d95879550016200058c565b818101860151878201528d958795500162000542565b818101860151878201528c958795500162000501565b818101860151878201528b9587955001620004ab565b818101860151878201528b958795500162000458565b818101860151878201528b95879550016200040d565b81818401015181870152018990620003bb565b634e487b7160e01b89526041600452602489fd5b81818401015181870152018a9062000358565b634e487b7160e01b8a52604160045260248afd5b81818401015181870152018a90620002f2565b81818401015181870152018a906200028d565b818101860151878201528c958795500162000234565b818101860151878201528c9587955001620001e1565b818101860151878201528a95879550016200017b565b8181018601518782015289958795500162000118565b81818401015181870152018790620000ba565b634e487b7160e01b87526041600452602487fd5b8181018601518782015288958795500162000040565b600080fd5b60408051919082016001600160401b0381118382101762000c295760405260058252565b634e487b7160e01b600052604160045260246000fd5b60408051919082016001600160401b0381118382101762000c295760405260098252565b60408051919082016001600160401b0381118382101762000c2957604052600a825256fe6040608081526004908136101561001557600080fd5b600091823560e01c9081630a2da3c314610e015781632098ccb914610de55781632b9de49b14610da05781633a902dd614610d585781633aee8e3314610d11578163445f0e9114610cfd5781634845506314610cbb57816349cdf47214610c78578163540b43ac14610c2757816363b0c90714610c0a57816366111df814610bc85781636bed48f014610bab57816370428c3e14610b8f578163793cda1214610b485781638a3c357714610b015781638c973ff214610ae55781638d1c453314610ac8578163923e10d914610aac5781639466a0c914610353578163975b95ba146103375781639c708aab146102f0578163a6b0590e146102a8578163af009a671461025d578163bbce148c1461022657508063bed3e5b9146101e0578063f696da4b146101925763f93790a91461014c57600080fd5b3461018e578160031936011261018e5761018a90610168610e45565b906002825261060f60f31b602083015251918291602083526020830190610f36565b0390f35b5080fd5b503461018e57602091816101a536610f5b565b929081528085522090836101c184519283815193849201610f13565b810191825290819003830190205490516001600160a01b039091168152f35b503461018e578160031936011261018e5761018a906101fd610e45565b906009825268756e6973776170563360b81b602083015251918291602083526020830190610f36565b82843461025a57602036600319011261025a575061024761018a9235611046565b9051918291602083526020830190610f36565b80fd5b50503461018e578160031936011261018e5761018a9061027b610e45565b90600d82526c3830b731b0b5b2a9bbb0b82b1960991b602083015251918291602083526020830190610f36565b50503461018e578160031936011261018e5761018a906102c6610e45565b90600a8252690737069726974737761760b41b602083015251918291602083526020830190610f36565b50503461018e578160031936011261018e5761018a9061030e610e45565b90600982526807375736869737761760bc1b602083015251918291602083526020830190610f36565b50503461018e578160031936011261018e5760209051600a8152f35b8391503461018e5760209283600319360112610aa8578135938151926101e0840184811067ffffffffffffffff821117610a95578352600e845281855b6101c08110610a855750506024908590878752868452848720846103b2610e45565b83815201636c69666960e01b918282526103ce88518093610ea1565b8184015293909320546001600160a01b0393908416610a55575b5087879888528785528588206103fc610e45565b908560059b8c9283855264062d2dcc6d60db1b94858b8201528a8c5193955b8610610a3d57505060259293508d820152205416610a16575b50808852878552858820610446610e45565b906002918281528661060f60f31b92838a8401528a51908d935b8b878610610a005750506022929350858201522054166109e9575b505080885287855285882061048e610e45565b90600d91828152866c3830b731b0b5b2a9bbb0b82b1960991b92838a8401528a51908d935b8b8786106109d3575050602d929350858201522054166109bc575b50508088528785528588206104e1610e45565b908560298860099485815201683ab734b9bbb0b82b1960b91b9384825261050a8c518093610ec7565b858201522054166109a7575b508189528886528689208560298861052c610e45565b8581520168756e6973776170563360b81b9384825261054d8c518093610ec7565b85820152205416610992575b508189528886528689208560298861056f610e45565b858152016807375736869737761760bc1b938482526105908c518093610ec7565b8582015220541661097d575b50818952888652868920856029886105b2610e45565b85815201680717569636b737761760bc1b938482526105d38c518093610ec7565b85820152205416610968575b50818952888652868920856029886105f5610e45565b85815201687472616465726a6f6560b81b938482526106168c518093610ec7565b85820152205416610951575b5050808852878552858820610635610e45565b9085602a88600a9485815201690737069726974737761760b41b9384825261065f8c518093610eed565b8582015220541661091f575b5081895288865286892085602a88610681610e45565b8581520169073706f6f6b79737761760b41b938482526106a38c518093610eed565b85820152205416610908575b50508088528785528588206106c2610e45565b9060079182815286660617065737761760cc1b92838a8401528a51908d935b8b8786106108f25750506027929350858201522054166108db575b505080885287855285882061070f610e45565b90600691828152866506269737761760d41b92838a8401528a51908d935b8b8786106108c5575050602692935085820152205416610892575b505087528684528487209260248561075e610e45565b84815201630dac8caf60e31b9586825261077a89518093610ea1565b84820152205416610863575b50905061079e6107998296949396610fd2565b610e7b565b81815293601f196107ae83610fd2565b01845b818110610854575050835b82811061081d575050508051938080860192818752855180945283818801981b870101940192955b8287106107f15785850386f35b90919293828061080d600193603f198a82030186528851610f36565b96019201960195929190926107e4565b8061082f61084b92849996979961100d565b5161083a828961100d565b52610845818861100d565b50611021565b959392956107bc565b606087820189015287016107b1565b61088b9261086f610e45565b91825284820152610880828761100d565b52610845818661100d565b8087610786565b906108bd9294916108a1610e45565b918252878201526108b2828a61100d565b52610845818961100d565b918980610748565b85820181015184870152909401938a935061072d565b906108ea9294916108a1610e45565b9189806106fc565b85820181015184870152909401938a93506106e1565b906109179294916108a1610e45565b9189806106af565b9361094a919461092d610e45565b908682528882015261093f828b61100d565b52610845818a61100d565b928a61066b565b906109609294916108a1610e45565b918980610622565b93610976919461092d610e45565b928a6105df565b9361098b919461092d610e45565b928a61059c565b936109a0919461092d610e45565b928a610559565b936109b5919461092d610e45565b928a610516565b906109cb9294916108a1610e45565b9189806104ce565b85820181015184870152909401938a93506104b3565b906109f89294916108a1610e45565b91898061047b565b85820181015184870152909401938a9350610460565b92610a369193610a24610e45565b908b8252878201526108b2828a61100d565b9189610434565b85820181015184870152909401938993508a8f61041b565b909150610a60610e45565b9082825284820152610a7186610fea565b52610a7b85610fea565b50600190886103e8565b6060828288010152018290610390565b634e487b7160e01b865260418252602486fd5b8280fd5b50503461018e578160031936011261018e576020905160898152f35b50503461018e578160031936011261018e576020905161a4b18152f35b50503461018e578160031936011261018e576020905160018152f35b50503461018e578160031936011261018e5761018a90610b1f610e45565b9060098252683ab734b9bbb0b82b1960b91b602083015251918291602083526020830190610f36565b50503461018e578160031936011261018e5761018a90610b66610e45565b9060098252687472616465726a6f6560b81b602083015251918291602083526020830190610f36565b50503461018e578160031936011261018e576020905160388152f35b50503461018e578160031936011261018e576020905161a86a8152f35b91905034610aa85782600319360112610aa85761018a9250610be8610e45565b918252636c69666960e01b602083015251918291602083526020830190610f36565b50503461018e578160031936011261018e57602090516121058152f35b50503461018e5760209181610c3b36610f5b565b92908152808552209083610c5784519283815193849201610f13565b810191825290819003830190205490516001600160a01b0390911615158152f35b50503461018e578160031936011261018e5761018a90610c96610e45565b906005825264062d2dcc6d60db1b602083015251918291602083526020830190610f36565b91905034610aa85782600319360112610aa85761018a9250610cdb610e45565b918252630dac8caf60e31b602083015251918291602083526020830190610f36565b50503461018e57602091816101a536610f5b565b50503461018e578160031936011261018e5761018a90610d2f610e45565b9060098252680717569636b737761760bc1b602083015251918291602083526020830190610f36565b50503461018e578160031936011261018e5761018a90610d76610e45565b90600a825269073706f6f6b79737761760b41b602083015251918291602083526020830190610f36565b50503461018e578160031936011261018e5761018a90610dbe610e45565b9060078252660617065737761760cc1b602083015251918291602083526020830190610f36565b50503461018e578160031936011261018e576020905160fa8152f35b50503461018e578160031936011261018e5761018a90610e1f610e45565b90600682526506269737761760d41b602083015251918291602083526020830190610f36565b604051906040820182811067ffffffffffffffff821117610e6557604052565b634e487b7160e01b600052604160045260246000fd5b6040519190601f01601f1916820167ffffffffffffffff811183821017610e6557604052565b60005b60048110610eb757505060046000910152565b8181015183820152602001610ea4565b60005b60098110610edd57505060096000910152565b8181015183820152602001610eca565b60005b600a8110610f03575050600a6000910152565b8181015183820152602001610ef0565b60005b838110610f265750506000910152565b8181015183820152602001610f16565b90602091610f4f81518092818552858086019101610f13565b601f01601f1916010190565b906040600319830112610fcd576004359167ffffffffffffffff602435818111610fcd5782602382011215610fcd578060040135918211610e6557610fa9601f8301601f1916602001610e7b565b9282845260248383010111610fcd5781600092602460209301838601378301015290565b600080fd5b67ffffffffffffffff8111610e655760051b60200190565b805115610ff75760200190565b634e487b7160e01b600052603260045260246000fd5b8051821015610ff75760209160051b010190565b60001981146110305760010190565b634e487b7160e01b600052601160045260246000fd5b600181146111c0576038811461119c57608981146111745761a86a811461114a5760fa81146111235761a4b181146110fa57600a81146110d157612105146110ad57611090610e45565b600d81526c2ab735b737bbb71021b430b4b760991b602082015290565b6110b5610e45565b600c81526b10985cd94813585a5b9b995d60a21b602082015290565b506110da610e45565b601081526f13dc1d1a5b5a5cdb4813585a5b9b995d60821b602082015290565b50611103610e45565b601081526f105c989a5d1c9d5b4813585a5b9b995d60821b602082015290565b5061112c610e45565b600e81526d11985b9d1bdb4813585a5b9b995d60921b602082015290565b50611153610e45565b6011815270105d985b185b98da194813585a5b9b995d607a1b602082015290565b5061117d610e45565b600f81526e141bdb1e59dbdb8813585a5b9b995d608a1b602082015290565b506111a5610e45565b600b81526a1094d0c813585a5b9b995d60aa1b602082015290565b506111c9610e45565b601081526f115d1a195c995d5b4813585a5b9b995d60821b60208201529056fea2646970667358221220a36f4944e8c97ab8e72375a85b05d192d5ab55a71290268daf8c63788115231b64736f6c63430008130033","opcodes":"PUSH1 0x40 PUSH1 0x80 DUP2 MSTORE CALLVALUE PUSH3 0xC00 JUMPI PUSH1 0x0 SWAP1 PUSH1 0x1 DUP3 MSTORE PUSH1 0x20 DUP3 DUP2 MSTORE DUP2 DUP4 KECCAK256 SWAP3 PUSH3 0x25 PUSH3 0xC05 JUMP JUMPDEST SWAP4 DUP3 PUSH5 0x62D2DCC6D PUSH1 0xDB SHL SWAP6 DUP7 DUP3 DUP3 ADD MSTORE DUP6 MLOAD SWAP3 DUP2 DUP5 SWAP3 MLOAD SWAP1 DUP7 JUMPDEST DUP3 DUP2 LT PUSH3 0xBEA JUMPI POP POP DUP3 ADD SWAP1 DUP2 MSTORE SUB ADD SWAP1 KECCAK256 DUP1 SLOAD PUSH20 0x1111111254EEB25477B68FB85ED929F73A960582 PUSH1 0x1 PUSH1 0x1 PUSH1 0xA0 SHL SUB NOT SWAP2 DUP3 AND DUP2 OR SWAP1 SWAP3 SSTORE PUSH1 0x1 DUP4 MSTORE DUP3 DUP5 MSTORE DUP5 DUP4 KECCAK256 DUP6 MLOAD PUSH1 0x1 PUSH1 0x1 PUSH1 0x40 SHL SUB SWAP8 SWAP3 SWAP6 SWAP4 SWAP2 DUP2 DUP9 ADD DUP3 DUP2 LT DUP11 DUP3 GT OR PUSH3 0xBD6 JUMPI DUP9 MSTORE PUSH1 0x2 DUP1 DUP4 MSTORE PUSH2 0x60F PUSH1 0xF3 SHL DUP7 DUP5 ADD MSTORE DUP9 MLOAD SWAP3 DUP7 DUP9 JUMPDEST DUP4 DUP2 LT PUSH3 0xBC3 JUMPI POP POP POP DUP3 ADD MSTORE PUSH1 0x22 SWAP1 KECCAK256 DUP1 SLOAD DUP7 AND PUSH20 0xDEF1C0DED9BEC7F1A1670819833240F027B25EFF OR SWAP1 SSTORE PUSH1 0x1 DUP5 MSTORE DUP4 DUP4 MSTORE DUP6 DUP5 KECCAK256 DUP4 PUSH3 0xFD PUSH3 0xC3F JUMP JUMPDEST PUSH9 0x3AB734B9BBB0B82B19 PUSH1 0xB9 SHL DUP3 DUP3 ADD MSTORE DUP9 MLOAD SWAP3 DUP2 DUP5 SWAP3 MLOAD SWAP1 DUP10 JUMPDEST DUP3 DUP2 LT PUSH3 0xBAD JUMPI POP POP DUP3 ADD SWAP1 DUP2 MSTORE SUB ADD SWAP1 KECCAK256 PUSH20 0x7A250D5630B4CF539739DF2C5DACB4C659F2488D DUP7 DUP3 SLOAD AND OR SWAP1 SSTORE PUSH1 0x1 DUP5 MSTORE DUP4 DUP4 MSTORE DUP6 DUP5 KECCAK256 SWAP7 PUSH3 0x15C PUSH3 0xC3F JUMP JUMPDEST SWAP8 DUP5 PUSH9 0x756E69737761705633 PUSH1 0xB8 SHL SWAP10 DUP11 DUP3 DUP3 ADD MSTORE DUP10 MLOAD SWAP3 DUP2 DUP5 SWAP3 MLOAD SWAP1 DUP11 JUMPDEST DUP3 DUP2 LT PUSH3 0xB97 JUMPI POP POP DUP3 ADD SWAP1 DUP2 MSTORE SUB ADD SWAP1 KECCAK256 SWAP1 PUSH20 0xE592427A0AECE92DE3EDEE1F18E0157C05861564 SWAP2 DUP3 DUP9 DUP3 SLOAD AND OR SWAP1 SSTORE PUSH1 0x1 DUP7 MSTORE DUP6 DUP6 MSTORE DUP8 DUP7 KECCAK256 SWAP1 PUSH3 0x1C2 PUSH3 0xC3F JUMP JUMPDEST SWAP2 DUP7 PUSH9 0x73757368697377617 PUSH1 0xBC SHL SWAP4 DUP5 DUP3 DUP3 ADD MSTORE DUP12 MLOAD SWAP3 DUP2 DUP5 SWAP3 MLOAD SWAP1 DUP13 JUMPDEST DUP3 DUP2 LT PUSH3 0xB81 JUMPI POP POP DUP3 ADD SWAP1 DUP2 MSTORE SUB ADD SWAP1 KECCAK256 PUSH20 0xD9E1CE17F2641F24AE83637AB66A2CCA9C378B9F DUP10 DUP3 SLOAD AND OR SWAP1 SSTORE PUSH1 0x38 DUP8 MSTORE DUP7 DUP7 MSTORE DUP9 DUP8 KECCAK256 DUP7 PUSH3 0x225 PUSH3 0xC05 JUMP JUMPDEST DUP8 DUP3 DUP3 ADD MSTORE DUP12 MLOAD SWAP3 DUP2 DUP5 SWAP3 MLOAD SWAP1 DUP13 JUMPDEST DUP3 DUP2 LT PUSH3 0xB6B JUMPI POP POP DUP3 ADD SWAP1 DUP2 MSTORE SUB ADD SWAP1 KECCAK256 DUP5 DUP10 DUP3 SLOAD AND OR SWAP1 SSTORE PUSH1 0x38 DUP8 MSTORE DUP7 DUP7 MSTORE DUP9 DUP8 KECCAK256 DUP10 MLOAD SWAP1 DUP11 DUP3 ADD DUP3 DUP2 LT DUP5 DUP3 GT OR PUSH3 0xB31 JUMPI DUP12 MSTORE PUSH1 0xD DUP1 DUP4 MSTORE PUSH13 0x3830B731B0B5B2A9BBB0B82B19 PUSH1 0x99 SHL DUP10 DUP5 ADD MSTORE DUP12 MLOAD SWAP3 DUP10 DUP12 JUMPDEST DUP4 DUP2 LT PUSH3 0xB58 JUMPI POP POP POP DUP3 ADD MSTORE PUSH1 0x2D SWAP1 KECCAK256 DUP1 SLOAD DUP10 AND PUSH20 0x10ED43C718714EB63D5AA57B78B54704E256024E OR SWAP1 SSTORE PUSH1 0x38 DUP8 MSTORE DUP7 DUP7 MSTORE DUP9 DUP8 KECCAK256 DUP10 MLOAD SWAP1 DUP2 DUP12 ADD DUP4 DUP2 GT DUP4 DUP3 LT OR PUSH3 0xB31 JUMPI DUP12 MSTORE PUSH1 0x6 DUP1 DUP4 MSTORE PUSH6 0x62697377617 PUSH1 0xD4 SHL DUP10 DUP5 ADD MSTORE DUP12 MLOAD SWAP3 DUP10 DUP12 JUMPDEST DUP4 DUP2 LT PUSH3 0xB45 JUMPI POP POP POP DUP3 ADD MSTORE PUSH1 0x26 SWAP1 KECCAK256 DUP1 SLOAD DUP10 AND PUSH20 0x3A6D8CA21D1CF76F653A67577FA0D27453350DD8 OR SWAP1 SSTORE PUSH1 0x38 DUP8 MSTORE DUP7 DUP7 MSTORE DUP9 DUP8 KECCAK256 DUP10 MLOAD SWAP1 DUP2 DUP12 ADD DUP4 DUP2 GT DUP4 DUP3 LT OR PUSH3 0xB31 JUMPI DUP12 MSTORE PUSH1 0x7 DUP1 DUP4 MSTORE PUSH7 0x6170657377617 PUSH1 0xCC SHL DUP10 DUP5 ADD MSTORE DUP12 MLOAD SWAP3 DUP10 DUP12 JUMPDEST DUP4 DUP2 LT PUSH3 0xB1E JUMPI POP POP POP DUP3 ADD MSTORE PUSH1 0x27 SWAP1 KECCAK256 DUP1 SLOAD DUP10 AND PUSH20 0xCF0FEBD3F17CEF5B47B0CD257ACF6025C5BFF3B7 OR SWAP1 SSTORE PUSH1 0x38 DUP8 MSTORE DUP7 DUP7 MSTORE DUP9 DUP8 KECCAK256 DUP10 MLOAD SWAP2 DUP3 DUP12 ADD SWAP1 DUP2 GT DUP4 DUP3 LT OR PUSH3 0xB0A JUMPI DUP11 MSTORE PUSH1 0x4 DUP1 DUP4 MSTORE PUSH4 0xDAC8CAF PUSH1 0xE3 SHL DUP9 DUP5 ADD MSTORE DUP11 MLOAD SWAP3 DUP9 DUP11 JUMPDEST DUP4 DUP2 LT PUSH3 0xAF7 JUMPI POP POP POP DUP3 ADD MSTORE PUSH1 0x24 SWAP1 KECCAK256 DUP1 SLOAD DUP9 AND PUSH20 0x7DAE51BD3E3376B8C7C4900E9107F12BE3AF1BA8 OR SWAP1 SSTORE PUSH1 0x89 DUP7 MSTORE DUP6 DUP6 MSTORE DUP8 DUP7 KECCAK256 DUP6 PUSH3 0x3FE PUSH3 0xC05 JUMP JUMPDEST DUP7 DUP3 DUP3 ADD MSTORE DUP11 MLOAD SWAP3 DUP2 DUP5 SWAP3 MLOAD SWAP1 DUP12 JUMPDEST DUP3 DUP2 LT PUSH3 0xAE1 JUMPI POP POP DUP3 ADD SWAP1 DUP2 MSTORE SUB ADD SWAP1 KECCAK256 DUP4 DUP9 DUP3 SLOAD AND OR SWAP1 SSTORE PUSH1 0x89 DUP7 MSTORE DUP6 DUP6 MSTORE DUP8 DUP7 KECCAK256 DUP6 PUSH3 0x43D PUSH3 0xC3F JUMP JUMPDEST PUSH9 0x717569636B7377617 PUSH1 0xBC SHL DUP3 DUP3 ADD MSTORE DUP11 MLOAD SWAP3 DUP2 DUP5 SWAP3 MLOAD SWAP1 DUP12 JUMPDEST DUP3 DUP2 LT PUSH3 0xACB JUMPI POP POP DUP3 ADD SWAP1 DUP2 MSTORE SUB ADD SWAP1 KECCAK256 PUSH20 0xA5E0829CACED8FFDD4DE3C43696C57F7D7A678FF DUP9 DUP3 SLOAD AND OR SWAP1 SSTORE PUSH1 0x89 DUP7 MSTORE DUP6 DUP6 MSTORE DUP8 DUP7 KECCAK256 DUP6 PUSH3 0x49C PUSH3 0xC3F JUMP JUMPDEST DUP4 DUP3 DUP3 ADD MSTORE DUP11 MLOAD SWAP3 DUP2 DUP5 SWAP3 MLOAD SWAP1 DUP12 JUMPDEST DUP3 DUP2 LT PUSH3 0xAB5 JUMPI POP POP DUP3 ADD SWAP1 DUP2 MSTORE SUB ADD SWAP1 KECCAK256 SWAP1 PUSH20 0x1B02DA8CB0D097EB8D57A175B88C7D8B48097543 SWAP2 DUP3 DUP10 DUP3 SLOAD AND OR SWAP1 SSTORE PUSH1 0x89 DUP8 MSTORE DUP7 DUP7 MSTORE DUP9 DUP8 KECCAK256 DUP7 PUSH3 0x4F2 PUSH3 0xC3F JUMP JUMPDEST DUP13 DUP3 DUP3 ADD MSTORE DUP12 MLOAD SWAP3 DUP2 DUP5 SWAP3 MLOAD SWAP1 DUP13 JUMPDEST DUP3 DUP2 LT PUSH3 0xA9F JUMPI POP POP DUP3 ADD SWAP1 DUP2 MSTORE SUB ADD SWAP1 KECCAK256 DUP4 DUP10 DUP3 SLOAD AND OR SWAP1 SSTORE PUSH2 0xA86A DUP1 DUP9 MSTORE DUP8 DUP8 MSTORE DUP10 DUP9 KECCAK256 DUP8 PUSH3 0x533 PUSH3 0xC05 JUMP JUMPDEST DUP9 DUP3 DUP3 ADD MSTORE DUP13 MLOAD SWAP3 DUP2 DUP5 SWAP3 MLOAD SWAP1 DUP14 JUMPDEST DUP3 DUP2 LT PUSH3 0xA89 JUMPI POP POP DUP3 ADD SWAP1 DUP2 MSTORE SUB ADD SWAP1 KECCAK256 DUP6 DUP11 DUP3 SLOAD AND OR SWAP1 SSTORE DUP1 DUP9 MSTORE DUP8 DUP8 MSTORE DUP10 DUP9 KECCAK256 DUP8 PUSH3 0x571 PUSH3 0xC3F JUMP JUMPDEST PUSH9 0x7472616465726A6F65 PUSH1 0xB8 SHL DUP3 DUP3 ADD MSTORE DUP13 MLOAD SWAP3 DUP2 DUP5 SWAP3 MLOAD SWAP1 DUP14 JUMPDEST DUP3 DUP2 LT PUSH3 0xA73 JUMPI POP POP DUP3 ADD SWAP1 DUP2 MSTORE SUB ADD SWAP1 KECCAK256 PUSH20 0x60AE616A2155EE3D9A6854BA25216C3F1F9994B8 DUP11 DUP3 SLOAD AND OR SWAP1 SSTORE DUP1 DUP9 MSTORE DUP8 DUP8 MSTORE DUP10 DUP9 DUP9 DUP3 DUP3 KECCAK256 PUSH3 0x5D1 PUSH3 0xC63 JUMP JUMPDEST SWAP1 PUSH10 0x7370697269747377617 PUSH1 0xB4 SHL SWAP5 DUP6 DUP5 DUP5 ADD MSTORE MLOAD SWAP4 DUP3 DUP6 SWAP4 MLOAD SWAP2 JUMPDEST DUP3 DUP2 LT PUSH3 0xA5D JUMPI POP POP DUP3 ADD SWAP1 DUP2 MSTORE SUB ADD SWAP1 KECCAK256 SWAP2 PUSH20 0x16327E3FBDACA3BCF7E38F5AF2599D2DDC33AE52 SWAP3 DUP4 DUP13 DUP3 SLOAD AND OR SWAP1 SSTORE DUP10 MSTORE DUP9 DUP9 MSTORE DUP9 DUP9 DUP13 DUP1 DUP4 KECCAK256 PUSH3 0x635 PUSH3 0xC3F JUMP JUMPDEST SWAP2 DUP8 DUP5 DUP5 ADD MSTORE MLOAD SWAP4 DUP3 DUP6 SWAP4 MLOAD SWAP2 JUMPDEST DUP3 DUP2 LT PUSH3 0xA47 JUMPI POP POP DUP3 ADD SWAP1 DUP2 MSTORE SUB ADD SWAP1 KECCAK256 DUP5 DUP12 DUP3 SLOAD AND OR SWAP1 SSTORE PUSH1 0xFA DUP10 MSTORE DUP9 DUP9 MSTORE DUP9 DUP9 DUP13 DUP1 DUP4 KECCAK256 PUSH3 0x675 PUSH3 0xC05 JUMP JUMPDEST SWAP2 DUP12 DUP5 DUP5 ADD MSTORE MLOAD SWAP4 DUP3 DUP6 SWAP4 MLOAD SWAP2 JUMPDEST DUP3 DUP2 LT PUSH3 0xA31 JUMPI POP POP DUP3 ADD SWAP1 DUP2 MSTORE SUB ADD SWAP1 KECCAK256 DUP7 DUP12 DUP3 SLOAD AND OR SWAP1 SSTORE PUSH1 0xFA DUP10 MSTORE DUP9 DUP9 MSTORE DUP9 DUP9 DUP13 DUP1 DUP4 KECCAK256 PUSH3 0x6B5 PUSH3 0xC63 JUMP JUMPDEST SWAP2 PUSH10 0x73706F6F6B797377617 PUSH1 0xB4 SHL DUP5 DUP5 ADD MSTORE MLOAD SWAP4 DUP3 DUP6 SWAP4 MLOAD SWAP2 JUMPDEST DUP3 DUP2 LT PUSH3 0xA1B JUMPI POP POP DUP3 ADD SWAP1 DUP2 MSTORE SUB ADD SWAP1 KECCAK256 PUSH20 0xF491E7B69E4244AD4002BC14E878A34207E38C29 DUP12 DUP3 SLOAD AND OR SWAP1 SSTORE PUSH1 0xFA DUP10 MSTORE DUP9 DUP9 MSTORE DUP8 DUP12 DUP11 KECCAK256 SWAP2 PUSH3 0x715 PUSH3 0xC63 JUMP JUMPDEST SWAP1 DUP3 DUP3 ADD MSTORE DUP13 MLOAD SWAP3 DUP2 DUP5 SWAP3 MLOAD SWAP1 DUP14 JUMPDEST DUP3 DUP2 LT PUSH3 0xA05 JUMPI POP POP DUP3 ADD SWAP1 DUP2 MSTORE SUB ADD SWAP1 KECCAK256 SWAP1 DUP10 DUP3 SLOAD AND OR SWAP1 SSTORE PUSH1 0xFA DUP8 MSTORE DUP7 DUP7 MSTORE DUP9 DUP8 KECCAK256 DUP7 PUSH3 0x754 PUSH3 0xC3F JUMP JUMPDEST DUP4 DUP3 DUP3 ADD MSTORE DUP12 MLOAD SWAP3 DUP2 DUP5 SWAP3 MLOAD SWAP1 DUP13 JUMPDEST DUP3 DUP2 LT PUSH3 0x9EF JUMPI POP POP DUP3 ADD SWAP1 DUP2 MSTORE SUB ADD SWAP1 KECCAK256 DUP3 DUP10 DUP3 SLOAD AND OR SWAP1 SSTORE PUSH2 0xA4B1 DUP1 DUP9 MSTORE DUP8 DUP8 MSTORE DUP10 DUP9 KECCAK256 DUP8 PUSH3 0x795 PUSH3 0xC05 JUMP JUMPDEST DUP9 DUP3 DUP3 ADD MSTORE DUP13 MLOAD SWAP3 DUP2 DUP5 SWAP3 MLOAD SWAP1 DUP14 JUMPDEST DUP3 DUP2 LT PUSH3 0x9D9 JUMPI POP POP DUP3 ADD SWAP1 DUP2 MSTORE SUB ADD SWAP1 KECCAK256 DUP6 DUP11 DUP3 SLOAD AND OR SWAP1 SSTORE DUP1 DUP9 MSTORE DUP8 DUP8 MSTORE DUP10 DUP9 KECCAK256 DUP8 PUSH3 0x7D3 PUSH3 0xC3F JUMP JUMPDEST DUP14 DUP3 DUP3 ADD MSTORE DUP13 MLOAD SWAP3 DUP2 DUP5 SWAP3 MLOAD SWAP1 DUP14 JUMPDEST DUP3 DUP2 LT PUSH3 0x9C3 JUMPI POP POP DUP3 ADD SWAP1 DUP2 MSTORE SUB ADD SWAP1 KECCAK256 DUP5 DUP11 DUP3 SLOAD AND OR SWAP1 SSTORE DUP8 MSTORE DUP7 DUP7 MSTORE DUP6 DUP10 DUP9 KECCAK256 SWAP2 PUSH3 0x811 PUSH3 0xC3F JUMP JUMPDEST SWAP1 DUP3 DUP3 ADD MSTORE DUP11 MLOAD SWAP3 DUP2 DUP5 SWAP3 MLOAD SWAP1 DUP12 JUMPDEST DUP3 DUP2 LT PUSH3 0x9AD JUMPI POP POP DUP3 ADD SWAP1 DUP2 MSTORE SUB ADD SWAP1 KECCAK256 SWAP1 DUP8 DUP3 SLOAD AND OR SWAP1 SSTORE PUSH1 0xA DUP6 MSTORE DUP5 DUP5 MSTORE DUP7 DUP6 KECCAK256 DUP5 PUSH3 0x850 PUSH3 0xC05 JUMP JUMPDEST DUP6 DUP3 DUP3 ADD MSTORE DUP10 MLOAD SWAP3 DUP2 DUP5 SWAP3 MLOAD SWAP1 DUP11 JUMPDEST DUP3 DUP2 LT PUSH3 0x997 JUMPI POP POP DUP3 ADD SWAP1 DUP2 MSTORE SUB ADD SWAP1 KECCAK256 DUP3 DUP8 DUP3 SLOAD AND OR SWAP1 SSTORE PUSH1 0xA DUP6 MSTORE DUP5 DUP5 MSTORE DUP7 DUP6 KECCAK256 DUP5 PUSH3 0x88F PUSH3 0xC3F JUMP JUMPDEST DUP11 DUP3 DUP3 ADD MSTORE DUP10 MLOAD SWAP3 DUP2 DUP5 SWAP3 MLOAD SWAP1 DUP11 JUMPDEST DUP3 DUP2 LT PUSH3 0x981 JUMPI POP POP DUP3 ADD SWAP1 DUP2 MSTORE SUB ADD SWAP1 KECCAK256 SWAP1 DUP7 DUP3 SLOAD AND OR SWAP1 SSTORE PUSH2 0x2105 SWAP2 DUP3 DUP6 MSTORE DUP5 DUP5 MSTORE DUP4 DUP8 DUP7 KECCAK256 SWAP2 PUSH3 0x8D2 PUSH3 0xC05 JUMP JUMPDEST SWAP1 DUP3 DUP3 ADD MSTORE DUP9 MLOAD SWAP3 DUP2 DUP5 SWAP3 MLOAD SWAP1 DUP10 JUMPDEST DUP3 DUP2 LT PUSH3 0x96B JUMPI POP POP DUP3 ADD SWAP1 DUP2 MSTORE SUB ADD SWAP1 KECCAK256 SWAP1 DUP6 DUP3 SLOAD AND OR SWAP1 SSTORE DUP3 MSTORE DUP2 DUP2 MSTORE DUP4 DUP3 KECCAK256 PUSH3 0x90E PUSH3 0xC3F JUMP JUMPDEST SWAP6 DUP3 DUP8 ADD MSTORE DUP5 MLOAD SWAP3 DUP7 MLOAD SWAP1 JUMPDEST DUP2 DUP2 LT PUSH3 0x959 JUMPI POP DUP4 ADD SWAP1 DUP2 MSTORE DUP3 SWAP1 SUB ADD SWAP1 KECCAK256 DUP1 SLOAD SWAP1 SWAP2 AND PUSH20 0x2626664C2603336E57B271C5C0B26F421741E481 OR SWAP1 SSTORE MLOAD PUSH2 0x121F SWAP1 DUP2 PUSH3 0xC88 DUP3 CODECOPY RETURN JUMPDEST DUP8 DUP2 ADD DUP5 ADD MLOAD DUP6 DUP3 ADD MSTORE DUP4 ADD PUSH3 0x91A JUMP JUMPDEST DUP2 DUP2 ADD DUP7 ADD MLOAD DUP8 DUP3 ADD MSTORE DUP10 SWAP6 DUP8 SWAP6 POP ADD PUSH3 0x8E1 JUMP JUMPDEST DUP2 DUP2 ADD DUP7 ADD MLOAD DUP8 DUP3 ADD MSTORE DUP11 SWAP6 DUP8 SWAP6 POP ADD PUSH3 0x89E JUMP JUMPDEST DUP2 DUP2 ADD DUP7 ADD MLOAD DUP8 DUP3 ADD MSTORE DUP11 SWAP6 DUP8 SWAP6 POP ADD PUSH3 0x85F JUMP JUMPDEST DUP2 DUP2 ADD DUP7 ADD MLOAD DUP8 DUP3 ADD MSTORE DUP12 SWAP6 DUP8 SWAP6 POP ADD PUSH3 0x820 JUMP JUMPDEST DUP2 DUP2 ADD DUP7 ADD MLOAD DUP8 DUP3 ADD MSTORE DUP14 SWAP6 DUP8 SWAP6 POP ADD PUSH3 0x7E2 JUMP JUMPDEST DUP2 DUP2 ADD DUP7 ADD MLOAD DUP8 DUP3 ADD MSTORE DUP14 SWAP6 DUP8 SWAP6 POP ADD PUSH3 0x7A4 JUMP JUMPDEST DUP2 DUP2 ADD DUP7 ADD MLOAD DUP8 DUP3 ADD MSTORE DUP13 SWAP6 DUP8 SWAP6 POP ADD PUSH3 0x763 JUMP JUMPDEST DUP2 DUP2 ADD DUP7 ADD MLOAD DUP8 DUP3 ADD MSTORE DUP14 SWAP6 DUP8 SWAP6 POP ADD PUSH3 0x724 JUMP JUMPDEST DUP2 DUP2 ADD DUP7 ADD MLOAD DUP8 DUP3 ADD MSTORE DUP15 SWAP6 DUP8 SWAP6 POP ADD PUSH3 0x6D0 JUMP JUMPDEST DUP2 DUP2 ADD DUP7 ADD MLOAD DUP8 DUP3 ADD MSTORE DUP15 SWAP6 DUP8 SWAP6 POP ADD PUSH3 0x683 JUMP JUMPDEST DUP2 DUP2 ADD DUP7 ADD MLOAD DUP8 DUP3 ADD MSTORE DUP15 SWAP6 DUP8 SWAP6 POP ADD PUSH3 0x643 JUMP JUMPDEST DUP2 DUP2 ADD DUP7 ADD MLOAD DUP8 DUP3 ADD MSTORE DUP15 SWAP6 DUP8 SWAP6 POP ADD PUSH3 0x5EE JUMP JUMPDEST DUP2 DUP2 ADD DUP7 ADD MLOAD DUP8 DUP3 ADD MSTORE DUP14 SWAP6 DUP8 SWAP6 POP ADD PUSH3 0x58C JUMP JUMPDEST DUP2 DUP2 ADD DUP7 ADD MLOAD DUP8 DUP3 ADD MSTORE DUP14 SWAP6 DUP8 SWAP6 POP ADD PUSH3 0x542 JUMP JUMPDEST DUP2 DUP2 ADD DUP7 ADD MLOAD DUP8 DUP3 ADD MSTORE DUP13 SWAP6 DUP8 SWAP6 POP ADD PUSH3 0x501 JUMP JUMPDEST DUP2 DUP2 ADD DUP7 ADD MLOAD DUP8 DUP3 ADD MSTORE DUP12 SWAP6 DUP8 SWAP6 POP ADD PUSH3 0x4AB JUMP JUMPDEST DUP2 DUP2 ADD DUP7 ADD MLOAD DUP8 DUP3 ADD MSTORE DUP12 SWAP6 DUP8 SWAP6 POP ADD PUSH3 0x458 JUMP JUMPDEST DUP2 DUP2 ADD DUP7 ADD MLOAD DUP8 DUP3 ADD MSTORE DUP12 SWAP6 DUP8 SWAP6 POP ADD PUSH3 0x40D JUMP JUMPDEST DUP2 DUP2 DUP5 ADD ADD MLOAD DUP2 DUP8 ADD MSTORE ADD DUP10 SWAP1 PUSH3 0x3BB JUMP JUMPDEST PUSH4 0x4E487B71 PUSH1 0xE0 SHL DUP10 MSTORE PUSH1 0x41 PUSH1 0x4 MSTORE PUSH1 0x24 DUP10 REVERT JUMPDEST DUP2 DUP2 DUP5 ADD ADD MLOAD DUP2 DUP8 ADD MSTORE ADD DUP11 SWAP1 PUSH3 0x358 JUMP JUMPDEST PUSH4 0x4E487B71 PUSH1 0xE0 SHL DUP11 MSTORE PUSH1 0x41 PUSH1 0x4 MSTORE PUSH1 0x24 DUP11 REVERT JUMPDEST DUP2 DUP2 DUP5 ADD ADD MLOAD DUP2 DUP8 ADD MSTORE ADD DUP11 SWAP1 PUSH3 0x2F2 JUMP JUMPDEST DUP2 DUP2 DUP5 ADD ADD MLOAD DUP2 DUP8 ADD MSTORE ADD DUP11 SWAP1 PUSH3 0x28D JUMP JUMPDEST DUP2 DUP2 ADD DUP7 ADD MLOAD DUP8 DUP3 ADD MSTORE DUP13 SWAP6 DUP8 SWAP6 POP ADD PUSH3 0x234 JUMP JUMPDEST DUP2 DUP2 ADD DUP7 ADD MLOAD DUP8 DUP3 ADD MSTORE DUP13 SWAP6 DUP8 SWAP6 POP ADD PUSH3 0x1E1 JUMP JUMPDEST DUP2 DUP2 ADD DUP7 ADD MLOAD DUP8 DUP3 ADD MSTORE DUP11 SWAP6 DUP8 SWAP6 POP ADD PUSH3 0x17B JUMP JUMPDEST DUP2 DUP2 ADD DUP7 ADD MLOAD DUP8 DUP3 ADD MSTORE DUP10 SWAP6 DUP8 SWAP6 POP ADD PUSH3 0x118 JUMP JUMPDEST DUP2 DUP2 DUP5 ADD ADD MLOAD DUP2 DUP8 ADD MSTORE ADD DUP8 SWAP1 PUSH3 0xBA JUMP JUMPDEST PUSH4 0x4E487B71 PUSH1 0xE0 SHL DUP8 MSTORE PUSH1 0x41 PUSH1 0x4 MSTORE PUSH1 0x24 DUP8 REVERT JUMPDEST DUP2 DUP2 ADD DUP7 ADD MLOAD DUP8 DUP3 ADD MSTORE DUP9 SWAP6 DUP8 SWAP6 POP ADD PUSH3 0x40 JUMP JUMPDEST PUSH1 0x0 DUP1 REVERT JUMPDEST PUSH1 0x40 DUP1 MLOAD SWAP2 SWAP1 DUP3 ADD PUSH1 0x1 PUSH1 0x1 PUSH1 0x40 SHL SUB DUP2 GT DUP4 DUP3 LT OR PUSH3 0xC29 JUMPI PUSH1 0x40 MSTORE PUSH1 0x5 DUP3 MSTORE JUMP JUMPDEST PUSH4 0x4E487B71 PUSH1 0xE0 SHL PUSH1 0x0 MSTORE PUSH1 0x41 PUSH1 0x4 MSTORE PUSH1 0x24 PUSH1 0x0 REVERT JUMPDEST PUSH1 0x40 DUP1 MLOAD SWAP2 SWAP1 DUP3 ADD PUSH1 0x1 PUSH1 0x1 PUSH1 0x40 SHL SUB DUP2 GT DUP4 DUP3 LT OR PUSH3 0xC29 JUMPI PUSH1 0x40 MSTORE PUSH1 0x9 DUP3 MSTORE JUMP JUMPDEST PUSH1 0x40 DUP1 MLOAD SWAP2 SWAP1 DUP3 ADD PUSH1 0x1 PUSH1 0x1 PUSH1 0x40 SHL SUB DUP2 GT DUP4 DUP3 LT OR PUSH3 0xC29 JUMPI PUSH1 0x40 MSTORE PUSH1 0xA DUP3 MSTORE JUMP INVALID PUSH1 0x40 PUSH1 0x80 DUP2 MSTORE PUSH1 0x4 SWAP1 DUP2 CALLDATASIZE LT ISZERO PUSH2 0x15 JUMPI PUSH1 0x0 DUP1 REVERT JUMPDEST PUSH1 0x0 SWAP2 DUP3 CALLDATALOAD PUSH1 0xE0 SHR SWAP1 DUP2 PUSH4 0xA2DA3C3 EQ PUSH2 0xE01 JUMPI DUP2 PUSH4 0x2098CCB9 EQ PUSH2 0xDE5 JUMPI DUP2 PUSH4 0x2B9DE49B EQ PUSH2 0xDA0 JUMPI DUP2 PUSH4 0x3A902DD6 EQ PUSH2 0xD58 JUMPI DUP2 PUSH4 0x3AEE8E33 EQ PUSH2 0xD11 JUMPI DUP2 PUSH4 0x445F0E91 EQ PUSH2 0xCFD JUMPI DUP2 PUSH4 0x48455063 EQ PUSH2 0xCBB JUMPI DUP2 PUSH4 0x49CDF472 EQ PUSH2 0xC78 JUMPI DUP2 PUSH4 0x540B43AC EQ PUSH2 0xC27 JUMPI DUP2 PUSH4 0x63B0C907 EQ PUSH2 0xC0A JUMPI DUP2 PUSH4 0x66111DF8 EQ PUSH2 0xBC8 JUMPI DUP2 PUSH4 0x6BED48F0 EQ PUSH2 0xBAB JUMPI DUP2 PUSH4 0x70428C3E EQ PUSH2 0xB8F JUMPI DUP2 PUSH4 0x793CDA12 EQ PUSH2 0xB48 JUMPI DUP2 PUSH4 0x8A3C3577 EQ PUSH2 0xB01 JUMPI DUP2 PUSH4 0x8C973FF2 EQ PUSH2 0xAE5 JUMPI DUP2 PUSH4 0x8D1C4533 EQ PUSH2 0xAC8 JUMPI DUP2 PUSH4 0x923E10D9 EQ PUSH2 0xAAC JUMPI DUP2 PUSH4 0x9466A0C9 EQ PUSH2 0x353 JUMPI DUP2 PUSH4 0x975B95BA EQ PUSH2 0x337 JUMPI DUP2 PUSH4 0x9C708AAB EQ PUSH2 0x2F0 JUMPI DUP2 PUSH4 0xA6B0590E EQ PUSH2 0x2A8 JUMPI DUP2 PUSH4 0xAF009A67 EQ PUSH2 0x25D JUMPI DUP2 PUSH4 0xBBCE148C EQ PUSH2 0x226 JUMPI POP DUP1 PUSH4 0xBED3E5B9 EQ PUSH2 0x1E0 JUMPI DUP1 PUSH4 0xF696DA4B EQ PUSH2 0x192 JUMPI PUSH4 0xF93790A9 EQ PUSH2 0x14C JUMPI PUSH1 0x0 DUP1 REVERT JUMPDEST CALLVALUE PUSH2 0x18E JUMPI DUP2 PUSH1 0x3 NOT CALLDATASIZE ADD SLT PUSH2 0x18E JUMPI PUSH2 0x18A SWAP1 PUSH2 0x168 PUSH2 0xE45 JUMP JUMPDEST SWAP1 PUSH1 0x2 DUP3 MSTORE PUSH2 0x60F PUSH1 0xF3 SHL PUSH1 0x20 DUP4 ADD MSTORE MLOAD SWAP2 DUP3 SWAP2 PUSH1 0x20 DUP4 MSTORE PUSH1 0x20 DUP4 ADD SWAP1 PUSH2 0xF36 JUMP JUMPDEST SUB SWAP1 RETURN JUMPDEST POP DUP1 REVERT JUMPDEST POP CALLVALUE PUSH2 0x18E JUMPI PUSH1 0x20 SWAP2 DUP2 PUSH2 0x1A5 CALLDATASIZE PUSH2 0xF5B JUMP JUMPDEST SWAP3 SWAP1 DUP2 MSTORE DUP1 DUP6 MSTORE KECCAK256 SWAP1 DUP4 PUSH2 0x1C1 DUP5 MLOAD SWAP3 DUP4 DUP2 MLOAD SWAP4 DUP5 SWAP3 ADD PUSH2 0xF13 JUMP JUMPDEST DUP2 ADD SWAP2 DUP3 MSTORE SWAP1 DUP2 SWAP1 SUB DUP4 ADD SWAP1 KECCAK256 SLOAD SWAP1 MLOAD PUSH1 0x1 PUSH1 0x1 PUSH1 0xA0 SHL SUB SWAP1 SWAP2 AND DUP2 MSTORE RETURN JUMPDEST POP CALLVALUE PUSH2 0x18E JUMPI DUP2 PUSH1 0x3 NOT CALLDATASIZE ADD SLT PUSH2 0x18E JUMPI PUSH2 0x18A SWAP1 PUSH2 0x1FD PUSH2 0xE45 JUMP JUMPDEST SWAP1 PUSH1 0x9 DUP3 MSTORE PUSH9 0x756E69737761705633 PUSH1 0xB8 SHL PUSH1 0x20 DUP4 ADD MSTORE MLOAD SWAP2 DUP3 SWAP2 PUSH1 0x20 DUP4 MSTORE PUSH1 0x20 DUP4 ADD SWAP1 PUSH2 0xF36 JUMP JUMPDEST DUP3 DUP5 CALLVALUE PUSH2 0x25A JUMPI PUSH1 0x20 CALLDATASIZE PUSH1 0x3 NOT ADD SLT PUSH2 0x25A JUMPI POP PUSH2 0x247 PUSH2 0x18A SWAP3 CALLDATALOAD PUSH2 0x1046 JUMP JUMPDEST SWAP1 MLOAD SWAP2 DUP3 SWAP2 PUSH1 0x20 DUP4 MSTORE PUSH1 0x20 DUP4 ADD SWAP1 PUSH2 0xF36 JUMP JUMPDEST DUP1 REVERT JUMPDEST POP POP CALLVALUE PUSH2 0x18E JUMPI DUP2 PUSH1 0x3 NOT CALLDATASIZE ADD SLT PUSH2 0x18E JUMPI PUSH2 0x18A SWAP1 PUSH2 0x27B PUSH2 0xE45 JUMP JUMPDEST SWAP1 PUSH1 0xD DUP3 MSTORE PUSH13 0x3830B731B0B5B2A9BBB0B82B19 PUSH1 0x99 SHL PUSH1 0x20 DUP4 ADD MSTORE MLOAD SWAP2 DUP3 SWAP2 PUSH1 0x20 DUP4 MSTORE PUSH1 0x20 DUP4 ADD SWAP1 PUSH2 0xF36 JUMP JUMPDEST POP POP CALLVALUE PUSH2 0x18E JUMPI DUP2 PUSH1 0x3 NOT CALLDATASIZE ADD SLT PUSH2 0x18E JUMPI PUSH2 0x18A SWAP1 PUSH2 0x2C6 PUSH2 0xE45 JUMP JUMPDEST SWAP1 PUSH1 0xA DUP3 MSTORE PUSH10 0x7370697269747377617 PUSH1 0xB4 SHL PUSH1 0x20 DUP4 ADD MSTORE MLOAD SWAP2 DUP3 SWAP2 PUSH1 0x20 DUP4 MSTORE PUSH1 0x20 DUP4 ADD SWAP1 PUSH2 0xF36 JUMP JUMPDEST POP POP CALLVALUE PUSH2 0x18E JUMPI DUP2 PUSH1 0x3 NOT CALLDATASIZE ADD SLT PUSH2 0x18E JUMPI PUSH2 0x18A SWAP1 PUSH2 0x30E PUSH2 0xE45 JUMP JUMPDEST SWAP1 PUSH1 0x9 DUP3 MSTORE PUSH9 0x73757368697377617 PUSH1 0xBC SHL PUSH1 0x20 DUP4 ADD MSTORE MLOAD SWAP2 DUP3 SWAP2 PUSH1 0x20 DUP4 MSTORE PUSH1 0x20 DUP4 ADD SWAP1 PUSH2 0xF36 JUMP JUMPDEST POP POP CALLVALUE PUSH2 0x18E JUMPI DUP2 PUSH1 0x3 NOT CALLDATASIZE ADD SLT PUSH2 0x18E JUMPI PUSH1 0x20 SWAP1 MLOAD PUSH1 0xA DUP2 MSTORE RETURN JUMPDEST DUP4 SWAP2 POP CALLVALUE PUSH2 0x18E JUMPI PUSH1 0x20 SWAP3 DUP4 PUSH1 0x3 NOT CALLDATASIZE ADD SLT PUSH2 0xAA8 JUMPI DUP2 CALLDATALOAD SWAP4 DUP2 MLOAD SWAP3 PUSH2 0x1E0 DUP5 ADD DUP5 DUP2 LT PUSH8 0xFFFFFFFFFFFFFFFF DUP3 GT OR PUSH2 0xA95 JUMPI DUP4 MSTORE PUSH1 0xE DUP5 MSTORE DUP2 DUP6 JUMPDEST PUSH2 0x1C0 DUP2 LT PUSH2 0xA85 JUMPI POP POP PUSH1 0x24 SWAP1 DUP6 SWAP1 DUP8 DUP8 MSTORE DUP7 DUP5 MSTORE DUP5 DUP8 KECCAK256 DUP5 PUSH2 0x3B2 PUSH2 0xE45 JUMP JUMPDEST DUP4 DUP2 MSTORE ADD PUSH4 0x6C696669 PUSH1 0xE0 SHL SWAP2 DUP3 DUP3 MSTORE PUSH2 0x3CE DUP9 MLOAD DUP1 SWAP4 PUSH2 0xEA1 JUMP JUMPDEST DUP2 DUP5 ADD MSTORE SWAP4 SWAP1 SWAP4 KECCAK256 SLOAD PUSH1 0x1 PUSH1 0x1 PUSH1 0xA0 SHL SUB SWAP4 SWAP1 DUP5 AND PUSH2 0xA55 JUMPI JUMPDEST POP DUP8 DUP8 SWAP9 DUP9 MSTORE DUP8 DUP6 MSTORE DUP6 DUP9 KECCAK256 PUSH2 0x3FC PUSH2 0xE45 JUMP JUMPDEST SWAP1 DUP6 PUSH1 0x5 SWAP12 DUP13 SWAP3 DUP4 DUP6 MSTORE PUSH5 0x62D2DCC6D PUSH1 0xDB SHL SWAP5 DUP6 DUP12 DUP3 ADD MSTORE DUP11 DUP13 MLOAD SWAP4 SWAP6 JUMPDEST DUP7 LT PUSH2 0xA3D JUMPI POP POP PUSH1 0x25 SWAP3 SWAP4 POP DUP14 DUP3 ADD MSTORE KECCAK256 SLOAD AND PUSH2 0xA16 JUMPI JUMPDEST POP DUP1 DUP9 MSTORE DUP8 DUP6 MSTORE DUP6 DUP9 KECCAK256 PUSH2 0x446 PUSH2 0xE45 JUMP JUMPDEST SWAP1 PUSH1 0x2 SWAP2 DUP3 DUP2 MSTORE DUP7 PUSH2 0x60F PUSH1 0xF3 SHL SWAP3 DUP4 DUP11 DUP5 ADD MSTORE DUP11 MLOAD SWAP1 DUP14 SWAP4 JUMPDEST DUP12 DUP8 DUP7 LT PUSH2 0xA00 JUMPI POP POP PUSH1 0x22 SWAP3 SWAP4 POP DUP6 DUP3 ADD MSTORE KECCAK256 SLOAD AND PUSH2 0x9E9 JUMPI JUMPDEST POP POP DUP1 DUP9 MSTORE DUP8 DUP6 MSTORE DUP6 DUP9 KECCAK256 PUSH2 0x48E PUSH2 0xE45 JUMP JUMPDEST SWAP1 PUSH1 0xD SWAP2 DUP3 DUP2 MSTORE DUP7 PUSH13 0x3830B731B0B5B2A9BBB0B82B19 PUSH1 0x99 SHL SWAP3 DUP4 DUP11 DUP5 ADD MSTORE DUP11 MLOAD SWAP1 DUP14 SWAP4 JUMPDEST DUP12 DUP8 DUP7 LT PUSH2 0x9D3 JUMPI POP POP PUSH1 0x2D SWAP3 SWAP4 POP DUP6 DUP3 ADD MSTORE KECCAK256 SLOAD AND PUSH2 0x9BC JUMPI JUMPDEST POP POP DUP1 DUP9 MSTORE DUP8 DUP6 MSTORE DUP6 DUP9 KECCAK256 PUSH2 0x4E1 PUSH2 0xE45 JUMP JUMPDEST SWAP1 DUP6 PUSH1 0x29 DUP9 PUSH1 0x9 SWAP5 DUP6 DUP2 MSTORE ADD PUSH9 0x3AB734B9BBB0B82B19 PUSH1 0xB9 SHL SWAP4 DUP5 DUP3 MSTORE PUSH2 0x50A DUP13 MLOAD DUP1 SWAP4 PUSH2 0xEC7 JUMP JUMPDEST DUP6 DUP3 ADD MSTORE KECCAK256 SLOAD AND PUSH2 0x9A7 JUMPI JUMPDEST POP DUP2 DUP10 MSTORE DUP9 DUP7 MSTORE DUP7 DUP10 KECCAK256 DUP6 PUSH1 0x29 DUP9 PUSH2 0x52C PUSH2 0xE45 JUMP JUMPDEST DUP6 DUP2 MSTORE ADD PUSH9 0x756E69737761705633 PUSH1 0xB8 SHL SWAP4 DUP5 DUP3 MSTORE PUSH2 0x54D DUP13 MLOAD DUP1 SWAP4 PUSH2 0xEC7 JUMP JUMPDEST DUP6 DUP3 ADD MSTORE KECCAK256 SLOAD AND PUSH2 0x992 JUMPI JUMPDEST POP DUP2 DUP10 MSTORE DUP9 DUP7 MSTORE DUP7 DUP10 KECCAK256 DUP6 PUSH1 0x29 DUP9 PUSH2 0x56F PUSH2 0xE45 JUMP JUMPDEST DUP6 DUP2 MSTORE ADD PUSH9 0x73757368697377617 PUSH1 0xBC SHL SWAP4 DUP5 DUP3 MSTORE PUSH2 0x590 DUP13 MLOAD DUP1 SWAP4 PUSH2 0xEC7 JUMP JUMPDEST DUP6 DUP3 ADD MSTORE KECCAK256 SLOAD AND PUSH2 0x97D JUMPI JUMPDEST POP DUP2 DUP10 MSTORE DUP9 DUP7 MSTORE DUP7 DUP10 KECCAK256 DUP6 PUSH1 0x29 DUP9 PUSH2 0x5B2 PUSH2 0xE45 JUMP JUMPDEST DUP6 DUP2 MSTORE ADD PUSH9 0x717569636B7377617 PUSH1 0xBC SHL SWAP4 DUP5 DUP3 MSTORE PUSH2 0x5D3 DUP13 MLOAD DUP1 SWAP4 PUSH2 0xEC7 JUMP JUMPDEST DUP6 DUP3 ADD MSTORE KECCAK256 SLOAD AND PUSH2 0x968 JUMPI JUMPDEST POP DUP2 DUP10 MSTORE DUP9 DUP7 MSTORE DUP7 DUP10 KECCAK256 DUP6 PUSH1 0x29 DUP9 PUSH2 0x5F5 PUSH2 0xE45 JUMP JUMPDEST DUP6 DUP2 MSTORE ADD PUSH9 0x7472616465726A6F65 PUSH1 0xB8 SHL SWAP4 DUP5 DUP3 MSTORE PUSH2 0x616 DUP13 MLOAD DUP1 SWAP4 PUSH2 0xEC7 JUMP JUMPDEST DUP6 DUP3 ADD MSTORE KECCAK256 SLOAD AND PUSH2 0x951 JUMPI JUMPDEST POP POP DUP1 DUP9 MSTORE DUP8 DUP6 MSTORE DUP6 DUP9 KECCAK256 PUSH2 0x635 PUSH2 0xE45 JUMP JUMPDEST SWAP1 DUP6 PUSH1 0x2A DUP9 PUSH1 0xA SWAP5 DUP6 DUP2 MSTORE ADD PUSH10 0x7370697269747377617 PUSH1 0xB4 SHL SWAP4 DUP5 DUP3 MSTORE PUSH2 0x65F DUP13 MLOAD DUP1 SWAP4 PUSH2 0xEED JUMP JUMPDEST DUP6 DUP3 ADD MSTORE KECCAK256 SLOAD AND PUSH2 0x91F JUMPI JUMPDEST POP DUP2 DUP10 MSTORE DUP9 DUP7 MSTORE DUP7 DUP10 KECCAK256 DUP6 PUSH1 0x2A DUP9 PUSH2 0x681 PUSH2 0xE45 JUMP JUMPDEST DUP6 DUP2 MSTORE ADD PUSH10 0x73706F6F6B797377617 PUSH1 0xB4 SHL SWAP4 DUP5 DUP3 MSTORE PUSH2 0x6A3 DUP13 MLOAD DUP1 SWAP4 PUSH2 0xEED JUMP JUMPDEST DUP6 DUP3 ADD MSTORE KECCAK256 SLOAD AND PUSH2 0x908 JUMPI JUMPDEST POP POP DUP1 DUP9 MSTORE DUP8 DUP6 MSTORE DUP6 DUP9 KECCAK256 PUSH2 0x6C2 PUSH2 0xE45 JUMP JUMPDEST SWAP1 PUSH1 0x7 SWAP2 DUP3 DUP2 MSTORE DUP7 PUSH7 0x6170657377617 PUSH1 0xCC SHL SWAP3 DUP4 DUP11 DUP5 ADD MSTORE DUP11 MLOAD SWAP1 DUP14 SWAP4 JUMPDEST DUP12 DUP8 DUP7 LT PUSH2 0x8F2 JUMPI POP POP PUSH1 0x27 SWAP3 SWAP4 POP DUP6 DUP3 ADD MSTORE KECCAK256 SLOAD AND PUSH2 0x8DB JUMPI JUMPDEST POP POP DUP1 DUP9 MSTORE DUP8 DUP6 MSTORE DUP6 DUP9 KECCAK256 PUSH2 0x70F PUSH2 0xE45 JUMP JUMPDEST SWAP1 PUSH1 0x6 SWAP2 DUP3 DUP2 MSTORE DUP7 PUSH6 0x62697377617 PUSH1 0xD4 SHL SWAP3 DUP4 DUP11 DUP5 ADD MSTORE DUP11 MLOAD SWAP1 DUP14 SWAP4 JUMPDEST DUP12 DUP8 DUP7 LT PUSH2 0x8C5 JUMPI POP POP PUSH1 0x26 SWAP3 SWAP4 POP DUP6 DUP3 ADD MSTORE KECCAK256 SLOAD AND PUSH2 0x892 JUMPI JUMPDEST POP POP DUP8 MSTORE DUP7 DUP5 MSTORE DUP5 DUP8 KECCAK256 SWAP3 PUSH1 0x24 DUP6 PUSH2 0x75E PUSH2 0xE45 JUMP JUMPDEST DUP5 DUP2 MSTORE ADD PUSH4 0xDAC8CAF PUSH1 0xE3 SHL SWAP6 DUP7 DUP3 MSTORE PUSH2 0x77A DUP10 MLOAD DUP1 SWAP4 PUSH2 0xEA1 JUMP JUMPDEST DUP5 DUP3 ADD MSTORE KECCAK256 SLOAD AND PUSH2 0x863 JUMPI JUMPDEST POP SWAP1 POP PUSH2 0x79E PUSH2 0x799 DUP3 SWAP7 SWAP5 SWAP4 SWAP7 PUSH2 0xFD2 JUMP JUMPDEST PUSH2 0xE7B JUMP JUMPDEST DUP2 DUP2 MSTORE SWAP4 PUSH1 0x1F NOT PUSH2 0x7AE DUP4 PUSH2 0xFD2 JUMP JUMPDEST ADD DUP5 JUMPDEST DUP2 DUP2 LT PUSH2 0x854 JUMPI POP POP DUP4 JUMPDEST DUP3 DUP2 LT PUSH2 0x81D JUMPI POP POP POP DUP1 MLOAD SWAP4 DUP1 DUP1 DUP7 ADD SWAP3 DUP2 DUP8 MSTORE DUP6 MLOAD DUP1 SWAP5 MSTORE DUP4 DUP2 DUP9 ADD SWAP9 SHL DUP8 ADD ADD SWAP5 ADD SWAP3 SWAP6 JUMPDEST DUP3 DUP8 LT PUSH2 0x7F1 JUMPI DUP6 DUP6 SUB DUP7 RETURN JUMPDEST SWAP1 SWAP2 SWAP3 SWAP4 DUP3 DUP1 PUSH2 0x80D PUSH1 0x1 SWAP4 PUSH1 0x3F NOT DUP11 DUP3 SUB ADD DUP7 MSTORE DUP9 MLOAD PUSH2 0xF36 JUMP JUMPDEST SWAP7 ADD SWAP3 ADD SWAP7 ADD SWAP6 SWAP3 SWAP2 SWAP1 SWAP3 PUSH2 0x7E4 JUMP JUMPDEST DUP1 PUSH2 0x82F PUSH2 0x84B SWAP3 DUP5 SWAP10 SWAP7 SWAP8 SWAP10 PUSH2 0x100D JUMP JUMPDEST MLOAD PUSH2 0x83A DUP3 DUP10 PUSH2 0x100D JUMP JUMPDEST MSTORE PUSH2 0x845 DUP2 DUP9 PUSH2 0x100D JUMP JUMPDEST POP PUSH2 0x1021 JUMP JUMPDEST SWAP6 SWAP4 SWAP3 SWAP6 PUSH2 0x7BC JUMP JUMPDEST PUSH1 0x60 DUP8 DUP3 ADD DUP10 ADD MSTORE DUP8 ADD PUSH2 0x7B1 JUMP JUMPDEST PUSH2 0x88B SWAP3 PUSH2 0x86F PUSH2 0xE45 JUMP JUMPDEST SWAP2 DUP3 MSTORE DUP5 DUP3 ADD MSTORE PUSH2 0x880 DUP3 DUP8 PUSH2 0x100D JUMP JUMPDEST MSTORE PUSH2 0x845 DUP2 DUP7 PUSH2 0x100D JUMP JUMPDEST DUP1 DUP8 PUSH2 0x786 JUMP JUMPDEST SWAP1 PUSH2 0x8BD SWAP3 SWAP5 SWAP2 PUSH2 0x8A1 PUSH2 0xE45 JUMP JUMPDEST SWAP2 DUP3 MSTORE DUP8 DUP3 ADD MSTORE PUSH2 0x8B2 DUP3 DUP11 PUSH2 0x100D JUMP JUMPDEST MSTORE PUSH2 0x845 DUP2 DUP10 PUSH2 0x100D JUMP JUMPDEST SWAP2 DUP10 DUP1 PUSH2 0x748 JUMP JUMPDEST DUP6 DUP3 ADD DUP2 ADD MLOAD DUP5 DUP8 ADD MSTORE SWAP1 SWAP5 ADD SWAP4 DUP11 SWAP4 POP PUSH2 0x72D JUMP JUMPDEST SWAP1 PUSH2 0x8EA SWAP3 SWAP5 SWAP2 PUSH2 0x8A1 PUSH2 0xE45 JUMP JUMPDEST SWAP2 DUP10 DUP1 PUSH2 0x6FC JUMP JUMPDEST DUP6 DUP3 ADD DUP2 ADD MLOAD DUP5 DUP8 ADD MSTORE SWAP1 SWAP5 ADD SWAP4 DUP11 SWAP4 POP PUSH2 0x6E1 JUMP JUMPDEST SWAP1 PUSH2 0x917 SWAP3 SWAP5 SWAP2 PUSH2 0x8A1 PUSH2 0xE45 JUMP JUMPDEST SWAP2 DUP10 DUP1 PUSH2 0x6AF JUMP JUMPDEST SWAP4 PUSH2 0x94A SWAP2 SWAP5 PUSH2 0x92D PUSH2 0xE45 JUMP JUMPDEST SWAP1 DUP7 DUP3 MSTORE DUP9 DUP3 ADD MSTORE PUSH2 0x93F DUP3 DUP12 PUSH2 0x100D JUMP JUMPDEST MSTORE PUSH2 0x845 DUP2 DUP11 PUSH2 0x100D JUMP JUMPDEST SWAP3 DUP11 PUSH2 0x66B JUMP JUMPDEST SWAP1 PUSH2 0x960 SWAP3 SWAP5 SWAP2 PUSH2 0x8A1 PUSH2 0xE45 JUMP JUMPDEST SWAP2 DUP10 DUP1 PUSH2 0x622 JUMP JUMPDEST SWAP4 PUSH2 0x976 SWAP2 SWAP5 PUSH2 0x92D PUSH2 0xE45 JUMP JUMPDEST SWAP3 DUP11 PUSH2 0x5DF JUMP JUMPDEST SWAP4 PUSH2 0x98B SWAP2 SWAP5 PUSH2 0x92D PUSH2 0xE45 JUMP JUMPDEST SWAP3 DUP11 PUSH2 0x59C JUMP JUMPDEST SWAP4 PUSH2 0x9A0 SWAP2 SWAP5 PUSH2 0x92D PUSH2 0xE45 JUMP JUMPDEST SWAP3 DUP11 PUSH2 0x559 JUMP JUMPDEST SWAP4 PUSH2 0x9B5 SWAP2 SWAP5 PUSH2 0x92D PUSH2 0xE45 JUMP JUMPDEST SWAP3 DUP11 PUSH2 0x516 JUMP JUMPDEST SWAP1 PUSH2 0x9CB SWAP3 SWAP5 SWAP2 PUSH2 0x8A1 PUSH2 0xE45 JUMP JUMPDEST SWAP2 DUP10 DUP1 PUSH2 0x4CE JUMP JUMPDEST DUP6 DUP3 ADD DUP2 ADD MLOAD DUP5 DUP8 ADD MSTORE SWAP1 SWAP5 ADD SWAP4 DUP11 SWAP4 POP PUSH2 0x4B3 JUMP JUMPDEST SWAP1 PUSH2 0x9F8 SWAP3 SWAP5 SWAP2 PUSH2 0x8A1 PUSH2 0xE45 JUMP JUMPDEST SWAP2 DUP10 DUP1 PUSH2 0x47B JUMP JUMPDEST DUP6 DUP3 ADD DUP2 ADD MLOAD DUP5 DUP8 ADD MSTORE SWAP1 SWAP5 ADD SWAP4 DUP11 SWAP4 POP PUSH2 0x460 JUMP JUMPDEST SWAP3 PUSH2 0xA36 SWAP2 SWAP4 PUSH2 0xA24 PUSH2 0xE45 JUMP JUMPDEST SWAP1 DUP12 DUP3 MSTORE DUP8 DUP3 ADD MSTORE PUSH2 0x8B2 DUP3 DUP11 PUSH2 0x100D JUMP JUMPDEST SWAP2 DUP10 PUSH2 0x434 JUMP JUMPDEST DUP6 DUP3 ADD DUP2 ADD MLOAD DUP5 DUP8 ADD MSTORE SWAP1 SWAP5 ADD SWAP4 DUP10 SWAP4 POP DUP11 DUP16 PUSH2 0x41B JUMP JUMPDEST SWAP1 SWAP2 POP PUSH2 0xA60 PUSH2 0xE45 JUMP JUMPDEST SWAP1 DUP3 DUP3 MSTORE DUP5 DUP3 ADD MSTORE PUSH2 0xA71 DUP7 PUSH2 0xFEA JUMP JUMPDEST MSTORE PUSH2 0xA7B DUP6 PUSH2 0xFEA JUMP JUMPDEST POP PUSH1 0x1 SWAP1 DUP9 PUSH2 0x3E8 JUMP JUMPDEST PUSH1 0x60 DUP3 DUP3 DUP9 ADD ADD MSTORE ADD DUP3 SWAP1 PUSH2 0x390 JUMP JUMPDEST PUSH4 0x4E487B71 PUSH1 0xE0 SHL DUP7 MSTORE PUSH1 0x41 DUP3 MSTORE PUSH1 0x24 DUP7 REVERT JUMPDEST DUP3 DUP1 REVERT JUMPDEST POP POP CALLVALUE PUSH2 0x18E JUMPI DUP2 PUSH1 0x3 NOT CALLDATASIZE ADD SLT PUSH2 0x18E JUMPI PUSH1 0x20 SWAP1 MLOAD PUSH1 0x89 DUP2 MSTORE RETURN JUMPDEST POP POP CALLVALUE PUSH2 0x18E JUMPI DUP2 PUSH1 0x3 NOT CALLDATASIZE ADD SLT PUSH2 0x18E JUMPI PUSH1 0x20 SWAP1 MLOAD PUSH2 0xA4B1 DUP2 MSTORE RETURN JUMPDEST POP POP CALLVALUE PUSH2 0x18E JUMPI DUP2 PUSH1 0x3 NOT CALLDATASIZE ADD SLT PUSH2 0x18E JUMPI PUSH1 0x20 SWAP1 MLOAD PUSH1 0x1 DUP2 MSTORE RETURN JUMPDEST POP POP CALLVALUE PUSH2 0x18E JUMPI DUP2 PUSH1 0x3 NOT CALLDATASIZE ADD SLT PUSH2 0x18E JUMPI PUSH2 0x18A SWAP1 PUSH2 0xB1F PUSH2 0xE45 JUMP JUMPDEST SWAP1 PUSH1 0x9 DUP3 MSTORE PUSH9 0x3AB734B9BBB0B82B19 PUSH1 0xB9 SHL PUSH1 0x20 DUP4 ADD MSTORE MLOAD SWAP2 DUP3 SWAP2 PUSH1 0x20 DUP4 MSTORE PUSH1 0x20 DUP4 ADD SWAP1 PUSH2 0xF36 JUMP JUMPDEST POP POP CALLVALUE PUSH2 0x18E JUMPI DUP2 PUSH1 0x3 NOT CALLDATASIZE ADD SLT PUSH2 0x18E JUMPI PUSH2 0x18A SWAP1 PUSH2 0xB66 PUSH2 0xE45 JUMP JUMPDEST SWAP1 PUSH1 0x9 DUP3 MSTORE PUSH9 0x7472616465726A6F65 PUSH1 0xB8 SHL PUSH1 0x20 DUP4 ADD MSTORE MLOAD SWAP2 DUP3 SWAP2 PUSH1 0x20 DUP4 MSTORE PUSH1 0x20 DUP4 ADD SWAP1 PUSH2 0xF36 JUMP JUMPDEST POP POP CALLVALUE PUSH2 0x18E JUMPI DUP2 PUSH1 0x3 NOT CALLDATASIZE ADD SLT PUSH2 0x18E JUMPI PUSH1 0x20 SWAP1 MLOAD PUSH1 0x38 DUP2 MSTORE RETURN JUMPDEST POP POP CALLVALUE PUSH2 0x18E JUMPI DUP2 PUSH1 0x3 NOT CALLDATASIZE ADD SLT PUSH2 0x18E JUMPI PUSH1 0x20 SWAP1 MLOAD PUSH2 0xA86A DUP2 MSTORE RETURN JUMPDEST SWAP2 SWAP1 POP CALLVALUE PUSH2 0xAA8 JUMPI DUP3 PUSH1 0x3 NOT CALLDATASIZE ADD SLT PUSH2 0xAA8 JUMPI PUSH2 0x18A SWAP3 POP PUSH2 0xBE8 PUSH2 0xE45 JUMP JUMPDEST SWAP2 DUP3 MSTORE PUSH4 0x6C696669 PUSH1 0xE0 SHL PUSH1 0x20 DUP4 ADD MSTORE MLOAD SWAP2 DUP3 SWAP2 PUSH1 0x20 DUP4 MSTORE PUSH1 0x20 DUP4 ADD SWAP1 PUSH2 0xF36 JUMP JUMPDEST POP POP CALLVALUE PUSH2 0x18E JUMPI DUP2 PUSH1 0x3 NOT CALLDATASIZE ADD SLT PUSH2 0x18E JUMPI PUSH1 0x20 SWAP1 MLOAD PUSH2 0x2105 DUP2 MSTORE RETURN JUMPDEST POP POP CALLVALUE PUSH2 0x18E JUMPI PUSH1 0x20 SWAP2 DUP2 PUSH2 0xC3B CALLDATASIZE PUSH2 0xF5B JUMP JUMPDEST SWAP3 SWAP1 DUP2 MSTORE DUP1 DUP6 MSTORE KECCAK256 SWAP1 DUP4 PUSH2 0xC57 DUP5 MLOAD SWAP3 DUP4 DUP2 MLOAD SWAP4 DUP5 SWAP3 ADD PUSH2 0xF13 JUMP JUMPDEST DUP2 ADD SWAP2 DUP3 MSTORE SWAP1 DUP2 SWAP1 SUB DUP4 ADD SWAP1 KECCAK256 SLOAD SWAP1 MLOAD PUSH1 0x1 PUSH1 0x1 PUSH1 0xA0 SHL SUB SWAP1 SWAP2 AND ISZERO ISZERO DUP2 MSTORE RETURN JUMPDEST POP POP CALLVALUE PUSH2 0x18E JUMPI DUP2 PUSH1 0x3 NOT CALLDATASIZE ADD SLT PUSH2 0x18E JUMPI PUSH2 0x18A SWAP1 PUSH2 0xC96 PUSH2 0xE45 JUMP JUMPDEST SWAP1 PUSH1 0x5 DUP3 MSTORE PUSH5 0x62D2DCC6D PUSH1 0xDB SHL PUSH1 0x20 DUP4 ADD MSTORE MLOAD SWAP2 DUP3 SWAP2 PUSH1 0x20 DUP4 MSTORE PUSH1 0x20 DUP4 ADD SWAP1 PUSH2 0xF36 JUMP JUMPDEST SWAP2 SWAP1 POP CALLVALUE PUSH2 0xAA8 JUMPI DUP3 PUSH1 0x3 NOT CALLDATASIZE ADD SLT PUSH2 0xAA8 JUMPI PUSH2 0x18A SWAP3 POP PUSH2 0xCDB PUSH2 0xE45 JUMP JUMPDEST SWAP2 DUP3 MSTORE PUSH4 0xDAC8CAF PUSH1 0xE3 SHL PUSH1 0x20 DUP4 ADD MSTORE MLOAD SWAP2 DUP3 SWAP2 PUSH1 0x20 DUP4 MSTORE PUSH1 0x20 DUP4 ADD SWAP1 PUSH2 0xF36 JUMP JUMPDEST POP POP CALLVALUE PUSH2 0x18E JUMPI PUSH1 0x20 SWAP2 DUP2 PUSH2 0x1A5 CALLDATASIZE PUSH2 0xF5B JUMP JUMPDEST POP POP CALLVALUE PUSH2 0x18E JUMPI DUP2 PUSH1 0x3 NOT CALLDATASIZE ADD SLT PUSH2 0x18E JUMPI PUSH2 0x18A SWAP1 PUSH2 0xD2F PUSH2 0xE45 JUMP JUMPDEST SWAP1 PUSH1 0x9 DUP3 MSTORE PUSH9 0x717569636B7377617 PUSH1 0xBC SHL PUSH1 0x20 DUP4 ADD MSTORE MLOAD SWAP2 DUP3 SWAP2 PUSH1 0x20 DUP4 MSTORE PUSH1 0x20 DUP4 ADD SWAP1 PUSH2 0xF36 JUMP JUMPDEST POP POP CALLVALUE PUSH2 0x18E JUMPI DUP2 PUSH1 0x3 NOT CALLDATASIZE ADD SLT PUSH2 0x18E JUMPI PUSH2 0x18A SWAP1 PUSH2 0xD76 PUSH2 0xE45 JUMP JUMPDEST SWAP1 PUSH1 0xA DUP3 MSTORE PUSH10 0x73706F6F6B797377617 PUSH1 0xB4 SHL PUSH1 0x20 DUP4 ADD MSTORE MLOAD SWAP2 DUP3 SWAP2 PUSH1 0x20 DUP4 MSTORE PUSH1 0x20 DUP4 ADD SWAP1 PUSH2 0xF36 JUMP JUMPDEST POP POP CALLVALUE PUSH2 0x18E JUMPI DUP2 PUSH1 0x3 NOT CALLDATASIZE ADD SLT PUSH2 0x18E JUMPI PUSH2 0x18A SWAP1 PUSH2 0xDBE PUSH2 0xE45 JUMP JUMPDEST SWAP1 PUSH1 0x7 DUP3 MSTORE PUSH7 0x6170657377617 PUSH1 0xCC SHL PUSH1 0x20 DUP4 ADD MSTORE MLOAD SWAP2 DUP3 SWAP2 PUSH1 0x20 DUP4 MSTORE PUSH1 0x20 DUP4 ADD SWAP1 PUSH2 0xF36 JUMP JUMPDEST POP POP CALLVALUE PUSH2 0x18E JUMPI DUP2 PUSH1 0x3 NOT CALLDATASIZE ADD SLT PUSH2 0x18E JUMPI PUSH1 0x20 SWAP1 MLOAD PUSH1 0xFA DUP2 MSTORE RETURN JUMPDEST POP POP CALLVALUE PUSH2 0x18E JUMPI DUP2 PUSH1 0x3 NOT CALLDATASIZE ADD SLT PUSH2 0x18E JUMPI PUSH2 0x18A SWAP1 PUSH2 0xE1F PUSH2 0xE45 JUMP JUMPDEST SWAP1 PUSH1 0x6 DUP3 MSTORE PUSH6 0x62697377617 PUSH1 0xD4 SHL PUSH1 0x20 DUP4 ADD MSTORE MLOAD SWAP2 DUP3 SWAP2 PUSH1 0x20 DUP4 MSTORE PUSH1 0x20 DUP4 ADD SWAP1 PUSH2 0xF36 JUMP JUMPDEST PUSH1 0x40 MLOAD SWAP1 PUSH1 0x40 DUP3 ADD DUP3 DUP2 LT PUSH8 0xFFFFFFFFFFFFFFFF DUP3 GT OR PUSH2 0xE65 JUMPI PUSH1 0x40 MSTORE JUMP JUMPDEST PUSH4 0x4E487B71 PUSH1 0xE0 SHL PUSH1 0x0 MSTORE PUSH1 0x41 PUSH1 0x4 MSTORE PUSH1 0x24 PUSH1 0x0 REVERT JUMPDEST PUSH1 0x40 MLOAD SWAP2 SWAP1 PUSH1 0x1F ADD PUSH1 0x1F NOT AND DUP3 ADD PUSH8 0xFFFFFFFFFFFFFFFF DUP2 GT DUP4 DUP3 LT OR PUSH2 0xE65 JUMPI PUSH1 0x40 MSTORE JUMP JUMPDEST PUSH1 0x0 JUMPDEST PUSH1 0x4 DUP2 LT PUSH2 0xEB7 JUMPI POP POP PUSH1 0x4 PUSH1 0x0 SWAP2 ADD MSTORE JUMP JUMPDEST DUP2 DUP2 ADD MLOAD DUP4 DUP3 ADD MSTORE PUSH1 0x20 ADD PUSH2 0xEA4 JUMP JUMPDEST PUSH1 0x0 JUMPDEST PUSH1 0x9 DUP2 LT PUSH2 0xEDD JUMPI POP POP PUSH1 0x9 PUSH1 0x0 SWAP2 ADD MSTORE JUMP JUMPDEST DUP2 DUP2 ADD MLOAD DUP4 DUP3 ADD MSTORE PUSH1 0x20 ADD PUSH2 0xECA JUMP JUMPDEST PUSH1 0x0 JUMPDEST PUSH1 0xA DUP2 LT PUSH2 0xF03 JUMPI POP POP PUSH1 0xA PUSH1 0x0 SWAP2 ADD MSTORE JUMP JUMPDEST DUP2 DUP2 ADD MLOAD DUP4 DUP3 ADD MSTORE PUSH1 0x20 ADD PUSH2 0xEF0 JUMP JUMPDEST PUSH1 0x0 JUMPDEST DUP4 DUP2 LT PUSH2 0xF26 JUMPI POP POP PUSH1 0x0 SWAP2 ADD MSTORE JUMP JUMPDEST DUP2 DUP2 ADD MLOAD DUP4 DUP3 ADD MSTORE PUSH1 0x20 ADD PUSH2 0xF16 JUMP JUMPDEST SWAP1 PUSH1 0x20 SWAP2 PUSH2 0xF4F DUP2 MLOAD DUP1 SWAP3 DUP2 DUP6 MSTORE DUP6 DUP1 DUP7 ADD SWAP2 ADD PUSH2 0xF13 JUMP JUMPDEST PUSH1 0x1F ADD PUSH1 0x1F NOT AND ADD ADD SWAP1 JUMP JUMPDEST SWAP1 PUSH1 0x40 PUSH1 0x3 NOT DUP4 ADD SLT PUSH2 0xFCD JUMPI PUSH1 0x4 CALLDATALOAD SWAP2 PUSH8 0xFFFFFFFFFFFFFFFF PUSH1 0x24 CALLDATALOAD DUP2 DUP2 GT PUSH2 0xFCD JUMPI DUP3 PUSH1 0x23 DUP3 ADD SLT ISZERO PUSH2 0xFCD JUMPI DUP1 PUSH1 0x4 ADD CALLDATALOAD SWAP2 DUP3 GT PUSH2 0xE65 JUMPI PUSH2 0xFA9 PUSH1 0x1F DUP4 ADD PUSH1 0x1F NOT AND PUSH1 0x20 ADD PUSH2 0xE7B JUMP JUMPDEST SWAP3 DUP3 DUP5 MSTORE PUSH1 0x24 DUP4 DUP4 ADD ADD GT PUSH2 0xFCD JUMPI DUP2 PUSH1 0x0 SWAP3 PUSH1 0x24 PUSH1 0x20 SWAP4 ADD DUP4 DUP7 ADD CALLDATACOPY DUP4 ADD ADD MSTORE SWAP1 JUMP JUMPDEST PUSH1 0x0 DUP1 REVERT JUMPDEST PUSH8 0xFFFFFFFFFFFFFFFF DUP2 GT PUSH2 0xE65 JUMPI PUSH1 0x5 SHL PUSH1 0x20 ADD SWAP1 JUMP JUMPDEST DUP1 MLOAD ISZERO PUSH2 0xFF7 JUMPI PUSH1 0x20 ADD SWAP1 JUMP JUMPDEST PUSH4 0x4E487B71 PUSH1 0xE0 SHL PUSH1 0x0 MSTORE PUSH1 0x32 PUSH1 0x4 MSTORE PUSH1 0x24 PUSH1 0x0 REVERT JUMPDEST DUP1 MLOAD DUP3 LT ISZERO PUSH2 0xFF7 JUMPI PUSH1 0x20 SWAP2 PUSH1 0x5 SHL ADD ADD SWAP1 JUMP JUMPDEST PUSH1 0x0 NOT DUP2 EQ PUSH2 0x1030 JUMPI PUSH1 0x1 ADD SWAP1 JUMP JUMPDEST PUSH4 0x4E487B71 PUSH1 0xE0 SHL PUSH1 0x0 MSTORE PUSH1 0x11 PUSH1 0x4 MSTORE PUSH1 0x24 PUSH1 0x0 REVERT JUMPDEST PUSH1 0x1 DUP2 EQ PUSH2 0x11C0 JUMPI PUSH1 0x38 DUP2 EQ PUSH2 0x119C JUMPI PUSH1 0x89 DUP2 EQ PUSH2 0x1174 JUMPI PUSH2 0xA86A DUP2 EQ PUSH2 0x114A JUMPI PUSH1 0xFA DUP2 EQ PUSH2 0x1123 JUMPI PUSH2 0xA4B1 DUP2 EQ PUSH2 0x10FA JUMPI PUSH1 0xA DUP2 EQ PUSH2 0x10D1 JUMPI PUSH2 0x2105 EQ PUSH2 0x10AD JUMPI PUSH2 0x1090 PUSH2 0xE45 JUMP JUMPDEST PUSH1 0xD DUP2 MSTORE PUSH13 0x2AB735B737BBB71021B430B4B7 PUSH1 0x99 SHL PUSH1 0x20 DUP3 ADD MSTORE SWAP1 JUMP JUMPDEST PUSH2 0x10B5 PUSH2 0xE45 JUMP JUMPDEST PUSH1 0xC DUP2 MSTORE PUSH12 0x10985CD94813585A5B9B995D PUSH1 0xA2 SHL PUSH1 0x20 DUP3 ADD MSTORE SWAP1 JUMP JUMPDEST POP PUSH2 0x10DA PUSH2 0xE45 JUMP JUMPDEST PUSH1 0x10 DUP2 MSTORE PUSH16 0x13DC1D1A5B5A5CDB4813585A5B9B995D PUSH1 0x82 SHL PUSH1 0x20 DUP3 ADD MSTORE SWAP1 JUMP JUMPDEST POP PUSH2 0x1103 PUSH2 0xE45 JUMP JUMPDEST PUSH1 0x10 DUP2 MSTORE PUSH16 0x105C989A5D1C9D5B4813585A5B9B995D PUSH1 0x82 SHL PUSH1 0x20 DUP3 ADD MSTORE SWAP1 JUMP JUMPDEST POP PUSH2 0x112C PUSH2 0xE45 JUMP JUMPDEST PUSH1 0xE DUP2 MSTORE PUSH14 0x11985B9D1BDB4813585A5B9B995D PUSH1 0x92 SHL PUSH1 0x20 DUP3 ADD MSTORE SWAP1 JUMP JUMPDEST POP PUSH2 0x1153 PUSH2 0xE45 JUMP JUMPDEST PUSH1 0x11 DUP2 MSTORE PUSH17 0x105D985B185B98DA194813585A5B9B995D PUSH1 0x7A SHL PUSH1 0x20 DUP3 ADD MSTORE SWAP1 JUMP JUMPDEST POP PUSH2 0x117D PUSH2 0xE45 JUMP JUMPDEST PUSH1 0xF DUP2 MSTORE PUSH15 0x141BDB1E59DBDB8813585A5B9B995D PUSH1 0x8A SHL PUSH1 0x20 DUP3 ADD MSTORE SWAP1 JUMP JUMPDEST POP PUSH2 0x11A5 PUSH2 0xE45 JUMP JUMPDEST PUSH1 0xB DUP2 MSTORE PUSH11 0x1094D0C813585A5B9B995D PUSH1 0xAA SHL PUSH1 0x20 DUP3 ADD MSTORE SWAP1 JUMP JUMPDEST POP PUSH2 0x11C9 PUSH2 0xE45 JUMP JUMPDEST PUSH1 0x10 DUP2 MSTORE PUSH16 0x115D1A195C995D5B4813585A5B9B995D PUSH1 0x82 SHL PUSH1 0x20 DUP3 ADD MSTORE SWAP1 JUMP INVALID LOG2 PUSH5 0x6970667358 0x22 SLT KECCAK256 LOG3 PUSH16 0x4944E8C97AB8E72375A85B05D192D5AB SSTORE 0xA7 SLT SWAP1 0x26 DUP14 0xAF DUP13 PUSH4 0x78811523 SHL PUSH5 0x736F6C6343 STOP ADDMOD SGT STOP CALLER "},"methodIdentifiers":{"APE_SWAP()":"2b9de49b","ARBITRUM_MAINNET()":"8d1c4533","AVALANCHE_MAINNET()":"6bed48f0","BASE_MAINNET()":"63b0c907","BISWAP()":"0a2da3c3","BSC_MAINNET()":"70428c3e","ETHEREUM_MAINNET()":"8c973ff2","FANTOM_MAINNET()":"2098ccb9","LIFI()":"66111df8","MDEX()":"48455063","ONE_INCH()":"49cdf472","OPTIMISM_MAINNET()":"975b95ba","PANCAKE_SWAP_V2()":"af009a67","POLYGON_MAINNET()":"923e10d9","QUICKSWAP()":"3aee8e33","SPIRIT_SWAP()":"a6b0590e","SPOOKY_SWAP()":"3a902dd6","SUSHISWAP()":"9c708aab","TRADER_JOE()":"793cda12","UNISWAP_V2()":"8a3c3577","UNISWAP_V3()":"bed3e5b9","ZERO_X()":"f93790a9","getChainName(uint256)":"bbce148c","getRouterAddress(uint256,string)":"f696da4b","getSupportedDEXes(uint256)":"9466a0c9","isDEXSupported(uint256,string)":"540b43ac","routerAddresses(uint256,string)":"445f0e91"}}}}}