{"contracts/SplenexAdvancedSwapContract.sol":{"SplenexAdvancedSwapContract":{"abi":[{"inputs":[{"internalType":"address","name":"_revenueWallet","type":"address"}],"stateMutability":"nonpayable","type":"constructor"},{"inputs":[],"name":"InsufficientBalance","type":"error"},{"inputs":[],"name":"InvalidAmount","type":"error"},{"inputs":[],"name":"InvalidRouter","type":"error"},{"inputs":[],"name":"InvalidTokenAddress","type":"error"},{"inputs":[],"name":"SwapFailed","type":"error"},{"inputs":[],"name":"TransferFailed","type":"error"},{"inputs":[],"name":"UnsupportedDEX","type":"error"},{"anonymous":false,"inputs":[{"indexed":false,"internalType":"uint256","name":"chainId","type":"uint256"},{"indexed":false,"internalType":"string","name":"dexName","type":"string"},{"indexed":false,"internalType":"address","name":"router","type":"address"}],"name":"DEXRouterUpdated","type":"event"},{"anonymous":false,"inputs":[{"indexed":true,"internalType":"address","name":"previousOwner","type":"address"},{"indexed":true,"internalType":"address","name":"newOwner","type":"address"}],"name":"OwnershipTransferred","type":"event"},{"anonymous":false,"inputs":[{"indexed":true,"internalType":"address","name":"user","type":"address"},{"indexed":true,"internalType":"address","name":"tokenIn","type":"address"},{"indexed":true,"internalType":"address","name":"tokenOut","type":"address"},{"indexed":false,"internalType":"uint256","name":"amountIn","type":"uint256"},{"indexed":false,"internalType":"uint256","name":"gasFeeTax","type":"uint256"},{"indexed":false,"internalType":"uint256","name":"amountOut","type":"uint256"},{"indexed":false,"internalType":"string","name":"dexUsed","type":"string"}],"name":"SwapExecuted","type":"event"},{"inputs":[],"name":"GAS_FEE_TAX_RATE_BPS","outputs":[{"internalType":"uint256","name":"","type":"uint256"}],"stateMutability":"view","type":"function"},{"inputs":[],"name":"LIFI_CONTRACT","outputs":[{"internalType":"address","name":"","type":"address"}],"stateMutability":"view","type":"function"},{"inputs":[{"internalType":"uint256","name":"gasUsed","type":"uint256"}],"name":"calculateGasFeeTax","outputs":[{"internalType":"uint256","name":"gasFeeTax","type":"uint256"}],"stateMutability":"view","type":"function"},{"inputs":[{"internalType":"uint256","name":"","type":"uint256"},{"internalType":"string","name":"","type":"string"}],"name":"dexRouters","outputs":[{"internalType":"address","name":"","type":"address"}],"stateMutability":"view","type":"function"},{"inputs":[{"internalType":"address","name":"token","type":"address"},{"internalType":"uint256","name":"amount","type":"uint256"}],"name":"emergencyWithdraw","outputs":[],"stateMutability":"nonpayable","type":"function"},{"inputs":[{"internalType":"string","name":"dexName","type":"string"}],"name":"getDEXRouter","outputs":[{"internalType":"address","name":"","type":"address"}],"stateMutability":"view","type":"function"},{"inputs":[],"name":"getSupportedDEXes","outputs":[{"internalType":"string[]","name":"","type":"string[]"}],"stateMutability":"view","type":"function"},{"inputs":[{"internalType":"string","name":"dexName","type":"string"}],"name":"isDEXSupported","outputs":[{"internalType":"bool","name":"","type":"bool"}],"stateMutability":"view","type":"function"},{"inputs":[{"internalType":"address[]","name":"path","type":"address[]"},{"internalType":"uint256","name":"amountIn","type":"uint256"},{"internalType":"uint256","name":"minAmountOut","type":"uint256"},{"internalType":"string","name":"dexName","type":"string"},{"internalType":"bytes","name":"swapData","type":"bytes"}],"name":"multiHopSwap","outputs":[],"stateMutability":"payable","type":"function"},{"inputs":[],"name":"owner","outputs":[{"internalType":"address","name":"","type":"address"}],"stateMutability":"view","type":"function"},{"inputs":[],"name":"renounceOwnership","outputs":[],"stateMutability":"nonpayable","type":"function"},{"inputs":[],"name":"revenueWallet","outputs":[{"internalType":"address","name":"","type":"address"}],"stateMutability":"view","type":"function"},{"inputs":[{"internalType":"uint256","name":"","type":"uint256"}],"name":"supportedDEXes","outputs":[{"internalType":"string","name":"","type":"string"}],"stateMutability":"view","type":"function"},{"inputs":[{"internalType":"address","name":"tokenOut","type":"address"},{"internalType":"uint256","name":"minAmountOut","type":"uint256"},{"internalType":"string","name":"dexName","type":"string"},{"internalType":"bytes","name":"swapData","type":"bytes"}],"name":"swapETHWithDEX","outputs":[],"stateMutability":"payable","type":"function"},{"inputs":[{"internalType":"address","name":"tokenIn","type":"address"},{"internalType":"uint256","name":"amountIn","type":"uint256"},{"internalType":"uint256","name":"minAmountOut","type":"uint256"},{"internalType":"string","name":"dexName","type":"string"},{"internalType":"bytes","name":"swapData","type":"bytes"}],"name":"swapToETHWithDEX","outputs":[],"stateMutability":"payable","type":"function"},{"inputs":[{"internalType":"address","name":"tokenIn","type":"address"},{"internalType":"uint256","name":"amountIn","type":"uint256"},{"internalType":"bytes","name":"liFiCalldata","type":"bytes"},{"internalType":"address","name":"toToken","type":"address"},{"internalType":"uint256","name":"minAmountOut","type":"uint256"},{"internalType":"uint256","name":"lifiExpectedAmount","type":"uint256"}],"name":"swapTokenViaLiFi","outputs":[],"stateMutability":"payable","type":"function"},{"inputs":[{"internalType":"bytes","name":"liFiCalldata","type":"bytes"},{"internalType":"address","name":"toToken","type":"address"},{"internalType":"uint256","name":"minAmountOut","type":"uint256"},{"internalType":"uint256","name":"lifiExpectedAmount","type":"uint256"}],"name":"swapViaLiFi","outputs":[],"stateMutability":"payable","type":"function"},{"inputs":[{"internalType":"address","name":"tokenIn","type":"address"},{"internalType":"address","name":"tokenOut","type":"address"},{"internalType":"uint256","name":"amountIn","type":"uint256"},{"internalType":"uint256","name":"minAmountOut","type":"uint256"},{"internalType":"string","name":"dexName","type":"string"},{"internalType":"bytes","name":"swapData","type":"bytes"}],"name":"swapWithDEX","outputs":[],"stateMutability":"payable","type":"function"},{"inputs":[{"internalType":"address","name":"newOwner","type":"address"}],"name":"transferOwnership","outputs":[],"stateMutability":"nonpayable","type":"function"},{"inputs":[{"internalType":"uint256","name":"chainId","type":"uint256"},{"internalType":"string","name":"dexName","type":"string"},{"internalType":"address","name":"routerAddress","type":"address"}],"name":"updateDEXRouter","outputs":[],"stateMutability":"nonpayable","type":"function"},{"stateMutability":"payable","type":"receive"}],"evm":{"bytecode":{"linkReferences":{},"object":"60a0346200045757601f620020ad38819003828101601f1990811685019493926001600160401b0392838711868810176200045c57808692604098895283396020958691810103126200045757516001600160a01b038082169590949091868103620004575760019560009787895587543360018060a01b031982161789558a51923391167f8be0079c531659141344cd1fd0a4f28419497f9722a3daafe3b4186f6b6457e08b80a31562000448575060805286519361014085018581108282111762000434578852620000d262000472565b600d81526c3830b731b0b5b2a9bbb0b82b1960991b848201528552620000f762000472565b60098152683ab734b9bbb0b82b1960b91b84820152838601526200011a62000472565b600981526807375736869737761760bc1b84820152888601526200013d62000472565b60098152680717569636b737761760bc1b8482015260608601526200016162000472565b60098152687472616465726a6f6560b81b8482015260808601526200018562000472565b94600a95868152690737069726974737761760b41b8582015260a0820152620001ad62000472565b86815269073706f6f6b79737761760b41b8582015260c0820152620001d162000472565b60078152660617065737761760cc1b8582015260e0820152620001f362000472565b600681526506269737761760d41b858201526101008201526200021562000472565b60048152630dac8caf60e31b858201526101208201526003908154878355808810620003bb575b5094928189528489209389965b88881062000293578b51611bc49081620004e9823960805181818161038b015281816106cf015281816109e101528181610c6301528181610de50152818161105201526113370152f35b8051908151868111620003a7578b9189918e620002b18b5462000492565b8881116200036c575b508390888311600114620002fd5790859683620002f1575b5050600019828a1b1c191690841b1789555b0196019701969462000249565b015190503880620002d2565b908783168c8352858320925b8181106200034857509086978488959493106200032f575b505050811b018955620002e4565b0151600019838c1b60f8161c1916905538808062000321565b9497939686929691938786015181550195019301928f95929693918d959262000309565b62000396908c835285832060058b808701821c8301938988106200039d575b01901c0190620004cf565b38620002ba565b935082936200038b565b634e487b7160e01b8d52604160045260248dfd5b828a528888878c2092830192015b828110620003d95750506200023c565b8b620003e6825462000492565b80620003f8575b5050018990620003c9565b8881116001146200040f575081555b8b38620003ed565b8282526200042a898b8420920160051c8201858301620004cf565b8183555562000407565b634e487b7160e01b88526041600452602488fd5b630f58058360e11b8152600490fd5b600080fd5b634e487b7160e01b600052604160045260246000fd5b60408051919082016001600160401b038111838210176200045c57604052565b90600182811c92168015620004c4575b6020831014620004ae57565b634e487b7160e01b600052602260045260246000fd5b91607f1691620004a2565b818110620004db575050565b60008155600101620004cf56fe60406080815260049081361015610020575b5050361561001e57600080fd5b005b600091823560e01c806303dfbc0014611140578063075c399314610fa8578063108e3c9914610f79578063386e07bf14610e775780633c7dccde14610c925780634447842514610c4e5780634caf81f514610be857806353326fa314610b40578063596bfce814610b23578063715018a614610ac657806378e3399d14610a6257806383e201b4146108cf57806389b476ec146107e95780638da5cb5b146107c057806395ccea67146107465780639be2ee4b146105b7578063c0f0310514610560578063d0ff8cd914610241578063d88545ba146101d75763f2fde38b146101095750610011565b346101d35760203660031901126101d357610122611414565b9061012b611595565b6001600160a01b03918216928315610181575050600154826bffffffffffffffffffffffff60a01b821617600155167f8be0079c531659141344cd1fd0a4f28419497f9722a3daafe3b4186f6b6457e08380a380f35b906020608492519162461bcd60e51b8352820152602660248201527f4f776e61626c653a206e6577206f776e657220697320746865207a65726f206160448201526564647265737360d01b6064820152fd5b8280fd5b50346101d35760203660031901126101d35780356001600160401b03811161023d579261020a83926020953691016113cc565b929091468152600286522091808451928337810191825290819003830190205490516001600160a01b0390911615158152f35b8380fd5b5060c03660031901126101d357610256611414565b9160243590604435926001600160401b039384811161055c5761027c90369083016113cc565b916064359660018060a01b038089168099036105585760a4359161029e61169a565b169687158015610550575b610540578615610530578160011c946102c28684611b61565b92833410610520576102d68930338d611738565b875195636eb1769f60e11b87523086880152731231deb6f5749ef6ce6943a275a1d3e7486f4eae938460248901528d888d81604460209c8d935afa91821561051557916104e4575b5061048257895163095ea7b360e01b898201526024810186905260448082018d9052815290608082019081118282101761046f57916103658f9694928e8897958e5261178c565b828b519384928337810185815203925af161037e611623565b50156104605788808080877f00000000000000000000000000000000000000000000000000000000000000005af16103b4611623565b501561045157906103c98995949392346115ed565b8061041e575b5050825194855284015282015260806060820152600080516020611b6f8339815191523391806104146080820160409060048152636c69666960e01b60208201520190565b0390a46001815580f35b948080809394959697335af1610432611623565b5015610443579081889493926103cf565b83516312171d8360e31b8152fd5b5083516312171d8360e31b8152fd5b50835163081ceff360e41b8152fd5b634e487b7160e01b8f526041885260248ffd5b895162461bcd60e51b8152808801899052603660248201527f5361666545524332303a20617070726f76652066726f6d206e6f6e2d7a65726f60448201527520746f206e6f6e2d7a65726f20616c6c6f77616e636560501b6064820152608490fd5b90508881813d831161050e575b6104fb8183611472565b8101031261050a57513861031e565b8e80fd5b503d6104f1565b8c51903d90823e3d90fd5b8751631e9acf1760e31b81528590fd5b855163162908e360e11b81528390fd5b8551630f58058360e11b81528390fd5b5088156102a9565b8980fd5b8680fd5b5082346105b45760203660031901126105b45761057e3a8335611610565b91611388928381029381850414901517156105a157602083612710865191048152f35b634e487b7160e01b825260119052602490fd5b80fd5b50919060a0366003190112610742576105ce611414565b92602435906001600160401b0360643581811161073e576105f290369084016113cc565b9160843590811161055c5761060a90369085016113cc565b95909761061561169a565b6001600160a01b03811696871561072e57861561071e575a9961063a8830338c611738565b8585896044359061064a96611930565b975a610655916115ed565b3a61065f91611610565b6113889081810291818304149015171561070b57612710900493846106c8575b878080808c335af161068f611623565b50156106ba5750869792600080516020611b6f83398151915294926104149251948594339886611674565b90516312171d8360e31b8152fd5b87808080887f00000000000000000000000000000000000000000000000000000000000000005af16106f8611623565b5061067f5790516312171d8360e31b8152fd5b634e487b7160e01b885260118552602488fd5b825163162908e360e11b81528690fd5b8251630f58058360e11b81528690fd5b8580fd5b5080fd5b5090346101d357806003193601126101d35782610761611414565b6024359061076d611595565b6001600160a01b03908116806107a957508280928192600154165af1610791611623565b501561079c57505080f35b516312171d8360e31b8152fd5b92509092506107bd935060015416906116f0565b80f35b50503461074257816003193601126107425760015490516001600160a01b039091168152602090f35b509190346107425760603660031901126107425782356024356001600160401b03811161023d5761081d90369086016113cc565b9290946044359060018060a01b03821680920361073e5761083c611595565b81156108c157506108b78596847f89d28388318bab8fa8f1b13024d02b273ad19672c583ce86798dda98044f3eb0975260026020528388206020855180928985833789820190815203019020836bffffffffffffffffffffffff60a01b82541617905583519586958652606060208701526060860191611653565b918301520390a180f35b825163466d7fef60e01b8152fd5b5060c03660031901126101d3576108e4611414565b906108ed6113fe565b604435916001600160401b03608435818111610a5e5761091090369084016113cc565b9160a435908111610a5a5761092890369085016113cc565b96909461093361169a565b6001600160a01b038281169890929089158015610a50575b610a40578815610a30575a976109638a30338e611738565b86868b6064359061097396611930565b955a61097e916115ed565b3a61098891611610565b61138890818102918183041490151715610a1d57612710900494856109da575b5091600080516020611b6f833981519152959493916104149316986109ce86338c6116f0565b51948594339886611674565b8a808080897f00000000000000000000000000000000000000000000000000000000000000005af1610a0a611623565b506109a85789516312171d8360e31b8152fd5b634e487b7160e01b8b526011865260248bfd5b8a5163162908e360e11b81528790fd5b8a51630f58058360e11b81528790fd5b508383161561094b565b8880fd5b8780fd5b50346101d35760203660031901126101d35780356001600160401b03811161023d5792610a9583926020953691016113cc565b929091468152600286522091808451928337810191825290819003830190205490516001600160a01b039091168152f35b83346105b457806003193601126105b457610adf611595565b600180546001600160a01b0319811690915581906001600160a01b03167f8be0079c531659141344cd1fd0a4f28419497f9722a3daafe3b4186f6b6457e08280a380f35b505034610742578160031936011261074257602090516113888152f35b50346101d357816003193601126101d3576024356001600160401b03811161023d573660238201121561023d578082013591610b7b8361157a565b92610b8885519485611472565b8084526020840192366024838301011161055c57918660208381999460248a9701883787010152358152600286522091610bc984519283925192839161142a565b810191825290819003830190205490516001600160a01b039091168152f35b50346101d35760203660031901126101d357356003548110156101d357610c37906003610c4a94527fc2575a0e9e593c00f959f8c92f12db2869c3395a3b0502d05e2516446f71f85b016114a9565b905191829160208352602083019061144d565b0390f35b505034610742578160031936011261074257517f00000000000000000000000000000000000000000000000000000000000000006001600160a01b03168152602090f35b508290608036600319011261074257610ca9611414565b906001600160401b03604435818111610e7357610cc990369084016113cc565b93909160643590811161073e57610ce390369085016113cc565b9490610ced61169a565b6001600160a01b03928316958615610e63573415610e53575a93468952600260205289892060208b518092878a8337878201908152030190205416918215610e43579181899384938c5192839283378101848152039134905af1610d4f611623565b9015610e335760208180518101031261055c5760200151916024358310610e3357610d7e610d85915a906115ed565b3a90611610565b966113889788810298818a041490151715610e20576127108798979697049485610dd9575b50829161041491610dcc600080516020611b6f8339815191529695338b6116f0565b5193849333973486611674565b909192939495808080897f00000000000000000000000000000000000000000000000000000000000000005af1610e0e611623565b50156106ba5790879594939291610daa565b634e487b7160e01b875260118552602487fd5b875163081ceff360e41b81528590fd5b8951634a92f12b60e01b81528790fd5b885163162908e360e11b81528690fd5b8851630f58058360e11b81528690fd5b8480fd5b50829034610742578160031936011261074257600354906001600160401b038211610f665750825191602092610eb2848460051b0182611472565b8281526003825283810192827fc2575a0e9e593c00f959f8c92f12db2869c3395a3b0502d05e2516446f71f85b855b838310610f4257505050508451938085019181865251809252858501958260051b8601019392955b828710610f165785850386f35b909192938280610f32600193603f198a8203018652885161144d565b9601920196019592919092610f09565b6001888192610f54859b98999b6114a9565b81520192019201919096949396610ee1565b634e487b7160e01b835260419052602482fd5b50503461074257816003193601126107425760209051731231deb6f5749ef6ce6943a275a1d3e7486f4eae8152f35b509060803660031901126101d35781356001600160401b03811161023d57610fd390369084016113cc565b919092610fde6113fe565b9360643594610feb61169a565b6001600160a01b0316948515611130578060011c9461100a8683611b61565b92833410611120579181899384938851928392833781018481520391731231deb6f5749ef6ce6943a275a1d3e7486f4eae5af1611045611623565b50156111115785808080877f00000000000000000000000000000000000000000000000000000000000000005af161107b611623565b5015611102579061108f86949392346115ed565b806110df575b50508083915192828452602084015282015260806060820152600080516020611b6f8339815191523391806104146080820160409060048152636c69666960e01b60208201520190565b9380808093949596335af16110f2611623565b50156106ba579081859392611095565b5090516312171d8360e31b8152fd5b50905163081ceff360e41b8152fd5b8551631e9acf1760e31b81528590fd5b8351630f58058360e11b81528390fd5b50919060a0366003190112610742578235906001600160401b0380831161023d573660238401121561023d578285013591818311610e7357602492838501948436918360051b01011161073e57833592606435818111610a5e576111a79036908a016113cc565b929091608435908111610a5a576111c19036908b016113cc565b9990916111cc61169a565b600281106113bd5786156113bd575a9281156113ab578a9b8a888a9b9c9d61120b6112019c60018060a01b03809e8196611b4d565b1630903390611738565b46815260026020522060208a5180928b8b83378b820190815203019020541691821561139b57918d92918380938f8e858f61124861124e94611b4d565b166119f3565b828c519384928337810182815203925af1611267611623565b901561138757602081805181010312611397576020015192604435841061138757610d7e611296915a906115ed565b611388908181029181830414901517156113755761271090049889611330575b60001982019282841161131f575050918661130e6112fd6104149694600080516020611b6f8339815191529a9998966113088f6112fd8833896113026112fd898988611b27565b611b4d565b166116f0565b9e611b27565b9551968796169a1698339886611674565b634e487b7160e01b8d52601190528bfd5b8b8080808d7f00000000000000000000000000000000000000000000000000000000000000005af1611360611623565b506112b65786516312171d8360e31b81528390fd5b634e487b7160e01b8c5260118352898cfd5b865163081ceff360e41b81528390fd5b8b80fd5b8851634a92f12b60e01b81528590fd5b634e487b7160e01b8b5260328352888bfd5b50845163162908e360e11b8152fd5b9181601f840112156113f9578235916001600160401b0383116113f957602083818601950101116113f957565b600080fd5b602435906001600160a01b03821682036113f957565b600435906001600160a01b03821682036113f957565b60005b83811061143d5750506000910152565b818101518382015260200161142d565b906020916114668151809281855285808601910161142a565b601f01601f1916010190565b90601f801991011681019081106001600160401b0382111761149357604052565b634e487b7160e01b600052604160045260246000fd5b90604051906000835490600182811c90808416968715611570575b602094858410891461155c578798848997989952908160001461153a57506001146114fb575b5050506114f992500383611472565b565b600090815285812095935091905b8183106115225750506114f993508201013880806114ea565b85548884018501529485019487945091830191611509565b925050506114f994925060ff191682840152151560051b8201013880806114ea565b634e487b7160e01b85526022600452602485fd5b91607f16916114c4565b6001600160401b03811161149357601f01601f191660200190565b6001546001600160a01b031633036115a957565b606460405162461bcd60e51b815260206004820152602060248201527f4f776e61626c653a2063616c6c6572206973206e6f7420746865206f776e65726044820152fd5b919082039182116115fa57565b634e487b7160e01b600052601160045260246000fd5b818102929181159184041417156115fa57565b3d1561164e573d906116348261157a565b916116426040519384611472565b82523d6000602084013e565b606090565b908060209392818452848401376000828201840152601f01601f1916010190565b909260809261169796948352602083015260408201528160608201520191611653565b90565b6002600054146116ab576002600055565b60405162461bcd60e51b815260206004820152601f60248201527f5265656e7472616e637947756172643a207265656e7472616e742063616c6c006044820152606490fd5b60405163a9059cbb60e01b60208201526001600160a01b03909216602483015260448201929092526114f99161173382606481015b03601f198101845283611472565b61178c565b6040516323b872dd60e01b60208201526001600160a01b03928316602482015292909116604483015260648083019390935291815260a08101918183106001600160401b03841117611493576114f9926040525b60018060a01b03169060405160408101908082106001600160401b03831117611493576117fd916040526020938482527f5361666545524332303a206c6f772d6c6576656c2063616c6c206661696c6564858301526000808587829751910182855af16117f7611623565b91611893565b80519182159184831561186f575b5050509050156118185750565b6084906040519062461bcd60e51b82526004820152602a60248201527f5361666545524332303a204552433230206f7065726174696f6e20646964206e6044820152691bdd081cdd58d8d9595960b21b6064820152fd5b919381809450010312610742578201519081151582036105b457508038808461180b565b919290156118f557508151156118a7575090565b3b156118b05790565b60405162461bcd60e51b815260206004820152601d60248201527f416464726573733a2063616c6c20746f206e6f6e2d636f6e74726163740000006044820152606490fd5b8251909150156119085750805190602001fd5b60405162461bcd60e51b81526020600482015290819061192c90602483019061144d565b0390fd5b9293949095919560009446865260026020526040968787209080895193843782019081528190036020019020546001600160a01b039081169485156119e257926119848796949385889795948895166119f3565b8288519384928337810182815203925af19061199e611623565b91156119d1576020828051810103126105b45750602001519182106119c1575090565b5163081ceff360e41b8152600490fd5b825163081ceff360e41b8152600490fd5b8751634a92f12b60e01b8152600490fd5b91909181158015611aa2575b15611a3e5760405163095ea7b360e01b60208201526001600160a01b03909316602484015260448301919091526114f991906117338260648101611725565b60405162461bcd60e51b815260206004820152603660248201527f5361666545524332303a20617070726f76652066726f6d206e6f6e2d7a65726f60448201527520746f206e6f6e2d7a65726f20616c6c6f77616e636560501b6064820152608490fd5b50604051636eb1769f60e11b81523060048201526001600160a01b0384811660248301526020908290604490829086165afa908115611b1b57600091611aea575b50156119ff565b906020823d8211611b13575b81611b0360209383611472565b810103126105b457505138611ae3565b3d9150611af6565b6040513d6000823e3d90fd5b9190811015611b375760051b0190565b634e487b7160e01b600052603260045260246000fd5b356001600160a01b03811681036113f95790565b919082018092116115fa5756fe724ef2525566d177428085a63ac07146a393ad3a7737e1a9c2349496a33764cfa26469706673582212203a0547ea05c3f541193eea0f2459e8b550308ee764c476799cf0a64aa602d97864736f6c63430008130033","opcodes":"PUSH1 0xA0 CALLVALUE PUSH3 0x457 JUMPI PUSH1 0x1F PUSH3 0x20AD CODESIZE DUP2 SWAP1 SUB DUP3 DUP2 ADD PUSH1 0x1F NOT SWAP1 DUP2 AND DUP6 ADD SWAP5 SWAP4 SWAP3 PUSH1 0x1 PUSH1 0x1 PUSH1 0x40 SHL SUB SWAP3 DUP4 DUP8 GT DUP7 DUP9 LT OR PUSH3 0x45C JUMPI DUP1 DUP7 SWAP3 PUSH1 0x40 SWAP9 DUP10 MSTORE DUP4 CODECOPY PUSH1 0x20 SWAP6 DUP7 SWAP2 DUP2 ADD SUB SLT PUSH3 0x457 JUMPI MLOAD PUSH1 0x1 PUSH1 0x1 PUSH1 0xA0 SHL SUB DUP1 DUP3 AND SWAP6 SWAP1 SWAP5 SWAP1 SWAP2 DUP7 DUP2 SUB PUSH3 0x457 JUMPI PUSH1 0x1 SWAP6 PUSH1 0x0 SWAP8 DUP8 DUP10 SSTORE DUP8 SLOAD CALLER PUSH1 0x1 DUP1 PUSH1 0xA0 SHL SUB NOT DUP3 AND OR DUP10 SSTORE DUP11 MLOAD SWAP3 CALLER SWAP2 AND PUSH32 0x8BE0079C531659141344CD1FD0A4F28419497F9722A3DAAFE3B4186F6B6457E0 DUP12 DUP1 LOG3 ISZERO PUSH3 0x448 JUMPI POP PUSH1 0x80 MSTORE DUP7 MLOAD SWAP4 PUSH2 0x140 DUP6 ADD DUP6 DUP2 LT DUP3 DUP3 GT OR PUSH3 0x434 JUMPI DUP9 MSTORE PUSH3 0xD2 PUSH3 0x472 JUMP JUMPDEST PUSH1 0xD DUP2 MSTORE PUSH13 0x3830B731B0B5B2A9BBB0B82B19 PUSH1 0x99 SHL DUP5 DUP3 ADD MSTORE DUP6 MSTORE PUSH3 0xF7 PUSH3 0x472 JUMP JUMPDEST PUSH1 0x9 DUP2 MSTORE PUSH9 0x3AB734B9BBB0B82B19 PUSH1 0xB9 SHL DUP5 DUP3 ADD MSTORE DUP4 DUP7 ADD MSTORE PUSH3 0x11A PUSH3 0x472 JUMP JUMPDEST PUSH1 0x9 DUP2 MSTORE PUSH9 0x73757368697377617 PUSH1 0xBC SHL DUP5 DUP3 ADD MSTORE DUP9 DUP7 ADD MSTORE PUSH3 0x13D PUSH3 0x472 JUMP JUMPDEST PUSH1 0x9 DUP2 MSTORE PUSH9 0x717569636B7377617 PUSH1 0xBC SHL DUP5 DUP3 ADD MSTORE PUSH1 0x60 DUP7 ADD MSTORE PUSH3 0x161 PUSH3 0x472 JUMP JUMPDEST PUSH1 0x9 DUP2 MSTORE PUSH9 0x7472616465726A6F65 PUSH1 0xB8 SHL DUP5 DUP3 ADD MSTORE PUSH1 0x80 DUP7 ADD MSTORE PUSH3 0x185 PUSH3 0x472 JUMP JUMPDEST SWAP5 PUSH1 0xA SWAP6 DUP7 DUP2 MSTORE PUSH10 0x7370697269747377617 PUSH1 0xB4 SHL DUP6 DUP3 ADD MSTORE PUSH1 0xA0 DUP3 ADD MSTORE PUSH3 0x1AD PUSH3 0x472 JUMP JUMPDEST DUP7 DUP2 MSTORE PUSH10 0x73706F6F6B797377617 PUSH1 0xB4 SHL DUP6 DUP3 ADD MSTORE PUSH1 0xC0 DUP3 ADD MSTORE PUSH3 0x1D1 PUSH3 0x472 JUMP JUMPDEST PUSH1 0x7 DUP2 MSTORE PUSH7 0x6170657377617 PUSH1 0xCC SHL DUP6 DUP3 ADD MSTORE PUSH1 0xE0 DUP3 ADD MSTORE PUSH3 0x1F3 PUSH3 0x472 JUMP JUMPDEST PUSH1 0x6 DUP2 MSTORE PUSH6 0x62697377617 PUSH1 0xD4 SHL DUP6 DUP3 ADD MSTORE PUSH2 0x100 DUP3 ADD MSTORE PUSH3 0x215 PUSH3 0x472 JUMP JUMPDEST PUSH1 0x4 DUP2 MSTORE PUSH4 0xDAC8CAF PUSH1 0xE3 SHL DUP6 DUP3 ADD MSTORE PUSH2 0x120 DUP3 ADD MSTORE PUSH1 0x3 SWAP1 DUP2 SLOAD DUP8 DUP4 SSTORE DUP1 DUP9 LT PUSH3 0x3BB JUMPI JUMPDEST POP SWAP5 SWAP3 DUP2 DUP10 MSTORE DUP5 DUP10 KECCAK256 SWAP4 DUP10 SWAP7 JUMPDEST DUP9 DUP9 LT PUSH3 0x293 JUMPI DUP12 MLOAD PUSH2 0x1BC4 SWAP1 DUP2 PUSH3 0x4E9 DUP3 CODECOPY PUSH1 0x80 MLOAD DUP2 DUP2 DUP2 PUSH2 0x38B ADD MSTORE DUP2 DUP2 PUSH2 0x6CF ADD MSTORE DUP2 DUP2 PUSH2 0x9E1 ADD MSTORE DUP2 DUP2 PUSH2 0xC63 ADD MSTORE DUP2 DUP2 PUSH2 0xDE5 ADD MSTORE DUP2 DUP2 PUSH2 0x1052 ADD MSTORE PUSH2 0x1337 ADD MSTORE RETURN JUMPDEST DUP1 MLOAD SWAP1 DUP2 MLOAD DUP7 DUP2 GT PUSH3 0x3A7 JUMPI DUP12 SWAP2 DUP10 SWAP2 DUP15 PUSH3 0x2B1 DUP12 SLOAD PUSH3 0x492 JUMP JUMPDEST DUP9 DUP2 GT PUSH3 0x36C JUMPI JUMPDEST POP DUP4 SWAP1 DUP9 DUP4 GT PUSH1 0x1 EQ PUSH3 0x2FD JUMPI SWAP1 DUP6 SWAP7 DUP4 PUSH3 0x2F1 JUMPI JUMPDEST POP POP PUSH1 0x0 NOT DUP3 DUP11 SHL SHR NOT AND SWAP1 DUP5 SHL OR DUP10 SSTORE JUMPDEST ADD SWAP7 ADD SWAP8 ADD SWAP7 SWAP5 PUSH3 0x249 JUMP JUMPDEST ADD MLOAD SWAP1 POP CODESIZE DUP1 PUSH3 0x2D2 JUMP JUMPDEST SWAP1 DUP8 DUP4 AND DUP13 DUP4 MSTORE DUP6 DUP4 KECCAK256 SWAP3 JUMPDEST DUP2 DUP2 LT PUSH3 0x348 JUMPI POP SWAP1 DUP7 SWAP8 DUP5 DUP9 SWAP6 SWAP5 SWAP4 LT PUSH3 0x32F JUMPI JUMPDEST POP POP POP DUP2 SHL ADD DUP10 SSTORE PUSH3 0x2E4 JUMP JUMPDEST ADD MLOAD PUSH1 0x0 NOT DUP4 DUP13 SHL PUSH1 0xF8 AND SHR NOT AND SWAP1 SSTORE CODESIZE DUP1 DUP1 PUSH3 0x321 JUMP JUMPDEST SWAP5 SWAP8 SWAP4 SWAP7 DUP7 SWAP3 SWAP7 SWAP2 SWAP4 DUP8 DUP7 ADD MLOAD DUP2 SSTORE ADD SWAP6 ADD SWAP4 ADD SWAP3 DUP16 SWAP6 SWAP3 SWAP7 SWAP4 SWAP2 DUP14 SWAP6 SWAP3 PUSH3 0x309 JUMP JUMPDEST PUSH3 0x396 SWAP1 DUP13 DUP4 MSTORE DUP6 DUP4 KECCAK256 PUSH1 0x5 DUP12 DUP1 DUP8 ADD DUP3 SHR DUP4 ADD SWAP4 DUP10 DUP9 LT PUSH3 0x39D JUMPI JUMPDEST ADD SWAP1 SHR ADD SWAP1 PUSH3 0x4CF JUMP JUMPDEST CODESIZE PUSH3 0x2BA JUMP JUMPDEST SWAP4 POP DUP3 SWAP4 PUSH3 0x38B JUMP JUMPDEST PUSH4 0x4E487B71 PUSH1 0xE0 SHL DUP14 MSTORE PUSH1 0x41 PUSH1 0x4 MSTORE PUSH1 0x24 DUP14 REVERT JUMPDEST DUP3 DUP11 MSTORE DUP9 DUP9 DUP8 DUP13 KECCAK256 SWAP3 DUP4 ADD SWAP3 ADD JUMPDEST DUP3 DUP2 LT PUSH3 0x3D9 JUMPI POP POP PUSH3 0x23C JUMP JUMPDEST DUP12 PUSH3 0x3E6 DUP3 SLOAD PUSH3 0x492 JUMP JUMPDEST DUP1 PUSH3 0x3F8 JUMPI JUMPDEST POP POP ADD DUP10 SWAP1 PUSH3 0x3C9 JUMP JUMPDEST DUP9 DUP2 GT PUSH1 0x1 EQ PUSH3 0x40F JUMPI POP DUP2 SSTORE JUMPDEST DUP12 CODESIZE PUSH3 0x3ED JUMP JUMPDEST DUP3 DUP3 MSTORE PUSH3 0x42A DUP10 DUP12 DUP5 KECCAK256 SWAP3 ADD PUSH1 0x5 SHR DUP3 ADD DUP6 DUP4 ADD PUSH3 0x4CF JUMP JUMPDEST DUP2 DUP4 SSTORE SSTORE PUSH3 0x407 JUMP JUMPDEST PUSH4 0x4E487B71 PUSH1 0xE0 SHL DUP9 MSTORE PUSH1 0x41 PUSH1 0x4 MSTORE PUSH1 0x24 DUP9 REVERT JUMPDEST PUSH4 0xF580583 PUSH1 0xE1 SHL DUP2 MSTORE PUSH1 0x4 SWAP1 REVERT JUMPDEST PUSH1 0x0 DUP1 REVERT JUMPDEST PUSH4 0x4E487B71 PUSH1 0xE0 SHL PUSH1 0x0 MSTORE PUSH1 0x41 PUSH1 0x4 MSTORE PUSH1 0x24 PUSH1 0x0 REVERT JUMPDEST PUSH1 0x40 DUP1 MLOAD SWAP2 SWAP1 DUP3 ADD PUSH1 0x1 PUSH1 0x1 PUSH1 0x40 SHL SUB DUP2 GT DUP4 DUP3 LT OR PUSH3 0x45C JUMPI PUSH1 0x40 MSTORE JUMP JUMPDEST SWAP1 PUSH1 0x1 DUP3 DUP2 SHR SWAP3 AND DUP1 ISZERO PUSH3 0x4C4 JUMPI JUMPDEST PUSH1 0x20 DUP4 LT EQ PUSH3 0x4AE JUMPI JUMP JUMPDEST PUSH4 0x4E487B71 PUSH1 0xE0 SHL PUSH1 0x0 MSTORE PUSH1 0x22 PUSH1 0x4 MSTORE PUSH1 0x24 PUSH1 0x0 REVERT JUMPDEST SWAP2 PUSH1 0x7F AND SWAP2 PUSH3 0x4A2 JUMP JUMPDEST DUP2 DUP2 LT PUSH3 0x4DB JUMPI POP POP JUMP JUMPDEST PUSH1 0x0 DUP2 SSTORE PUSH1 0x1 ADD PUSH3 0x4CF JUMP INVALID PUSH1 0x40 PUSH1 0x80 DUP2 MSTORE PUSH1 0x4 SWAP1 DUP2 CALLDATASIZE LT ISZERO PUSH2 0x20 JUMPI JUMPDEST POP POP CALLDATASIZE ISZERO PUSH2 0x1E JUMPI PUSH1 0x0 DUP1 REVERT JUMPDEST STOP JUMPDEST PUSH1 0x0 SWAP2 DUP3 CALLDATALOAD PUSH1 0xE0 SHR DUP1 PUSH4 0x3DFBC00 EQ PUSH2 0x1140 JUMPI DUP1 PUSH4 0x75C3993 EQ PUSH2 0xFA8 JUMPI DUP1 PUSH4 0x108E3C99 EQ PUSH2 0xF79 JUMPI DUP1 PUSH4 0x386E07BF EQ PUSH2 0xE77 JUMPI DUP1 PUSH4 0x3C7DCCDE EQ PUSH2 0xC92 JUMPI DUP1 PUSH4 0x44478425 EQ PUSH2 0xC4E JUMPI DUP1 PUSH4 0x4CAF81F5 EQ PUSH2 0xBE8 JUMPI DUP1 PUSH4 0x53326FA3 EQ PUSH2 0xB40 JUMPI DUP1 PUSH4 0x596BFCE8 EQ PUSH2 0xB23 JUMPI DUP1 PUSH4 0x715018A6 EQ PUSH2 0xAC6 JUMPI DUP1 PUSH4 0x78E3399D EQ PUSH2 0xA62 JUMPI DUP1 PUSH4 0x83E201B4 EQ PUSH2 0x8CF JUMPI DUP1 PUSH4 0x89B476EC EQ PUSH2 0x7E9 JUMPI DUP1 PUSH4 0x8DA5CB5B EQ PUSH2 0x7C0 JUMPI DUP1 PUSH4 0x95CCEA67 EQ PUSH2 0x746 JUMPI DUP1 PUSH4 0x9BE2EE4B EQ PUSH2 0x5B7 JUMPI DUP1 PUSH4 0xC0F03105 EQ PUSH2 0x560 JUMPI DUP1 PUSH4 0xD0FF8CD9 EQ PUSH2 0x241 JUMPI DUP1 PUSH4 0xD88545BA EQ PUSH2 0x1D7 JUMPI PUSH4 0xF2FDE38B EQ PUSH2 0x109 JUMPI POP PUSH2 0x11 JUMP JUMPDEST CALLVALUE PUSH2 0x1D3 JUMPI PUSH1 0x20 CALLDATASIZE PUSH1 0x3 NOT ADD SLT PUSH2 0x1D3 JUMPI PUSH2 0x122 PUSH2 0x1414 JUMP JUMPDEST SWAP1 PUSH2 0x12B PUSH2 0x1595 JUMP JUMPDEST PUSH1 0x1 PUSH1 0x1 PUSH1 0xA0 SHL SUB SWAP2 DUP3 AND SWAP3 DUP4 ISZERO PUSH2 0x181 JUMPI POP POP PUSH1 0x1 SLOAD DUP3 PUSH12 0xFFFFFFFFFFFFFFFFFFFFFFFF PUSH1 0xA0 SHL DUP3 AND OR PUSH1 0x1 SSTORE AND PUSH32 0x8BE0079C531659141344CD1FD0A4F28419497F9722A3DAAFE3B4186F6B6457E0 DUP4 DUP1 LOG3 DUP1 RETURN JUMPDEST SWAP1 PUSH1 0x20 PUSH1 0x84 SWAP3 MLOAD SWAP2 PUSH3 0x461BCD PUSH1 0xE5 SHL DUP4 MSTORE DUP3 ADD MSTORE PUSH1 0x26 PUSH1 0x24 DUP3 ADD MSTORE PUSH32 0x4F776E61626C653A206E6577206F776E657220697320746865207A65726F2061 PUSH1 0x44 DUP3 ADD MSTORE PUSH6 0x646472657373 PUSH1 0xD0 SHL PUSH1 0x64 DUP3 ADD MSTORE REVERT JUMPDEST DUP3 DUP1 REVERT JUMPDEST POP CALLVALUE PUSH2 0x1D3 JUMPI PUSH1 0x20 CALLDATASIZE PUSH1 0x3 NOT ADD SLT PUSH2 0x1D3 JUMPI DUP1 CALLDATALOAD PUSH1 0x1 PUSH1 0x1 PUSH1 0x40 SHL SUB DUP2 GT PUSH2 0x23D JUMPI SWAP3 PUSH2 0x20A DUP4 SWAP3 PUSH1 0x20 SWAP6 CALLDATASIZE SWAP2 ADD PUSH2 0x13CC JUMP JUMPDEST SWAP3 SWAP1 SWAP2 CHAINID DUP2 MSTORE PUSH1 0x2 DUP7 MSTORE KECCAK256 SWAP2 DUP1 DUP5 MLOAD SWAP3 DUP4 CALLDATACOPY DUP2 ADD SWAP2 DUP3 MSTORE SWAP1 DUP2 SWAP1 SUB DUP4 ADD SWAP1 KECCAK256 SLOAD SWAP1 MLOAD PUSH1 0x1 PUSH1 0x1 PUSH1 0xA0 SHL SUB SWAP1 SWAP2 AND ISZERO ISZERO DUP2 MSTORE RETURN JUMPDEST DUP4 DUP1 REVERT JUMPDEST POP PUSH1 0xC0 CALLDATASIZE PUSH1 0x3 NOT ADD SLT PUSH2 0x1D3 JUMPI PUSH2 0x256 PUSH2 0x1414 JUMP JUMPDEST SWAP2 PUSH1 0x24 CALLDATALOAD SWAP1 PUSH1 0x44 CALLDATALOAD SWAP3 PUSH1 0x1 PUSH1 0x1 PUSH1 0x40 SHL SUB SWAP4 DUP5 DUP2 GT PUSH2 0x55C JUMPI PUSH2 0x27C SWAP1 CALLDATASIZE SWAP1 DUP4 ADD PUSH2 0x13CC JUMP JUMPDEST SWAP2 PUSH1 0x64 CALLDATALOAD SWAP7 PUSH1 0x1 DUP1 PUSH1 0xA0 SHL SUB DUP1 DUP10 AND DUP1 SWAP10 SUB PUSH2 0x558 JUMPI PUSH1 0xA4 CALLDATALOAD SWAP2 PUSH2 0x29E PUSH2 0x169A JUMP JUMPDEST AND SWAP7 DUP8 ISZERO DUP1 ISZERO PUSH2 0x550 JUMPI JUMPDEST PUSH2 0x540 JUMPI DUP7 ISZERO PUSH2 0x530 JUMPI DUP2 PUSH1 0x1 SHR SWAP5 PUSH2 0x2C2 DUP7 DUP5 PUSH2 0x1B61 JUMP JUMPDEST SWAP3 DUP4 CALLVALUE LT PUSH2 0x520 JUMPI PUSH2 0x2D6 DUP10 ADDRESS CALLER DUP14 PUSH2 0x1738 JUMP JUMPDEST DUP8 MLOAD SWAP6 PUSH4 0x6EB1769F PUSH1 0xE1 SHL DUP8 MSTORE ADDRESS DUP7 DUP9 ADD MSTORE PUSH20 0x1231DEB6F5749EF6CE6943A275A1D3E7486F4EAE SWAP4 DUP5 PUSH1 0x24 DUP10 ADD MSTORE DUP14 DUP9 DUP14 DUP2 PUSH1 0x44 PUSH1 0x20 SWAP13 DUP14 SWAP4 GAS STATICCALL SWAP2 DUP3 ISZERO PUSH2 0x515 JUMPI SWAP2 PUSH2 0x4E4 JUMPI JUMPDEST POP PUSH2 0x482 JUMPI DUP10 MLOAD PUSH4 0x95EA7B3 PUSH1 0xE0 SHL DUP10 DUP3 ADD MSTORE PUSH1 0x24 DUP2 ADD DUP7 SWAP1 MSTORE PUSH1 0x44 DUP1 DUP3 ADD DUP14 SWAP1 MSTORE DUP2 MSTORE SWAP1 PUSH1 0x80 DUP3 ADD SWAP1 DUP2 GT DUP3 DUP3 LT OR PUSH2 0x46F JUMPI SWAP2 PUSH2 0x365 DUP16 SWAP7 SWAP5 SWAP3 DUP15 DUP9 SWAP8 SWAP6 DUP15 MSTORE PUSH2 0x178C JUMP JUMPDEST DUP3 DUP12 MLOAD SWAP4 DUP5 SWAP3 DUP4 CALLDATACOPY DUP2 ADD DUP6 DUP2 MSTORE SUB SWAP3 GAS CALL PUSH2 0x37E PUSH2 0x1623 JUMP JUMPDEST POP ISZERO PUSH2 0x460 JUMPI DUP9 DUP1 DUP1 DUP1 DUP8 PUSH32 0x0 GAS CALL PUSH2 0x3B4 PUSH2 0x1623 JUMP JUMPDEST POP ISZERO PUSH2 0x451 JUMPI SWAP1 PUSH2 0x3C9 DUP10 SWAP6 SWAP5 SWAP4 SWAP3 CALLVALUE PUSH2 0x15ED JUMP JUMPDEST DUP1 PUSH2 0x41E JUMPI JUMPDEST POP POP DUP3 MLOAD SWAP5 DUP6 MSTORE DUP5 ADD MSTORE DUP3 ADD MSTORE PUSH1 0x80 PUSH1 0x60 DUP3 ADD MSTORE PUSH1 0x0 DUP1 MLOAD PUSH1 0x20 PUSH2 0x1B6F DUP4 CODECOPY DUP2 MLOAD SWAP2 MSTORE CALLER SWAP2 DUP1 PUSH2 0x414 PUSH1 0x80 DUP3 ADD PUSH1 0x40 SWAP1 PUSH1 0x4 DUP2 MSTORE PUSH4 0x6C696669 PUSH1 0xE0 SHL PUSH1 0x20 DUP3 ADD MSTORE ADD SWAP1 JUMP JUMPDEST SUB SWAP1 LOG4 PUSH1 0x1 DUP2 SSTORE DUP1 RETURN JUMPDEST SWAP5 DUP1 DUP1 DUP1 SWAP4 SWAP5 SWAP6 SWAP7 SWAP8 CALLER GAS CALL PUSH2 0x432 PUSH2 0x1623 JUMP JUMPDEST POP ISZERO PUSH2 0x443 JUMPI SWAP1 DUP2 DUP9 SWAP5 SWAP4 SWAP3 PUSH2 0x3CF JUMP JUMPDEST DUP4 MLOAD PUSH4 0x12171D83 PUSH1 0xE3 SHL DUP2 MSTORE REVERT JUMPDEST POP DUP4 MLOAD PUSH4 0x12171D83 PUSH1 0xE3 SHL DUP2 MSTORE REVERT JUMPDEST POP DUP4 MLOAD PUSH4 0x81CEFF3 PUSH1 0xE4 SHL DUP2 MSTORE REVERT JUMPDEST PUSH4 0x4E487B71 PUSH1 0xE0 SHL DUP16 MSTORE PUSH1 0x41 DUP9 MSTORE PUSH1 0x24 DUP16 REVERT JUMPDEST DUP10 MLOAD PUSH3 0x461BCD PUSH1 0xE5 SHL DUP2 MSTORE DUP1 DUP9 ADD DUP10 SWAP1 MSTORE PUSH1 0x36 PUSH1 0x24 DUP3 ADD MSTORE PUSH32 0x5361666545524332303A20617070726F76652066726F6D206E6F6E2D7A65726F PUSH1 0x44 DUP3 ADD MSTORE PUSH22 0x20746F206E6F6E2D7A65726F20616C6C6F77616E6365 PUSH1 0x50 SHL PUSH1 0x64 DUP3 ADD MSTORE PUSH1 0x84 SWAP1 REVERT JUMPDEST SWAP1 POP DUP9 DUP2 DUP2 RETURNDATASIZE DUP4 GT PUSH2 0x50E JUMPI JUMPDEST PUSH2 0x4FB DUP2 DUP4 PUSH2 0x1472 JUMP JUMPDEST DUP2 ADD SUB SLT PUSH2 0x50A JUMPI MLOAD CODESIZE PUSH2 0x31E JUMP JUMPDEST DUP15 DUP1 REVERT JUMPDEST POP RETURNDATASIZE PUSH2 0x4F1 JUMP JUMPDEST DUP13 MLOAD SWAP1 RETURNDATASIZE SWAP1 DUP3 RETURNDATACOPY RETURNDATASIZE SWAP1 REVERT JUMPDEST DUP8 MLOAD PUSH4 0x1E9ACF17 PUSH1 0xE3 SHL DUP2 MSTORE DUP6 SWAP1 REVERT JUMPDEST DUP6 MLOAD PUSH4 0x162908E3 PUSH1 0xE1 SHL DUP2 MSTORE DUP4 SWAP1 REVERT JUMPDEST DUP6 MLOAD PUSH4 0xF580583 PUSH1 0xE1 SHL DUP2 MSTORE DUP4 SWAP1 REVERT JUMPDEST POP DUP9 ISZERO PUSH2 0x2A9 JUMP JUMPDEST DUP10 DUP1 REVERT JUMPDEST DUP7 DUP1 REVERT JUMPDEST POP DUP3 CALLVALUE PUSH2 0x5B4 JUMPI PUSH1 0x20 CALLDATASIZE PUSH1 0x3 NOT ADD SLT PUSH2 0x5B4 JUMPI PUSH2 0x57E GASPRICE DUP4 CALLDATALOAD PUSH2 0x1610 JUMP JUMPDEST SWAP2 PUSH2 0x1388 SWAP3 DUP4 DUP2 MUL SWAP4 DUP2 DUP6 DIV EQ SWAP1 ISZERO OR ISZERO PUSH2 0x5A1 JUMPI PUSH1 0x20 DUP4 PUSH2 0x2710 DUP7 MLOAD SWAP2 DIV DUP2 MSTORE RETURN JUMPDEST PUSH4 0x4E487B71 PUSH1 0xE0 SHL DUP3 MSTORE PUSH1 0x11 SWAP1 MSTORE PUSH1 0x24 SWAP1 REVERT JUMPDEST DUP1 REVERT JUMPDEST POP SWAP2 SWAP1 PUSH1 0xA0 CALLDATASIZE PUSH1 0x3 NOT ADD SLT PUSH2 0x742 JUMPI PUSH2 0x5CE PUSH2 0x1414 JUMP JUMPDEST SWAP3 PUSH1 0x24 CALLDATALOAD SWAP1 PUSH1 0x1 PUSH1 0x1 PUSH1 0x40 SHL SUB PUSH1 0x64 CALLDATALOAD DUP2 DUP2 GT PUSH2 0x73E JUMPI PUSH2 0x5F2 SWAP1 CALLDATASIZE SWAP1 DUP5 ADD PUSH2 0x13CC JUMP JUMPDEST SWAP2 PUSH1 0x84 CALLDATALOAD SWAP1 DUP2 GT PUSH2 0x55C JUMPI PUSH2 0x60A SWAP1 CALLDATASIZE SWAP1 DUP6 ADD PUSH2 0x13CC JUMP JUMPDEST SWAP6 SWAP1 SWAP8 PUSH2 0x615 PUSH2 0x169A JUMP JUMPDEST PUSH1 0x1 PUSH1 0x1 PUSH1 0xA0 SHL SUB DUP2 AND SWAP7 DUP8 ISZERO PUSH2 0x72E JUMPI DUP7 ISZERO PUSH2 0x71E JUMPI GAS SWAP10 PUSH2 0x63A DUP9 ADDRESS CALLER DUP13 PUSH2 0x1738 JUMP JUMPDEST DUP6 DUP6 DUP10 PUSH1 0x44 CALLDATALOAD SWAP1 PUSH2 0x64A SWAP7 PUSH2 0x1930 JUMP JUMPDEST SWAP8 GAS PUSH2 0x655 SWAP2 PUSH2 0x15ED JUMP JUMPDEST GASPRICE PUSH2 0x65F SWAP2 PUSH2 0x1610 JUMP JUMPDEST PUSH2 0x1388 SWAP1 DUP2 DUP2 MUL SWAP2 DUP2 DUP4 DIV EQ SWAP1 ISZERO OR ISZERO PUSH2 0x70B JUMPI PUSH2 0x2710 SWAP1 DIV SWAP4 DUP5 PUSH2 0x6C8 JUMPI JUMPDEST DUP8 DUP1 DUP1 DUP1 DUP13 CALLER GAS CALL PUSH2 0x68F PUSH2 0x1623 JUMP JUMPDEST POP ISZERO PUSH2 0x6BA JUMPI POP DUP7 SWAP8 SWAP3 PUSH1 0x0 DUP1 MLOAD PUSH1 0x20 PUSH2 0x1B6F DUP4 CODECOPY DUP2 MLOAD SWAP2 MSTORE SWAP5 SWAP3 PUSH2 0x414 SWAP3 MLOAD SWAP5 DUP6 SWAP5 CALLER SWAP9 DUP7 PUSH2 0x1674 JUMP JUMPDEST SWAP1 MLOAD PUSH4 0x12171D83 PUSH1 0xE3 SHL DUP2 MSTORE REVERT JUMPDEST DUP8 DUP1 DUP1 DUP1 DUP9 PUSH32 0x0 GAS CALL PUSH2 0x6F8 PUSH2 0x1623 JUMP JUMPDEST POP PUSH2 0x67F JUMPI SWAP1 MLOAD PUSH4 0x12171D83 PUSH1 0xE3 SHL DUP2 MSTORE REVERT JUMPDEST PUSH4 0x4E487B71 PUSH1 0xE0 SHL DUP9 MSTORE PUSH1 0x11 DUP6 MSTORE PUSH1 0x24 DUP9 REVERT JUMPDEST DUP3 MLOAD PUSH4 0x162908E3 PUSH1 0xE1 SHL DUP2 MSTORE DUP7 SWAP1 REVERT JUMPDEST DUP3 MLOAD PUSH4 0xF580583 PUSH1 0xE1 SHL DUP2 MSTORE DUP7 SWAP1 REVERT JUMPDEST DUP6 DUP1 REVERT JUMPDEST POP DUP1 REVERT JUMPDEST POP SWAP1 CALLVALUE PUSH2 0x1D3 JUMPI DUP1 PUSH1 0x3 NOT CALLDATASIZE ADD SLT PUSH2 0x1D3 JUMPI DUP3 PUSH2 0x761 PUSH2 0x1414 JUMP JUMPDEST PUSH1 0x24 CALLDATALOAD SWAP1 PUSH2 0x76D PUSH2 0x1595 JUMP JUMPDEST PUSH1 0x1 PUSH1 0x1 PUSH1 0xA0 SHL SUB SWAP1 DUP2 AND DUP1 PUSH2 0x7A9 JUMPI POP DUP3 DUP1 SWAP3 DUP2 SWAP3 PUSH1 0x1 SLOAD AND GAS CALL PUSH2 0x791 PUSH2 0x1623 JUMP JUMPDEST POP ISZERO PUSH2 0x79C JUMPI POP POP DUP1 RETURN JUMPDEST MLOAD PUSH4 0x12171D83 PUSH1 0xE3 SHL DUP2 MSTORE REVERT JUMPDEST SWAP3 POP SWAP1 SWAP3 POP PUSH2 0x7BD SWAP4 POP PUSH1 0x1 SLOAD AND SWAP1 PUSH2 0x16F0 JUMP JUMPDEST DUP1 RETURN JUMPDEST POP POP CALLVALUE PUSH2 0x742 JUMPI DUP2 PUSH1 0x3 NOT CALLDATASIZE ADD SLT PUSH2 0x742 JUMPI PUSH1 0x1 SLOAD SWAP1 MLOAD PUSH1 0x1 PUSH1 0x1 PUSH1 0xA0 SHL SUB SWAP1 SWAP2 AND DUP2 MSTORE PUSH1 0x20 SWAP1 RETURN JUMPDEST POP SWAP2 SWAP1 CALLVALUE PUSH2 0x742 JUMPI PUSH1 0x60 CALLDATASIZE PUSH1 0x3 NOT ADD SLT PUSH2 0x742 JUMPI DUP3 CALLDATALOAD PUSH1 0x24 CALLDATALOAD PUSH1 0x1 PUSH1 0x1 PUSH1 0x40 SHL SUB DUP2 GT PUSH2 0x23D JUMPI PUSH2 0x81D SWAP1 CALLDATASIZE SWAP1 DUP7 ADD PUSH2 0x13CC JUMP JUMPDEST SWAP3 SWAP1 SWAP5 PUSH1 0x44 CALLDATALOAD SWAP1 PUSH1 0x1 DUP1 PUSH1 0xA0 SHL SUB DUP3 AND DUP1 SWAP3 SUB PUSH2 0x73E JUMPI PUSH2 0x83C PUSH2 0x1595 JUMP JUMPDEST DUP2 ISZERO PUSH2 0x8C1 JUMPI POP PUSH2 0x8B7 DUP6 SWAP7 DUP5 PUSH32 0x89D28388318BAB8FA8F1B13024D02B273AD19672C583CE86798DDA98044F3EB0 SWAP8 MSTORE PUSH1 0x2 PUSH1 0x20 MSTORE DUP4 DUP9 KECCAK256 PUSH1 0x20 DUP6 MLOAD DUP1 SWAP3 DUP10 DUP6 DUP4 CALLDATACOPY DUP10 DUP3 ADD SWAP1 DUP2 MSTORE SUB ADD SWAP1 KECCAK256 DUP4 PUSH12 0xFFFFFFFFFFFFFFFFFFFFFFFF PUSH1 0xA0 SHL DUP3 SLOAD AND OR SWAP1 SSTORE DUP4 MLOAD SWAP6 DUP7 SWAP6 DUP7 MSTORE PUSH1 0x60 PUSH1 0x20 DUP8 ADD MSTORE PUSH1 0x60 DUP7 ADD SWAP2 PUSH2 0x1653 JUMP JUMPDEST SWAP2 DUP4 ADD MSTORE SUB SWAP1 LOG1 DUP1 RETURN JUMPDEST DUP3 MLOAD PUSH4 0x466D7FEF PUSH1 0xE0 SHL DUP2 MSTORE REVERT JUMPDEST POP PUSH1 0xC0 CALLDATASIZE PUSH1 0x3 NOT ADD SLT PUSH2 0x1D3 JUMPI PUSH2 0x8E4 PUSH2 0x1414 JUMP JUMPDEST SWAP1 PUSH2 0x8ED PUSH2 0x13FE JUMP JUMPDEST PUSH1 0x44 CALLDATALOAD SWAP2 PUSH1 0x1 PUSH1 0x1 PUSH1 0x40 SHL SUB PUSH1 0x84 CALLDATALOAD DUP2 DUP2 GT PUSH2 0xA5E JUMPI PUSH2 0x910 SWAP1 CALLDATASIZE SWAP1 DUP5 ADD PUSH2 0x13CC JUMP JUMPDEST SWAP2 PUSH1 0xA4 CALLDATALOAD SWAP1 DUP2 GT PUSH2 0xA5A JUMPI PUSH2 0x928 SWAP1 CALLDATASIZE SWAP1 DUP6 ADD PUSH2 0x13CC JUMP JUMPDEST SWAP7 SWAP1 SWAP5 PUSH2 0x933 PUSH2 0x169A JUMP JUMPDEST PUSH1 0x1 PUSH1 0x1 PUSH1 0xA0 SHL SUB DUP3 DUP2 AND SWAP9 SWAP1 SWAP3 SWAP1 DUP10 ISZERO DUP1 ISZERO PUSH2 0xA50 JUMPI JUMPDEST PUSH2 0xA40 JUMPI DUP9 ISZERO PUSH2 0xA30 JUMPI GAS SWAP8 PUSH2 0x963 DUP11 ADDRESS CALLER DUP15 PUSH2 0x1738 JUMP JUMPDEST DUP7 DUP7 DUP12 PUSH1 0x64 CALLDATALOAD SWAP1 PUSH2 0x973 SWAP7 PUSH2 0x1930 JUMP JUMPDEST SWAP6 GAS PUSH2 0x97E SWAP2 PUSH2 0x15ED JUMP JUMPDEST GASPRICE PUSH2 0x988 SWAP2 PUSH2 0x1610 JUMP JUMPDEST PUSH2 0x1388 SWAP1 DUP2 DUP2 MUL SWAP2 DUP2 DUP4 DIV EQ SWAP1 ISZERO OR ISZERO PUSH2 0xA1D JUMPI PUSH2 0x2710 SWAP1 DIV SWAP5 DUP6 PUSH2 0x9DA JUMPI JUMPDEST POP SWAP2 PUSH1 0x0 DUP1 MLOAD PUSH1 0x20 PUSH2 0x1B6F DUP4 CODECOPY DUP2 MLOAD SWAP2 MSTORE SWAP6 SWAP5 SWAP4 SWAP2 PUSH2 0x414 SWAP4 AND SWAP9 PUSH2 0x9CE DUP7 CALLER DUP13 PUSH2 0x16F0 JUMP JUMPDEST MLOAD SWAP5 DUP6 SWAP5 CALLER SWAP9 DUP7 PUSH2 0x1674 JUMP JUMPDEST DUP11 DUP1 DUP1 DUP1 DUP10 PUSH32 0x0 GAS CALL PUSH2 0xA0A PUSH2 0x1623 JUMP JUMPDEST POP PUSH2 0x9A8 JUMPI DUP10 MLOAD PUSH4 0x12171D83 PUSH1 0xE3 SHL DUP2 MSTORE REVERT JUMPDEST PUSH4 0x4E487B71 PUSH1 0xE0 SHL DUP12 MSTORE PUSH1 0x11 DUP7 MSTORE PUSH1 0x24 DUP12 REVERT JUMPDEST DUP11 MLOAD PUSH4 0x162908E3 PUSH1 0xE1 SHL DUP2 MSTORE DUP8 SWAP1 REVERT JUMPDEST DUP11 MLOAD PUSH4 0xF580583 PUSH1 0xE1 SHL DUP2 MSTORE DUP8 SWAP1 REVERT JUMPDEST POP DUP4 DUP4 AND ISZERO PUSH2 0x94B JUMP JUMPDEST DUP9 DUP1 REVERT JUMPDEST DUP8 DUP1 REVERT JUMPDEST POP CALLVALUE PUSH2 0x1D3 JUMPI PUSH1 0x20 CALLDATASIZE PUSH1 0x3 NOT ADD SLT PUSH2 0x1D3 JUMPI DUP1 CALLDATALOAD PUSH1 0x1 PUSH1 0x1 PUSH1 0x40 SHL SUB DUP2 GT PUSH2 0x23D JUMPI SWAP3 PUSH2 0xA95 DUP4 SWAP3 PUSH1 0x20 SWAP6 CALLDATASIZE SWAP2 ADD PUSH2 0x13CC JUMP JUMPDEST SWAP3 SWAP1 SWAP2 CHAINID DUP2 MSTORE PUSH1 0x2 DUP7 MSTORE KECCAK256 SWAP2 DUP1 DUP5 MLOAD SWAP3 DUP4 CALLDATACOPY DUP2 ADD SWAP2 DUP3 MSTORE SWAP1 DUP2 SWAP1 SUB DUP4 ADD SWAP1 KECCAK256 SLOAD SWAP1 MLOAD PUSH1 0x1 PUSH1 0x1 PUSH1 0xA0 SHL SUB SWAP1 SWAP2 AND DUP2 MSTORE RETURN JUMPDEST DUP4 CALLVALUE PUSH2 0x5B4 JUMPI DUP1 PUSH1 0x3 NOT CALLDATASIZE ADD SLT PUSH2 0x5B4 JUMPI PUSH2 0xADF PUSH2 0x1595 JUMP JUMPDEST PUSH1 0x1 DUP1 SLOAD PUSH1 0x1 PUSH1 0x1 PUSH1 0xA0 SHL SUB NOT DUP2 AND SWAP1 SWAP2 SSTORE DUP2 SWAP1 PUSH1 0x1 PUSH1 0x1 PUSH1 0xA0 SHL SUB AND PUSH32 0x8BE0079C531659141344CD1FD0A4F28419497F9722A3DAAFE3B4186F6B6457E0 DUP3 DUP1 LOG3 DUP1 RETURN JUMPDEST POP POP CALLVALUE PUSH2 0x742 JUMPI DUP2 PUSH1 0x3 NOT CALLDATASIZE ADD SLT PUSH2 0x742 JUMPI PUSH1 0x20 SWAP1 MLOAD PUSH2 0x1388 DUP2 MSTORE RETURN JUMPDEST POP CALLVALUE PUSH2 0x1D3 JUMPI DUP2 PUSH1 0x3 NOT CALLDATASIZE ADD SLT PUSH2 0x1D3 JUMPI PUSH1 0x24 CALLDATALOAD PUSH1 0x1 PUSH1 0x1 PUSH1 0x40 SHL SUB DUP2 GT PUSH2 0x23D JUMPI CALLDATASIZE PUSH1 0x23 DUP3 ADD SLT ISZERO PUSH2 0x23D JUMPI DUP1 DUP3 ADD CALLDATALOAD SWAP2 PUSH2 0xB7B DUP4 PUSH2 0x157A JUMP JUMPDEST SWAP3 PUSH2 0xB88 DUP6 MLOAD SWAP5 DUP6 PUSH2 0x1472 JUMP JUMPDEST DUP1 DUP5 MSTORE PUSH1 0x20 DUP5 ADD SWAP3 CALLDATASIZE PUSH1 0x24 DUP4 DUP4 ADD ADD GT PUSH2 0x55C JUMPI SWAP2 DUP7 PUSH1 0x20 DUP4 DUP2 SWAP10 SWAP5 PUSH1 0x24 DUP11 SWAP8 ADD DUP9 CALLDATACOPY DUP8 ADD ADD MSTORE CALLDATALOAD DUP2 MSTORE PUSH1 0x2 DUP7 MSTORE KECCAK256 SWAP2 PUSH2 0xBC9 DUP5 MLOAD SWAP3 DUP4 SWAP3 MLOAD SWAP3 DUP4 SWAP2 PUSH2 0x142A JUMP JUMPDEST DUP2 ADD SWAP2 DUP3 MSTORE SWAP1 DUP2 SWAP1 SUB DUP4 ADD SWAP1 KECCAK256 SLOAD SWAP1 MLOAD PUSH1 0x1 PUSH1 0x1 PUSH1 0xA0 SHL SUB SWAP1 SWAP2 AND DUP2 MSTORE RETURN JUMPDEST POP CALLVALUE PUSH2 0x1D3 JUMPI PUSH1 0x20 CALLDATASIZE PUSH1 0x3 NOT ADD SLT PUSH2 0x1D3 JUMPI CALLDATALOAD PUSH1 0x3 SLOAD DUP2 LT ISZERO PUSH2 0x1D3 JUMPI PUSH2 0xC37 SWAP1 PUSH1 0x3 PUSH2 0xC4A SWAP5 MSTORE PUSH32 0xC2575A0E9E593C00F959F8C92F12DB2869C3395A3B0502D05E2516446F71F85B ADD PUSH2 0x14A9 JUMP JUMPDEST SWAP1 MLOAD SWAP2 DUP3 SWAP2 PUSH1 0x20 DUP4 MSTORE PUSH1 0x20 DUP4 ADD SWAP1 PUSH2 0x144D JUMP JUMPDEST SUB SWAP1 RETURN JUMPDEST POP POP CALLVALUE PUSH2 0x742 JUMPI DUP2 PUSH1 0x3 NOT CALLDATASIZE ADD SLT PUSH2 0x742 JUMPI MLOAD PUSH32 0x0 PUSH1 0x1 PUSH1 0x1 PUSH1 0xA0 SHL SUB AND DUP2 MSTORE PUSH1 0x20 SWAP1 RETURN JUMPDEST POP DUP3 SWAP1 PUSH1 0x80 CALLDATASIZE PUSH1 0x3 NOT ADD SLT PUSH2 0x742 JUMPI PUSH2 0xCA9 PUSH2 0x1414 JUMP JUMPDEST SWAP1 PUSH1 0x1 PUSH1 0x1 PUSH1 0x40 SHL SUB PUSH1 0x44 CALLDATALOAD DUP2 DUP2 GT PUSH2 0xE73 JUMPI PUSH2 0xCC9 SWAP1 CALLDATASIZE SWAP1 DUP5 ADD PUSH2 0x13CC JUMP JUMPDEST SWAP4 SWAP1 SWAP2 PUSH1 0x64 CALLDATALOAD SWAP1 DUP2 GT PUSH2 0x73E JUMPI PUSH2 0xCE3 SWAP1 CALLDATASIZE SWAP1 DUP6 ADD PUSH2 0x13CC JUMP JUMPDEST SWAP5 SWAP1 PUSH2 0xCED PUSH2 0x169A JUMP JUMPDEST PUSH1 0x1 PUSH1 0x1 PUSH1 0xA0 SHL SUB SWAP3 DUP4 AND SWAP6 DUP7 ISZERO PUSH2 0xE63 JUMPI CALLVALUE ISZERO PUSH2 0xE53 JUMPI GAS SWAP4 CHAINID DUP10 MSTORE PUSH1 0x2 PUSH1 0x20 MSTORE DUP10 DUP10 KECCAK256 PUSH1 0x20 DUP12 MLOAD DUP1 SWAP3 DUP8 DUP11 DUP4 CALLDATACOPY DUP8 DUP3 ADD SWAP1 DUP2 MSTORE SUB ADD SWAP1 KECCAK256 SLOAD AND SWAP2 DUP3 ISZERO PUSH2 0xE43 JUMPI SWAP2 DUP2 DUP10 SWAP4 DUP5 SWAP4 DUP13 MLOAD SWAP3 DUP4 SWAP3 DUP4 CALLDATACOPY DUP2 ADD DUP5 DUP2 MSTORE SUB SWAP2 CALLVALUE SWAP1 GAS CALL PUSH2 0xD4F PUSH2 0x1623 JUMP JUMPDEST SWAP1 ISZERO PUSH2 0xE33 JUMPI PUSH1 0x20 DUP2 DUP1 MLOAD DUP2 ADD SUB SLT PUSH2 0x55C JUMPI PUSH1 0x20 ADD MLOAD SWAP2 PUSH1 0x24 CALLDATALOAD DUP4 LT PUSH2 0xE33 JUMPI PUSH2 0xD7E PUSH2 0xD85 SWAP2 GAS SWAP1 PUSH2 0x15ED JUMP JUMPDEST GASPRICE SWAP1 PUSH2 0x1610 JUMP JUMPDEST SWAP7 PUSH2 0x1388 SWAP8 DUP9 DUP2 MUL SWAP9 DUP2 DUP11 DIV EQ SWAP1 ISZERO OR ISZERO PUSH2 0xE20 JUMPI PUSH2 0x2710 DUP8 SWAP9 SWAP8 SWAP7 SWAP8 DIV SWAP5 DUP6 PUSH2 0xDD9 JUMPI JUMPDEST POP DUP3 SWAP2 PUSH2 0x414 SWAP2 PUSH2 0xDCC PUSH1 0x0 DUP1 MLOAD PUSH1 0x20 PUSH2 0x1B6F DUP4 CODECOPY DUP2 MLOAD SWAP2 MSTORE SWAP7 SWAP6 CALLER DUP12 PUSH2 0x16F0 JUMP JUMPDEST MLOAD SWAP4 DUP5 SWAP4 CALLER SWAP8 CALLVALUE DUP7 PUSH2 0x1674 JUMP JUMPDEST SWAP1 SWAP2 SWAP3 SWAP4 SWAP5 SWAP6 DUP1 DUP1 DUP1 DUP10 PUSH32 0x0 GAS CALL PUSH2 0xE0E PUSH2 0x1623 JUMP JUMPDEST POP ISZERO PUSH2 0x6BA JUMPI SWAP1 DUP8 SWAP6 SWAP5 SWAP4 SWAP3 SWAP2 PUSH2 0xDAA JUMP JUMPDEST PUSH4 0x4E487B71 PUSH1 0xE0 SHL DUP8 MSTORE PUSH1 0x11 DUP6 MSTORE PUSH1 0x24 DUP8 REVERT JUMPDEST DUP8 MLOAD PUSH4 0x81CEFF3 PUSH1 0xE4 SHL DUP2 MSTORE DUP6 SWAP1 REVERT JUMPDEST DUP10 MLOAD PUSH4 0x4A92F12B PUSH1 0xE0 SHL DUP2 MSTORE DUP8 SWAP1 REVERT JUMPDEST DUP9 MLOAD PUSH4 0x162908E3 PUSH1 0xE1 SHL DUP2 MSTORE DUP7 SWAP1 REVERT JUMPDEST DUP9 MLOAD PUSH4 0xF580583 PUSH1 0xE1 SHL DUP2 MSTORE DUP7 SWAP1 REVERT JUMPDEST DUP5 DUP1 REVERT JUMPDEST POP DUP3 SWAP1 CALLVALUE PUSH2 0x742 JUMPI DUP2 PUSH1 0x3 NOT CALLDATASIZE ADD SLT PUSH2 0x742 JUMPI PUSH1 0x3 SLOAD SWAP1 PUSH1 0x1 PUSH1 0x1 PUSH1 0x40 SHL SUB DUP3 GT PUSH2 0xF66 JUMPI POP DUP3 MLOAD SWAP2 PUSH1 0x20 SWAP3 PUSH2 0xEB2 DUP5 DUP5 PUSH1 0x5 SHL ADD DUP3 PUSH2 0x1472 JUMP JUMPDEST DUP3 DUP2 MSTORE PUSH1 0x3 DUP3 MSTORE DUP4 DUP2 ADD SWAP3 DUP3 PUSH32 0xC2575A0E9E593C00F959F8C92F12DB2869C3395A3B0502D05E2516446F71F85B DUP6 JUMPDEST DUP4 DUP4 LT PUSH2 0xF42 JUMPI POP POP POP POP DUP5 MLOAD SWAP4 DUP1 DUP6 ADD SWAP2 DUP2 DUP7 MSTORE MLOAD DUP1 SWAP3 MSTORE DUP6 DUP6 ADD SWAP6 DUP3 PUSH1 0x5 SHL DUP7 ADD ADD SWAP4 SWAP3 SWAP6 JUMPDEST DUP3 DUP8 LT PUSH2 0xF16 JUMPI DUP6 DUP6 SUB DUP7 RETURN JUMPDEST SWAP1 SWAP2 SWAP3 SWAP4 DUP3 DUP1 PUSH2 0xF32 PUSH1 0x1 SWAP4 PUSH1 0x3F NOT DUP11 DUP3 SUB ADD DUP7 MSTORE DUP9 MLOAD PUSH2 0x144D JUMP JUMPDEST SWAP7 ADD SWAP3 ADD SWAP7 ADD SWAP6 SWAP3 SWAP2 SWAP1 SWAP3 PUSH2 0xF09 JUMP JUMPDEST PUSH1 0x1 DUP9 DUP2 SWAP3 PUSH2 0xF54 DUP6 SWAP12 SWAP9 SWAP10 SWAP12 PUSH2 0x14A9 JUMP JUMPDEST DUP2 MSTORE ADD SWAP3 ADD SWAP3 ADD SWAP2 SWAP1 SWAP7 SWAP5 SWAP4 SWAP7 PUSH2 0xEE1 JUMP JUMPDEST PUSH4 0x4E487B71 PUSH1 0xE0 SHL DUP4 MSTORE PUSH1 0x41 SWAP1 MSTORE PUSH1 0x24 DUP3 REVERT JUMPDEST POP POP CALLVALUE PUSH2 0x742 JUMPI DUP2 PUSH1 0x3 NOT CALLDATASIZE ADD SLT PUSH2 0x742 JUMPI PUSH1 0x20 SWAP1 MLOAD PUSH20 0x1231DEB6F5749EF6CE6943A275A1D3E7486F4EAE DUP2 MSTORE RETURN JUMPDEST POP SWAP1 PUSH1 0x80 CALLDATASIZE PUSH1 0x3 NOT ADD SLT PUSH2 0x1D3 JUMPI DUP2 CALLDATALOAD PUSH1 0x1 PUSH1 0x1 PUSH1 0x40 SHL SUB DUP2 GT PUSH2 0x23D JUMPI PUSH2 0xFD3 SWAP1 CALLDATASIZE SWAP1 DUP5 ADD PUSH2 0x13CC JUMP JUMPDEST SWAP2 SWAP1 SWAP3 PUSH2 0xFDE PUSH2 0x13FE JUMP JUMPDEST SWAP4 PUSH1 0x64 CALLDATALOAD SWAP5 PUSH2 0xFEB PUSH2 0x169A JUMP JUMPDEST PUSH1 0x1 PUSH1 0x1 PUSH1 0xA0 SHL SUB AND SWAP5 DUP6 ISZERO PUSH2 0x1130 JUMPI DUP1 PUSH1 0x1 SHR SWAP5 PUSH2 0x100A DUP7 DUP4 PUSH2 0x1B61 JUMP JUMPDEST SWAP3 DUP4 CALLVALUE LT PUSH2 0x1120 JUMPI SWAP2 DUP2 DUP10 SWAP4 DUP5 SWAP4 DUP9 MLOAD SWAP3 DUP4 SWAP3 DUP4 CALLDATACOPY DUP2 ADD DUP5 DUP2 MSTORE SUB SWAP2 PUSH20 0x1231DEB6F5749EF6CE6943A275A1D3E7486F4EAE GAS CALL PUSH2 0x1045 PUSH2 0x1623 JUMP JUMPDEST POP ISZERO PUSH2 0x1111 JUMPI DUP6 DUP1 DUP1 DUP1 DUP8 PUSH32 0x0 GAS CALL PUSH2 0x107B PUSH2 0x1623 JUMP JUMPDEST POP ISZERO PUSH2 0x1102 JUMPI SWAP1 PUSH2 0x108F DUP7 SWAP5 SWAP4 SWAP3 CALLVALUE PUSH2 0x15ED JUMP JUMPDEST DUP1 PUSH2 0x10DF JUMPI JUMPDEST POP POP DUP1 DUP4 SWAP2 MLOAD SWAP3 DUP3 DUP5 MSTORE PUSH1 0x20 DUP5 ADD MSTORE DUP3 ADD MSTORE PUSH1 0x80 PUSH1 0x60 DUP3 ADD MSTORE PUSH1 0x0 DUP1 MLOAD PUSH1 0x20 PUSH2 0x1B6F DUP4 CODECOPY DUP2 MLOAD SWAP2 MSTORE CALLER SWAP2 DUP1 PUSH2 0x414 PUSH1 0x80 DUP3 ADD PUSH1 0x40 SWAP1 PUSH1 0x4 DUP2 MSTORE PUSH4 0x6C696669 PUSH1 0xE0 SHL PUSH1 0x20 DUP3 ADD MSTORE ADD SWAP1 JUMP JUMPDEST SWAP4 DUP1 DUP1 DUP1 SWAP4 SWAP5 SWAP6 SWAP7 CALLER GAS CALL PUSH2 0x10F2 PUSH2 0x1623 JUMP JUMPDEST POP ISZERO PUSH2 0x6BA JUMPI SWAP1 DUP2 DUP6 SWAP4 SWAP3 PUSH2 0x1095 JUMP JUMPDEST POP SWAP1 MLOAD PUSH4 0x12171D83 PUSH1 0xE3 SHL DUP2 MSTORE REVERT JUMPDEST POP SWAP1 MLOAD PUSH4 0x81CEFF3 PUSH1 0xE4 SHL DUP2 MSTORE REVERT JUMPDEST DUP6 MLOAD PUSH4 0x1E9ACF17 PUSH1 0xE3 SHL DUP2 MSTORE DUP6 SWAP1 REVERT JUMPDEST DUP4 MLOAD PUSH4 0xF580583 PUSH1 0xE1 SHL DUP2 MSTORE DUP4 SWAP1 REVERT JUMPDEST POP SWAP2 SWAP1 PUSH1 0xA0 CALLDATASIZE PUSH1 0x3 NOT ADD SLT PUSH2 0x742 JUMPI DUP3 CALLDATALOAD SWAP1 PUSH1 0x1 PUSH1 0x1 PUSH1 0x40 SHL SUB DUP1 DUP4 GT PUSH2 0x23D JUMPI CALLDATASIZE PUSH1 0x23 DUP5 ADD SLT ISZERO PUSH2 0x23D JUMPI DUP3 DUP6 ADD CALLDATALOAD SWAP2 DUP2 DUP4 GT PUSH2 0xE73 JUMPI PUSH1 0x24 SWAP3 DUP4 DUP6 ADD SWAP5 DUP5 CALLDATASIZE SWAP2 DUP4 PUSH1 0x5 SHL ADD ADD GT PUSH2 0x73E JUMPI DUP4 CALLDATALOAD SWAP3 PUSH1 0x64 CALLDATALOAD DUP2 DUP2 GT PUSH2 0xA5E JUMPI PUSH2 0x11A7 SWAP1 CALLDATASIZE SWAP1 DUP11 ADD PUSH2 0x13CC JUMP JUMPDEST SWAP3 SWAP1 SWAP2 PUSH1 0x84 CALLDATALOAD SWAP1 DUP2 GT PUSH2 0xA5A JUMPI PUSH2 0x11C1 SWAP1 CALLDATASIZE SWAP1 DUP12 ADD PUSH2 0x13CC JUMP JUMPDEST SWAP10 SWAP1 SWAP2 PUSH2 0x11CC PUSH2 0x169A JUMP JUMPDEST PUSH1 0x2 DUP2 LT PUSH2 0x13BD JUMPI DUP7 ISZERO PUSH2 0x13BD JUMPI GAS SWAP3 DUP2 ISZERO PUSH2 0x13AB JUMPI DUP11 SWAP12 DUP11 DUP9 DUP11 SWAP12 SWAP13 SWAP14 PUSH2 0x120B PUSH2 0x1201 SWAP13 PUSH1 0x1 DUP1 PUSH1 0xA0 SHL SUB DUP1 SWAP15 DUP2 SWAP7 PUSH2 0x1B4D JUMP JUMPDEST AND ADDRESS SWAP1 CALLER SWAP1 PUSH2 0x1738 JUMP JUMPDEST CHAINID DUP2 MSTORE PUSH1 0x2 PUSH1 0x20 MSTORE KECCAK256 PUSH1 0x20 DUP11 MLOAD DUP1 SWAP3 DUP12 DUP12 DUP4 CALLDATACOPY DUP12 DUP3 ADD SWAP1 DUP2 MSTORE SUB ADD SWAP1 KECCAK256 SLOAD AND SWAP2 DUP3 ISZERO PUSH2 0x139B JUMPI SWAP2 DUP14 SWAP3 SWAP2 DUP4 DUP1 SWAP4 DUP16 DUP15 DUP6 DUP16 PUSH2 0x1248 PUSH2 0x124E SWAP5 PUSH2 0x1B4D JUMP JUMPDEST AND PUSH2 0x19F3 JUMP JUMPDEST DUP3 DUP13 MLOAD SWAP4 DUP5 SWAP3 DUP4 CALLDATACOPY DUP2 ADD DUP3 DUP2 MSTORE SUB SWAP3 GAS CALL PUSH2 0x1267 PUSH2 0x1623 JUMP JUMPDEST SWAP1 ISZERO PUSH2 0x1387 JUMPI PUSH1 0x20 DUP2 DUP1 MLOAD DUP2 ADD SUB SLT PUSH2 0x1397 JUMPI PUSH1 0x20 ADD MLOAD SWAP3 PUSH1 0x44 CALLDATALOAD DUP5 LT PUSH2 0x1387 JUMPI PUSH2 0xD7E PUSH2 0x1296 SWAP2 GAS SWAP1 PUSH2 0x15ED JUMP JUMPDEST PUSH2 0x1388 SWAP1 DUP2 DUP2 MUL SWAP2 DUP2 DUP4 DIV EQ SWAP1 ISZERO OR ISZERO PUSH2 0x1375 JUMPI PUSH2 0x2710 SWAP1 DIV SWAP9 DUP10 PUSH2 0x1330 JUMPI JUMPDEST PUSH1 0x0 NOT DUP3 ADD SWAP3 DUP3 DUP5 GT PUSH2 0x131F JUMPI POP POP SWAP2 DUP7 PUSH2 0x130E PUSH2 0x12FD PUSH2 0x414 SWAP7 SWAP5 PUSH1 0x0 DUP1 MLOAD PUSH1 0x20 PUSH2 0x1B6F DUP4 CODECOPY DUP2 MLOAD SWAP2 MSTORE SWAP11 SWAP10 SWAP9 SWAP7 PUSH2 0x1308 DUP16 PUSH2 0x12FD DUP9 CALLER DUP10 PUSH2 0x1302 PUSH2 0x12FD DUP10 DUP10 DUP9 PUSH2 0x1B27 JUMP JUMPDEST PUSH2 0x1B4D JUMP JUMPDEST AND PUSH2 0x16F0 JUMP JUMPDEST SWAP15 PUSH2 0x1B27 JUMP JUMPDEST SWAP6 MLOAD SWAP7 DUP8 SWAP7 AND SWAP11 AND SWAP9 CALLER SWAP9 DUP7 PUSH2 0x1674 JUMP JUMPDEST PUSH4 0x4E487B71 PUSH1 0xE0 SHL DUP14 MSTORE PUSH1 0x11 SWAP1 MSTORE DUP12 REVERT JUMPDEST DUP12 DUP1 DUP1 DUP1 DUP14 PUSH32 0x0 GAS CALL PUSH2 0x1360 PUSH2 0x1623 JUMP JUMPDEST POP PUSH2 0x12B6 JUMPI DUP7 MLOAD PUSH4 0x12171D83 PUSH1 0xE3 SHL DUP2 MSTORE DUP4 SWAP1 REVERT JUMPDEST PUSH4 0x4E487B71 PUSH1 0xE0 SHL DUP13 MSTORE PUSH1 0x11 DUP4 MSTORE DUP10 DUP13 REVERT JUMPDEST DUP7 MLOAD PUSH4 0x81CEFF3 PUSH1 0xE4 SHL DUP2 MSTORE DUP4 SWAP1 REVERT JUMPDEST DUP12 DUP1 REVERT JUMPDEST DUP9 MLOAD PUSH4 0x4A92F12B PUSH1 0xE0 SHL DUP2 MSTORE DUP6 SWAP1 REVERT JUMPDEST PUSH4 0x4E487B71 PUSH1 0xE0 SHL DUP12 MSTORE PUSH1 0x32 DUP4 MSTORE DUP9 DUP12 REVERT JUMPDEST POP DUP5 MLOAD PUSH4 0x162908E3 PUSH1 0xE1 SHL DUP2 MSTORE REVERT JUMPDEST SWAP2 DUP2 PUSH1 0x1F DUP5 ADD SLT ISZERO PUSH2 0x13F9 JUMPI DUP3 CALLDATALOAD SWAP2 PUSH1 0x1 PUSH1 0x1 PUSH1 0x40 SHL SUB DUP4 GT PUSH2 0x13F9 JUMPI PUSH1 0x20 DUP4 DUP2 DUP7 ADD SWAP6 ADD ADD GT PUSH2 0x13F9 JUMPI JUMP JUMPDEST PUSH1 0x0 DUP1 REVERT JUMPDEST PUSH1 0x24 CALLDATALOAD SWAP1 PUSH1 0x1 PUSH1 0x1 PUSH1 0xA0 SHL SUB DUP3 AND DUP3 SUB PUSH2 0x13F9 JUMPI JUMP JUMPDEST PUSH1 0x4 CALLDATALOAD SWAP1 PUSH1 0x1 PUSH1 0x1 PUSH1 0xA0 SHL SUB DUP3 AND DUP3 SUB PUSH2 0x13F9 JUMPI JUMP JUMPDEST PUSH1 0x0 JUMPDEST DUP4 DUP2 LT PUSH2 0x143D JUMPI POP POP PUSH1 0x0 SWAP2 ADD MSTORE JUMP JUMPDEST DUP2 DUP2 ADD MLOAD DUP4 DUP3 ADD MSTORE PUSH1 0x20 ADD PUSH2 0x142D JUMP JUMPDEST SWAP1 PUSH1 0x20 SWAP2 PUSH2 0x1466 DUP2 MLOAD DUP1 SWAP3 DUP2 DUP6 MSTORE DUP6 DUP1 DUP7 ADD SWAP2 ADD PUSH2 0x142A JUMP JUMPDEST PUSH1 0x1F ADD PUSH1 0x1F NOT AND ADD ADD SWAP1 JUMP JUMPDEST SWAP1 PUSH1 0x1F DUP1 NOT SWAP2 ADD AND DUP2 ADD SWAP1 DUP2 LT PUSH1 0x1 PUSH1 0x1 PUSH1 0x40 SHL SUB DUP3 GT OR PUSH2 0x1493 JUMPI PUSH1 0x40 MSTORE JUMP JUMPDEST PUSH4 0x4E487B71 PUSH1 0xE0 SHL PUSH1 0x0 MSTORE PUSH1 0x41 PUSH1 0x4 MSTORE PUSH1 0x24 PUSH1 0x0 REVERT JUMPDEST SWAP1 PUSH1 0x40 MLOAD SWAP1 PUSH1 0x0 DUP4 SLOAD SWAP1 PUSH1 0x1 DUP3 DUP2 SHR SWAP1 DUP1 DUP5 AND SWAP7 DUP8 ISZERO PUSH2 0x1570 JUMPI JUMPDEST PUSH1 0x20 SWAP5 DUP6 DUP5 LT DUP10 EQ PUSH2 0x155C JUMPI DUP8 SWAP9 DUP5 DUP10 SWAP8 SWAP9 SWAP10 MSTORE SWAP1 DUP2 PUSH1 0x0 EQ PUSH2 0x153A JUMPI POP PUSH1 0x1 EQ PUSH2 0x14FB JUMPI JUMPDEST POP POP POP PUSH2 0x14F9 SWAP3 POP SUB DUP4 PUSH2 0x1472 JUMP JUMPDEST JUMP JUMPDEST PUSH1 0x0 SWAP1 DUP2 MSTORE DUP6 DUP2 KECCAK256 SWAP6 SWAP4 POP SWAP2 SWAP1 JUMPDEST DUP2 DUP4 LT PUSH2 0x1522 JUMPI POP POP PUSH2 0x14F9 SWAP4 POP DUP3 ADD ADD CODESIZE DUP1 DUP1 PUSH2 0x14EA JUMP JUMPDEST DUP6 SLOAD DUP9 DUP5 ADD DUP6 ADD MSTORE SWAP5 DUP6 ADD SWAP5 DUP8 SWAP5 POP SWAP2 DUP4 ADD SWAP2 PUSH2 0x1509 JUMP JUMPDEST SWAP3 POP POP POP PUSH2 0x14F9 SWAP5 SWAP3 POP PUSH1 0xFF NOT AND DUP3 DUP5 ADD MSTORE ISZERO ISZERO PUSH1 0x5 SHL DUP3 ADD ADD CODESIZE DUP1 DUP1 PUSH2 0x14EA JUMP JUMPDEST PUSH4 0x4E487B71 PUSH1 0xE0 SHL DUP6 MSTORE PUSH1 0x22 PUSH1 0x4 MSTORE PUSH1 0x24 DUP6 REVERT JUMPDEST SWAP2 PUSH1 0x7F AND SWAP2 PUSH2 0x14C4 JUMP JUMPDEST PUSH1 0x1 PUSH1 0x1 PUSH1 0x40 SHL SUB DUP2 GT PUSH2 0x1493 JUMPI PUSH1 0x1F ADD PUSH1 0x1F NOT AND PUSH1 0x20 ADD SWAP1 JUMP JUMPDEST PUSH1 0x1 SLOAD PUSH1 0x1 PUSH1 0x1 PUSH1 0xA0 SHL SUB AND CALLER SUB PUSH2 0x15A9 JUMPI JUMP JUMPDEST PUSH1 0x64 PUSH1 0x40 MLOAD PUSH3 0x461BCD PUSH1 0xE5 SHL DUP2 MSTORE PUSH1 0x20 PUSH1 0x4 DUP3 ADD MSTORE PUSH1 0x20 PUSH1 0x24 DUP3 ADD MSTORE PUSH32 0x4F776E61626C653A2063616C6C6572206973206E6F7420746865206F776E6572 PUSH1 0x44 DUP3 ADD MSTORE REVERT JUMPDEST SWAP2 SWAP1 DUP3 SUB SWAP2 DUP3 GT PUSH2 0x15FA JUMPI JUMP JUMPDEST PUSH4 0x4E487B71 PUSH1 0xE0 SHL PUSH1 0x0 MSTORE PUSH1 0x11 PUSH1 0x4 MSTORE PUSH1 0x24 PUSH1 0x0 REVERT JUMPDEST DUP2 DUP2 MUL SWAP3 SWAP2 DUP2 ISZERO SWAP2 DUP5 DIV EQ OR ISZERO PUSH2 0x15FA JUMPI JUMP JUMPDEST RETURNDATASIZE ISZERO PUSH2 0x164E JUMPI RETURNDATASIZE SWAP1 PUSH2 0x1634 DUP3 PUSH2 0x157A JUMP JUMPDEST SWAP2 PUSH2 0x1642 PUSH1 0x40 MLOAD SWAP4 DUP5 PUSH2 0x1472 JUMP JUMPDEST DUP3 MSTORE RETURNDATASIZE PUSH1 0x0 PUSH1 0x20 DUP5 ADD RETURNDATACOPY JUMP JUMPDEST PUSH1 0x60 SWAP1 JUMP JUMPDEST SWAP1 DUP1 PUSH1 0x20 SWAP4 SWAP3 DUP2 DUP5 MSTORE DUP5 DUP5 ADD CALLDATACOPY PUSH1 0x0 DUP3 DUP3 ADD DUP5 ADD MSTORE PUSH1 0x1F ADD PUSH1 0x1F NOT AND ADD ADD SWAP1 JUMP JUMPDEST SWAP1 SWAP3 PUSH1 0x80 SWAP3 PUSH2 0x1697 SWAP7 SWAP5 DUP4 MSTORE PUSH1 0x20 DUP4 ADD MSTORE PUSH1 0x40 DUP3 ADD MSTORE DUP2 PUSH1 0x60 DUP3 ADD MSTORE ADD SWAP2 PUSH2 0x1653 JUMP JUMPDEST SWAP1 JUMP JUMPDEST PUSH1 0x2 PUSH1 0x0 SLOAD EQ PUSH2 0x16AB JUMPI PUSH1 0x2 PUSH1 0x0 SSTORE JUMP JUMPDEST PUSH1 0x40 MLOAD PUSH3 0x461BCD PUSH1 0xE5 SHL DUP2 MSTORE PUSH1 0x20 PUSH1 0x4 DUP3 ADD MSTORE PUSH1 0x1F PUSH1 0x24 DUP3 ADD MSTORE PUSH32 0x5265656E7472616E637947756172643A207265656E7472616E742063616C6C00 PUSH1 0x44 DUP3 ADD MSTORE PUSH1 0x64 SWAP1 REVERT JUMPDEST PUSH1 0x40 MLOAD PUSH4 0xA9059CBB PUSH1 0xE0 SHL PUSH1 0x20 DUP3 ADD MSTORE PUSH1 0x1 PUSH1 0x1 PUSH1 0xA0 SHL SUB SWAP1 SWAP3 AND PUSH1 0x24 DUP4 ADD MSTORE PUSH1 0x44 DUP3 ADD SWAP3 SWAP1 SWAP3 MSTORE PUSH2 0x14F9 SWAP2 PUSH2 0x1733 DUP3 PUSH1 0x64 DUP2 ADD JUMPDEST SUB PUSH1 0x1F NOT DUP2 ADD DUP5 MSTORE DUP4 PUSH2 0x1472 JUMP JUMPDEST PUSH2 0x178C JUMP JUMPDEST PUSH1 0x40 MLOAD PUSH4 0x23B872DD PUSH1 0xE0 SHL PUSH1 0x20 DUP3 ADD MSTORE PUSH1 0x1 PUSH1 0x1 PUSH1 0xA0 SHL SUB SWAP3 DUP4 AND PUSH1 0x24 DUP3 ADD MSTORE SWAP3 SWAP1 SWAP2 AND PUSH1 0x44 DUP4 ADD MSTORE PUSH1 0x64 DUP1 DUP4 ADD SWAP4 SWAP1 SWAP4 MSTORE SWAP2 DUP2 MSTORE PUSH1 0xA0 DUP2 ADD SWAP2 DUP2 DUP4 LT PUSH1 0x1 PUSH1 0x1 PUSH1 0x40 SHL SUB DUP5 GT OR PUSH2 0x1493 JUMPI PUSH2 0x14F9 SWAP3 PUSH1 0x40 MSTORE JUMPDEST PUSH1 0x1 DUP1 PUSH1 0xA0 SHL SUB AND SWAP1 PUSH1 0x40 MLOAD PUSH1 0x40 DUP2 ADD SWAP1 DUP1 DUP3 LT PUSH1 0x1 PUSH1 0x1 PUSH1 0x40 SHL SUB DUP4 GT OR PUSH2 0x1493 JUMPI PUSH2 0x17FD SWAP2 PUSH1 0x40 MSTORE PUSH1 0x20 SWAP4 DUP5 DUP3 MSTORE PUSH32 0x5361666545524332303A206C6F772D6C6576656C2063616C6C206661696C6564 DUP6 DUP4 ADD MSTORE PUSH1 0x0 DUP1 DUP6 DUP8 DUP3 SWAP8 MLOAD SWAP2 ADD DUP3 DUP6 GAS CALL PUSH2 0x17F7 PUSH2 0x1623 JUMP JUMPDEST SWAP2 PUSH2 0x1893 JUMP JUMPDEST DUP1 MLOAD SWAP2 DUP3 ISZERO SWAP2 DUP5 DUP4 ISZERO PUSH2 0x186F JUMPI JUMPDEST POP POP POP SWAP1 POP ISZERO PUSH2 0x1818 JUMPI POP JUMP JUMPDEST PUSH1 0x84 SWAP1 PUSH1 0x40 MLOAD SWAP1 PUSH3 0x461BCD PUSH1 0xE5 SHL DUP3 MSTORE PUSH1 0x4 DUP3 ADD MSTORE PUSH1 0x2A PUSH1 0x24 DUP3 ADD MSTORE PUSH32 0x5361666545524332303A204552433230206F7065726174696F6E20646964206E PUSH1 0x44 DUP3 ADD MSTORE PUSH10 0x1BDD081CDD58D8D95959 PUSH1 0xB2 SHL PUSH1 0x64 DUP3 ADD MSTORE REVERT JUMPDEST SWAP2 SWAP4 DUP2 DUP1 SWAP5 POP ADD SUB SLT PUSH2 0x742 JUMPI DUP3 ADD MLOAD SWAP1 DUP2 ISZERO ISZERO DUP3 SUB PUSH2 0x5B4 JUMPI POP DUP1 CODESIZE DUP1 DUP5 PUSH2 0x180B JUMP JUMPDEST SWAP2 SWAP3 SWAP1 ISZERO PUSH2 0x18F5 JUMPI POP DUP2 MLOAD ISZERO PUSH2 0x18A7 JUMPI POP SWAP1 JUMP JUMPDEST EXTCODESIZE ISZERO PUSH2 0x18B0 JUMPI SWAP1 JUMP JUMPDEST PUSH1 0x40 MLOAD PUSH3 0x461BCD PUSH1 0xE5 SHL DUP2 MSTORE PUSH1 0x20 PUSH1 0x4 DUP3 ADD MSTORE PUSH1 0x1D PUSH1 0x24 DUP3 ADD MSTORE PUSH32 0x416464726573733A2063616C6C20746F206E6F6E2D636F6E7472616374000000 PUSH1 0x44 DUP3 ADD MSTORE PUSH1 0x64 SWAP1 REVERT JUMPDEST DUP3 MLOAD SWAP1 SWAP2 POP ISZERO PUSH2 0x1908 JUMPI POP DUP1 MLOAD SWAP1 PUSH1 0x20 ADD REVERT JUMPDEST PUSH1 0x40 MLOAD PUSH3 0x461BCD PUSH1 0xE5 SHL DUP2 MSTORE PUSH1 0x20 PUSH1 0x4 DUP3 ADD MSTORE SWAP1 DUP2 SWAP1 PUSH2 0x192C SWAP1 PUSH1 0x24 DUP4 ADD SWAP1 PUSH2 0x144D JUMP JUMPDEST SUB SWAP1 REVERT JUMPDEST SWAP3 SWAP4 SWAP5 SWAP1 SWAP6 SWAP2 SWAP6 PUSH1 0x0 SWAP5 CHAINID DUP7 MSTORE PUSH1 0x2 PUSH1 0x20 MSTORE PUSH1 0x40 SWAP7 DUP8 DUP8 KECCAK256 SWAP1 DUP1 DUP10 MLOAD SWAP4 DUP5 CALLDATACOPY DUP3 ADD SWAP1 DUP2 MSTORE DUP2 SWAP1 SUB PUSH1 0x20 ADD SWAP1 KECCAK256 SLOAD PUSH1 0x1 PUSH1 0x1 PUSH1 0xA0 SHL SUB SWAP1 DUP2 AND SWAP5 DUP6 ISZERO PUSH2 0x19E2 JUMPI SWAP3 PUSH2 0x1984 DUP8 SWAP7 SWAP5 SWAP4 DUP6 DUP9 SWAP8 SWAP6 SWAP5 DUP9 SWAP6 AND PUSH2 0x19F3 JUMP JUMPDEST DUP3 DUP9 MLOAD SWAP4 DUP5 SWAP3 DUP4 CALLDATACOPY DUP2 ADD DUP3 DUP2 MSTORE SUB SWAP3 GAS CALL SWAP1 PUSH2 0x199E PUSH2 0x1623 JUMP JUMPDEST SWAP2 ISZERO PUSH2 0x19D1 JUMPI PUSH1 0x20 DUP3 DUP1 MLOAD DUP2 ADD SUB SLT PUSH2 0x5B4 JUMPI POP PUSH1 0x20 ADD MLOAD SWAP2 DUP3 LT PUSH2 0x19C1 JUMPI POP SWAP1 JUMP JUMPDEST MLOAD PUSH4 0x81CEFF3 PUSH1 0xE4 SHL DUP2 MSTORE PUSH1 0x4 SWAP1 REVERT JUMPDEST DUP3 MLOAD PUSH4 0x81CEFF3 PUSH1 0xE4 SHL DUP2 MSTORE PUSH1 0x4 SWAP1 REVERT JUMPDEST DUP8 MLOAD PUSH4 0x4A92F12B PUSH1 0xE0 SHL DUP2 MSTORE PUSH1 0x4 SWAP1 REVERT JUMPDEST SWAP2 SWAP1 SWAP2 DUP2 ISZERO DUP1 ISZERO PUSH2 0x1AA2 JUMPI JUMPDEST ISZERO PUSH2 0x1A3E JUMPI PUSH1 0x40 MLOAD PUSH4 0x95EA7B3 PUSH1 0xE0 SHL PUSH1 0x20 DUP3 ADD MSTORE PUSH1 0x1 PUSH1 0x1 PUSH1 0xA0 SHL SUB SWAP1 SWAP4 AND PUSH1 0x24 DUP5 ADD MSTORE PUSH1 0x44 DUP4 ADD SWAP2 SWAP1 SWAP2 MSTORE PUSH2 0x14F9 SWAP2 SWAP1 PUSH2 0x1733 DUP3 PUSH1 0x64 DUP2 ADD PUSH2 0x1725 JUMP JUMPDEST PUSH1 0x40 MLOAD PUSH3 0x461BCD PUSH1 0xE5 SHL DUP2 MSTORE PUSH1 0x20 PUSH1 0x4 DUP3 ADD MSTORE PUSH1 0x36 PUSH1 0x24 DUP3 ADD MSTORE PUSH32 0x5361666545524332303A20617070726F76652066726F6D206E6F6E2D7A65726F PUSH1 0x44 DUP3 ADD MSTORE PUSH22 0x20746F206E6F6E2D7A65726F20616C6C6F77616E6365 PUSH1 0x50 SHL PUSH1 0x64 DUP3 ADD MSTORE PUSH1 0x84 SWAP1 REVERT JUMPDEST POP PUSH1 0x40 MLOAD PUSH4 0x6EB1769F PUSH1 0xE1 SHL DUP2 MSTORE ADDRESS PUSH1 0x4 DUP3 ADD MSTORE PUSH1 0x1 PUSH1 0x1 PUSH1 0xA0 SHL SUB DUP5 DUP2 AND PUSH1 0x24 DUP4 ADD MSTORE PUSH1 0x20 SWAP1 DUP3 SWAP1 PUSH1 0x44 SWAP1 DUP3 SWAP1 DUP7 AND GAS STATICCALL SWAP1 DUP2 ISZERO PUSH2 0x1B1B JUMPI PUSH1 0x0 SWAP2 PUSH2 0x1AEA JUMPI JUMPDEST POP ISZERO PUSH2 0x19FF JUMP JUMPDEST SWAP1 PUSH1 0x20 DUP3 RETURNDATASIZE DUP3 GT PUSH2 0x1B13 JUMPI JUMPDEST DUP2 PUSH2 0x1B03 PUSH1 0x20 SWAP4 DUP4 PUSH2 0x1472 JUMP JUMPDEST DUP2 ADD SUB SLT PUSH2 0x5B4 JUMPI POP MLOAD CODESIZE PUSH2 0x1AE3 JUMP JUMPDEST RETURNDATASIZE SWAP2 POP PUSH2 0x1AF6 JUMP JUMPDEST PUSH1 0x40 MLOAD RETURNDATASIZE PUSH1 0x0 DUP3 RETURNDATACOPY RETURNDATASIZE SWAP1 REVERT JUMPDEST SWAP2 SWAP1 DUP2 LT ISZERO PUSH2 0x1B37 JUMPI PUSH1 0x5 SHL ADD SWAP1 JUMP JUMPDEST PUSH4 0x4E487B71 PUSH1 0xE0 SHL PUSH1 0x0 MSTORE PUSH1 0x32 PUSH1 0x4 MSTORE PUSH1 0x24 PUSH1 0x0 REVERT JUMPDEST CALLDATALOAD PUSH1 0x1 PUSH1 0x1 PUSH1 0xA0 SHL SUB DUP2 AND DUP2 SUB PUSH2 0x13F9 JUMPI SWAP1 JUMP JUMPDEST SWAP2 SWAP1 DUP3 ADD DUP1 SWAP3 GT PUSH2 0x15FA JUMPI JUMP INVALID PUSH19 0x4EF2525566D177428085A63AC07146A393AD3A PUSH24 0x37E1A9C2349496A33764CFA26469706673582212203A0547 0xEA SDIV 0xC3 CREATE2 COINBASE NOT RETURNDATACOPY 0xEA 0xF 0x24 MSIZE 0xE8 0xB5 POP ADDRESS DUP15 0xE7 PUSH5 0xC476799CF0 0xA6 0x4A 0xA6 MUL 0xD9 PUSH25 0x64736F6C634300081300330000000000000000000000000000 "},"methodIdentifiers":{"GAS_FEE_TAX_RATE_BPS()":"596bfce8","LIFI_CONTRACT()":"108e3c99","calculateGasFeeTax(uint256)":"c0f03105","dexRouters(uint256,string)":"53326fa3","emergencyWithdraw(address,uint256)":"95ccea67","getDEXRouter(string)":"78e3399d","getSupportedDEXes()":"386e07bf","isDEXSupported(string)":"d88545ba","multiHopSwap(address[],uint256,uint256,string,bytes)":"03dfbc00","owner()":"8da5cb5b","renounceOwnership()":"715018a6","revenueWallet()":"44478425","supportedDEXes(uint256)":"4caf81f5","swapETHWithDEX(address,uint256,string,bytes)":"3c7dccde","swapToETHWithDEX(address,uint256,uint256,string,bytes)":"9be2ee4b","swapTokenViaLiFi(address,uint256,bytes,address,uint256,uint256)":"d0ff8cd9","swapViaLiFi(bytes,address,uint256,uint256)":"075c3993","swapWithDEX(address,address,uint256,uint256,string,bytes)":"83e201b4","transferOwnership(address)":"f2fde38b","updateDEXRouter(uint256,string,address)":"89b476ec"}}}}}