{"contracts/SplenexLiFiWrapper.sol":{"SplenexLiFiWrapper":{"abi":[{"inputs":[{"internalType":"address","name":"_revenueWallet","type":"address"},{"internalType":"uint256","name":"_initialFeeBps","type":"uint256"}],"stateMutability":"nonpayable","type":"constructor"},{"inputs":[],"name":"InsufficientOutput","type":"error"},{"inputs":[],"name":"InvalidAmount","type":"error"},{"inputs":[],"name":"InvalidFee","type":"error"},{"inputs":[],"name":"SwapFailed","type":"error"},{"inputs":[],"name":"TransferFailed","type":"error"},{"anonymous":false,"inputs":[{"indexed":false,"internalType":"uint256","name":"oldFee","type":"uint256"},{"indexed":false,"internalType":"uint256","name":"newFee","type":"uint256"}],"name":"FeeUpdated","type":"event"},{"anonymous":false,"inputs":[{"indexed":true,"internalType":"address","name":"previousOwner","type":"address"},{"indexed":true,"internalType":"address","name":"newOwner","type":"address"}],"name":"OwnershipTransferred","type":"event"},{"anonymous":false,"inputs":[{"indexed":true,"internalType":"address","name":"user","type":"address"},{"indexed":true,"internalType":"address","name":"tokenIn","type":"address"},{"indexed":true,"internalType":"address","name":"tokenOut","type":"address"},{"indexed":false,"internalType":"uint256","name":"amountIn","type":"uint256"},{"indexed":false,"internalType":"uint256","name":"amountOut","type":"uint256"},{"indexed":false,"internalType":"uint256","name":"totalFee","type":"uint256"}],"name":"SwapExecuted","type":"event"},{"inputs":[],"name":"MAX_FEE_BPS","outputs":[{"internalType":"uint256","name":"","type":"uint256"}],"stateMutability":"view","type":"function"},{"inputs":[{"internalType":"uint256","name":"amountIn","type":"uint256"},{"internalType":"uint256","name":"expectedOutput","type":"uint256"}],"name":"calculateTotalFee","outputs":[{"internalType":"uint256","name":"totalFee","type":"uint256"}],"stateMutability":"view","type":"function"},{"inputs":[{"internalType":"address","name":"token","type":"address"},{"internalType":"uint256","name":"amount","type":"uint256"}],"name":"emergencyWithdraw","outputs":[],"stateMutability":"nonpayable","type":"function"},{"inputs":[],"name":"feeBps","outputs":[{"internalType":"uint256","name":"","type":"uint256"}],"stateMutability":"view","type":"function"},{"inputs":[],"name":"owner","outputs":[{"internalType":"address","name":"","type":"address"}],"stateMutability":"view","type":"function"},{"inputs":[],"name":"renounceOwnership","outputs":[],"stateMutability":"nonpayable","type":"function"},{"inputs":[],"name":"revenueWallet","outputs":[{"internalType":"address","name":"","type":"address"}],"stateMutability":"view","type":"function"},{"inputs":[{"internalType":"uint256","name":"newFeeBps","type":"uint256"}],"name":"setFeeBps","outputs":[],"stateMutability":"nonpayable","type":"function"},{"inputs":[{"internalType":"address","name":"tokenOut","type":"address"},{"internalType":"address","name":"lifiContract","type":"address"},{"internalType":"bytes","name":"lifiCalldata","type":"bytes"},{"internalType":"uint256","name":"minAmountOut","type":"uint256"}],"name":"swapNativeViaLiFi","outputs":[{"internalType":"uint256","name":"amountOut","type":"uint256"}],"stateMutability":"payable","type":"function"},{"inputs":[{"internalType":"address","name":"tokenIn","type":"address"},{"internalType":"uint256","name":"amountIn","type":"uint256"},{"internalType":"address","name":"tokenOut","type":"address"},{"internalType":"address","name":"lifiContract","type":"address"},{"internalType":"bytes","name":"lifiCalldata","type":"bytes"},{"internalType":"uint256","name":"minAmountOut","type":"uint256"}],"name":"swapTokenViaLiFi","outputs":[{"internalType":"uint256","name":"amountOut","type":"uint256"}],"stateMutability":"nonpayable","type":"function"},{"inputs":[{"internalType":"address","name":"newOwner","type":"address"}],"name":"transferOwnership","outputs":[],"stateMutability":"nonpayable","type":"function"},{"stateMutability":"payable","type":"receive"}],"evm":{"bytecode":{"linkReferences":{},"object":"60a03461010457601f61103038819003918201601f19168301916001600160401b038311848410176101095780849260409485528339810103126101045780516001600160a01b038082169283830361010457602001519260016000556001543360018060a01b0319821617600155604051923391167f8be0079c531659141344cd1fd0a4f28419497f9722a3daafe3b4186f6b6457e0600080a3156100f557506101f482116100e357608052600255604051610f10908161012082396080518181816104ec015281816105c10152818161063c015281816108cb0152610a660152f35b6040516358d620b360e01b8152600490fd5b6312171d8360e31b8152600490fd5b600080fd5b634e487b7160e01b600052604160045260246000fdfe60406080815260049081361015610020575b5050361561001e57600080fd5b005b6000803560e01c80630b0e2df71461068a57806324a9d8531461066b57806344478425146106275780636a85b2b414610350578063715018a6146102f357806372c27b62146102845780638da5cb5b1461025b57806395ccea67146101e0578063d55be8c6146101bf578063f2fde38b146100ef5763fcff53a7146100a55750610011565b346100ec57816003193601126100ec57506100e56100de6020936002549182916100d461271093849235610b68565b0492602435610b68565b0490610c22565b9051908152f35b80fd5b5091346101bb5760203660031901126101bb5761010a610ac7565b90610113610b10565b6001600160a01b03918216928315610169575050600154826bffffffffffffffffffffffff60a01b821617600155167f8be0079c531659141344cd1fd0a4f28419497f9722a3daafe3b4186f6b6457e08380a380f35b906020608492519162461bcd60e51b8352820152602660248201527f4f776e61626c653a206e6577206f776e657220697320746865207a65726f206160448201526564647265737360d01b6064820152fd5b8280fd5b5090346101dc57816003193601126101dc57602090516101f48152f35b5080fd5b509190346101bb57806003193601126101bb57826101fc610ac7565b60243590610208610b10565b6001600160a01b039081168061024457508280928192600154165af161022c610bf2565b501561023757505080f35b516312171d8360e31b8152fd5b925090925061025893506001541690610c85565b80f35b5090346101dc57816003193601126101dc5760015490516001600160a01b039091168152602090f35b5091346101bb5760203660031901126101bb578035906102a2610b10565b6101f482116102e55750907f528d9479e9f9889a87a3c30c7f7ba537e5e59c4c85a37733b16e57c62df6130291600254908060025582519182526020820152a180f35b82516358d620b360e01b8152fd5b50346100ec57806003193601126100ec5761030c610b10565b600180546001600160a01b0319811690915581906001600160a01b03167f8be0079c531659141344cd1fd0a4f28419497f9722a3daafe3b4186f6b6457e08280a380f35b50919060803660031901126101bb57610367610ac7565b60243593906001600160a01b038086168087036106235760443567ffffffffffffffff811161061f5761039d9036908801610ae2565b9790916103a8610c2f565b341561060f57156105ff5761271091826103c460025434610b68565b04936103d08534610b91565b95856105ba575b16948751906370a0823160e01b93848352308b84015260209b8c846024818c5afa9384156105b057908a9392918495610573575b5061041890849596610ea4565b918d83519301915af1610429610bf2565b501561056357865191825230888301528882602481885afa8015610559578690610524575b6104589250610b91565b95606435871061051657509261049a8193926001956104796002548a610b68565b0490610495610488838b610b91565b836104e6575b3387610c85565b610c22565b7fad671c9d50262b75ba17bdf7e330ae0d7da971800b2526584a85f83d23296b158651806104dc33948b34846040919493926060820195825260208201520152565b0390a45551908152f35b610511847f000000000000000000000000000000000000000000000000000000000000000089610c85565b61048e565b855163bb2875c360e01b8152fd5b50908881813d8311610552575b61053b8183610b9e565b8101031261054e5790610458915161044e565b8580fd5b503d610531565b87513d88823e3d90fd5b865163081ceff360e41b81528890fd5b8e8092949650819395503d83116105a9575b61058f8183610b9e565b810103126105a55751928992909161041861040b565b8980fd5b503d610585565b8b513d8c823e3d90fd5b87808080897f00000000000000000000000000000000000000000000000000000000000000005af16105ea610bf2565b506103d75788516312171d8360e31b81528a90fd5b85516312171d8360e31b81528790fd5b865163162908e360e11b81528890fd5b8480fd5b8380fd5b5090346101dc57816003193601126101dc57517f00000000000000000000000000000000000000000000000000000000000000006001600160a01b03168152602090f35b5090346101dc57816003193601126101dc576020906002549051908152f35b5091346101bb5760c03660031901126101bb576106a5610ac7565b6024936001600160a01b0393916044358581169190873590839003610623576064358781169889820361054e5767ffffffffffffffff986084358a8111610ac3576106f39036908b01610ae2565b9190956106fe610c2f565b8515610ab3578c15610aa3571694885160209b6323b872dd60e01b8d83015233858301523060448301528660648301526064825260a082019082821090821117610a91578a5261074e9087610cc8565b612710938461075f60025488610b68565b04809d61076c8289610b91565b9180610a60575b5081159081156109fb575b5015610999578a5163095ea7b360e01b818f01526001600160a01b03831686820190815260208101929092526107cb916107c590829060400103601f198101835282610b9e565b88610cc8565b8951926370a0823160e01b92838552308d8601528d8587818d5afa94851561098f57918b93918f938597610952575b50610809859493928592610ea4565b80519301915af1610818610bf2565b5015610942578a9089519384918252308c83015281895afa8015610938578790610903575b6108479250610b91565b9660a43588106108f557506104dc6108a888600198999a9b61049561089b7fad671c9d50262b75ba17bdf7e330ae0d7da971800b2526584a85f83d23296b159661089360025486610b68565b048094610b91565b836108c5575b338a610c85565b8851938452602084018a9052604084015233929081906060820190565b6108f0847f00000000000000000000000000000000000000000000000000000000000000008c610c85565b6108a1565b865163bb2875c360e01b8152fd5b50908981813d8311610931575b61091a8183610b9e565b8101031261092d5790610847915161083d565b8680fd5b503d610910565b88513d89823e3d90fd5b885163081ceff360e41b81528a90fd5b92945095509181813d8311610988575b61096c8183610b9e565b810103126109845751938a928e9290916108096107fa565b8a80fd5b503d610962565b8c513d8d823e3d90fd5b50895162461bcd60e51b8152808c018d90526036818601527f5361666545524332303a20617070726f76652066726f6d206e6f6e2d7a65726f60448201527520746f206e6f6e2d7a65726f20616c6c6f77616e636560501b6064820152608490fd5b8c51636eb1769f60e11b8152308f8201528781019190915290508d816044818c5afa90811561098f578b91610a33575b50153861077e565b90508d81813d8311610a59575b610a4a8183610b9e565b81010312610984575138610a2b565b503d610a40565b610a8b907f00000000000000000000000000000000000000000000000000000000000000008b610c85565b8e610773565b634e487b7160e01b8a5260418c52848afd5b89516312171d8360e31b81528b90fd5b895163162908e360e11b81528b90fd5b8780fd5b600435906001600160a01b0382168203610add57565b600080fd5b9181601f84011215610add5782359167ffffffffffffffff8311610add5760208381860195010111610add57565b6001546001600160a01b03163303610b2457565b606460405162461bcd60e51b815260206004820152602060248201527f4f776e61626c653a2063616c6c6572206973206e6f7420746865206f776e65726044820152fd5b81810292918115918404141715610b7b57565b634e487b7160e01b600052601160045260246000fd5b91908203918211610b7b57565b90601f8019910116810190811067ffffffffffffffff821117610bc057604052565b634e487b7160e01b600052604160045260246000fd5b67ffffffffffffffff8111610bc057601f01601f191660200190565b3d15610c1d573d90610c0382610bd6565b91610c116040519384610b9e565b82523d6000602084013e565b606090565b91908201809211610b7b57565b600260005414610c40576002600055565b60405162461bcd60e51b815260206004820152601f60248201527f5265656e7472616e637947756172643a207265656e7472616e742063616c6c006044820152606490fd5b60405163a9059cbb60e01b60208201526001600160a01b03929092166024830152604480830193909352918152610cc691610cc1606483610b9e565b610cc8565b565b60018060a01b031690604051604081019080821067ffffffffffffffff831117610bc057610d3a916040526020938482527f5361666545524332303a206c6f772d6c6576656c2063616c6c206661696c6564858301526000808587829751910182855af1610d34610bf2565b91610dd0565b805191821591848315610dac575b505050905015610d555750565b6084906040519062461bcd60e51b82526004820152602a60248201527f5361666545524332303a204552433230206f7065726174696f6e20646964206e6044820152691bdd081cdd58d8d9595960b21b6064820152fd5b9193818094500103126101dc578201519081151582036100ec575080388084610d48565b91929015610e325750815115610de4575090565b3b15610ded5790565b60405162461bcd60e51b815260206004820152601d60248201527f416464726573733a2063616c6c20746f206e6f6e2d636f6e74726163740000006044820152606490fd5b825190915015610e455750805190602001fd5b6040519062461bcd60e51b82528160208060048301528251908160248401526000935b828510610e8b575050604492506000838284010152601f80199101168101030190fd5b8481018201518686016044015293810193859350610e68565b90610eae81610bd6565b91610ebc6040519384610b9e565b8183523682820111610add578160009260209283860137830101529056fea2646970667358221220e0913eeb3c52aa20b282aeae6599c7a283e47dcb97b712b6d044e557d495d80964736f6c63430008130033","opcodes":"PUSH1 0xA0 CALLVALUE PUSH2 0x104 JUMPI PUSH1 0x1F PUSH2 0x1030 CODESIZE DUP2 SWAP1 SUB SWAP2 DUP3 ADD PUSH1 0x1F NOT AND DUP4 ADD SWAP2 PUSH1 0x1 PUSH1 0x1 PUSH1 0x40 SHL SUB DUP4 GT DUP5 DUP5 LT OR PUSH2 0x109 JUMPI DUP1 DUP5 SWAP3 PUSH1 0x40 SWAP5 DUP6 MSTORE DUP4 CODECOPY DUP2 ADD SUB SLT PUSH2 0x104 JUMPI DUP1 MLOAD PUSH1 0x1 PUSH1 0x1 PUSH1 0xA0 SHL SUB DUP1 DUP3 AND SWAP3 DUP4 DUP4 SUB PUSH2 0x104 JUMPI PUSH1 0x20 ADD MLOAD SWAP3 PUSH1 0x1 PUSH1 0x0 SSTORE PUSH1 0x1 SLOAD CALLER PUSH1 0x1 DUP1 PUSH1 0xA0 SHL SUB NOT DUP3 AND OR PUSH1 0x1 SSTORE PUSH1 0x40 MLOAD SWAP3 CALLER SWAP2 AND PUSH32 0x8BE0079C531659141344CD1FD0A4F28419497F9722A3DAAFE3B4186F6B6457E0 PUSH1 0x0 DUP1 LOG3 ISZERO PUSH2 0xF5 JUMPI POP PUSH2 0x1F4 DUP3 GT PUSH2 0xE3 JUMPI PUSH1 0x80 MSTORE PUSH1 0x2 SSTORE PUSH1 0x40 MLOAD PUSH2 0xF10 SWAP1 DUP2 PUSH2 0x120 DUP3 CODECOPY PUSH1 0x80 MLOAD DUP2 DUP2 DUP2 PUSH2 0x4EC ADD MSTORE DUP2 DUP2 PUSH2 0x5C1 ADD MSTORE DUP2 DUP2 PUSH2 0x63C ADD MSTORE DUP2 DUP2 PUSH2 0x8CB ADD MSTORE PUSH2 0xA66 ADD MSTORE RETURN JUMPDEST PUSH1 0x40 MLOAD PUSH4 0x58D620B3 PUSH1 0xE0 SHL DUP2 MSTORE PUSH1 0x4 SWAP1 REVERT JUMPDEST PUSH4 0x12171D83 PUSH1 0xE3 SHL DUP2 MSTORE PUSH1 0x4 SWAP1 REVERT JUMPDEST PUSH1 0x0 DUP1 REVERT JUMPDEST PUSH4 0x4E487B71 PUSH1 0xE0 SHL PUSH1 0x0 MSTORE PUSH1 0x41 PUSH1 0x4 MSTORE PUSH1 0x24 PUSH1 0x0 REVERT INVALID PUSH1 0x40 PUSH1 0x80 DUP2 MSTORE PUSH1 0x4 SWAP1 DUP2 CALLDATASIZE LT ISZERO PUSH2 0x20 JUMPI JUMPDEST POP POP CALLDATASIZE ISZERO PUSH2 0x1E JUMPI PUSH1 0x0 DUP1 REVERT JUMPDEST STOP JUMPDEST PUSH1 0x0 DUP1 CALLDATALOAD PUSH1 0xE0 SHR DUP1 PUSH4 0xB0E2DF7 EQ PUSH2 0x68A JUMPI DUP1 PUSH4 0x24A9D853 EQ PUSH2 0x66B JUMPI DUP1 PUSH4 0x44478425 EQ PUSH2 0x627 JUMPI DUP1 PUSH4 0x6A85B2B4 EQ PUSH2 0x350 JUMPI DUP1 PUSH4 0x715018A6 EQ PUSH2 0x2F3 JUMPI DUP1 PUSH4 0x72C27B62 EQ PUSH2 0x284 JUMPI DUP1 PUSH4 0x8DA5CB5B EQ PUSH2 0x25B JUMPI DUP1 PUSH4 0x95CCEA67 EQ PUSH2 0x1E0 JUMPI DUP1 PUSH4 0xD55BE8C6 EQ PUSH2 0x1BF JUMPI DUP1 PUSH4 0xF2FDE38B EQ PUSH2 0xEF JUMPI PUSH4 0xFCFF53A7 EQ PUSH2 0xA5 JUMPI POP PUSH2 0x11 JUMP JUMPDEST CALLVALUE PUSH2 0xEC JUMPI DUP2 PUSH1 0x3 NOT CALLDATASIZE ADD SLT PUSH2 0xEC JUMPI POP PUSH2 0xE5 PUSH2 0xDE PUSH1 0x20 SWAP4 PUSH1 0x2 SLOAD SWAP2 DUP3 SWAP2 PUSH2 0xD4 PUSH2 0x2710 SWAP4 DUP5 SWAP3 CALLDATALOAD PUSH2 0xB68 JUMP JUMPDEST DIV SWAP3 PUSH1 0x24 CALLDATALOAD PUSH2 0xB68 JUMP JUMPDEST DIV SWAP1 PUSH2 0xC22 JUMP JUMPDEST SWAP1 MLOAD SWAP1 DUP2 MSTORE RETURN JUMPDEST DUP1 REVERT JUMPDEST POP SWAP2 CALLVALUE PUSH2 0x1BB JUMPI PUSH1 0x20 CALLDATASIZE PUSH1 0x3 NOT ADD SLT PUSH2 0x1BB JUMPI PUSH2 0x10A PUSH2 0xAC7 JUMP JUMPDEST SWAP1 PUSH2 0x113 PUSH2 0xB10 JUMP JUMPDEST PUSH1 0x1 PUSH1 0x1 PUSH1 0xA0 SHL SUB SWAP2 DUP3 AND SWAP3 DUP4 ISZERO PUSH2 0x169 JUMPI POP POP PUSH1 0x1 SLOAD DUP3 PUSH12 0xFFFFFFFFFFFFFFFFFFFFFFFF PUSH1 0xA0 SHL DUP3 AND OR PUSH1 0x1 SSTORE AND PUSH32 0x8BE0079C531659141344CD1FD0A4F28419497F9722A3DAAFE3B4186F6B6457E0 DUP4 DUP1 LOG3 DUP1 RETURN JUMPDEST SWAP1 PUSH1 0x20 PUSH1 0x84 SWAP3 MLOAD SWAP2 PUSH3 0x461BCD PUSH1 0xE5 SHL DUP4 MSTORE DUP3 ADD MSTORE PUSH1 0x26 PUSH1 0x24 DUP3 ADD MSTORE PUSH32 0x4F776E61626C653A206E6577206F776E657220697320746865207A65726F2061 PUSH1 0x44 DUP3 ADD MSTORE PUSH6 0x646472657373 PUSH1 0xD0 SHL PUSH1 0x64 DUP3 ADD MSTORE REVERT JUMPDEST DUP3 DUP1 REVERT JUMPDEST POP SWAP1 CALLVALUE PUSH2 0x1DC JUMPI DUP2 PUSH1 0x3 NOT CALLDATASIZE ADD SLT PUSH2 0x1DC JUMPI PUSH1 0x20 SWAP1 MLOAD PUSH2 0x1F4 DUP2 MSTORE RETURN JUMPDEST POP DUP1 REVERT JUMPDEST POP SWAP2 SWAP1 CALLVALUE PUSH2 0x1BB JUMPI DUP1 PUSH1 0x3 NOT CALLDATASIZE ADD SLT PUSH2 0x1BB JUMPI DUP3 PUSH2 0x1FC PUSH2 0xAC7 JUMP JUMPDEST PUSH1 0x24 CALLDATALOAD SWAP1 PUSH2 0x208 PUSH2 0xB10 JUMP JUMPDEST PUSH1 0x1 PUSH1 0x1 PUSH1 0xA0 SHL SUB SWAP1 DUP2 AND DUP1 PUSH2 0x244 JUMPI POP DUP3 DUP1 SWAP3 DUP2 SWAP3 PUSH1 0x1 SLOAD AND GAS CALL PUSH2 0x22C PUSH2 0xBF2 JUMP JUMPDEST POP ISZERO PUSH2 0x237 JUMPI POP POP DUP1 RETURN JUMPDEST MLOAD PUSH4 0x12171D83 PUSH1 0xE3 SHL DUP2 MSTORE REVERT JUMPDEST SWAP3 POP SWAP1 SWAP3 POP PUSH2 0x258 SWAP4 POP PUSH1 0x1 SLOAD AND SWAP1 PUSH2 0xC85 JUMP JUMPDEST DUP1 RETURN JUMPDEST POP SWAP1 CALLVALUE PUSH2 0x1DC JUMPI DUP2 PUSH1 0x3 NOT CALLDATASIZE ADD SLT PUSH2 0x1DC JUMPI PUSH1 0x1 SLOAD SWAP1 MLOAD PUSH1 0x1 PUSH1 0x1 PUSH1 0xA0 SHL SUB SWAP1 SWAP2 AND DUP2 MSTORE PUSH1 0x20 SWAP1 RETURN JUMPDEST POP SWAP2 CALLVALUE PUSH2 0x1BB JUMPI PUSH1 0x20 CALLDATASIZE PUSH1 0x3 NOT ADD SLT PUSH2 0x1BB JUMPI DUP1 CALLDATALOAD SWAP1 PUSH2 0x2A2 PUSH2 0xB10 JUMP JUMPDEST PUSH2 0x1F4 DUP3 GT PUSH2 0x2E5 JUMPI POP SWAP1 PUSH32 0x528D9479E9F9889A87A3C30C7F7BA537E5E59C4C85A37733B16E57C62DF61302 SWAP2 PUSH1 0x2 SLOAD SWAP1 DUP1 PUSH1 0x2 SSTORE DUP3 MLOAD SWAP2 DUP3 MSTORE PUSH1 0x20 DUP3 ADD MSTORE LOG1 DUP1 RETURN JUMPDEST DUP3 MLOAD PUSH4 0x58D620B3 PUSH1 0xE0 SHL DUP2 MSTORE REVERT JUMPDEST POP CALLVALUE PUSH2 0xEC JUMPI DUP1 PUSH1 0x3 NOT CALLDATASIZE ADD SLT PUSH2 0xEC JUMPI PUSH2 0x30C PUSH2 0xB10 JUMP JUMPDEST PUSH1 0x1 DUP1 SLOAD PUSH1 0x1 PUSH1 0x1 PUSH1 0xA0 SHL SUB NOT DUP2 AND SWAP1 SWAP2 SSTORE DUP2 SWAP1 PUSH1 0x1 PUSH1 0x1 PUSH1 0xA0 SHL SUB AND PUSH32 0x8BE0079C531659141344CD1FD0A4F28419497F9722A3DAAFE3B4186F6B6457E0 DUP3 DUP1 LOG3 DUP1 RETURN JUMPDEST POP SWAP2 SWAP1 PUSH1 0x80 CALLDATASIZE PUSH1 0x3 NOT ADD SLT PUSH2 0x1BB JUMPI PUSH2 0x367 PUSH2 0xAC7 JUMP JUMPDEST PUSH1 0x24 CALLDATALOAD SWAP4 SWAP1 PUSH1 0x1 PUSH1 0x1 PUSH1 0xA0 SHL SUB DUP1 DUP7 AND DUP1 DUP8 SUB PUSH2 0x623 JUMPI PUSH1 0x44 CALLDATALOAD PUSH8 0xFFFFFFFFFFFFFFFF DUP2 GT PUSH2 0x61F JUMPI PUSH2 0x39D SWAP1 CALLDATASIZE SWAP1 DUP9 ADD PUSH2 0xAE2 JUMP JUMPDEST SWAP8 SWAP1 SWAP2 PUSH2 0x3A8 PUSH2 0xC2F JUMP JUMPDEST CALLVALUE ISZERO PUSH2 0x60F JUMPI ISZERO PUSH2 0x5FF JUMPI PUSH2 0x2710 SWAP2 DUP3 PUSH2 0x3C4 PUSH1 0x2 SLOAD CALLVALUE PUSH2 0xB68 JUMP JUMPDEST DIV SWAP4 PUSH2 0x3D0 DUP6 CALLVALUE PUSH2 0xB91 JUMP JUMPDEST SWAP6 DUP6 PUSH2 0x5BA JUMPI JUMPDEST AND SWAP5 DUP8 MLOAD SWAP1 PUSH4 0x70A08231 PUSH1 0xE0 SHL SWAP4 DUP5 DUP4 MSTORE ADDRESS DUP12 DUP5 ADD MSTORE PUSH1 0x20 SWAP12 DUP13 DUP5 PUSH1 0x24 DUP2 DUP13 GAS STATICCALL SWAP4 DUP5 ISZERO PUSH2 0x5B0 JUMPI SWAP1 DUP11 SWAP4 SWAP3 SWAP2 DUP5 SWAP6 PUSH2 0x573 JUMPI JUMPDEST POP PUSH2 0x418 SWAP1 DUP5 SWAP6 SWAP7 PUSH2 0xEA4 JUMP JUMPDEST SWAP2 DUP14 DUP4 MLOAD SWAP4 ADD SWAP2 GAS CALL PUSH2 0x429 PUSH2 0xBF2 JUMP JUMPDEST POP ISZERO PUSH2 0x563 JUMPI DUP7 MLOAD SWAP2 DUP3 MSTORE ADDRESS DUP9 DUP4 ADD MSTORE DUP9 DUP3 PUSH1 0x24 DUP2 DUP9 GAS STATICCALL DUP1 ISZERO PUSH2 0x559 JUMPI DUP7 SWAP1 PUSH2 0x524 JUMPI JUMPDEST PUSH2 0x458 SWAP3 POP PUSH2 0xB91 JUMP JUMPDEST SWAP6 PUSH1 0x64 CALLDATALOAD DUP8 LT PUSH2 0x516 JUMPI POP SWAP3 PUSH2 0x49A DUP2 SWAP4 SWAP3 PUSH1 0x1 SWAP6 PUSH2 0x479 PUSH1 0x2 SLOAD DUP11 PUSH2 0xB68 JUMP JUMPDEST DIV SWAP1 PUSH2 0x495 PUSH2 0x488 DUP4 DUP12 PUSH2 0xB91 JUMP JUMPDEST DUP4 PUSH2 0x4E6 JUMPI JUMPDEST CALLER DUP8 PUSH2 0xC85 JUMP JUMPDEST PUSH2 0xC22 JUMP JUMPDEST PUSH32 0xAD671C9D50262B75BA17BDF7E330AE0D7DA971800B2526584A85F83D23296B15 DUP7 MLOAD DUP1 PUSH2 0x4DC CALLER SWAP5 DUP12 CALLVALUE DUP5 PUSH1 0x40 SWAP2 SWAP5 SWAP4 SWAP3 PUSH1 0x60 DUP3 ADD SWAP6 DUP3 MSTORE PUSH1 0x20 DUP3 ADD MSTORE ADD MSTORE JUMP JUMPDEST SUB SWAP1 LOG4 SSTORE MLOAD SWAP1 DUP2 MSTORE RETURN JUMPDEST PUSH2 0x511 DUP5 PUSH32 0x0 DUP10 PUSH2 0xC85 JUMP JUMPDEST PUSH2 0x48E JUMP JUMPDEST DUP6 MLOAD PUSH4 0xBB2875C3 PUSH1 0xE0 SHL DUP2 MSTORE REVERT JUMPDEST POP SWAP1 DUP9 DUP2 DUP2 RETURNDATASIZE DUP4 GT PUSH2 0x552 JUMPI JUMPDEST PUSH2 0x53B DUP2 DUP4 PUSH2 0xB9E JUMP JUMPDEST DUP2 ADD SUB SLT PUSH2 0x54E JUMPI SWAP1 PUSH2 0x458 SWAP2 MLOAD PUSH2 0x44E JUMP JUMPDEST DUP6 DUP1 REVERT JUMPDEST POP RETURNDATASIZE PUSH2 0x531 JUMP JUMPDEST DUP8 MLOAD RETURNDATASIZE DUP9 DUP3 RETURNDATACOPY RETURNDATASIZE SWAP1 REVERT JUMPDEST DUP7 MLOAD PUSH4 0x81CEFF3 PUSH1 0xE4 SHL DUP2 MSTORE DUP9 SWAP1 REVERT JUMPDEST DUP15 DUP1 SWAP3 SWAP5 SWAP7 POP DUP2 SWAP4 SWAP6 POP RETURNDATASIZE DUP4 GT PUSH2 0x5A9 JUMPI JUMPDEST PUSH2 0x58F DUP2 DUP4 PUSH2 0xB9E JUMP JUMPDEST DUP2 ADD SUB SLT PUSH2 0x5A5 JUMPI MLOAD SWAP3 DUP10 SWAP3 SWAP1 SWAP2 PUSH2 0x418 PUSH2 0x40B JUMP JUMPDEST DUP10 DUP1 REVERT JUMPDEST POP RETURNDATASIZE PUSH2 0x585 JUMP JUMPDEST DUP12 MLOAD RETURNDATASIZE DUP13 DUP3 RETURNDATACOPY RETURNDATASIZE SWAP1 REVERT JUMPDEST DUP8 DUP1 DUP1 DUP1 DUP10 PUSH32 0x0 GAS CALL PUSH2 0x5EA PUSH2 0xBF2 JUMP JUMPDEST POP PUSH2 0x3D7 JUMPI DUP9 MLOAD PUSH4 0x12171D83 PUSH1 0xE3 SHL DUP2 MSTORE DUP11 SWAP1 REVERT JUMPDEST DUP6 MLOAD PUSH4 0x12171D83 PUSH1 0xE3 SHL DUP2 MSTORE DUP8 SWAP1 REVERT JUMPDEST DUP7 MLOAD PUSH4 0x162908E3 PUSH1 0xE1 SHL DUP2 MSTORE DUP9 SWAP1 REVERT JUMPDEST DUP5 DUP1 REVERT JUMPDEST DUP4 DUP1 REVERT JUMPDEST POP SWAP1 CALLVALUE PUSH2 0x1DC JUMPI DUP2 PUSH1 0x3 NOT CALLDATASIZE ADD SLT PUSH2 0x1DC JUMPI MLOAD PUSH32 0x0 PUSH1 0x1 PUSH1 0x1 PUSH1 0xA0 SHL SUB AND DUP2 MSTORE PUSH1 0x20 SWAP1 RETURN JUMPDEST POP SWAP1 CALLVALUE PUSH2 0x1DC JUMPI DUP2 PUSH1 0x3 NOT CALLDATASIZE ADD SLT PUSH2 0x1DC JUMPI PUSH1 0x20 SWAP1 PUSH1 0x2 SLOAD SWAP1 MLOAD SWAP1 DUP2 MSTORE RETURN JUMPDEST POP SWAP2 CALLVALUE PUSH2 0x1BB JUMPI PUSH1 0xC0 CALLDATASIZE PUSH1 0x3 NOT ADD SLT PUSH2 0x1BB JUMPI PUSH2 0x6A5 PUSH2 0xAC7 JUMP JUMPDEST PUSH1 0x24 SWAP4 PUSH1 0x1 PUSH1 0x1 PUSH1 0xA0 SHL SUB SWAP4 SWAP2 PUSH1 0x44 CALLDATALOAD DUP6 DUP2 AND SWAP2 SWAP1 DUP8 CALLDATALOAD SWAP1 DUP4 SWAP1 SUB PUSH2 0x623 JUMPI PUSH1 0x64 CALLDATALOAD DUP8 DUP2 AND SWAP9 DUP10 DUP3 SUB PUSH2 0x54E JUMPI PUSH8 0xFFFFFFFFFFFFFFFF SWAP9 PUSH1 0x84 CALLDATALOAD DUP11 DUP2 GT PUSH2 0xAC3 JUMPI PUSH2 0x6F3 SWAP1 CALLDATASIZE SWAP1 DUP12 ADD PUSH2 0xAE2 JUMP JUMPDEST SWAP2 SWAP1 SWAP6 PUSH2 0x6FE PUSH2 0xC2F JUMP JUMPDEST DUP6 ISZERO PUSH2 0xAB3 JUMPI DUP13 ISZERO PUSH2 0xAA3 JUMPI AND SWAP5 DUP9 MLOAD PUSH1 0x20 SWAP12 PUSH4 0x23B872DD PUSH1 0xE0 SHL DUP14 DUP4 ADD MSTORE CALLER DUP6 DUP4 ADD MSTORE ADDRESS PUSH1 0x44 DUP4 ADD MSTORE DUP7 PUSH1 0x64 DUP4 ADD MSTORE PUSH1 0x64 DUP3 MSTORE PUSH1 0xA0 DUP3 ADD SWAP1 DUP3 DUP3 LT SWAP1 DUP3 GT OR PUSH2 0xA91 JUMPI DUP11 MSTORE PUSH2 0x74E SWAP1 DUP8 PUSH2 0xCC8 JUMP JUMPDEST PUSH2 0x2710 SWAP4 DUP5 PUSH2 0x75F PUSH1 0x2 SLOAD DUP9 PUSH2 0xB68 JUMP JUMPDEST DIV DUP1 SWAP14 PUSH2 0x76C DUP3 DUP10 PUSH2 0xB91 JUMP JUMPDEST SWAP2 DUP1 PUSH2 0xA60 JUMPI JUMPDEST POP DUP2 ISZERO SWAP1 DUP2 ISZERO PUSH2 0x9FB JUMPI JUMPDEST POP ISZERO PUSH2 0x999 JUMPI DUP11 MLOAD PUSH4 0x95EA7B3 PUSH1 0xE0 SHL DUP2 DUP16 ADD MSTORE PUSH1 0x1 PUSH1 0x1 PUSH1 0xA0 SHL SUB DUP4 AND DUP7 DUP3 ADD SWAP1 DUP2 MSTORE PUSH1 0x20 DUP2 ADD SWAP3 SWAP1 SWAP3 MSTORE PUSH2 0x7CB SWAP2 PUSH2 0x7C5 SWAP1 DUP3 SWAP1 PUSH1 0x40 ADD SUB PUSH1 0x1F NOT DUP2 ADD DUP4 MSTORE DUP3 PUSH2 0xB9E JUMP JUMPDEST DUP9 PUSH2 0xCC8 JUMP JUMPDEST DUP10 MLOAD SWAP3 PUSH4 0x70A08231 PUSH1 0xE0 SHL SWAP3 DUP4 DUP6 MSTORE ADDRESS DUP14 DUP7 ADD MSTORE DUP14 DUP6 DUP8 DUP2 DUP14 GAS STATICCALL SWAP5 DUP6 ISZERO PUSH2 0x98F JUMPI SWAP2 DUP12 SWAP4 SWAP2 DUP16 SWAP4 DUP6 SWAP8 PUSH2 0x952 JUMPI JUMPDEST POP PUSH2 0x809 DUP6 SWAP5 SWAP4 SWAP3 DUP6 SWAP3 PUSH2 0xEA4 JUMP JUMPDEST DUP1 MLOAD SWAP4 ADD SWAP2 GAS CALL PUSH2 0x818 PUSH2 0xBF2 JUMP JUMPDEST POP ISZERO PUSH2 0x942 JUMPI DUP11 SWAP1 DUP10 MLOAD SWAP4 DUP5 SWAP2 DUP3 MSTORE ADDRESS DUP13 DUP4 ADD MSTORE DUP2 DUP10 GAS STATICCALL DUP1 ISZERO PUSH2 0x938 JUMPI DUP8 SWAP1 PUSH2 0x903 JUMPI JUMPDEST PUSH2 0x847 SWAP3 POP PUSH2 0xB91 JUMP JUMPDEST SWAP7 PUSH1 0xA4 CALLDATALOAD DUP9 LT PUSH2 0x8F5 JUMPI POP PUSH2 0x4DC PUSH2 0x8A8 DUP9 PUSH1 0x1 SWAP9 SWAP10 SWAP11 SWAP12 PUSH2 0x495 PUSH2 0x89B PUSH32 0xAD671C9D50262B75BA17BDF7E330AE0D7DA971800B2526584A85F83D23296B15 SWAP7 PUSH2 0x893 PUSH1 0x2 SLOAD DUP7 PUSH2 0xB68 JUMP JUMPDEST DIV DUP1 SWAP5 PUSH2 0xB91 JUMP JUMPDEST DUP4 PUSH2 0x8C5 JUMPI JUMPDEST CALLER DUP11 PUSH2 0xC85 JUMP JUMPDEST DUP9 MLOAD SWAP4 DUP5 MSTORE PUSH1 0x20 DUP5 ADD DUP11 SWAP1 MSTORE PUSH1 0x40 DUP5 ADD MSTORE CALLER SWAP3 SWAP1 DUP2 SWAP1 PUSH1 0x60 DUP3 ADD SWAP1 JUMP JUMPDEST PUSH2 0x8F0 DUP5 PUSH32 0x0 DUP13 PUSH2 0xC85 JUMP JUMPDEST PUSH2 0x8A1 JUMP JUMPDEST DUP7 MLOAD PUSH4 0xBB2875C3 PUSH1 0xE0 SHL DUP2 MSTORE REVERT JUMPDEST POP SWAP1 DUP10 DUP2 DUP2 RETURNDATASIZE DUP4 GT PUSH2 0x931 JUMPI JUMPDEST PUSH2 0x91A DUP2 DUP4 PUSH2 0xB9E JUMP JUMPDEST DUP2 ADD SUB SLT PUSH2 0x92D JUMPI SWAP1 PUSH2 0x847 SWAP2 MLOAD PUSH2 0x83D JUMP JUMPDEST DUP7 DUP1 REVERT JUMPDEST POP RETURNDATASIZE PUSH2 0x910 JUMP JUMPDEST DUP9 MLOAD RETURNDATASIZE DUP10 DUP3 RETURNDATACOPY RETURNDATASIZE SWAP1 REVERT JUMPDEST DUP9 MLOAD PUSH4 0x81CEFF3 PUSH1 0xE4 SHL DUP2 MSTORE DUP11 SWAP1 REVERT JUMPDEST SWAP3 SWAP5 POP SWAP6 POP SWAP2 DUP2 DUP2 RETURNDATASIZE DUP4 GT PUSH2 0x988 JUMPI JUMPDEST PUSH2 0x96C DUP2 DUP4 PUSH2 0xB9E JUMP JUMPDEST DUP2 ADD SUB SLT PUSH2 0x984 JUMPI MLOAD SWAP4 DUP11 SWAP3 DUP15 SWAP3 SWAP1 SWAP2 PUSH2 0x809 PUSH2 0x7FA JUMP JUMPDEST DUP11 DUP1 REVERT JUMPDEST POP RETURNDATASIZE PUSH2 0x962 JUMP JUMPDEST DUP13 MLOAD RETURNDATASIZE DUP14 DUP3 RETURNDATACOPY RETURNDATASIZE SWAP1 REVERT JUMPDEST POP DUP10 MLOAD PUSH3 0x461BCD PUSH1 0xE5 SHL DUP2 MSTORE DUP1 DUP13 ADD DUP14 SWAP1 MSTORE PUSH1 0x36 DUP2 DUP7 ADD MSTORE PUSH32 0x5361666545524332303A20617070726F76652066726F6D206E6F6E2D7A65726F PUSH1 0x44 DUP3 ADD MSTORE PUSH22 0x20746F206E6F6E2D7A65726F20616C6C6F77616E6365 PUSH1 0x50 SHL PUSH1 0x64 DUP3 ADD MSTORE PUSH1 0x84 SWAP1 REVERT JUMPDEST DUP13 MLOAD PUSH4 0x6EB1769F PUSH1 0xE1 SHL DUP2 MSTORE ADDRESS DUP16 DUP3 ADD MSTORE DUP8 DUP2 ADD SWAP2 SWAP1 SWAP2 MSTORE SWAP1 POP DUP14 DUP2 PUSH1 0x44 DUP2 DUP13 GAS STATICCALL SWAP1 DUP2 ISZERO PUSH2 0x98F JUMPI DUP12 SWAP2 PUSH2 0xA33 JUMPI JUMPDEST POP ISZERO CODESIZE PUSH2 0x77E JUMP JUMPDEST SWAP1 POP DUP14 DUP2 DUP2 RETURNDATASIZE DUP4 GT PUSH2 0xA59 JUMPI JUMPDEST PUSH2 0xA4A DUP2 DUP4 PUSH2 0xB9E JUMP JUMPDEST DUP2 ADD SUB SLT PUSH2 0x984 JUMPI MLOAD CODESIZE PUSH2 0xA2B JUMP JUMPDEST POP RETURNDATASIZE PUSH2 0xA40 JUMP JUMPDEST PUSH2 0xA8B SWAP1 PUSH32 0x0 DUP12 PUSH2 0xC85 JUMP JUMPDEST DUP15 PUSH2 0x773 JUMP JUMPDEST PUSH4 0x4E487B71 PUSH1 0xE0 SHL DUP11 MSTORE PUSH1 0x41 DUP13 MSTORE DUP5 DUP11 REVERT JUMPDEST DUP10 MLOAD PUSH4 0x12171D83 PUSH1 0xE3 SHL DUP2 MSTORE DUP12 SWAP1 REVERT JUMPDEST DUP10 MLOAD PUSH4 0x162908E3 PUSH1 0xE1 SHL DUP2 MSTORE DUP12 SWAP1 REVERT JUMPDEST DUP8 DUP1 REVERT JUMPDEST PUSH1 0x4 CALLDATALOAD SWAP1 PUSH1 0x1 PUSH1 0x1 PUSH1 0xA0 SHL SUB DUP3 AND DUP3 SUB PUSH2 0xADD JUMPI JUMP JUMPDEST PUSH1 0x0 DUP1 REVERT JUMPDEST SWAP2 DUP2 PUSH1 0x1F DUP5 ADD SLT ISZERO PUSH2 0xADD JUMPI DUP3 CALLDATALOAD SWAP2 PUSH8 0xFFFFFFFFFFFFFFFF DUP4 GT PUSH2 0xADD JUMPI PUSH1 0x20 DUP4 DUP2 DUP7 ADD SWAP6 ADD ADD GT PUSH2 0xADD JUMPI JUMP JUMPDEST PUSH1 0x1 SLOAD PUSH1 0x1 PUSH1 0x1 PUSH1 0xA0 SHL SUB AND CALLER SUB PUSH2 0xB24 JUMPI JUMP JUMPDEST PUSH1 0x64 PUSH1 0x40 MLOAD PUSH3 0x461BCD PUSH1 0xE5 SHL DUP2 MSTORE PUSH1 0x20 PUSH1 0x4 DUP3 ADD MSTORE PUSH1 0x20 PUSH1 0x24 DUP3 ADD MSTORE PUSH32 0x4F776E61626C653A2063616C6C6572206973206E6F7420746865206F776E6572 PUSH1 0x44 DUP3 ADD MSTORE REVERT JUMPDEST DUP2 DUP2 MUL SWAP3 SWAP2 DUP2 ISZERO SWAP2 DUP5 DIV EQ OR ISZERO PUSH2 0xB7B JUMPI JUMP JUMPDEST PUSH4 0x4E487B71 PUSH1 0xE0 SHL PUSH1 0x0 MSTORE PUSH1 0x11 PUSH1 0x4 MSTORE PUSH1 0x24 PUSH1 0x0 REVERT JUMPDEST SWAP2 SWAP1 DUP3 SUB SWAP2 DUP3 GT PUSH2 0xB7B JUMPI JUMP JUMPDEST SWAP1 PUSH1 0x1F DUP1 NOT SWAP2 ADD AND DUP2 ADD SWAP1 DUP2 LT PUSH8 0xFFFFFFFFFFFFFFFF DUP3 GT OR PUSH2 0xBC0 JUMPI PUSH1 0x40 MSTORE JUMP JUMPDEST PUSH4 0x4E487B71 PUSH1 0xE0 SHL PUSH1 0x0 MSTORE PUSH1 0x41 PUSH1 0x4 MSTORE PUSH1 0x24 PUSH1 0x0 REVERT JUMPDEST PUSH8 0xFFFFFFFFFFFFFFFF DUP2 GT PUSH2 0xBC0 JUMPI PUSH1 0x1F ADD PUSH1 0x1F NOT AND PUSH1 0x20 ADD SWAP1 JUMP JUMPDEST RETURNDATASIZE ISZERO PUSH2 0xC1D JUMPI RETURNDATASIZE SWAP1 PUSH2 0xC03 DUP3 PUSH2 0xBD6 JUMP JUMPDEST SWAP2 PUSH2 0xC11 PUSH1 0x40 MLOAD SWAP4 DUP5 PUSH2 0xB9E JUMP JUMPDEST DUP3 MSTORE RETURNDATASIZE PUSH1 0x0 PUSH1 0x20 DUP5 ADD RETURNDATACOPY JUMP JUMPDEST PUSH1 0x60 SWAP1 JUMP JUMPDEST SWAP2 SWAP1 DUP3 ADD DUP1 SWAP3 GT PUSH2 0xB7B JUMPI JUMP JUMPDEST PUSH1 0x2 PUSH1 0x0 SLOAD EQ PUSH2 0xC40 JUMPI PUSH1 0x2 PUSH1 0x0 SSTORE JUMP JUMPDEST PUSH1 0x40 MLOAD PUSH3 0x461BCD PUSH1 0xE5 SHL DUP2 MSTORE PUSH1 0x20 PUSH1 0x4 DUP3 ADD MSTORE PUSH1 0x1F PUSH1 0x24 DUP3 ADD MSTORE PUSH32 0x5265656E7472616E637947756172643A207265656E7472616E742063616C6C00 PUSH1 0x44 DUP3 ADD MSTORE PUSH1 0x64 SWAP1 REVERT JUMPDEST PUSH1 0x40 MLOAD PUSH4 0xA9059CBB PUSH1 0xE0 SHL PUSH1 0x20 DUP3 ADD MSTORE PUSH1 0x1 PUSH1 0x1 PUSH1 0xA0 SHL SUB SWAP3 SWAP1 SWAP3 AND PUSH1 0x24 DUP4 ADD MSTORE PUSH1 0x44 DUP1 DUP4 ADD SWAP4 SWAP1 SWAP4 MSTORE SWAP2 DUP2 MSTORE PUSH2 0xCC6 SWAP2 PUSH2 0xCC1 PUSH1 0x64 DUP4 PUSH2 0xB9E JUMP JUMPDEST PUSH2 0xCC8 JUMP JUMPDEST JUMP JUMPDEST PUSH1 0x1 DUP1 PUSH1 0xA0 SHL SUB AND SWAP1 PUSH1 0x40 MLOAD PUSH1 0x40 DUP2 ADD SWAP1 DUP1 DUP3 LT PUSH8 0xFFFFFFFFFFFFFFFF DUP4 GT OR PUSH2 0xBC0 JUMPI PUSH2 0xD3A SWAP2 PUSH1 0x40 MSTORE PUSH1 0x20 SWAP4 DUP5 DUP3 MSTORE PUSH32 0x5361666545524332303A206C6F772D6C6576656C2063616C6C206661696C6564 DUP6 DUP4 ADD MSTORE PUSH1 0x0 DUP1 DUP6 DUP8 DUP3 SWAP8 MLOAD SWAP2 ADD DUP3 DUP6 GAS CALL PUSH2 0xD34 PUSH2 0xBF2 JUMP JUMPDEST SWAP2 PUSH2 0xDD0 JUMP JUMPDEST DUP1 MLOAD SWAP2 DUP3 ISZERO SWAP2 DUP5 DUP4 ISZERO PUSH2 0xDAC JUMPI JUMPDEST POP POP POP SWAP1 POP ISZERO PUSH2 0xD55 JUMPI POP JUMP JUMPDEST PUSH1 0x84 SWAP1 PUSH1 0x40 MLOAD SWAP1 PUSH3 0x461BCD PUSH1 0xE5 SHL DUP3 MSTORE PUSH1 0x4 DUP3 ADD MSTORE PUSH1 0x2A PUSH1 0x24 DUP3 ADD MSTORE PUSH32 0x5361666545524332303A204552433230206F7065726174696F6E20646964206E PUSH1 0x44 DUP3 ADD MSTORE PUSH10 0x1BDD081CDD58D8D95959 PUSH1 0xB2 SHL PUSH1 0x64 DUP3 ADD MSTORE REVERT JUMPDEST SWAP2 SWAP4 DUP2 DUP1 SWAP5 POP ADD SUB SLT PUSH2 0x1DC JUMPI DUP3 ADD MLOAD SWAP1 DUP2 ISZERO ISZERO DUP3 SUB PUSH2 0xEC JUMPI POP DUP1 CODESIZE DUP1 DUP5 PUSH2 0xD48 JUMP JUMPDEST SWAP2 SWAP3 SWAP1 ISZERO PUSH2 0xE32 JUMPI POP DUP2 MLOAD ISZERO PUSH2 0xDE4 JUMPI POP SWAP1 JUMP JUMPDEST EXTCODESIZE ISZERO PUSH2 0xDED JUMPI SWAP1 JUMP JUMPDEST PUSH1 0x40 MLOAD PUSH3 0x461BCD PUSH1 0xE5 SHL DUP2 MSTORE PUSH1 0x20 PUSH1 0x4 DUP3 ADD MSTORE PUSH1 0x1D PUSH1 0x24 DUP3 ADD MSTORE PUSH32 0x416464726573733A2063616C6C20746F206E6F6E2D636F6E7472616374000000 PUSH1 0x44 DUP3 ADD MSTORE PUSH1 0x64 SWAP1 REVERT JUMPDEST DUP3 MLOAD SWAP1 SWAP2 POP ISZERO PUSH2 0xE45 JUMPI POP DUP1 MLOAD SWAP1 PUSH1 0x20 ADD REVERT JUMPDEST PUSH1 0x40 MLOAD SWAP1 PUSH3 0x461BCD PUSH1 0xE5 SHL DUP3 MSTORE DUP2 PUSH1 0x20 DUP1 PUSH1 0x4 DUP4 ADD MSTORE DUP3 MLOAD SWAP1 DUP2 PUSH1 0x24 DUP5 ADD MSTORE PUSH1 0x0 SWAP4 JUMPDEST DUP3 DUP6 LT PUSH2 0xE8B JUMPI POP POP PUSH1 0x44 SWAP3 POP PUSH1 0x0 DUP4 DUP3 DUP5 ADD ADD MSTORE PUSH1 0x1F DUP1 NOT SWAP2 ADD AND DUP2 ADD SUB ADD SWAP1 REVERT JUMPDEST DUP5 DUP2 ADD DUP3 ADD MLOAD DUP7 DUP7 ADD PUSH1 0x44 ADD MSTORE SWAP4 DUP2 ADD SWAP4 DUP6 SWAP4 POP PUSH2 0xE68 JUMP JUMPDEST SWAP1 PUSH2 0xEAE DUP2 PUSH2 0xBD6 JUMP JUMPDEST SWAP2 PUSH2 0xEBC PUSH1 0x40 MLOAD SWAP4 DUP5 PUSH2 0xB9E JUMP JUMPDEST DUP2 DUP4 MSTORE CALLDATASIZE DUP3 DUP3 ADD GT PUSH2 0xADD JUMPI DUP2 PUSH1 0x0 SWAP3 PUSH1 0x20 SWAP3 DUP4 DUP7 ADD CALLDATACOPY DUP4 ADD ADD MSTORE SWAP1 JUMP INVALID LOG2 PUSH5 0x6970667358 0x22 SLT KECCAK256 0xE0 SWAP2 RETURNDATACOPY 0xEB EXTCODECOPY MSTORE 0xAA KECCAK256 0xB2 DUP3 0xAE 0xAE PUSH6 0x99C7A283E47D 0xCB SWAP8 0xB7 SLT 0xB6 0xD0 PREVRANDAO 0xE5 JUMPI 0xD4 SWAP6 0xD8 MULMOD PUSH5 0x736F6C6343 STOP ADDMOD SGT STOP CALLER "},"methodIdentifiers":{"MAX_FEE_BPS()":"d55be8c6","calculateTotalFee(uint256,uint256)":"fcff53a7","emergencyWithdraw(address,uint256)":"95ccea67","feeBps()":"24a9d853","owner()":"8da5cb5b","renounceOwnership()":"715018a6","revenueWallet()":"44478425","setFeeBps(uint256)":"72c27b62","swapNativeViaLiFi(address,address,bytes,uint256)":"6a85b2b4","swapTokenViaLiFi(address,uint256,address,address,bytes,uint256)":"0b0e2df7","transferOwnership(address)":"f2fde38b"}}}}}