{"contracts/SplenexLiFiWrapperV2.sol":{"SplenexLiFiWrapperV2":{"abi":[{"inputs":[{"internalType":"address","name":"_revenueWallet","type":"address"},{"internalType":"uint256","name":"_initialFeeBps","type":"uint256"}],"stateMutability":"nonpayable","type":"constructor"},{"inputs":[],"name":"InvalidAmount","type":"error"},{"inputs":[],"name":"InvalidFee","type":"error"},{"inputs":[],"name":"SwapFailed","type":"error"},{"inputs":[],"name":"TransferFailed","type":"error"},{"anonymous":false,"inputs":[{"indexed":false,"internalType":"uint256","name":"oldFee","type":"uint256"},{"indexed":false,"internalType":"uint256","name":"newFee","type":"uint256"}],"name":"FeeUpdated","type":"event"},{"anonymous":false,"inputs":[{"indexed":true,"internalType":"address","name":"previousOwner","type":"address"},{"indexed":true,"internalType":"address","name":"newOwner","type":"address"}],"name":"OwnershipTransferred","type":"event"},{"anonymous":false,"inputs":[{"indexed":true,"internalType":"address","name":"user","type":"address"},{"indexed":true,"internalType":"address","name":"tokenIn","type":"address"},{"indexed":true,"internalType":"address","name":"tokenOut","type":"address"},{"indexed":false,"internalType":"uint256","name":"amountIn","type":"uint256"},{"indexed":false,"internalType":"uint256","name":"feeCollected","type":"uint256"}],"name":"SwapExecuted","type":"event"},{"inputs":[],"name":"MAX_FEE_BPS","outputs":[{"internalType":"uint256","name":"","type":"uint256"}],"stateMutability":"view","type":"function"},{"inputs":[{"internalType":"address","name":"token","type":"address"},{"internalType":"uint256","name":"amount","type":"uint256"}],"name":"emergencyWithdraw","outputs":[],"stateMutability":"nonpayable","type":"function"},{"inputs":[],"name":"feeBps","outputs":[{"internalType":"uint256","name":"","type":"uint256"}],"stateMutability":"view","type":"function"},{"inputs":[],"name":"owner","outputs":[{"internalType":"address","name":"","type":"address"}],"stateMutability":"view","type":"function"},{"inputs":[],"name":"renounceOwnership","outputs":[],"stateMutability":"nonpayable","type":"function"},{"inputs":[],"name":"revenueWallet","outputs":[{"internalType":"address","name":"","type":"address"}],"stateMutability":"view","type":"function"},{"inputs":[{"internalType":"uint256","name":"newFeeBps","type":"uint256"}],"name":"setFeeBps","outputs":[],"stateMutability":"nonpayable","type":"function"},{"inputs":[{"internalType":"address","name":"","type":"address"},{"internalType":"address","name":"lifiContract","type":"address"},{"internalType":"bytes","name":"lifiCalldata","type":"bytes"},{"internalType":"uint256","name":"","type":"uint256"}],"name":"swapNativeViaLiFi","outputs":[{"internalType":"uint256","name":"","type":"uint256"}],"stateMutability":"payable","type":"function"},{"inputs":[{"internalType":"address","name":"tokenIn","type":"address"},{"internalType":"uint256","name":"amountIn","type":"uint256"},{"internalType":"address","name":"","type":"address"},{"internalType":"address","name":"lifiContract","type":"address"},{"internalType":"bytes","name":"lifiCalldata","type":"bytes"},{"internalType":"uint256","name":"","type":"uint256"}],"name":"swapTokenViaLiFi","outputs":[{"internalType":"uint256","name":"","type":"uint256"}],"stateMutability":"nonpayable","type":"function"},{"inputs":[{"internalType":"address","name":"newOwner","type":"address"}],"name":"transferOwnership","outputs":[],"stateMutability":"nonpayable","type":"function"},{"stateMutability":"payable","type":"receive"}],"evm":{"bytecode":{"linkReferences":{},"object":"60a0346100f657601f610dea38819003918201601f19168301916001600160401b038311848410176100fb5780849260409485528339810103126100f65780516001600160a01b03808216928383036100f657602001519260016000556001543360018060a01b0319821617600155604051923391167f8be0079c531659141344cd1fd0a4f28419497f9722a3daafe3b4186f6b6457e0600080a3156100e757506101f482116100d557608052600255604051610cd8908161011282396080518181816102b601528181610338015261045e0152f35b6040516358d620b360e01b8152600490fd5b6312171d8360e31b8152600490fd5b600080fd5b634e487b7160e01b600052604160045260246000fdfe6080604052600436101561001b575b361561001957600080fd5b005b60003560e01c80630b0e2df7146100bb57806324a9d853146100b657806344478425146100b15780636a85b2b4146100ac578063715018a6146100a757806372c27b62146100a25780638da5cb5b1461009d57806395ccea6714610098578063d55be8c6146100935763f2fde38b0361000e57610613565b6105f6565b610594565b61056b565b6104f7565b610496565b610367565b610322565b610304565b61014b565b600435906001600160a01b03821682036100d657565b600080fd5b604435906001600160a01b03821682036100d657565b606435906001600160a01b03821682036100d657565b602435906001600160a01b03821682036100d657565b9181601f840112156100d65782359167ffffffffffffffff83116100d657602083818601950101116100d657565b346100d65760c03660031901126100d6576101646100c0565b602435906101706100db565b506101796100f1565b9160843567ffffffffffffffff81116100d65761019a90369060040161011d565b90926101a4610816565b82156102f2576001600160a01b0390858216156102e057600091829116956101ce8530338a6108b6565b6101e56101dd6002548761074a565b612710900490565b93826101f18688610762565b97866102b0575b610202848b610995565b61020d89858c6109e7565b61021c6040518094819361076f565b03925af16102286107d6565b9015610291575060408051928352602083019190915261028d93600092909133917f764f0dc063c06f32d89a3f3af80c0db4be8a090901f589a478b447e0a51f09f191819081015b0390a461027d6001600055565b6040519081529081906020820190565b0390f35b805190816102ab5760405163081ceff360e41b8152600490fd5b602001fd5b6102db877f00000000000000000000000000000000000000000000000000000000000000008c61086c565b6101f8565b6040516312171d8360e31b8152600490fd5b60405163162908e360e11b8152600490fd5b346100d65760003660031901126100d6576020600254604051908152f35b346100d65760003660031901126100d6576040517f00000000000000000000000000000000000000000000000000000000000000006001600160a01b03168152602090f35b60803660031901126100d65761037b6100c0565b50610384610107565b60443567ffffffffffffffff81116100d6576103a490369060040161011d565b916103ad610816565b34156102f2576001600160a01b038116156102e0576103d16101dd6002543461074a565b926103dc8434610762565b809385610452575b916000939184936103fa6040518094819361076f565b03925af16104066107d6565b9015610291575060008061028d937f764f0dc063c06f32d89a3f3af80c0db4be8a090901f589a478b447e0a51f09f1604051806102703394348360209093929193604081019481520152565b919290506000808080887f00000000000000000000000000000000000000000000000000000000000000005af16104876107d6565b50156102e057919083906103e4565b346100d6576000806003193601126104f4576104b06106dc565b600180546001600160a01b0319811690915581906001600160a01b03167f8be0079c531659141344cd1fd0a4f28419497f9722a3daafe3b4186f6b6457e08280a380f35b80fd5b346100d65760203660031901126100d6576004356105136106dc565b6101f481116105595760028054908290556040805191825260208201929092527f528d9479e9f9889a87a3c30c7f7ba537e5e59c4c85a37733b16e57c62df613029190a1005b6040516358d620b360e01b8152600490fd5b346100d65760003660031901126100d6576001546040516001600160a01b039091168152602090f35b346100d65760403660031901126100d6576105ad6100c0565b602435906105b96106dc565b6001600160a01b03908116806105e7575060008080938193600154165af16105df6107d6565b50156102e057005b6100199291600154169061086c565b346100d65760003660031901126100d65760206040516101f48152f35b346100d65760203660031901126100d65761062c6100c0565b6106346106dc565b6001600160a01b0390811690811561068857600154826bffffffffffffffffffffffff60a01b821617600155167f8be0079c531659141344cd1fd0a4f28419497f9722a3daafe3b4186f6b6457e0600080a3005b60405162461bcd60e51b815260206004820152602660248201527f4f776e61626c653a206e6577206f776e657220697320746865207a65726f206160448201526564647265737360d01b6064820152608490fd5b6001546001600160a01b031633036106f057565b606460405162461bcd60e51b815260206004820152602060248201527f4f776e61626c653a2063616c6c6572206973206e6f7420746865206f776e65726044820152fd5b634e487b7160e01b600052601160045260246000fd5b8181029291811591840414171561075d57565b610734565b9190820391821161075d57565b908092918237016000815290565b634e487b7160e01b600052604160045260246000fd5b6040810190811067ffffffffffffffff8211176107af57604052565b61077d565b90601f8019910116810190811067ffffffffffffffff8211176107af57604052565b3d15610811573d9067ffffffffffffffff82116107af5760405191610805601f8201601f1916602001846107b4565b82523d6000602084013e565b606090565b600260005414610827576002600055565b60405162461bcd60e51b815260206004820152601f60248201527f5265656e7472616e637947756172643a207265656e7472616e742063616c6c006044820152606490fd5b60405163a9059cbb60e01b60208201526001600160a01b03909216602483015260448201929092526108b4916108af82606481015b03601f1981018452836107b4565b610ac8565b565b6040516323b872dd60e01b60208201526001600160a01b03928316602482015292909116604483015260648083019390935291815260a081019181831067ffffffffffffffff8411176107af576108b492604052610ac8565b908160209103126100d6575190565b6040513d6000823e3d90fd5b1561093157565b60405162461bcd60e51b815260206004820152603660248201527f5361666545524332303a20617070726f76652066726f6d206e6f6e2d7a65726f60448201527520746f206e6f6e2d7a65726f20616c6c6f77616e636560501b6064820152608490fd5b60405163095ea7b360e01b60208201526001600160a01b0390921660248301526000604480840191909152825260808201919067ffffffffffffffff8311828410176107af576108b492604052610ac8565b91909181158015610a35575b6108b493610a036108af9261092a565b60405163095ea7b360e01b60208201526001600160a01b039091166024820152604481019390935282606481016108a1565b50604051636eb1769f60e11b81523060048201526001600160a01b038416602482015292602084806044810103816001600160a01b0386165afa908115610ac357610a036108af926108b496600091610a95575b501592505093506109f3565b610ab6915060203d8111610abc575b610aae81836107b4565b81019061090f565b38610a89565b503d610aa4565b61091e565b60018060a01b031690610b27604051610ae081610793565b6020938482527f5361666545524332303a206c6f772d6c6576656c2063616c6c206661696c6564858301526000808587829751910182855af1610b216107d6565b91610c0d565b805191821591848315610b99575b505050905015610b425750565b6084906040519062461bcd60e51b82526004820152602a60248201527f5361666545524332303a204552433230206f7065726174696f6e20646964206e6044820152691bdd081cdd58d8d9595960b21b6064820152fd5b919381809450010312610bbd578201519081151582036104f4575080388084610b35565b5080fd5b15610bc857565b60405162461bcd60e51b815260206004820152601d60248201527f416464726573733a2063616c6c20746f206e6f6e2d636f6e74726163740000006044820152606490fd5b91929015610c305750815115610c21575090565b610c2d903b1515610bc1565b90565b825190915015610c435750805190602001fd5b6040519062461bcd60e51b82528160208060048301528251908160248401526000935b828510610c89575050604492506000838284010152601f80199101168101030190fd5b8481018201518686016044015293810193859350610c6656fea2646970667358221220ac02eab3f22a053176fed92191e3ab6efbda83d4c29407982a17e1b77931cdc064736f6c63430008130033","opcodes":"PUSH1 0xA0 CALLVALUE PUSH2 0xF6 JUMPI PUSH1 0x1F PUSH2 0xDEA CODESIZE DUP2 SWAP1 SUB SWAP2 DUP3 ADD PUSH1 0x1F NOT AND DUP4 ADD SWAP2 PUSH1 0x1 PUSH1 0x1 PUSH1 0x40 SHL SUB DUP4 GT DUP5 DUP5 LT OR PUSH2 0xFB JUMPI DUP1 DUP5 SWAP3 PUSH1 0x40 SWAP5 DUP6 MSTORE DUP4 CODECOPY DUP2 ADD SUB SLT PUSH2 0xF6 JUMPI DUP1 MLOAD PUSH1 0x1 PUSH1 0x1 PUSH1 0xA0 SHL SUB DUP1 DUP3 AND SWAP3 DUP4 DUP4 SUB PUSH2 0xF6 JUMPI PUSH1 0x20 ADD MLOAD SWAP3 PUSH1 0x1 PUSH1 0x0 SSTORE PUSH1 0x1 SLOAD CALLER PUSH1 0x1 DUP1 PUSH1 0xA0 SHL SUB NOT DUP3 AND OR PUSH1 0x1 SSTORE PUSH1 0x40 MLOAD SWAP3 CALLER SWAP2 AND PUSH32 0x8BE0079C531659141344CD1FD0A4F28419497F9722A3DAAFE3B4186F6B6457E0 PUSH1 0x0 DUP1 LOG3 ISZERO PUSH2 0xE7 JUMPI POP PUSH2 0x1F4 DUP3 GT PUSH2 0xD5 JUMPI PUSH1 0x80 MSTORE PUSH1 0x2 SSTORE PUSH1 0x40 MLOAD PUSH2 0xCD8 SWAP1 DUP2 PUSH2 0x112 DUP3 CODECOPY PUSH1 0x80 MLOAD DUP2 DUP2 DUP2 PUSH2 0x2B6 ADD MSTORE DUP2 DUP2 PUSH2 0x338 ADD MSTORE PUSH2 0x45E ADD MSTORE RETURN JUMPDEST PUSH1 0x40 MLOAD PUSH4 0x58D620B3 PUSH1 0xE0 SHL DUP2 MSTORE PUSH1 0x4 SWAP1 REVERT JUMPDEST PUSH4 0x12171D83 PUSH1 0xE3 SHL DUP2 MSTORE PUSH1 0x4 SWAP1 REVERT JUMPDEST PUSH1 0x0 DUP1 REVERT JUMPDEST PUSH4 0x4E487B71 PUSH1 0xE0 SHL PUSH1 0x0 MSTORE PUSH1 0x41 PUSH1 0x4 MSTORE PUSH1 0x24 PUSH1 0x0 REVERT INVALID PUSH1 0x80 PUSH1 0x40 MSTORE PUSH1 0x4 CALLDATASIZE LT ISZERO PUSH2 0x1B JUMPI JUMPDEST CALLDATASIZE ISZERO PUSH2 0x19 JUMPI PUSH1 0x0 DUP1 REVERT JUMPDEST STOP JUMPDEST PUSH1 0x0 CALLDATALOAD PUSH1 0xE0 SHR DUP1 PUSH4 0xB0E2DF7 EQ PUSH2 0xBB JUMPI DUP1 PUSH4 0x24A9D853 EQ PUSH2 0xB6 JUMPI DUP1 PUSH4 0x44478425 EQ PUSH2 0xB1 JUMPI DUP1 PUSH4 0x6A85B2B4 EQ PUSH2 0xAC JUMPI DUP1 PUSH4 0x715018A6 EQ PUSH2 0xA7 JUMPI DUP1 PUSH4 0x72C27B62 EQ PUSH2 0xA2 JUMPI DUP1 PUSH4 0x8DA5CB5B EQ PUSH2 0x9D JUMPI DUP1 PUSH4 0x95CCEA67 EQ PUSH2 0x98 JUMPI DUP1 PUSH4 0xD55BE8C6 EQ PUSH2 0x93 JUMPI PUSH4 0xF2FDE38B SUB PUSH2 0xE JUMPI PUSH2 0x613 JUMP JUMPDEST PUSH2 0x5F6 JUMP JUMPDEST PUSH2 0x594 JUMP JUMPDEST PUSH2 0x56B JUMP JUMPDEST PUSH2 0x4F7 JUMP JUMPDEST PUSH2 0x496 JUMP JUMPDEST PUSH2 0x367 JUMP JUMPDEST PUSH2 0x322 JUMP JUMPDEST PUSH2 0x304 JUMP JUMPDEST PUSH2 0x14B JUMP JUMPDEST PUSH1 0x4 CALLDATALOAD SWAP1 PUSH1 0x1 PUSH1 0x1 PUSH1 0xA0 SHL SUB DUP3 AND DUP3 SUB PUSH2 0xD6 JUMPI JUMP JUMPDEST PUSH1 0x0 DUP1 REVERT JUMPDEST PUSH1 0x44 CALLDATALOAD SWAP1 PUSH1 0x1 PUSH1 0x1 PUSH1 0xA0 SHL SUB DUP3 AND DUP3 SUB PUSH2 0xD6 JUMPI JUMP JUMPDEST PUSH1 0x64 CALLDATALOAD SWAP1 PUSH1 0x1 PUSH1 0x1 PUSH1 0xA0 SHL SUB DUP3 AND DUP3 SUB PUSH2 0xD6 JUMPI JUMP JUMPDEST PUSH1 0x24 CALLDATALOAD SWAP1 PUSH1 0x1 PUSH1 0x1 PUSH1 0xA0 SHL SUB DUP3 AND DUP3 SUB PUSH2 0xD6 JUMPI JUMP JUMPDEST SWAP2 DUP2 PUSH1 0x1F DUP5 ADD SLT ISZERO PUSH2 0xD6 JUMPI DUP3 CALLDATALOAD SWAP2 PUSH8 0xFFFFFFFFFFFFFFFF DUP4 GT PUSH2 0xD6 JUMPI PUSH1 0x20 DUP4 DUP2 DUP7 ADD SWAP6 ADD ADD GT PUSH2 0xD6 JUMPI JUMP JUMPDEST CALLVALUE PUSH2 0xD6 JUMPI PUSH1 0xC0 CALLDATASIZE PUSH1 0x3 NOT ADD SLT PUSH2 0xD6 JUMPI PUSH2 0x164 PUSH2 0xC0 JUMP JUMPDEST PUSH1 0x24 CALLDATALOAD SWAP1 PUSH2 0x170 PUSH2 0xDB JUMP JUMPDEST POP PUSH2 0x179 PUSH2 0xF1 JUMP JUMPDEST SWAP2 PUSH1 0x84 CALLDATALOAD PUSH8 0xFFFFFFFFFFFFFFFF DUP2 GT PUSH2 0xD6 JUMPI PUSH2 0x19A SWAP1 CALLDATASIZE SWAP1 PUSH1 0x4 ADD PUSH2 0x11D JUMP JUMPDEST SWAP1 SWAP3 PUSH2 0x1A4 PUSH2 0x816 JUMP JUMPDEST DUP3 ISZERO PUSH2 0x2F2 JUMPI PUSH1 0x1 PUSH1 0x1 PUSH1 0xA0 SHL SUB SWAP1 DUP6 DUP3 AND ISZERO PUSH2 0x2E0 JUMPI PUSH1 0x0 SWAP2 DUP3 SWAP2 AND SWAP6 PUSH2 0x1CE DUP6 ADDRESS CALLER DUP11 PUSH2 0x8B6 JUMP JUMPDEST PUSH2 0x1E5 PUSH2 0x1DD PUSH1 0x2 SLOAD DUP8 PUSH2 0x74A JUMP JUMPDEST PUSH2 0x2710 SWAP1 DIV SWAP1 JUMP JUMPDEST SWAP4 DUP3 PUSH2 0x1F1 DUP7 DUP9 PUSH2 0x762 JUMP JUMPDEST SWAP8 DUP7 PUSH2 0x2B0 JUMPI JUMPDEST PUSH2 0x202 DUP5 DUP12 PUSH2 0x995 JUMP JUMPDEST PUSH2 0x20D DUP10 DUP6 DUP13 PUSH2 0x9E7 JUMP JUMPDEST PUSH2 0x21C PUSH1 0x40 MLOAD DUP1 SWAP5 DUP2 SWAP4 PUSH2 0x76F JUMP JUMPDEST SUB SWAP3 GAS CALL PUSH2 0x228 PUSH2 0x7D6 JUMP JUMPDEST SWAP1 ISZERO PUSH2 0x291 JUMPI POP PUSH1 0x40 DUP1 MLOAD SWAP3 DUP4 MSTORE PUSH1 0x20 DUP4 ADD SWAP2 SWAP1 SWAP2 MSTORE PUSH2 0x28D SWAP4 PUSH1 0x0 SWAP3 SWAP1 SWAP2 CALLER SWAP2 PUSH32 0x764F0DC063C06F32D89A3F3AF80C0DB4BE8A090901F589A478B447E0A51F09F1 SWAP2 DUP2 SWAP1 DUP2 ADD JUMPDEST SUB SWAP1 LOG4 PUSH2 0x27D PUSH1 0x1 PUSH1 0x0 SSTORE JUMP JUMPDEST PUSH1 0x40 MLOAD SWAP1 DUP2 MSTORE SWAP1 DUP2 SWAP1 PUSH1 0x20 DUP3 ADD SWAP1 JUMP JUMPDEST SUB SWAP1 RETURN JUMPDEST DUP1 MLOAD SWAP1 DUP2 PUSH2 0x2AB JUMPI PUSH1 0x40 MLOAD PUSH4 0x81CEFF3 PUSH1 0xE4 SHL DUP2 MSTORE PUSH1 0x4 SWAP1 REVERT JUMPDEST PUSH1 0x20 ADD REVERT JUMPDEST PUSH2 0x2DB DUP8 PUSH32 0x0 DUP13 PUSH2 0x86C JUMP JUMPDEST PUSH2 0x1F8 JUMP JUMPDEST PUSH1 0x40 MLOAD PUSH4 0x12171D83 PUSH1 0xE3 SHL DUP2 MSTORE PUSH1 0x4 SWAP1 REVERT JUMPDEST PUSH1 0x40 MLOAD PUSH4 0x162908E3 PUSH1 0xE1 SHL DUP2 MSTORE PUSH1 0x4 SWAP1 REVERT JUMPDEST CALLVALUE PUSH2 0xD6 JUMPI PUSH1 0x0 CALLDATASIZE PUSH1 0x3 NOT ADD SLT PUSH2 0xD6 JUMPI PUSH1 0x20 PUSH1 0x2 SLOAD PUSH1 0x40 MLOAD SWAP1 DUP2 MSTORE RETURN JUMPDEST CALLVALUE PUSH2 0xD6 JUMPI PUSH1 0x0 CALLDATASIZE PUSH1 0x3 NOT ADD SLT PUSH2 0xD6 JUMPI PUSH1 0x40 MLOAD PUSH32 0x0 PUSH1 0x1 PUSH1 0x1 PUSH1 0xA0 SHL SUB AND DUP2 MSTORE PUSH1 0x20 SWAP1 RETURN JUMPDEST PUSH1 0x80 CALLDATASIZE PUSH1 0x3 NOT ADD SLT PUSH2 0xD6 JUMPI PUSH2 0x37B PUSH2 0xC0 JUMP JUMPDEST POP PUSH2 0x384 PUSH2 0x107 JUMP JUMPDEST PUSH1 0x44 CALLDATALOAD PUSH8 0xFFFFFFFFFFFFFFFF DUP2 GT PUSH2 0xD6 JUMPI PUSH2 0x3A4 SWAP1 CALLDATASIZE SWAP1 PUSH1 0x4 ADD PUSH2 0x11D JUMP JUMPDEST SWAP2 PUSH2 0x3AD PUSH2 0x816 JUMP JUMPDEST CALLVALUE ISZERO PUSH2 0x2F2 JUMPI PUSH1 0x1 PUSH1 0x1 PUSH1 0xA0 SHL SUB DUP2 AND ISZERO PUSH2 0x2E0 JUMPI PUSH2 0x3D1 PUSH2 0x1DD PUSH1 0x2 SLOAD CALLVALUE PUSH2 0x74A JUMP JUMPDEST SWAP3 PUSH2 0x3DC DUP5 CALLVALUE PUSH2 0x762 JUMP JUMPDEST DUP1 SWAP4 DUP6 PUSH2 0x452 JUMPI JUMPDEST SWAP2 PUSH1 0x0 SWAP4 SWAP2 DUP5 SWAP4 PUSH2 0x3FA PUSH1 0x40 MLOAD DUP1 SWAP5 DUP2 SWAP4 PUSH2 0x76F JUMP JUMPDEST SUB SWAP3 GAS CALL PUSH2 0x406 PUSH2 0x7D6 JUMP JUMPDEST SWAP1 ISZERO PUSH2 0x291 JUMPI POP PUSH1 0x0 DUP1 PUSH2 0x28D SWAP4 PUSH32 0x764F0DC063C06F32D89A3F3AF80C0DB4BE8A090901F589A478B447E0A51F09F1 PUSH1 0x40 MLOAD DUP1 PUSH2 0x270 CALLER SWAP5 CALLVALUE DUP4 PUSH1 0x20 SWAP1 SWAP4 SWAP3 SWAP2 SWAP4 PUSH1 0x40 DUP2 ADD SWAP5 DUP2 MSTORE ADD MSTORE JUMP JUMPDEST SWAP2 SWAP3 SWAP1 POP PUSH1 0x0 DUP1 DUP1 DUP1 DUP9 PUSH32 0x0 GAS CALL PUSH2 0x487 PUSH2 0x7D6 JUMP JUMPDEST POP ISZERO PUSH2 0x2E0 JUMPI SWAP2 SWAP1 DUP4 SWAP1 PUSH2 0x3E4 JUMP JUMPDEST CALLVALUE PUSH2 0xD6 JUMPI PUSH1 0x0 DUP1 PUSH1 0x3 NOT CALLDATASIZE ADD SLT PUSH2 0x4F4 JUMPI PUSH2 0x4B0 PUSH2 0x6DC JUMP JUMPDEST PUSH1 0x1 DUP1 SLOAD PUSH1 0x1 PUSH1 0x1 PUSH1 0xA0 SHL SUB NOT DUP2 AND SWAP1 SWAP2 SSTORE DUP2 SWAP1 PUSH1 0x1 PUSH1 0x1 PUSH1 0xA0 SHL SUB AND PUSH32 0x8BE0079C531659141344CD1FD0A4F28419497F9722A3DAAFE3B4186F6B6457E0 DUP3 DUP1 LOG3 DUP1 RETURN JUMPDEST DUP1 REVERT JUMPDEST CALLVALUE PUSH2 0xD6 JUMPI PUSH1 0x20 CALLDATASIZE PUSH1 0x3 NOT ADD SLT PUSH2 0xD6 JUMPI PUSH1 0x4 CALLDATALOAD PUSH2 0x513 PUSH2 0x6DC JUMP JUMPDEST PUSH2 0x1F4 DUP2 GT PUSH2 0x559 JUMPI PUSH1 0x2 DUP1 SLOAD SWAP1 DUP3 SWAP1 SSTORE PUSH1 0x40 DUP1 MLOAD SWAP2 DUP3 MSTORE PUSH1 0x20 DUP3 ADD SWAP3 SWAP1 SWAP3 MSTORE PUSH32 0x528D9479E9F9889A87A3C30C7F7BA537E5E59C4C85A37733B16E57C62DF61302 SWAP2 SWAP1 LOG1 STOP JUMPDEST PUSH1 0x40 MLOAD PUSH4 0x58D620B3 PUSH1 0xE0 SHL DUP2 MSTORE PUSH1 0x4 SWAP1 REVERT JUMPDEST CALLVALUE PUSH2 0xD6 JUMPI PUSH1 0x0 CALLDATASIZE PUSH1 0x3 NOT ADD SLT PUSH2 0xD6 JUMPI PUSH1 0x1 SLOAD PUSH1 0x40 MLOAD PUSH1 0x1 PUSH1 0x1 PUSH1 0xA0 SHL SUB SWAP1 SWAP2 AND DUP2 MSTORE PUSH1 0x20 SWAP1 RETURN JUMPDEST CALLVALUE PUSH2 0xD6 JUMPI PUSH1 0x40 CALLDATASIZE PUSH1 0x3 NOT ADD SLT PUSH2 0xD6 JUMPI PUSH2 0x5AD PUSH2 0xC0 JUMP JUMPDEST PUSH1 0x24 CALLDATALOAD SWAP1 PUSH2 0x5B9 PUSH2 0x6DC JUMP JUMPDEST PUSH1 0x1 PUSH1 0x1 PUSH1 0xA0 SHL SUB SWAP1 DUP2 AND DUP1 PUSH2 0x5E7 JUMPI POP PUSH1 0x0 DUP1 DUP1 SWAP4 DUP2 SWAP4 PUSH1 0x1 SLOAD AND GAS CALL PUSH2 0x5DF PUSH2 0x7D6 JUMP JUMPDEST POP ISZERO PUSH2 0x2E0 JUMPI STOP JUMPDEST PUSH2 0x19 SWAP3 SWAP2 PUSH1 0x1 SLOAD AND SWAP1 PUSH2 0x86C JUMP JUMPDEST CALLVALUE PUSH2 0xD6 JUMPI PUSH1 0x0 CALLDATASIZE PUSH1 0x3 NOT ADD SLT PUSH2 0xD6 JUMPI PUSH1 0x20 PUSH1 0x40 MLOAD PUSH2 0x1F4 DUP2 MSTORE RETURN JUMPDEST CALLVALUE PUSH2 0xD6 JUMPI PUSH1 0x20 CALLDATASIZE PUSH1 0x3 NOT ADD SLT PUSH2 0xD6 JUMPI PUSH2 0x62C PUSH2 0xC0 JUMP JUMPDEST PUSH2 0x634 PUSH2 0x6DC JUMP JUMPDEST PUSH1 0x1 PUSH1 0x1 PUSH1 0xA0 SHL SUB SWAP1 DUP2 AND SWAP1 DUP2 ISZERO PUSH2 0x688 JUMPI PUSH1 0x1 SLOAD DUP3 PUSH12 0xFFFFFFFFFFFFFFFFFFFFFFFF PUSH1 0xA0 SHL DUP3 AND OR PUSH1 0x1 SSTORE AND PUSH32 0x8BE0079C531659141344CD1FD0A4F28419497F9722A3DAAFE3B4186F6B6457E0 PUSH1 0x0 DUP1 LOG3 STOP JUMPDEST PUSH1 0x40 MLOAD PUSH3 0x461BCD PUSH1 0xE5 SHL DUP2 MSTORE PUSH1 0x20 PUSH1 0x4 DUP3 ADD MSTORE PUSH1 0x26 PUSH1 0x24 DUP3 ADD MSTORE PUSH32 0x4F776E61626C653A206E6577206F776E657220697320746865207A65726F2061 PUSH1 0x44 DUP3 ADD MSTORE PUSH6 0x646472657373 PUSH1 0xD0 SHL PUSH1 0x64 DUP3 ADD MSTORE PUSH1 0x84 SWAP1 REVERT JUMPDEST PUSH1 0x1 SLOAD PUSH1 0x1 PUSH1 0x1 PUSH1 0xA0 SHL SUB AND CALLER SUB PUSH2 0x6F0 JUMPI JUMP JUMPDEST PUSH1 0x64 PUSH1 0x40 MLOAD PUSH3 0x461BCD PUSH1 0xE5 SHL DUP2 MSTORE PUSH1 0x20 PUSH1 0x4 DUP3 ADD MSTORE PUSH1 0x20 PUSH1 0x24 DUP3 ADD MSTORE PUSH32 0x4F776E61626C653A2063616C6C6572206973206E6F7420746865206F776E6572 PUSH1 0x44 DUP3 ADD MSTORE REVERT JUMPDEST PUSH4 0x4E487B71 PUSH1 0xE0 SHL PUSH1 0x0 MSTORE PUSH1 0x11 PUSH1 0x4 MSTORE PUSH1 0x24 PUSH1 0x0 REVERT JUMPDEST DUP2 DUP2 MUL SWAP3 SWAP2 DUP2 ISZERO SWAP2 DUP5 DIV EQ OR ISZERO PUSH2 0x75D JUMPI JUMP JUMPDEST PUSH2 0x734 JUMP JUMPDEST SWAP2 SWAP1 DUP3 SUB SWAP2 DUP3 GT PUSH2 0x75D JUMPI JUMP JUMPDEST SWAP1 DUP1 SWAP3 SWAP2 DUP3 CALLDATACOPY ADD PUSH1 0x0 DUP2 MSTORE SWAP1 JUMP JUMPDEST PUSH4 0x4E487B71 PUSH1 0xE0 SHL PUSH1 0x0 MSTORE PUSH1 0x41 PUSH1 0x4 MSTORE PUSH1 0x24 PUSH1 0x0 REVERT JUMPDEST PUSH1 0x40 DUP2 ADD SWAP1 DUP2 LT PUSH8 0xFFFFFFFFFFFFFFFF DUP3 GT OR PUSH2 0x7AF JUMPI PUSH1 0x40 MSTORE JUMP JUMPDEST PUSH2 0x77D JUMP JUMPDEST SWAP1 PUSH1 0x1F DUP1 NOT SWAP2 ADD AND DUP2 ADD SWAP1 DUP2 LT PUSH8 0xFFFFFFFFFFFFFFFF DUP3 GT OR PUSH2 0x7AF JUMPI PUSH1 0x40 MSTORE JUMP JUMPDEST RETURNDATASIZE ISZERO PUSH2 0x811 JUMPI RETURNDATASIZE SWAP1 PUSH8 0xFFFFFFFFFFFFFFFF DUP3 GT PUSH2 0x7AF JUMPI PUSH1 0x40 MLOAD SWAP2 PUSH2 0x805 PUSH1 0x1F DUP3 ADD PUSH1 0x1F NOT AND PUSH1 0x20 ADD DUP5 PUSH2 0x7B4 JUMP JUMPDEST DUP3 MSTORE RETURNDATASIZE PUSH1 0x0 PUSH1 0x20 DUP5 ADD RETURNDATACOPY JUMP JUMPDEST PUSH1 0x60 SWAP1 JUMP JUMPDEST PUSH1 0x2 PUSH1 0x0 SLOAD EQ PUSH2 0x827 JUMPI PUSH1 0x2 PUSH1 0x0 SSTORE JUMP JUMPDEST PUSH1 0x40 MLOAD PUSH3 0x461BCD PUSH1 0xE5 SHL DUP2 MSTORE PUSH1 0x20 PUSH1 0x4 DUP3 ADD MSTORE PUSH1 0x1F PUSH1 0x24 DUP3 ADD MSTORE PUSH32 0x5265656E7472616E637947756172643A207265656E7472616E742063616C6C00 PUSH1 0x44 DUP3 ADD MSTORE PUSH1 0x64 SWAP1 REVERT JUMPDEST PUSH1 0x40 MLOAD PUSH4 0xA9059CBB PUSH1 0xE0 SHL PUSH1 0x20 DUP3 ADD MSTORE PUSH1 0x1 PUSH1 0x1 PUSH1 0xA0 SHL SUB SWAP1 SWAP3 AND PUSH1 0x24 DUP4 ADD MSTORE PUSH1 0x44 DUP3 ADD SWAP3 SWAP1 SWAP3 MSTORE PUSH2 0x8B4 SWAP2 PUSH2 0x8AF DUP3 PUSH1 0x64 DUP2 ADD JUMPDEST SUB PUSH1 0x1F NOT DUP2 ADD DUP5 MSTORE DUP4 PUSH2 0x7B4 JUMP JUMPDEST PUSH2 0xAC8 JUMP JUMPDEST JUMP JUMPDEST PUSH1 0x40 MLOAD PUSH4 0x23B872DD PUSH1 0xE0 SHL PUSH1 0x20 DUP3 ADD MSTORE PUSH1 0x1 PUSH1 0x1 PUSH1 0xA0 SHL SUB SWAP3 DUP4 AND PUSH1 0x24 DUP3 ADD MSTORE SWAP3 SWAP1 SWAP2 AND PUSH1 0x44 DUP4 ADD MSTORE PUSH1 0x64 DUP1 DUP4 ADD SWAP4 SWAP1 SWAP4 MSTORE SWAP2 DUP2 MSTORE PUSH1 0xA0 DUP2 ADD SWAP2 DUP2 DUP4 LT PUSH8 0xFFFFFFFFFFFFFFFF DUP5 GT OR PUSH2 0x7AF JUMPI PUSH2 0x8B4 SWAP3 PUSH1 0x40 MSTORE PUSH2 0xAC8 JUMP JUMPDEST SWAP1 DUP2 PUSH1 0x20 SWAP2 SUB SLT PUSH2 0xD6 JUMPI MLOAD SWAP1 JUMP JUMPDEST PUSH1 0x40 MLOAD RETURNDATASIZE PUSH1 0x0 DUP3 RETURNDATACOPY RETURNDATASIZE SWAP1 REVERT JUMPDEST ISZERO PUSH2 0x931 JUMPI JUMP JUMPDEST PUSH1 0x40 MLOAD PUSH3 0x461BCD PUSH1 0xE5 SHL DUP2 MSTORE PUSH1 0x20 PUSH1 0x4 DUP3 ADD MSTORE PUSH1 0x36 PUSH1 0x24 DUP3 ADD MSTORE PUSH32 0x5361666545524332303A20617070726F76652066726F6D206E6F6E2D7A65726F PUSH1 0x44 DUP3 ADD MSTORE PUSH22 0x20746F206E6F6E2D7A65726F20616C6C6F77616E6365 PUSH1 0x50 SHL PUSH1 0x64 DUP3 ADD MSTORE PUSH1 0x84 SWAP1 REVERT JUMPDEST PUSH1 0x40 MLOAD PUSH4 0x95EA7B3 PUSH1 0xE0 SHL PUSH1 0x20 DUP3 ADD MSTORE PUSH1 0x1 PUSH1 0x1 PUSH1 0xA0 SHL SUB SWAP1 SWAP3 AND PUSH1 0x24 DUP4 ADD MSTORE PUSH1 0x0 PUSH1 0x44 DUP1 DUP5 ADD SWAP2 SWAP1 SWAP2 MSTORE DUP3 MSTORE PUSH1 0x80 DUP3 ADD SWAP2 SWAP1 PUSH8 0xFFFFFFFFFFFFFFFF DUP4 GT DUP3 DUP5 LT OR PUSH2 0x7AF JUMPI PUSH2 0x8B4 SWAP3 PUSH1 0x40 MSTORE PUSH2 0xAC8 JUMP JUMPDEST SWAP2 SWAP1 SWAP2 DUP2 ISZERO DUP1 ISZERO PUSH2 0xA35 JUMPI JUMPDEST PUSH2 0x8B4 SWAP4 PUSH2 0xA03 PUSH2 0x8AF SWAP3 PUSH2 0x92A JUMP JUMPDEST PUSH1 0x40 MLOAD PUSH4 0x95EA7B3 PUSH1 0xE0 SHL PUSH1 0x20 DUP3 ADD MSTORE PUSH1 0x1 PUSH1 0x1 PUSH1 0xA0 SHL SUB SWAP1 SWAP2 AND PUSH1 0x24 DUP3 ADD MSTORE PUSH1 0x44 DUP2 ADD SWAP4 SWAP1 SWAP4 MSTORE DUP3 PUSH1 0x64 DUP2 ADD PUSH2 0x8A1 JUMP JUMPDEST POP PUSH1 0x40 MLOAD PUSH4 0x6EB1769F PUSH1 0xE1 SHL DUP2 MSTORE ADDRESS PUSH1 0x4 DUP3 ADD MSTORE PUSH1 0x1 PUSH1 0x1 PUSH1 0xA0 SHL SUB DUP5 AND PUSH1 0x24 DUP3 ADD MSTORE SWAP3 PUSH1 0x20 DUP5 DUP1 PUSH1 0x44 DUP2 ADD SUB DUP2 PUSH1 0x1 PUSH1 0x1 PUSH1 0xA0 SHL SUB DUP7 AND GAS STATICCALL SWAP1 DUP2 ISZERO PUSH2 0xAC3 JUMPI PUSH2 0xA03 PUSH2 0x8AF SWAP3 PUSH2 0x8B4 SWAP7 PUSH1 0x0 SWAP2 PUSH2 0xA95 JUMPI JUMPDEST POP ISZERO SWAP3 POP POP SWAP4 POP PUSH2 0x9F3 JUMP JUMPDEST PUSH2 0xAB6 SWAP2 POP PUSH1 0x20 RETURNDATASIZE DUP2 GT PUSH2 0xABC JUMPI JUMPDEST PUSH2 0xAAE DUP2 DUP4 PUSH2 0x7B4 JUMP JUMPDEST DUP2 ADD SWAP1 PUSH2 0x90F JUMP JUMPDEST CODESIZE PUSH2 0xA89 JUMP JUMPDEST POP RETURNDATASIZE PUSH2 0xAA4 JUMP JUMPDEST PUSH2 0x91E JUMP JUMPDEST PUSH1 0x1 DUP1 PUSH1 0xA0 SHL SUB AND SWAP1 PUSH2 0xB27 PUSH1 0x40 MLOAD PUSH2 0xAE0 DUP2 PUSH2 0x793 JUMP JUMPDEST PUSH1 0x20 SWAP4 DUP5 DUP3 MSTORE PUSH32 0x5361666545524332303A206C6F772D6C6576656C2063616C6C206661696C6564 DUP6 DUP4 ADD MSTORE PUSH1 0x0 DUP1 DUP6 DUP8 DUP3 SWAP8 MLOAD SWAP2 ADD DUP3 DUP6 GAS CALL PUSH2 0xB21 PUSH2 0x7D6 JUMP JUMPDEST SWAP2 PUSH2 0xC0D JUMP JUMPDEST DUP1 MLOAD SWAP2 DUP3 ISZERO SWAP2 DUP5 DUP4 ISZERO PUSH2 0xB99 JUMPI JUMPDEST POP POP POP SWAP1 POP ISZERO PUSH2 0xB42 JUMPI POP JUMP JUMPDEST PUSH1 0x84 SWAP1 PUSH1 0x40 MLOAD SWAP1 PUSH3 0x461BCD PUSH1 0xE5 SHL DUP3 MSTORE PUSH1 0x4 DUP3 ADD MSTORE PUSH1 0x2A PUSH1 0x24 DUP3 ADD MSTORE PUSH32 0x5361666545524332303A204552433230206F7065726174696F6E20646964206E PUSH1 0x44 DUP3 ADD MSTORE PUSH10 0x1BDD081CDD58D8D95959 PUSH1 0xB2 SHL PUSH1 0x64 DUP3 ADD MSTORE REVERT JUMPDEST SWAP2 SWAP4 DUP2 DUP1 SWAP5 POP ADD SUB SLT PUSH2 0xBBD JUMPI DUP3 ADD MLOAD SWAP1 DUP2 ISZERO ISZERO DUP3 SUB PUSH2 0x4F4 JUMPI POP DUP1 CODESIZE DUP1 DUP5 PUSH2 0xB35 JUMP JUMPDEST POP DUP1 REVERT JUMPDEST ISZERO PUSH2 0xBC8 JUMPI JUMP JUMPDEST PUSH1 0x40 MLOAD PUSH3 0x461BCD PUSH1 0xE5 SHL DUP2 MSTORE PUSH1 0x20 PUSH1 0x4 DUP3 ADD MSTORE PUSH1 0x1D PUSH1 0x24 DUP3 ADD MSTORE PUSH32 0x416464726573733A2063616C6C20746F206E6F6E2D636F6E7472616374000000 PUSH1 0x44 DUP3 ADD MSTORE PUSH1 0x64 SWAP1 REVERT JUMPDEST SWAP2 SWAP3 SWAP1 ISZERO PUSH2 0xC30 JUMPI POP DUP2 MLOAD ISZERO PUSH2 0xC21 JUMPI POP SWAP1 JUMP JUMPDEST PUSH2 0xC2D SWAP1 EXTCODESIZE ISZERO ISZERO PUSH2 0xBC1 JUMP JUMPDEST SWAP1 JUMP JUMPDEST DUP3 MLOAD SWAP1 SWAP2 POP ISZERO PUSH2 0xC43 JUMPI POP DUP1 MLOAD SWAP1 PUSH1 0x20 ADD REVERT JUMPDEST PUSH1 0x40 MLOAD SWAP1 PUSH3 0x461BCD PUSH1 0xE5 SHL DUP3 MSTORE DUP2 PUSH1 0x20 DUP1 PUSH1 0x4 DUP4 ADD MSTORE DUP3 MLOAD SWAP1 DUP2 PUSH1 0x24 DUP5 ADD MSTORE PUSH1 0x0 SWAP4 JUMPDEST DUP3 DUP6 LT PUSH2 0xC89 JUMPI POP POP PUSH1 0x44 SWAP3 POP PUSH1 0x0 DUP4 DUP3 DUP5 ADD ADD MSTORE PUSH1 0x1F DUP1 NOT SWAP2 ADD AND DUP2 ADD SUB ADD SWAP1 REVERT JUMPDEST DUP5 DUP2 ADD DUP3 ADD MLOAD DUP7 DUP7 ADD PUSH1 0x44 ADD MSTORE SWAP4 DUP2 ADD SWAP4 DUP6 SWAP4 POP PUSH2 0xC66 JUMP INVALID LOG2 PUSH5 0x6970667358 0x22 SLT KECCAK256 0xAC MUL 0xEA 0xB3 CALLCODE 0x2A SDIV BALANCE PUSH23 0xFED92191E3AB6EFBDA83D4C29407982A17E1B77931CDC0 PUSH5 0x736F6C6343 STOP ADDMOD SGT STOP CALLER "},"methodIdentifiers":{"MAX_FEE_BPS()":"d55be8c6","emergencyWithdraw(address,uint256)":"95ccea67","feeBps()":"24a9d853","owner()":"8da5cb5b","renounceOwnership()":"715018a6","revenueWallet()":"44478425","setFeeBps(uint256)":"72c27b62","swapNativeViaLiFi(address,address,bytes,uint256)":"6a85b2b4","swapTokenViaLiFi(address,uint256,address,address,bytes,uint256)":"0b0e2df7","transferOwnership(address)":"f2fde38b"}}}}}