{
  "_format": "hh-sol-artifact-1",
  "contractName": "SplenexLiFiWrapperV2",
  "sourceName": "contracts/SplenexLiFiWrapperV2.sol",
  "abi": [
    {
      "inputs": [
        {
          "internalType": "address",
          "name": "_revenueWallet",
          "type": "address"
        },
        {
          "internalType": "uint256",
          "name": "_initialFeeBps",
          "type": "uint256"
        }
      ],
      "stateMutability": "nonpayable",
      "type": "constructor"
    },
    {
      "inputs": [],
      "name": "InvalidAmount",
      "type": "error"
    },
    {
      "inputs": [],
      "name": "InvalidFee",
      "type": "error"
    },
    {
      "inputs": [],
      "name": "SwapFailed",
      "type": "error"
    },
    {
      "inputs": [],
      "name": "TransferFailed",
      "type": "error"
    },
    {
      "anonymous": false,
      "inputs": [
        {
          "indexed": false,
          "internalType": "uint256",
          "name": "oldFee",
          "type": "uint256"
        },
        {
          "indexed": false,
          "internalType": "uint256",
          "name": "newFee",
          "type": "uint256"
        }
      ],
      "name": "FeeUpdated",
      "type": "event"
    },
    {
      "anonymous": false,
      "inputs": [
        {
          "indexed": true,
          "internalType": "address",
          "name": "previousOwner",
          "type": "address"
        },
        {
          "indexed": true,
          "internalType": "address",
          "name": "newOwner",
          "type": "address"
        }
      ],
      "name": "OwnershipTransferred",
      "type": "event"
    },
    {
      "anonymous": false,
      "inputs": [
        {
          "indexed": true,
          "internalType": "address",
          "name": "user",
          "type": "address"
        },
        {
          "indexed": true,
          "internalType": "address",
          "name": "tokenIn",
          "type": "address"
        },
        {
          "indexed": true,
          "internalType": "address",
          "name": "tokenOut",
          "type": "address"
        },
        {
          "indexed": false,
          "internalType": "uint256",
          "name": "amountIn",
          "type": "uint256"
        },
        {
          "indexed": false,
          "internalType": "uint256",
          "name": "feeCollected",
          "type": "uint256"
        }
      ],
      "name": "SwapExecuted",
      "type": "event"
    },
    {
      "inputs": [],
      "name": "MAX_FEE_BPS",
      "outputs": [
        {
          "internalType": "uint256",
          "name": "",
          "type": "uint256"
        }
      ],
      "stateMutability": "view",
      "type": "function"
    },
    {
      "inputs": [
        {
          "internalType": "address",
          "name": "token",
          "type": "address"
        },
        {
          "internalType": "uint256",
          "name": "amount",
          "type": "uint256"
        }
      ],
      "name": "emergencyWithdraw",
      "outputs": [],
      "stateMutability": "nonpayable",
      "type": "function"
    },
    {
      "inputs": [],
      "name": "feeBps",
      "outputs": [
        {
          "internalType": "uint256",
          "name": "",
          "type": "uint256"
        }
      ],
      "stateMutability": "view",
      "type": "function"
    },
    {
      "inputs": [],
      "name": "owner",
      "outputs": [
        {
          "internalType": "address",
          "name": "",
          "type": "address"
        }
      ],
      "stateMutability": "view",
      "type": "function"
    },
    {
      "inputs": [],
      "name": "renounceOwnership",
      "outputs": [],
      "stateMutability": "nonpayable",
      "type": "function"
    },
    {
      "inputs": [],
      "name": "revenueWallet",
      "outputs": [
        {
          "internalType": "address",
          "name": "",
          "type": "address"
        }
      ],
      "stateMutability": "view",
      "type": "function"
    },
    {
      "inputs": [
        {
          "internalType": "uint256",
          "name": "newFeeBps",
          "type": "uint256"
        }
      ],
      "name": "setFeeBps",
      "outputs": [],
      "stateMutability": "nonpayable",
      "type": "function"
    },
    {
      "inputs": [
        {
          "internalType": "address",
          "name": "",
          "type": "address"
        },
        {
          "internalType": "address",
          "name": "lifiContract",
          "type": "address"
        },
        {
          "internalType": "bytes",
          "name": "lifiCalldata",
          "type": "bytes"
        },
        {
          "internalType": "uint256",
          "name": "",
          "type": "uint256"
        }
      ],
      "name": "swapNativeViaLiFi",
      "outputs": [
        {
          "internalType": "uint256",
          "name": "",
          "type": "uint256"
        }
      ],
      "stateMutability": "payable",
      "type": "function"
    },
    {
      "inputs": [
        {
          "internalType": "address",
          "name": "tokenIn",
          "type": "address"
        },
        {
          "internalType": "uint256",
          "name": "amountIn",
          "type": "uint256"
        },
        {
          "internalType": "address",
          "name": "",
          "type": "address"
        },
        {
          "internalType": "address",
          "name": "lifiContract",
          "type": "address"
        },
        {
          "internalType": "bytes",
          "name": "lifiCalldata",
          "type": "bytes"
        },
        {
          "internalType": "uint256",
          "name": "",
          "type": "uint256"
        }
      ],
      "name": "swapTokenViaLiFi",
      "outputs": [
        {
          "internalType": "uint256",
          "name": "",
          "type": "uint256"
        }
      ],
      "stateMutability": "nonpayable",
      "type": "function"
    },
    {
      "inputs": [
        {
          "internalType": "address",
          "name": "newOwner",
          "type": "address"
        }
      ],
      "name": "transferOwnership",
      "outputs": [],
      "stateMutability": "nonpayable",
      "type": "function"
    },
    {
      "stateMutability": "payable",
      "type": "receive"
    }
  ],
  "bytecode": "0x60a0346100f657601f610dea38819003918201601f19168301916001600160401b038311848410176100fb5780849260409485528339810103126100f65780516001600160a01b03808216928383036100f657602001519260016000556001543360018060a01b0319821617600155604051923391167f8be0079c531659141344cd1fd0a4f28419497f9722a3daafe3b4186f6b6457e0600080a3156100e757506101f482116100d557608052600255604051610cd8908161011282396080518181816102b601528181610338015261045e0152f35b6040516358d620b360e01b8152600490fd5b6312171d8360e31b8152600490fd5b600080fd5b634e487b7160e01b600052604160045260246000fdfe6080604052600436101561001b575b361561001957600080fd5b005b60003560e01c80630b0e2df7146100bb57806324a9d853146100b657806344478425146100b15780636a85b2b4146100ac578063715018a6146100a757806372c27b62146100a25780638da5cb5b1461009d57806395ccea6714610098578063d55be8c6146100935763f2fde38b0361000e57610613565b6105f6565b610594565b61056b565b6104f7565b610496565b610367565b610322565b610304565b61014b565b600435906001600160a01b03821682036100d657565b600080fd5b604435906001600160a01b03821682036100d657565b606435906001600160a01b03821682036100d657565b602435906001600160a01b03821682036100d657565b9181601f840112156100d65782359167ffffffffffffffff83116100d657602083818601950101116100d657565b346100d65760c03660031901126100d6576101646100c0565b602435906101706100db565b506101796100f1565b9160843567ffffffffffffffff81116100d65761019a90369060040161011d565b90926101a4610816565b82156102f2576001600160a01b0390858216156102e057600091829116956101ce8530338a6108b6565b6101e56101dd6002548761074a565b612710900490565b93826101f18688610762565b97866102b0575b610202848b610995565b61020d89858c6109e7565b61021c6040518094819361076f565b03925af16102286107d6565b9015610291575060408051928352602083019190915261028d93600092909133917f764f0dc063c06f32d89a3f3af80c0db4be8a090901f589a478b447e0a51f09f191819081015b0390a461027d6001600055565b6040519081529081906020820190565b0390f35b805190816102ab5760405163081ceff360e41b8152600490fd5b602001fd5b6102db877f00000000000000000000000000000000000000000000000000000000000000008c61086c565b6101f8565b6040516312171d8360e31b8152600490fd5b60405163162908e360e11b8152600490fd5b346100d65760003660031901126100d6576020600254604051908152f35b346100d65760003660031901126100d6576040517f00000000000000000000000000000000000000000000000000000000000000006001600160a01b03168152602090f35b60803660031901126100d65761037b6100c0565b50610384610107565b60443567ffffffffffffffff81116100d6576103a490369060040161011d565b916103ad610816565b34156102f2576001600160a01b038116156102e0576103d16101dd6002543461074a565b926103dc8434610762565b809385610452575b916000939184936103fa6040518094819361076f565b03925af16104066107d6565b9015610291575060008061028d937f764f0dc063c06f32d89a3f3af80c0db4be8a090901f589a478b447e0a51f09f1604051806102703394348360209093929193604081019481520152565b919290506000808080887f00000000000000000000000000000000000000000000000000000000000000005af16104876107d6565b50156102e057919083906103e4565b346100d6576000806003193601126104f4576104b06106dc565b600180546001600160a01b0319811690915581906001600160a01b03167f8be0079c531659141344cd1fd0a4f28419497f9722a3daafe3b4186f6b6457e08280a380f35b80fd5b346100d65760203660031901126100d6576004356105136106dc565b6101f481116105595760028054908290556040805191825260208201929092527f528d9479e9f9889a87a3c30c7f7ba537e5e59c4c85a37733b16e57c62df613029190a1005b6040516358d620b360e01b8152600490fd5b346100d65760003660031901126100d6576001546040516001600160a01b039091168152602090f35b346100d65760403660031901126100d6576105ad6100c0565b602435906105b96106dc565b6001600160a01b03908116806105e7575060008080938193600154165af16105df6107d6565b50156102e057005b6100199291600154169061086c565b346100d65760003660031901126100d65760206040516101f48152f35b346100d65760203660031901126100d65761062c6100c0565b6106346106dc565b6001600160a01b0390811690811561068857600154826bffffffffffffffffffffffff60a01b821617600155167f8be0079c531659141344cd1fd0a4f28419497f9722a3daafe3b4186f6b6457e0600080a3005b60405162461bcd60e51b815260206004820152602660248201527f4f776e61626c653a206e6577206f776e657220697320746865207a65726f206160448201526564647265737360d01b6064820152608490fd5b6001546001600160a01b031633036106f057565b606460405162461bcd60e51b815260206004820152602060248201527f4f776e61626c653a2063616c6c6572206973206e6f7420746865206f776e65726044820152fd5b634e487b7160e01b600052601160045260246000fd5b8181029291811591840414171561075d57565b610734565b9190820391821161075d57565b908092918237016000815290565b634e487b7160e01b600052604160045260246000fd5b6040810190811067ffffffffffffffff8211176107af57604052565b61077d565b90601f8019910116810190811067ffffffffffffffff8211176107af57604052565b3d15610811573d9067ffffffffffffffff82116107af5760405191610805601f8201601f1916602001846107b4565b82523d6000602084013e565b606090565b600260005414610827576002600055565b60405162461bcd60e51b815260206004820152601f60248201527f5265656e7472616e637947756172643a207265656e7472616e742063616c6c006044820152606490fd5b60405163a9059cbb60e01b60208201526001600160a01b03909216602483015260448201929092526108b4916108af82606481015b03601f1981018452836107b4565b610ac8565b565b6040516323b872dd60e01b60208201526001600160a01b03928316602482015292909116604483015260648083019390935291815260a081019181831067ffffffffffffffff8411176107af576108b492604052610ac8565b908160209103126100d6575190565b6040513d6000823e3d90fd5b1561093157565b60405162461bcd60e51b815260206004820152603660248201527f5361666545524332303a20617070726f76652066726f6d206e6f6e2d7a65726f60448201527520746f206e6f6e2d7a65726f20616c6c6f77616e636560501b6064820152608490fd5b60405163095ea7b360e01b60208201526001600160a01b0390921660248301526000604480840191909152825260808201919067ffffffffffffffff8311828410176107af576108b492604052610ac8565b91909181158015610a35575b6108b493610a036108af9261092a565b60405163095ea7b360e01b60208201526001600160a01b039091166024820152604481019390935282606481016108a1565b50604051636eb1769f60e11b81523060048201526001600160a01b038416602482015292602084806044810103816001600160a01b0386165afa908115610ac357610a036108af926108b496600091610a95575b501592505093506109f3565b610ab6915060203d8111610abc575b610aae81836107b4565b81019061090f565b38610a89565b503d610aa4565b61091e565b60018060a01b031690610b27604051610ae081610793565b6020938482527f5361666545524332303a206c6f772d6c6576656c2063616c6c206661696c6564858301526000808587829751910182855af1610b216107d6565b91610c0d565b805191821591848315610b99575b505050905015610b425750565b6084906040519062461bcd60e51b82526004820152602a60248201527f5361666545524332303a204552433230206f7065726174696f6e20646964206e6044820152691bdd081cdd58d8d9595960b21b6064820152fd5b919381809450010312610bbd578201519081151582036104f4575080388084610b35565b5080fd5b15610bc857565b60405162461bcd60e51b815260206004820152601d60248201527f416464726573733a2063616c6c20746f206e6f6e2d636f6e74726163740000006044820152606490fd5b91929015610c305750815115610c21575090565b610c2d903b1515610bc1565b90565b825190915015610c435750805190602001fd5b6040519062461bcd60e51b82528160208060048301528251908160248401526000935b828510610c89575050604492506000838284010152601f80199101168101030190fd5b8481018201518686016044015293810193859350610c6656fea2646970667358221220ac02eab3f22a053176fed92191e3ab6efbda83d4c29407982a17e1b77931cdc064736f6c63430008130033",
  "linkReferences": {},
  "deployedLinkReferences": {}
}