{
  "_format": "hh-sol-artifact-1",
  "contractName": "SplenexSwapContract",
  "sourceName": "contracts/SplenexSwapContract.sol",
  "abi": [
    {
      "inputs": [
        {
          "internalType": "address",
          "name": "_revenueWallet",
          "type": "address"
        }
      ],
      "stateMutability": "nonpayable",
      "type": "constructor"
    },
    {
      "inputs": [],
      "name": "InsufficientBalance",
      "type": "error"
    },
    {
      "inputs": [],
      "name": "InvalidAmount",
      "type": "error"
    },
    {
      "inputs": [],
      "name": "InvalidTokenAddress",
      "type": "error"
    },
    {
      "inputs": [],
      "name": "SwapFailed",
      "type": "error"
    },
    {
      "inputs": [],
      "name": "TransferFailed",
      "type": "error"
    },
    {
      "anonymous": false,
      "inputs": [
        {
          "indexed": true,
          "internalType": "address",
          "name": "previousOwner",
          "type": "address"
        },
        {
          "indexed": true,
          "internalType": "address",
          "name": "newOwner",
          "type": "address"
        }
      ],
      "name": "OwnershipTransferred",
      "type": "event"
    },
    {
      "anonymous": false,
      "inputs": [
        {
          "indexed": false,
          "internalType": "address",
          "name": "oldWallet",
          "type": "address"
        },
        {
          "indexed": false,
          "internalType": "address",
          "name": "newWallet",
          "type": "address"
        }
      ],
      "name": "RevenueWalletUpdated",
      "type": "event"
    },
    {
      "anonymous": false,
      "inputs": [
        {
          "indexed": true,
          "internalType": "address",
          "name": "user",
          "type": "address"
        },
        {
          "indexed": true,
          "internalType": "address",
          "name": "tokenIn",
          "type": "address"
        },
        {
          "indexed": true,
          "internalType": "address",
          "name": "tokenOut",
          "type": "address"
        },
        {
          "indexed": false,
          "internalType": "uint256",
          "name": "amountIn",
          "type": "uint256"
        },
        {
          "indexed": false,
          "internalType": "uint256",
          "name": "gasFeeTax",
          "type": "uint256"
        },
        {
          "indexed": false,
          "internalType": "uint256",
          "name": "amountOut",
          "type": "uint256"
        }
      ],
      "name": "SwapExecuted",
      "type": "event"
    },
    {
      "inputs": [],
      "name": "GAS_FEE_TAX_RATE_BPS",
      "outputs": [
        {
          "internalType": "uint256",
          "name": "",
          "type": "uint256"
        }
      ],
      "stateMutability": "view",
      "type": "function"
    },
    {
      "inputs": [
        {
          "internalType": "uint256",
          "name": "gasUsed",
          "type": "uint256"
        }
      ],
      "name": "calculateGasFeeTax",
      "outputs": [
        {
          "internalType": "uint256",
          "name": "gasFeeTax",
          "type": "uint256"
        }
      ],
      "stateMutability": "view",
      "type": "function"
    },
    {
      "inputs": [
        {
          "internalType": "address",
          "name": "token",
          "type": "address"
        },
        {
          "internalType": "uint256",
          "name": "amount",
          "type": "uint256"
        }
      ],
      "name": "emergencyWithdraw",
      "outputs": [],
      "stateMutability": "nonpayable",
      "type": "function"
    },
    {
      "inputs": [],
      "name": "owner",
      "outputs": [
        {
          "internalType": "address",
          "name": "",
          "type": "address"
        }
      ],
      "stateMutability": "view",
      "type": "function"
    },
    {
      "inputs": [],
      "name": "renounceOwnership",
      "outputs": [],
      "stateMutability": "nonpayable",
      "type": "function"
    },
    {
      "inputs": [],
      "name": "revenueWallet",
      "outputs": [
        {
          "internalType": "address",
          "name": "",
          "type": "address"
        }
      ],
      "stateMutability": "view",
      "type": "function"
    },
    {
      "inputs": [
        {
          "internalType": "address",
          "name": "tokenIn",
          "type": "address"
        },
        {
          "internalType": "address",
          "name": "tokenOut",
          "type": "address"
        },
        {
          "internalType": "uint256",
          "name": "amountIn",
          "type": "uint256"
        },
        {
          "internalType": "uint256",
          "name": "minAmountOut",
          "type": "uint256"
        },
        {
          "internalType": "bytes",
          "name": "swapData",
          "type": "bytes"
        }
      ],
      "name": "swap",
      "outputs": [],
      "stateMutability": "payable",
      "type": "function"
    },
    {
      "inputs": [
        {
          "internalType": "address",
          "name": "tokenOut",
          "type": "address"
        },
        {
          "internalType": "uint256",
          "name": "minAmountOut",
          "type": "uint256"
        },
        {
          "internalType": "bytes",
          "name": "swapData",
          "type": "bytes"
        }
      ],
      "name": "swapETH",
      "outputs": [],
      "stateMutability": "payable",
      "type": "function"
    },
    {
      "inputs": [
        {
          "internalType": "address",
          "name": "tokenIn",
          "type": "address"
        },
        {
          "internalType": "uint256",
          "name": "amountIn",
          "type": "uint256"
        },
        {
          "internalType": "uint256",
          "name": "minAmountOut",
          "type": "uint256"
        },
        {
          "internalType": "bytes",
          "name": "swapData",
          "type": "bytes"
        }
      ],
      "name": "swapToETH",
      "outputs": [],
      "stateMutability": "payable",
      "type": "function"
    },
    {
      "inputs": [
        {
          "internalType": "address",
          "name": "newOwner",
          "type": "address"
        }
      ],
      "name": "transferOwnership",
      "outputs": [],
      "stateMutability": "nonpayable",
      "type": "function"
    },
    {
      "stateMutability": "payable",
      "type": "receive"
    }
  ],
  "bytecode": "0x60a0346100da57601f610e9c38819003918201601f19168301916001600160401b038311848410176100df578084926020946040528339810103126100da57516001600160a01b038082168083036100da57600160008181558154336001600160a01b0319821681179093556040519416907f8be0079c531659141344cd1fd0a4f28419497f9722a3daafe3b4186f6b6457e09080a3156100cb5750608052604051610da690816100f682396080518181816102f4015281816105b10152818161063301526107730152f35b630f58058360e11b8152600490fd5b600080fd5b634e487b7160e01b600052604160045260246000fdfe60406080815260049081361015610020575b5050361561001e57600080fd5b005b600091823560e01c80632506c01814610662578063444784251461061e578063481eaf63146104a7578063596bfce81461048a578063715018a61461042d5780638da5cb5b1461040457806395ccea671461038a578063b9dac726146101c0578063c0f03105146101695763f2fde38b1461009b5750610011565b34610165576020366003190112610165576100b46107d2565b906100bd61081b565b6001600160a01b03918216928315610113575050600154826bffffffffffffffffffffffff60a01b821617600155167f8be0079c531659141344cd1fd0a4f28419497f9722a3daafe3b4186f6b6457e08380a380f35b906020608492519162461bcd60e51b8352820152602660248201527f4f776e61626c653a206e6577206f776e657220697320746865207a65726f206160448201526564647265737360d01b6064820152fd5b8280fd5b5082346101bd5760203660031901126101bd576101873a8335610896565b91611388928381029381850414901517156101aa57602083612710865191048152f35b634e487b7160e01b825260119052602490fd5b80fd5b5082906060366003190112610386576101d76107d2565b9060443567ffffffffffffffff8111610382576101f790369083016107ed565b92610200610921565b6001600160a01b0316928315610372573415610362578480915a9381895192839283378101838152039034305af16102366108e1565b901561034e5760208180518101031261035e576020015190602435821061034e5761026561026c915a90610873565b3a90610896565b946113889586810296818804149015171561033b5761271085969594950492836102ea575b50816102e0916102c37fad671c9d50262b75ba17bdf7e330ae0d7da971800b2526584a85f83d23296b15943389610977565b513481526020810194909452604084015233929081906060820190565b0390a46001815580f35b90919293808080877f00000000000000000000000000000000000000000000000000000000000000005af161031d6108e1565b501561032d579085939291610291565b90516312171d8360e31b8152fd5b634e487b7160e01b855260118352602485fd5b855163081ceff360e41b81528390fd5b8480fd5b855163162908e360e11b81528390fd5b8551630f58058360e11b81528390fd5b8380fd5b5080fd5b509034610165578060031936011261016557826103a56107d2565b602435906103b161081b565b6001600160a01b03908116806103ed57508280928192600154165af16103d56108e1565b50156103e057505080f35b516312171d8360e31b8152fd5b925090925061040193506001541690610977565b80f35b50503461038657816003193601126103865760015490516001600160a01b039091168152602090f35b83346101bd57806003193601126101bd5761044661081b565b600180546001600160a01b0319811690915581906001600160a01b03167f8be0079c531659141344cd1fd0a4f28419497f9722a3daafe3b4186f6b6457e08280a380f35b505034610386578160031936011261038657602090516113888152f35b5091906080366003190112610386576104be6107d2565b926024359060643567ffffffffffffffff811161035e576104e290369083016107ed565b6104ed949194610921565b6001600160a01b03871694851561060f5784156106005761052761052f92610265925a9a61051d8930338d6109c1565b8860443591610bf2565b975a90610873565b611388908181029181830414901517156105ed57612710900491826105aa575b858080808a335af161055f6108e1565b501561032d57505191825260208201526040810193909352909182919033907fad671c9d50262b75ba17bdf7e330ae0d7da971800b2526584a85f83d23296b159080606081016102e0565b85808080867f00000000000000000000000000000000000000000000000000000000000000005af16105da6108e1565b5061054f5790516312171d8360e31b8152fd5b634e487b7160e01b865260118352602486fd5b50505163162908e360e11b8152fd5b505051630f58058360e11b8152fd5b505034610386578160031936011261038657517f00000000000000000000000000000000000000000000000000000000000000006001600160a01b03168152602090f35b5060a0366003190112610165576106776107d2565b916024359260018060a01b03928385168095036107ce576044359260843567ffffffffffffffff81116107ca576106b190369084016107ed565b90956106bb610921565b841695861580156107c2575b61060f578515610600576106f46106fc92610265925a976106ea8a30338e6109c1565b8960643591610bf2565b945a90610873565b611388908181029181830414901517156107af576127109004918261076c575b50906102e0839261074f7fad671c9d50262b75ba17bdf7e330ae0d7da971800b2526584a85f83d23296b1595338a610977565b519283923396846040919493926060820195825260208201520152565b87808080867f00000000000000000000000000000000000000000000000000000000000000005af161079c6108e1565b5061071c5790516312171d8360e31b8152fd5b634e487b7160e01b885260118352602488fd5b5087156106c7565b8780fd5b8580fd5b600435906001600160a01b03821682036107e857565b600080fd5b9181601f840112156107e85782359167ffffffffffffffff83116107e857602083818601950101116107e857565b6001546001600160a01b0316330361082f57565b606460405162461bcd60e51b815260206004820152602060248201527f4f776e61626c653a2063616c6c6572206973206e6f7420746865206f776e65726044820152fd5b9190820391821161088057565b634e487b7160e01b600052601160045260246000fd5b8181029291811591840414171561088057565b90601f8019910116810190811067ffffffffffffffff8211176108cb57604052565b634e487b7160e01b600052604160045260246000fd5b3d1561091c573d9067ffffffffffffffff82116108cb5760405191610910601f8201601f1916602001846108a9565b82523d6000602084013e565b606090565b600260005414610932576002600055565b60405162461bcd60e51b815260206004820152601f60248201527f5265656e7472616e637947756172643a207265656e7472616e742063616c6c006044820152606490fd5b60405163a9059cbb60e01b60208201526001600160a01b03909216602483015260448201929092526109bf916109ba82606481015b03601f1981018452836108a9565b610a16565b565b6040516323b872dd60e01b60208201526001600160a01b03928316602482015292909116604483015260648083019390935291815260a081019181831067ffffffffffffffff8411176108cb576109bf926040525b60018060a01b031690604051604081019080821067ffffffffffffffff8311176108cb57610a88916040526020938482527f5361666545524332303a206c6f772d6c6576656c2063616c6c206661696c6564858301526000808587829751910182855af1610a826108e1565b91610b1e565b805191821591848315610afa575b505050905015610aa35750565b6084906040519062461bcd60e51b82526004820152602a60248201527f5361666545524332303a204552433230206f7065726174696f6e20646964206e6044820152691bdd081cdd58d8d9595960b21b6064820152fd5b919381809450010312610386578201519081151582036101bd575080388084610a96565b91929015610b805750815115610b32575090565b3b15610b3b5790565b60405162461bcd60e51b815260206004820152601d60248201527f416464726573733a2063616c6c20746f206e6f6e2d636f6e74726163740000006044820152606490fd5b825190915015610b935750805190602001fd5b6040519062461bcd60e51b82528160208060048301528251908160248401526000935b828510610bd9575050604492506000838284010152601f80199101168101030190fd5b8481018201518686016044015293810193859350610bb6565b919392916001600160a01b03169080158015610cf9575b15610c955760405163095ea7b360e01b60208201523060248201526044810191909152610c3d916109ba82606481016109ac565b816040519283928337810160009283928284809452039082305af190610c616108e1565b9115610c83576020828051810103126101bd575060200151908110610c835790565b60405163081ceff360e41b8152600490fd5b60405162461bcd60e51b815260206004820152603660248201527f5361666545524332303a20617070726f76652066726f6d206e6f6e2d7a65726f60448201527520746f206e6f6e2d7a65726f20616c6c6f77616e636560501b6064820152608490fd5b50604051636eb1769f60e11b815230600482018190526024820152602081604481865afa908115610d6457600091610d33575b5015610c09565b906020823d8211610d5c575b81610d4c602093836108a9565b810103126101bd57505138610d2c565b3d9150610d3f565b6040513d6000823e3d90fdfea2646970667358221220808632c2cb162609175f959c6c15d90b73960941451ebc2707bf76dc1940d50d64736f6c63430008130033",
  "linkReferences": {},
  "deployedLinkReferences": {}
}