{
  "_format": "hh-sol-artifact-1",
  "contractName": "SplenexLiFiWrapperV3",
  "sourceName": "contracts/SplenexLiFiWrapperV3.sol",
  "abi": [
    {
      "inputs": [
        {
          "internalType": "address",
          "name": "_revenueWallet",
          "type": "address"
        },
        {
          "internalType": "uint256",
          "name": "_initialFeeBps",
          "type": "uint256"
        }
      ],
      "stateMutability": "nonpayable",
      "type": "constructor"
    },
    {
      "inputs": [],
      "name": "InvalidAmount",
      "type": "error"
    },
    {
      "inputs": [],
      "name": "InvalidFee",
      "type": "error"
    },
    {
      "inputs": [],
      "name": "TransferFailed",
      "type": "error"
    },
    {
      "anonymous": false,
      "inputs": [
        {
          "indexed": false,
          "internalType": "uint256",
          "name": "oldFee",
          "type": "uint256"
        },
        {
          "indexed": false,
          "internalType": "uint256",
          "name": "newFee",
          "type": "uint256"
        }
      ],
      "name": "FeeUpdated",
      "type": "event"
    },
    {
      "anonymous": false,
      "inputs": [
        {
          "indexed": true,
          "internalType": "address",
          "name": "user",
          "type": "address"
        },
        {
          "indexed": true,
          "internalType": "address",
          "name": "token",
          "type": "address"
        },
        {
          "indexed": false,
          "internalType": "uint256",
          "name": "totalAmount",
          "type": "uint256"
        },
        {
          "indexed": false,
          "internalType": "uint256",
          "name": "feeAmount",
          "type": "uint256"
        },
        {
          "indexed": false,
          "internalType": "uint256",
          "name": "remainingAmount",
          "type": "uint256"
        }
      ],
      "name": "FeesCollected",
      "type": "event"
    },
    {
      "anonymous": false,
      "inputs": [
        {
          "indexed": true,
          "internalType": "address",
          "name": "previousOwner",
          "type": "address"
        },
        {
          "indexed": true,
          "internalType": "address",
          "name": "newOwner",
          "type": "address"
        }
      ],
      "name": "OwnershipTransferred",
      "type": "event"
    },
    {
      "inputs": [],
      "name": "MAX_FEE_BPS",
      "outputs": [
        {
          "internalType": "uint256",
          "name": "",
          "type": "uint256"
        }
      ],
      "stateMutability": "view",
      "type": "function"
    },
    {
      "inputs": [
        {
          "internalType": "address",
          "name": "tokenIn",
          "type": "address"
        },
        {
          "internalType": "uint256",
          "name": "amountIn",
          "type": "uint256"
        }
      ],
      "name": "collectFee",
      "outputs": [
        {
          "internalType": "uint256",
          "name": "amountAfterFee",
          "type": "uint256"
        }
      ],
      "stateMutability": "nonpayable",
      "type": "function"
    },
    {
      "inputs": [],
      "name": "collectFeeNative",
      "outputs": [
        {
          "internalType": "uint256",
          "name": "amountAfterFee",
          "type": "uint256"
        }
      ],
      "stateMutability": "payable",
      "type": "function"
    },
    {
      "inputs": [
        {
          "internalType": "address",
          "name": "token",
          "type": "address"
        },
        {
          "internalType": "uint256",
          "name": "amount",
          "type": "uint256"
        }
      ],
      "name": "emergencyWithdraw",
      "outputs": [],
      "stateMutability": "nonpayable",
      "type": "function"
    },
    {
      "inputs": [],
      "name": "feeBps",
      "outputs": [
        {
          "internalType": "uint256",
          "name": "",
          "type": "uint256"
        }
      ],
      "stateMutability": "view",
      "type": "function"
    },
    {
      "inputs": [],
      "name": "owner",
      "outputs": [
        {
          "internalType": "address",
          "name": "",
          "type": "address"
        }
      ],
      "stateMutability": "view",
      "type": "function"
    },
    {
      "inputs": [],
      "name": "renounceOwnership",
      "outputs": [],
      "stateMutability": "nonpayable",
      "type": "function"
    },
    {
      "inputs": [],
      "name": "revenueWallet",
      "outputs": [
        {
          "internalType": "address",
          "name": "",
          "type": "address"
        }
      ],
      "stateMutability": "view",
      "type": "function"
    },
    {
      "inputs": [
        {
          "internalType": "uint256",
          "name": "newFeeBps",
          "type": "uint256"
        }
      ],
      "name": "setFeeBps",
      "outputs": [],
      "stateMutability": "nonpayable",
      "type": "function"
    },
    {
      "inputs": [
        {
          "internalType": "address",
          "name": "newOwner",
          "type": "address"
        }
      ],
      "name": "transferOwnership",
      "outputs": [],
      "stateMutability": "nonpayable",
      "type": "function"
    },
    {
      "stateMutability": "payable",
      "type": "receive"
    }
  ],
  "bytecode": "0x60a0346100f657601f610a8d38819003918201601f19168301916001600160401b038311848410176100fb5780849260409485528339810103126100f65780516001600160a01b03808216928383036100f657602001519260016000556001543360018060a01b0319821617600155604051923391167f8be0079c531659141344cd1fd0a4f28419497f9722a3daafe3b4186f6b6457e0600080a3156100e757506101f482116100d55760805260025560405161097b908161011282396080518181816103100152818161044c015261056e0152f35b6040516358d620b360e01b8152600490fd5b6312171d8360e31b8152600490fd5b600080fd5b634e487b7160e01b600052604160045260246000fdfe60406080815260049081361015610020575b5050361561001e57600080fd5b005b600091823560e01c806314428589146104b857806324a9d853146104995780632ec0ff6c1461033f57806344478425146102fb578063715018a61461029b57806372c27b621461022d5780638da5cb5b1461020457806395ccea671461018a578063d55be8c6146101695763f2fde38b1461009b5750610011565b34610165576020366003190112610165576100b46105b7565b906100bd6105d2565b6001600160a01b03918216928315610113575050600154826bffffffffffffffffffffffff60a01b821617600155167f8be0079c531659141344cd1fd0a4f28419497f9722a3daafe3b4186f6b6457e08380a380f35b906020608492519162461bcd60e51b8352820152602660248201527f4f776e61626c653a206e6577206f776e657220697320746865207a65726f206160448201526564647265737360d01b6064820152fd5b8280fd5b505034610186578160031936011261018657602090516101f48152f35b5080fd5b509034610165578060031936011261016557826101a56105b7565b602435906101b16105d2565b6001600160a01b03908116806101ed57508280928192600154165af16101d5610826565b50156101e057505080f35b516312171d8360e31b8152fd5b9250909250610201935060015416906106b6565b80f35b50503461018657816003193601126101865760015490516001600160a01b039091168152602090f35b50346101655760203660031901126101655780359061024a6105d2565b6101f4821161028d5750907f528d9479e9f9889a87a3c30c7f7ba537e5e59c4c85a37733b16e57c62df6130291600254908060025582519182526020820152a180f35b82516358d620b360e01b8152fd5b83346102f857806003193601126102f8576102b46105d2565b600180546001600160a01b0319811690915581906001600160a01b03167f8be0079c531659141344cd1fd0a4f28419497f9722a3daafe3b4186f6b6457e08280a380f35b80fd5b505034610186578160031936011261018657517f00000000000000000000000000000000000000000000000000000000000000006001600160a01b03168152602090f35b5091903461018657806003193601126101865761035a6105b7565b9160243592610367610660565b83156104895782516323b872dd60e01b6020820152336024820152306044820152606480820186905281526001600160a01b03919091169060a0810167ffffffffffffffff811182821017610476576020965060019392916103cb9186528261071e565b6127106103da6002548761062a565b04947fde5d657c00d557886c53e267ff792a157187bc1c5947bd02cb62159550edb08e6104078783610653565b878198610446575b81610436575b875193845260208401526040830152339180606081015b0390a35551908152f35b6104418233876106b6565b610415565b610471817f0000000000000000000000000000000000000000000000000000000000000000876106b6565b61040f565b634e487b7160e01b845260418752602484fd5b825163162908e360e11b81528590fd5b5050346101865781600319360112610186576020906002549051908152f35b509082600319360112610165576104cd610660565b34156105aa576127106104e26002543461062a565b046104ed8134610653565b9281610567575b83610544575b50836020946001927fde5d657c00d557886c53e267ff792a157187bc1c5947bd02cb62159550edb08e85518061042c89339534846040919493926060820195825260208201520152565b8480808087335af1610554610826565b506104fa5782516312171d8360e31b8152fd5b84808080857f00000000000000000000000000000000000000000000000000000000000000005af1610597610826565b506104f45782516312171d8360e31b8152fd5b5163162908e360e11b8152fd5b600435906001600160a01b03821682036105cd57565b600080fd5b6001546001600160a01b031633036105e657565b606460405162461bcd60e51b815260206004820152602060248201527f4f776e61626c653a2063616c6c6572206973206e6f7420746865206f776e65726044820152fd5b8181029291811591840414171561063d57565b634e487b7160e01b600052601160045260246000fd5b9190820391821161063d57565b600260005414610671576002600055565b60405162461bcd60e51b815260206004820152601f60248201527f5265656e7472616e637947756172643a207265656e7472616e742063616c6c006044820152606490fd5b60405163a9059cbb60e01b60208201526001600160a01b039092166024830152604480830193909352918152608081019167ffffffffffffffff831182841017610708576107069260405261071e565b565b634e487b7160e01b600052604160045260246000fd5b60018060a01b031690604051604081019080821067ffffffffffffffff83111761070857610790916040526020938482527f5361666545524332303a206c6f772d6c6576656c2063616c6c206661696c6564858301526000808587829751910182855af161078a610826565b91610871565b805191821591848315610802575b5050509050156107ab5750565b6084906040519062461bcd60e51b82526004820152602a60248201527f5361666545524332303a204552433230206f7065726174696f6e20646964206e6044820152691bdd081cdd58d8d9595960b21b6064820152fd5b919381809450010312610186578201519081151582036102f857508038808461079e565b3d1561086c5767ffffffffffffffff903d8281116107085760405192601f8201601f19908116603f01168401908111848210176107085760405282523d6000602084013e565b606090565b919290156108d35750815115610885575090565b3b1561088e5790565b60405162461bcd60e51b815260206004820152601d60248201527f416464726573733a2063616c6c20746f206e6f6e2d636f6e74726163740000006044820152606490fd5b8251909150156108e65750805190602001fd5b6040519062461bcd60e51b82528160208060048301528251908160248401526000935b82851061092c575050604492506000838284010152601f80199101168101030190fd5b848101820151868601604401529381019385935061090956fea2646970667358221220f5de4dbc5368562df74005b5fb23db90ea9d2d1d5719af5982a6d53763dfeea164736f6c63430008130033",
  "linkReferences": {},
  "deployedLinkReferences": {}
}