{
  "_format": "hh-sol-artifact-1",
  "contractName": "RevenueSplitter",
  "sourceName": "contracts/RevenueSplitter.sol",
  "abi": [
    {
      "anonymous": false,
      "inputs": [
        {
          "indexed": true,
          "internalType": "address",
          "name": "user",
          "type": "address"
        },
        {
          "indexed": true,
          "internalType": "address",
          "name": "originalRecipient",
          "type": "address"
        },
        {
          "indexed": false,
          "internalType": "uint256",
          "name": "originalAmount",
          "type": "uint256"
        },
        {
          "indexed": false,
          "internalType": "uint256",
          "name": "revenueAmount",
          "type": "uint256"
        },
        {
          "indexed": false,
          "internalType": "uint256",
          "name": "totalAmount",
          "type": "uint256"
        }
      ],
      "name": "RevenueSplit",
      "type": "event"
    },
    {
      "inputs": [],
      "name": "REVENUE_PERCENTAGE",
      "outputs": [
        {
          "internalType": "uint256",
          "name": "",
          "type": "uint256"
        }
      ],
      "stateMutability": "view",
      "type": "function"
    },
    {
      "inputs": [],
      "name": "REVENUE_WALLET",
      "outputs": [
        {
          "internalType": "address",
          "name": "",
          "type": "address"
        }
      ],
      "stateMutability": "view",
      "type": "function"
    },
    {
      "inputs": [],
      "name": "getRevenuePercentage",
      "outputs": [
        {
          "internalType": "uint256",
          "name": "",
          "type": "uint256"
        }
      ],
      "stateMutability": "pure",
      "type": "function"
    },
    {
      "inputs": [],
      "name": "getRevenueWallet",
      "outputs": [
        {
          "internalType": "address",
          "name": "",
          "type": "address"
        }
      ],
      "stateMutability": "pure",
      "type": "function"
    },
    {
      "inputs": [
        {
          "internalType": "address",
          "name": "recipient",
          "type": "address"
        }
      ],
      "name": "splitRevenue",
      "outputs": [],
      "stateMutability": "payable",
      "type": "function"
    },
    {
      "stateMutability": "payable",
      "type": "receive"
    }
  ],
  "bytecode": "0x608080604052346100165761049f908161001c8239f35b600080fdfe60806040908082526004361015610107575b50361561001d57600080fd5b34159061002a8215610327565b603234029134830460321417156100f1577f9a89513c0f704cf2ac6de81ba9c12f6c6a4f828c8b8efcf5f78ba1420c1d82b66100ae606473d9bd71aa48872430c54730a2d412918ab01cb1cc9404926100838434610363565b90846100d2575b816100b3575b51908152602081019390935234604084015233929081906060820190565b0390a3005b6100cd600080808086335af16100c7610370565b5061041d565b610090565b6100ec6000808080898b5af16100e6610370565b506103d1565b61008a565b634e487b7160e01b600052601160045260246000fd5b600090813560e01c908163110282db1461030c57508063159485d6146102dd578063b6fa49b0146102c1578063d711da59146101795763f3cd3798036100115790346101755781600319360112610175576020905173d9bd71aa48872430c54730a2d412918ab01cb1cc8152f35b5080fd5b50906020366003190112610175576004356001600160a01b038116918282036102bd5734156101a88115610327565b8315610285576032340290348204603214171561027157847f9a89513c0f704cf2ac6de81ba9c12f6c6a4f828c8b8efcf5f78ba1420c1d82b69260646102259304946101f48634610363565b92839187610245575b8261022b575b5050505191829133953491846040919493926060820195825260208201520152565b0390a380f35b818061023d9481935af16100c7610370565b818738610203565b61026c828080808c73d9bd71aa48872430c54730a2d412918ab01cb1cc5af16100e6610370565b6101fd565b634e487b7160e01b85526011600452602485fd5b815162461bcd60e51b8152602060048201526011602482015270125b9d985b1a59081c9958da5c1a595b9d607a1b6044820152606490fd5b8380fd5b5090346101755781600319360112610175576020905160328152f35b5090346101755781600319360112610175576020905173d9bd71aa48872430c54730a2d412918ab01cb1cc8152f35b90503461017557816003193601126101755780603260209252f35b1561032e57565b60405162461bcd60e51b815260206004820152600d60248201526c139bc81d985b1d59481cd95b9d609a1b6044820152606490fd5b919082039182116100f157565b3d156103cc5767ffffffffffffffff903d8281116103b65760405192601f8201601f19908116603f01168401908111848210176103b65760405282523d6000602084013e565b634e487b7160e01b600052604160045260246000fd5b606090565b156103d857565b60405162461bcd60e51b815260206004820152601760248201527f526576656e7565207472616e73666572206661696c65640000000000000000006044820152606490fd5b1561042457565b60405162461bcd60e51b815260206004820152601f60248201527f4f726967696e616c20616d6f756e74207472616e73666572206661696c6564006044820152606490fdfea264697066735822122034b1c072dd7ed0787e96dc10f8c04d8c02af106d4a2c5ecb9438dc741149ef5b64736f6c63430008130033",
  "linkReferences": {},
  "deployedLinkReferences": {}
}