{
  "_format": "hh-sol-artifact-1",
  "contractName": "SplenexAdvancedSwapContractWithPermit",
  "sourceName": "contracts/SplenexAdvancedSwapContractWithPermit.sol",
  "abi": [
    {
      "inputs": [
        {
          "internalType": "address",
          "name": "_revenueWallet",
          "type": "address"
        }
      ],
      "stateMutability": "nonpayable",
      "type": "constructor"
    },
    {
      "inputs": [],
      "name": "InsufficientBalance",
      "type": "error"
    },
    {
      "inputs": [],
      "name": "InvalidAmount",
      "type": "error"
    },
    {
      "inputs": [],
      "name": "InvalidSignature",
      "type": "error"
    },
    {
      "inputs": [],
      "name": "InvalidTokenAddress",
      "type": "error"
    },
    {
      "inputs": [],
      "name": "SwapFailed",
      "type": "error"
    },
    {
      "inputs": [],
      "name": "TransferFailed",
      "type": "error"
    },
    {
      "anonymous": false,
      "inputs": [
        {
          "indexed": true,
          "internalType": "address",
          "name": "previousOwner",
          "type": "address"
        },
        {
          "indexed": true,
          "internalType": "address",
          "name": "newOwner",
          "type": "address"
        }
      ],
      "name": "OwnershipTransferred",
      "type": "event"
    },
    {
      "anonymous": false,
      "inputs": [
        {
          "indexed": true,
          "internalType": "address",
          "name": "user",
          "type": "address"
        },
        {
          "indexed": true,
          "internalType": "address",
          "name": "tokenIn",
          "type": "address"
        },
        {
          "indexed": true,
          "internalType": "address",
          "name": "tokenOut",
          "type": "address"
        },
        {
          "indexed": false,
          "internalType": "uint256",
          "name": "amountIn",
          "type": "uint256"
        },
        {
          "indexed": false,
          "internalType": "uint256",
          "name": "gasFeeTax",
          "type": "uint256"
        },
        {
          "indexed": false,
          "internalType": "uint256",
          "name": "amountOut",
          "type": "uint256"
        },
        {
          "indexed": false,
          "internalType": "string",
          "name": "dexUsed",
          "type": "string"
        }
      ],
      "name": "SwapExecuted",
      "type": "event"
    },
    {
      "inputs": [],
      "name": "GAS_FEE_TAX_RATE_BPS",
      "outputs": [
        {
          "internalType": "uint256",
          "name": "",
          "type": "uint256"
        }
      ],
      "stateMutability": "view",
      "type": "function"
    },
    {
      "inputs": [],
      "name": "LIFI_CONTRACT",
      "outputs": [
        {
          "internalType": "address",
          "name": "",
          "type": "address"
        }
      ],
      "stateMutability": "view",
      "type": "function"
    },
    {
      "inputs": [],
      "name": "owner",
      "outputs": [
        {
          "internalType": "address",
          "name": "",
          "type": "address"
        }
      ],
      "stateMutability": "view",
      "type": "function"
    },
    {
      "inputs": [],
      "name": "renounceOwnership",
      "outputs": [],
      "stateMutability": "nonpayable",
      "type": "function"
    },
    {
      "inputs": [],
      "name": "revenueWallet",
      "outputs": [
        {
          "internalType": "address",
          "name": "",
          "type": "address"
        }
      ],
      "stateMutability": "view",
      "type": "function"
    },
    {
      "inputs": [
        {
          "internalType": "address",
          "name": "tokenIn",
          "type": "address"
        },
        {
          "internalType": "uint256",
          "name": "amountIn",
          "type": "uint256"
        },
        {
          "internalType": "bytes",
          "name": "liFiCalldata",
          "type": "bytes"
        },
        {
          "internalType": "address",
          "name": "toToken",
          "type": "address"
        },
        {
          "internalType": "uint256",
          "name": "minAmountOut",
          "type": "uint256"
        },
        {
          "internalType": "uint256",
          "name": "lifiExpectedAmount",
          "type": "uint256"
        },
        {
          "components": [
            {
              "internalType": "address",
              "name": "token",
              "type": "address"
            },
            {
              "internalType": "uint256",
              "name": "value",
              "type": "uint256"
            },
            {
              "internalType": "uint256",
              "name": "deadline",
              "type": "uint256"
            },
            {
              "internalType": "uint8",
              "name": "v",
              "type": "uint8"
            },
            {
              "internalType": "bytes32",
              "name": "r",
              "type": "bytes32"
            },
            {
              "internalType": "bytes32",
              "name": "s",
              "type": "bytes32"
            }
          ],
          "internalType": "struct PermitData",
          "name": "permitData",
          "type": "tuple"
        }
      ],
      "name": "swapTokenViaLiFiWithPermit",
      "outputs": [],
      "stateMutability": "payable",
      "type": "function"
    },
    {
      "inputs": [
        {
          "internalType": "bytes",
          "name": "liFiCalldata",
          "type": "bytes"
        },
        {
          "internalType": "address",
          "name": "toToken",
          "type": "address"
        },
        {
          "internalType": "uint256",
          "name": "minAmountOut",
          "type": "uint256"
        },
        {
          "internalType": "uint256",
          "name": "lifiExpectedAmount",
          "type": "uint256"
        },
        {
          "components": [
            {
              "internalType": "address",
              "name": "token",
              "type": "address"
            },
            {
              "internalType": "uint256",
              "name": "value",
              "type": "uint256"
            },
            {
              "internalType": "uint256",
              "name": "deadline",
              "type": "uint256"
            },
            {
              "internalType": "uint8",
              "name": "v",
              "type": "uint8"
            },
            {
              "internalType": "bytes32",
              "name": "r",
              "type": "bytes32"
            },
            {
              "internalType": "bytes32",
              "name": "s",
              "type": "bytes32"
            }
          ],
          "internalType": "struct PermitData",
          "name": "permitData",
          "type": "tuple"
        }
      ],
      "name": "swapViaLiFiWithPermit",
      "outputs": [],
      "stateMutability": "payable",
      "type": "function"
    },
    {
      "inputs": [
        {
          "internalType": "address",
          "name": "newOwner",
          "type": "address"
        }
      ],
      "name": "transferOwnership",
      "outputs": [],
      "stateMutability": "nonpayable",
      "type": "function"
    },
    {
      "stateMutability": "payable",
      "type": "receive"
    }
  ],
  "bytecode": "0x60a0346100d357601f610e2938819003918201601f19168301916001600160401b038311848410176100d8578084926020946040528339810103126100d357516001600160a01b038082168083036100d357600160008181558154336001600160a01b0319821681179093556040519416907f8be0079c531659141344cd1fd0a4f28419497f9722a3daafe3b4186f6b6457e09080a3156100c45750608052604051610d3a90816100ef823960805181818161020e0152818161032901526104f40152f35b630f58058360e11b8152600490fd5b600080fd5b634e487b7160e01b600052604160045260246000fdfe6080604052600436101561001b575b361561001957600080fd5b005b6000803560e01c908163108e3c991461009e57508063252af127146100995780634447842514610094578063596bfce81461008f578063715018a61461008a5780638da5cb5b14610085578063e3fff0d1146100805763f2fde38b0361000e576105a4565b6103fc565b6103d3565b610375565b610358565b610313565b610135565b346100cc57806003193601126100cc57731231deb6f5749ef6ce6943a275a1d3e7486f4eae60805260206080f35b80fd5b9181601f840112156100fd5782359167ffffffffffffffff83116100fd57602083818601950101116100fd57565b600080fd5b6001600160a01b038116036100fd57565b60c09060831901126100fd57608490565b60c09060c31901126100fd5760c490565b6101403660031901126100fd576004803567ffffffffffffffff81116100fd5761016290369083016100cf565b906024359261017084610102565b6064359361017d36610113565b906101866107e8565b6001600160a01b0316938415610302578560011c936101a585886106df565b928334106102f1576101c56101b9826106f1565b6001600160a01b031690565b6102e2575b506040519687806101e060009a8b9687966106fe565b0391731231deb6f5749ef6ce6943a275a1d3e7486f4eae5af1610201610765565b50156102d25784808080867f00000000000000000000000000000000000000000000000000000000000000005af1610237610765565b50156102c2579061024a859392346107a5565b80610292575b50507f724ef2525566d177428085a63ac07146a393ad3a7737e1a9c2349496a33764cf604051806102823394826107b2565b0390a461028f6001600055565b80f35b92808080939495335af16102a4610765565b50156102b35790818492610250565b6040516312171d8360e31b8152fd5b506040516312171d8360e31b8152fd5b5060405163081ceff360e41b8152fd5b6102eb90610c43565b386101ca565b604051631e9acf1760e31b81528590fd5b604051630f58058360e11b81528390fd5b346100fd5760003660031901126100fd576040517f00000000000000000000000000000000000000000000000000000000000000006001600160a01b03168152602090f35b346100fd5760003660031901126100fd5760206040516113888152f35b346100fd576000806003193601126100cc5761038f610671565b600180546001600160a01b0319811690915581906001600160a01b03167f8be0079c531659141344cd1fd0a4f28419497f9722a3daafe3b4186f6b6457e08280a380f35b346100fd5760003660031901126100fd576001546040516001600160a01b039091168152602090f35b6101803660031901126100fd576004803561041681610102565b60243560443567ffffffffffffffff81116100fd5761043890369085016100cf565b91909260643561044781610102565b60a4359561045436610124565b61045c6107e8565b6001600160a01b03938416958615801561059a575b610302578515610589578860011c9761048a898b6106df565b928334106102f15761049b90610c43565b6104a78730338b610872565b6104b18789610953565b604051998a806104c660009d8e9687966106fe565b0391731231deb6f5749ef6ce6943a275a1d3e7486f4eae5af16104e7610765565b50156102d257878080808a7f00000000000000000000000000000000000000000000000000000000000000005af161051d610765565b50156102c25761052e8891346107a5565b8061056d575b505050907f724ef2525566d177428085a63ac07146a393ad3a7737e1a9c2349496a33764cf91610282604051928392169633958361083e565b81808092335af161057c610765565b50156102b3578681610534565b60405163162908e360e11b81528390fd5b5084841615610471565b346100fd5760203660031901126100fd576004356105c181610102565b6105c9610671565b6001600160a01b0390811690811561061d57600154826bffffffffffffffffffffffff60a01b821617600155167f8be0079c531659141344cd1fd0a4f28419497f9722a3daafe3b4186f6b6457e0600080a3005b60405162461bcd60e51b815260206004820152602660248201527f4f776e61626c653a206e6577206f776e657220697320746865207a65726f206160448201526564647265737360d01b6064820152608490fd5b6001546001600160a01b0316330361068557565b606460405162461bcd60e51b815260206004820152602060248201527f4f776e61626c653a2063616c6c6572206973206e6f7420746865206f776e65726044820152fd5b634e487b7160e01b600052601160045260246000fd5b919082018092116106ec57565b6106c9565b356106fb81610102565b90565b908092918237016000815290565b634e487b7160e01b600052604160045260246000fd5b6040810190811067ffffffffffffffff82111761073e57604052565b61070c565b90601f8019910116810190811067ffffffffffffffff82111761073e57604052565b3d156107a0573d9067ffffffffffffffff821161073e5760405191610794601f8201601f191660200184610743565b82523d6000602084013e565b606090565b919082039182116106ec57565b6080906106fb92600082526020820152600060408201528160608201520160409060048152636c69666960e01b60208201520190565b6002600054146107f9576002600055565b60405162461bcd60e51b815260206004820152601f60248201527f5265656e7472616e637947756172643a207265656e7472616e742063616c6c006044820152606490fd5b6106fb9260809282526020820152600060408201528160608201520160409060048152636c69666960e01b60208201520190565b6040516323b872dd60e01b60208201526001600160a01b03928316602482015292909116604483015260648083019390935291815260a081019181831067ffffffffffffffff84111761073e576108cb92604052610a5e565b565b908160209103126100fd575190565b6040513d6000823e3d90fd5b156108ef57565b60405162461bcd60e51b815260206004820152603660248201527f5361666545524332303a20617070726f76652066726f6d206e6f6e2d7a65726f60448201527520746f206e6f6e2d7a65726f20616c6c6f77616e636560501b6064820152608490fd5b811580156109bf575b906109ba6108cb936109706109ac946108e8565b60405163095ea7b360e01b6020820152731231deb6f5749ef6ce6943a275a1d3e7486f4eae602482015260448101919091529283906064820190565b03601f198101845283610743565b610a5e565b50604051636eb1769f60e11b8152306004820152731231deb6f5749ef6ce6943a275a1d3e7486f4eae6024820152906020826044816001600160a01b0385165afa8015610a59576108cb936109706109ba926109ac95600091610a2b575b50159394505093505061095c565b610a4c915060203d8111610a52575b610a448183610743565b8101906108cd565b38610a1d565b503d610a3a565b6108dc565b60018060a01b031690610abd604051610a7681610722565b6020938482527f5361666545524332303a206c6f772d6c6576656c2063616c6c206661696c6564858301526000808587829751910182855af1610ab7610765565b91610ba3565b805191821591848315610b2f575b505050905015610ad85750565b6084906040519062461bcd60e51b82526004820152602a60248201527f5361666545524332303a204552433230206f7065726174696f6e20646964206e6044820152691bdd081cdd58d8d9595960b21b6064820152fd5b919381809450010312610b53578201519081151582036100cc575080388084610acb565b5080fd5b15610b5e57565b60405162461bcd60e51b815260206004820152601d60248201527f416464726573733a2063616c6c20746f206e6f6e2d636f6e74726163740000006044820152606490fd5b91929015610bc35750815115610bb7575090565b6106fb903b1515610b57565b825190915015610bd65750805190602001fd5b6040519062461bcd60e51b82528160208060048301528251908160248401526000935b828510610c1c575050604492506000838284010152601f80199101168101030190fd5b8481018201518686016044015293810193859350610bf9565b3560ff811681036100fd5790565b6001600160a01b03610c54826106f1565b1615610d0157600081610c6782936106f1565b9082610cd6610ce4610c7b60608501610c35565b6040805163d505accf60e01b6020808301918252336024840152306044840152880135606483015291870135608482015260ff90921660a4830152608086013560c483015260a09095013560e4820152918290610104820190565b03601f198101835282610743565b51925af1610cf0610765565b9015610cf95750565b805190602001fd5b5056fea26469706673582212208b938b65c5d1c64f5a34291567c642b1035dcf4b6ea1f42e05832a70dc928c1a64736f6c63430008130033",
  "linkReferences": {},
  "deployedLinkReferences": {}
}